{
  "contractName": "AdminContract",
  "abi": [
    {
      "inputs": [],
      "payable": false,
      "stateMutability": "nonpayable",
      "type": "constructor"
    },
    {
      "constant": false,
      "inputs": [],
      "name": "SetAdmin",
      "outputs": [
        {
          "name": "flag",
          "type": "bool"
        }
      ],
      "payable": false,
      "stateMutability": "nonpayable",
      "type": "function"
    },
    {
      "constant": false,
      "inputs": [],
      "name": "GetAdmin",
      "outputs": [
        {
          "name": "admin",
          "type": "address"
        }
      ],
      "payable": false,
      "stateMutability": "nonpayable",
      "type": "function"
    },
    {
      "constant": false,
      "inputs": [],
      "name": "GetAdminFlag",
      "outputs": [
        {
          "name": "",
          "type": "bool"
        }
      ],
      "payable": false,
      "stateMutability": "nonpayable",
      "type": "function"
    },
    {
      "constant": false,
      "inputs": [],
      "name": "AssertAdmin",
      "outputs": [
        {
          "name": "",
          "type": "bool"
        }
      ],
      "payable": false,
      "stateMutability": "nonpayable",
      "type": "function"
    }
  ],
  "bytecode": "0x606060405260008060146101000a81548160ff021916908315150217905550341561002957600080fd5b6102d5806100386000396000f300606060405260043610610062576000357c0100000000000000000000000000000000000000000000000000000000900463ffffffff168063490829ef1461006757806356f6ecb01461009457806357fce39d146100c1578063f018d4ad14610116575b600080fd5b341561007257600080fd5b61007a610143565b604051808215151515815260200191505060405180910390f35b341561009f57600080fd5b6100a7610159565b604051808215151515815260200191505060405180910390f35b34156100cc57600080fd5b6100d46101c1565b604051808273ffffffffffffffffffffffffffffffffffffffff1673ffffffffffffffffffffffffffffffffffffffff16815260200191505060405180910390f35b341561012157600080fd5b610129610245565b604051808215151515815260200191505060405180910390f35b60008060149054906101000a900460ff16905090565b60003373ffffffffffffffffffffffffffffffffffffffff166000809054906101000a900473ffffffffffffffffffffffffffffffffffffffff1673ffffffffffffffffffffffffffffffffffffffff1614156101b957600190506101be565b600090505b90565b60008060009054906101000a900473ffffffffffffffffffffffffffffffffffffffff1673ffffffffffffffffffffffffffffffffffffffff163373ffffffffffffffffffffffffffffffffffffffff1614151561021e57600080fd5b6000809054906101000a900473ffffffffffffffffffffffffffffffffffffffff16905090565b6000336000806101000a81548173ffffffffffffffffffffffffffffffffffffffff021916908373ffffffffffffffffffffffffffffffffffffffff1602179055506001600060146101000a81548160ff02191690831515021790555060019050905600a165627a7a72305820533af6e5f8387c065c4bd24017b239fe2979f101ebfea2117ddc2eaf809f4bb50029",
  "source": "//Контракт, содержащий данные об администраторе\n\npragma solidity ^0.4.18;\n\ncontract AdminContract {\n    address Admin;\n    bool adminFlag = false;\n\n    function AdminContract() public {\n\n    }\n\n    function SetAdmin() returns (bool flag){\n        Admin = msg.sender;\n        adminFlag = true;\n        return true;\n    }\n\n    modifier onlyAdmin {\n        if(msg.sender != Admin) throw;\n        _;\n    }\n\n    function GetAdmin() onlyAdmin returns(address admin)\n    {\n        return(Admin);\n    }\n\n    function GetAdminFlag() returns(bool){\n        return(adminFlag);\n    }\n\n    function AssertAdmin() returns (bool){\n        if (Admin == msg.sender){\n            return true;\n        }else{\n            return false;\n        }\n    }\n}",
  "sourcePath": "/home/user/Documents/WorkFlow/contracts/AdminContract.sol",
  "compiler": {
    "name": "solc",
    "version": "0.4.19+commit.c4cbbb05.Emscripten.clang"
  },
  "schemaVersion": "2.0.0",
  "updatedAt": "2018-04-03T13:44:23.199Z"
}