{
  "contractName": "DepartmentContract",
  "abi": [
    {
      "constant": false,
      "inputs": [],
      "name": "GetAdminFlag",
      "outputs": [
        {
          "name": "",
          "type": "bool"
        }
      ],
      "payable": false,
      "stateMutability": "nonpayable",
      "type": "function"
    },
    {
      "constant": false,
      "inputs": [],
      "name": "AssertAdmin",
      "outputs": [
        {
          "name": "",
          "type": "bool"
        }
      ],
      "payable": false,
      "stateMutability": "nonpayable",
      "type": "function"
    },
    {
      "constant": false,
      "inputs": [],
      "name": "GetAdmin",
      "outputs": [
        {
          "name": "admin",
          "type": "address"
        }
      ],
      "payable": false,
      "stateMutability": "nonpayable",
      "type": "function"
    },
    {
      "constant": false,
      "inputs": [],
      "name": "SetAdmin",
      "outputs": [
        {
          "name": "flag",
          "type": "bool"
        }
      ],
      "payable": false,
      "stateMutability": "nonpayable",
      "type": "function"
    },
    {
      "inputs": [],
      "payable": false,
      "stateMutability": "nonpayable",
      "type": "constructor"
    },
    {
      "constant": false,
      "inputs": [
        {
          "name": "_title",
          "type": "string"
        }
      ],
      "name": "CreateDepartment",
      "outputs": [
        {
          "name": "",
          "type": "bool"
        }
      ],
      "payable": false,
      "stateMutability": "nonpayable",
      "type": "function"
    },
    {
      "constant": false,
      "inputs": [
        {
          "name": "_departmentId",
          "type": "uint256"
        },
        {
          "name": "_newTitle",
          "type": "string"
        }
      ],
      "name": "UpdateDepartment",
      "outputs": [
        {
          "name": "",
          "type": "bool"
        }
      ],
      "payable": false,
      "stateMutability": "nonpayable",
      "type": "function"
    },
    {
      "constant": false,
      "inputs": [],
      "name": "GetDepartmentNum",
      "outputs": [
        {
          "name": "departmentNumArray",
          "type": "uint256[]"
        }
      ],
      "payable": false,
      "stateMutability": "nonpayable",
      "type": "function"
    },
    {
      "constant": false,
      "inputs": [],
      "name": "GetActiveDepartmentNum",
      "outputs": [
        {
          "name": "departmentNumArray",
          "type": "uint256[]"
        }
      ],
      "payable": false,
      "stateMutability": "nonpayable",
      "type": "function"
    },
    {
      "constant": false,
      "inputs": [
        {
          "name": "_departmentId",
          "type": "uint256"
        }
      ],
      "name": "ViewDepartmentDetails",
      "outputs": [
        {
          "name": "ret_title",
          "type": "string"
        },
        {
          "name": "ret_status",
          "type": "bool"
        }
      ],
      "payable": false,
      "stateMutability": "nonpayable",
      "type": "function"
    },
    {
      "constant": false,
      "inputs": [],
      "name": "GetDepartmentArraySize",
      "outputs": [
        {
          "name": "",
          "type": "uint256[]"
        }
      ],
      "payable": false,
      "stateMutability": "nonpayable",
      "type": "function"
    },
    {
      "constant": false,
      "inputs": [
        {
          "name": "_num",
          "type": "uint256"
        }
      ],
      "name": "GetDepartmentFromDepartmentNum",
      "outputs": [
        {
          "name": "num",
          "type": "uint256"
        },
        {
          "name": "title",
          "type": "string"
        },
        {
          "name": "status",
          "type": "bool"
        }
      ],
      "payable": false,
      "stateMutability": "nonpayable",
      "type": "function"
    },
    {
      "constant": false,
      "inputs": [
        {
          "name": "_num",
          "type": "uint256"
        },
        {
          "name": "_newStatus",
          "type": "bool"
        }
      ],
      "name": "UpdateStatusDepartment",
      "outputs": [
        {
          "name": "updateStatus",
          "type": "bool"
        }
      ],
      "payable": false,
      "stateMutability": "nonpayable",
      "type": "function"
    }
  ],
  "bytecode": "0x606060405260008060146101000a81548160ff02191690831515021790555034156200002a57600080fd5b600060028054806001018281620000429190620004a7565b91600052602060002090600302016000606060405190810160405280600081526020016040805190810160405280601781526020017fd09ed182d0b4d0b5d0bb20d0a0d0b5d0b6d0b8d0bcd0b00000000000000000008152508152602001600115158152509091909150600082015181600001556020820151816001019080519060200190620000d4929190620004dc565b5060408201518160020160006101000a81548160ff021916908315150217905550505050600280548060010182816200010e9190620004a7565b9160005260206000209060030201600060606040519081016040528060018152602001606060405190810160405280603e81526020017fd098d0bdd184d0bed180d0bcd0b0d186d0b8d0bed0bdd0bdd0be2dd0b1d0b8d081526020017fb1d0bbd0b8d0bed182d187d0b5d0bdd18bd0b920d0bed182d0b4d0b5d0bb00008152508152602001600115158152509091909150600082015181600001556020820151816001019080519060200190620001c7929190620004dc565b5060408201518160020160006101000a81548160ff02191690831515021790555050505060028054806001018281620002019190620004a7565b91600052602060002090600302016000606060405190810160405280600281526020016040805190810160405280601f81526020017fd0a4d0b8d0bdd0b0d0bdd181d0bed0b2d18bd0b920d0bed182d0b4d0b5d0bb00815250815260200160011515815250909190915060008201518160000155602082015181600101908051906020019062000293929190620004dc565b5060408201518160020160006101000a81548160ff02191690831515021790555050505060028054806001018281620002cd9190620004a7565b9160005260206000209060030201600060606040519081016040528060038152602001608060405190810160405280605181526020017fd09ed182d0b4d0b5d0bb20d0bcd0b0d182d0b5d180d0b8d0b0d0bbd18cd0bdd081526020017fbe2dd182d0b5d185d0bdd0b8d187d0b5d181d0bad0bed0b3d0be20d0bed0b1d081526020017fb5d181d0bfd0b5d187d0b5d0bdd0b8d18f0000000000000000000000000000008152508152602001600115158152509091909150600082015181600001556020820151816001019080519060200190620003ac929190620004dc565b5060408201518160020160006101000a81548160ff02191690831515021790555050505060028054806001018281620003e69190620004a7565b91600052602060002090600302016000606060405190810160405280600481526020016040805190810160405280601b81526020017fd09ad0b0d184d0b5d0b4d180d0b02037333220d098d09ad0a1d0980000000000815250815260200160011515815250909190915060008201518160000155602082015181600101908051906020019062000478929190620004dc565b5060408201518160020160006101000a81548160ff021916908315150217905550505050600590505062000627565b815481835581811511620004d757600302816003028360005260206000209182019101620004d6919062000563565b5b505050565b828054600181600116156101000203166002900490600052602060002090601f016020900481019282601f106200051f57805160ff191683800117855562000550565b8280016001018555821562000550579182015b828111156200054f57825182559160200191906001019062000532565b5b5090506200055f9190620005b3565b5090565b620005b091905b80821115620005ac576000808201600090556001820160006200058e9190620005db565b6002820160006101000a81549060ff0219169055506003016200056a565b5090565b90565b620005d891905b80821115620005d4576000816000905550600101620005ba565b5090565b90565b50805460018160011615610100020316600290046000825580601f1062000603575062000624565b601f016020900490600052602060002090810190620006239190620005b3565b5b50565b610ec980620006376000396000f3006060604052600436106100ba576000357c0100000000000000000000000000000000000000000000000000000000900463ffffffff1680630b9bd2c6146100bf5780630e408dc61461016d57806346193a79146101d7578063490829ef1461027e57806356f6ecb0146102ab57806357fce39d146102d85780636457e9a91461032d5780639472cc28146103975780639f99d0611461040c578063ad267d3c14610452578063cedb2688146104d0578063f018d4ad1461053a575b600080fd5b34156100ca57600080fd5b6100e06004808035906020019091905050610567565b604051808481526020018060200183151515158152602001828103825284818151815260200191508051906020019080838360005b83811015610130578082015181840152602081019050610115565b50505050905090810190601f16801561015d5780820380516001836020036101000a031916815260200191505b5094505050505060405180910390f35b341561017857600080fd5b61018061068b565b6040518080602001828103825283818151815260200191508051906020019060200280838360005b838110156101c35780820151818401526020810190506101a8565b505050509050019250505060405180910390f35b34156101e257600080fd5b6101f86004808035906020019091905050610699565b604051808060200183151515158152602001828103825284818151815260200191508051906020019080838360005b83811015610242578082015181840152602081019050610227565b50505050905090810190601f16801561026f5780820380516001836020036101000a031916815260200191505b50935050505060405180910390f35b341561028957600080fd5b610291610799565b604051808215151515815260200191505060405180910390f35b34156102b657600080fd5b6102be6107af565b604051808215151515815260200191505060405180910390f35b34156102e357600080fd5b6102eb610817565b604051808273ffffffffffffffffffffffffffffffffffffffff1673ffffffffffffffffffffffffffffffffffffffff16815260200191505060405180910390f35b341561033857600080fd5b61034061089b565b6040518080602001828103825283818151815260200191508051906020019060200280838360005b83811015610383578082015181840152602081019050610368565b505050509050019250505060405180910390f35b34156103a257600080fd5b6103f2600480803590602001908201803590602001908080601f01602080910402602001604051908101604052809392919081815260200183838082843782019150505050505091905050610945565b604051808215151515815260200191505060405180910390f35b341561041757600080fd5b61043860048080359060200190919080351515906020019091905050610a54565b604051808215151515815260200191505060405180910390f35b341561045d57600080fd5b6104b6600480803590602001909190803590602001908201803590602001908080601f01602080910402602001604051908101604052809392919081815260200183838082843782019150505050505091905050610a98565b604051808215151515815260200191505060405180910390f35b34156104db57600080fd5b6104e3610ad9565b6040518080602001828103825283818151815260200191508051906020019060200280838360005b8381101561052657808201518184015260208101905061050b565b505050509050019250505060405180910390f35b341561054557600080fd5b61054d610bbd565b604051808215151515815260200191505060405180910390f35b6000610571610c21565b600060028481548110151561058257fe5b9060005260206000209060030201600001546002858154811015156105a357fe5b90600052602060002090600302016001016002868154811015156105c357fe5b906000526020600020906003020160020160009054906101000a900460ff16818054600181600116156101000203166002900480601f0160208091040260200160405190810160405280929190818152602001828054600181600116156101000203166002900480156106775780601f1061064c57610100808354040283529160200191610677565b820191906000526020600020905b81548152906001019060200180831161065a57829003601f168201915b505050505091509250925092509193909250565b610693610c35565b80905090565b6106a1610c21565b60006002838154811015156106b257fe5b90600052602060002090600302016001018054600181600116156101000203166002900480601f0160208091040260200160405190810160405280929190818152602001828054600181600116156101000203166002900480156107575780601f1061072c57610100808354040283529160200191610757565b820191906000526020600020905b81548152906001019060200180831161073a57829003601f168201915b5050505050915060028381548110151561076d57fe5b906000526020600020906003020160020160009054906101000a900460ff169050818191509150915091565b60008060149054906101000a900460ff16905090565b60003373ffffffffffffffffffffffffffffffffffffffff166000809054906101000a900473ffffffffffffffffffffffffffffffffffffffff1673ffffffffffffffffffffffffffffffffffffffff16141561080f5760019050610814565b600090505b90565b60008060009054906101000a900473ffffffffffffffffffffffffffffffffffffffff1673ffffffffffffffffffffffffffffffffffffffff163373ffffffffffffffffffffffffffffffffffffffff1614151561087457600080fd5b6000809054906101000a900473ffffffffffffffffffffffffffffffffffffffff16905090565b6108a3610c35565b600080600090505b6002805490508110156108ee578180548060010182816108cb9190610c49565b9160005260206000209001600060019091909150555080806001019150506108ab565b8180548060200260200160405190810160405280929190818152602001828054801561093957602002820191906000526020600020905b815481526020019060010190808311610925575b50505050509250505090565b600061094f610c75565b6060604051908101604052806004548152602001848152602001600115158152509050600280548060010182816109869190610c9f565b916000526020600020906003020160008390919091506000820151816000015560208201518160010190805190602001906109c2929190610cd1565b5060408201518160020160006101000a81548160ff021916908315150217905550505050600380548060010182816109fa9190610c49565b91600052602060002090016000600454909190915055506001806000600454815260200190815260200160002060006101000a81548160ff0219169083151502179055506001600454016004819055506001915050919050565b600081600284815481101515610a6657fe5b906000526020600020906003020160020160006101000a81548160ff0219169083151502179055506001905092915050565b600081600284815481101515610aaa57fe5b90600052602060002090600302016001019080519060200190610ace929190610d51565b506001905092915050565b610ae1610c35565b600080600090505b600280549050811015610b665760011515600282815481101515610b0957fe5b906000526020600020906003020160020160009054906101000a900460ff1615151415610b5957818054806001018281610b439190610c49565b9160005260206000209001600083909190915055505b8080600101915050610ae9565b81805480602002602001604051908101604052809291908181526020018280548015610bb157602002820191906000526020600020905b815481526020019060010190808311610b9d575b50505050509250505090565b6000336000806101000a81548173ffffffffffffffffffffffffffffffffffffffff021916908373ffffffffffffffffffffffffffffffffffffffff1602179055506001600060146101000a81548160ff0219169083151502179055506001905090565b602060405190810160405280600081525090565b602060405190810160405280600081525090565b815481835581811511610c7057818360005260206000209182019101610c6f9190610dd1565b5b505050565b60606040519081016040528060008152602001610c90610df6565b81526020016000151581525090565b815481835581811511610ccc57600302816003028360005260206000209182019101610ccb9190610e0a565b5b505050565b828054600181600116156101000203166002900490600052602060002090601f016020900481019282601f10610d1257805160ff1916838001178555610d40565b82800160010185558215610d40579182015b82811115610d3f578251825591602001919060010190610d24565b5b509050610d4d9190610dd1565b5090565b828054600181600116156101000203166002900490600052602060002090601f016020900481019282601f10610d9257805160ff1916838001178555610dc0565b82800160010185558215610dc0579182015b82811115610dbf578251825591602001919060010190610da4565b5b509050610dcd9190610dd1565b5090565b610df391905b80821115610def576000816000905550600101610dd7565b5090565b90565b602060405190810160405280600081525090565b610e5291905b80821115610e4e57600080820160009055600182016000610e319190610e55565b6002820160006101000a81549060ff021916905550600301610e10565b5090565b90565b50805460018160011615610100020316600290046000825580601f10610e7b5750610e9a565b601f016020900490600052602060002090810190610e999190610dd1565b5b505600a165627a7a72305820eb77738c88eba9789d59bfdb0be0f2ac443b7a28ae9a9d072f7d854dbd9db9080029",
  "source": "//Контракт, содержащий данные о должности сотрудников и функции для добавления и удаления должностей\n\npragma solidity ^0.4.18;\n\nimport \"./AdminContract.sol\";\n\ncontract DepartmentContract is AdminContract{\n\n    mapping (uint => bool) departmentNum_isDepartmentActive;\n\n    struct DepartmentStruct{\n        uint departmentId;\n        string departmentTitle;\n        bool departmentStatus;\n    }\n\n    DepartmentStruct[] departmentArray;\n    uint[] departmentNumArray;\n    uint departmentID;\n\n    function DepartmentContract() public{\n        departmentArray.push(DepartmentStruct(0, \"Отдел Режима\", true));\n        departmentArray.push(DepartmentStruct(1, \"Информационно-библиотченый отдел\", true));\n        departmentArray.push(DepartmentStruct(2, \"Финансовый отдел\", true));\n        departmentArray.push(DepartmentStruct(3, \"Отдел материально-технического обеспечения\", true));\n        departmentArray.push(DepartmentStruct(4, \"Кафедра 732 ИКСИ\", true));\n        uint departmentID = 5;\n    }\n\n    function CreateDepartment(string _title) returns (bool){\n        DepartmentStruct memory newDepartment = DepartmentStruct({departmentId:departmentID, departmentTitle:_title, departmentStatus: true});\n        departmentArray.push(newDepartment);\n        departmentNumArray.push(departmentID);\n        departmentNum_isDepartmentActive[departmentID] = true;\n        departmentID = departmentID + 1;\n        return true;\n    }\n\n    function UpdateDepartment(uint _departmentId, string _newTitle) returns (bool){\n        departmentArray[_departmentId].departmentTitle = _newTitle;\n        return true;\n    }\n\n    function GetDepartmentNum() returns (uint[] departmentNumArray){\n        return (departmentNumArray);\n    }\n\n    function GetActiveDepartmentNum() returns (uint[] departmentNumArray){\n        uint[] activeDepartmentNumArray;\n        for(uint i = 0; i < departmentArray.length; i++){\n            if(departmentArray[i].departmentStatus == true){\n                activeDepartmentNumArray.push(i);\n            }\n        }\n        return (activeDepartmentNumArray);\n    }\n\n    function ViewDepartmentDetails(uint _departmentId) returns (string ret_title, bool ret_status){\n        ret_title = departmentArray[_departmentId].departmentTitle;\n        ret_status = departmentArray[_departmentId].departmentStatus;\n        return (ret_title, ret_status);\n    }\n\n    function GetDepartmentArraySize() returns(uint[]){\n        uint[] res;\n        for (uint i = 0; i < departmentArray.length; i++){\n            res.push(1);\n        }\n        return(res);\n    }\n\n    function GetDepartmentFromDepartmentNum(uint _num) returns(\n        uint num,\n        string title,\n        bool status){\n            return (\n                departmentArray[_num].departmentId,\n                departmentArray[_num].departmentTitle,\n                departmentArray[_num].departmentStatus);\n    }\n\n    function UpdateStatusDepartment(uint _num, bool _newStatus) returns (bool updateStatus) {\n        departmentArray[_num].departmentStatus = _newStatus;\n        return true;\n    }\n}",
  "sourcePath": "/home/user/Documents/WorkFlow/contracts/DepartmentContract.sol",
  "compiler": {
    "name": "solc",
    "version": "0.4.19+commit.c4cbbb05.Emscripten.clang"
  },
  "schemaVersion": "2.0.0",
  "updatedAt": "2018-04-03T13:44:23.220Z"
}