{
  "contractName": "EmployerContract",
  "abi": [
    {
      "inputs": [],
      "payable": false,
      "stateMutability": "nonpayable",
      "type": "constructor"
    },
    {
      "constant": false,
      "inputs": [],
      "name": "RankCreater",
      "outputs": [
        {
          "name": "",
          "type": "bool"
        }
      ],
      "payable": false,
      "stateMutability": "nonpayable",
      "type": "function"
    },
    {
      "constant": false,
      "inputs": [
        {
          "name": "rankNum",
          "type": "uint256"
        }
      ],
      "name": "GetRankFromNum",
      "outputs": [
        {
          "name": "num",
          "type": "uint256"
        },
        {
          "name": "rank",
          "type": "string"
        }
      ],
      "payable": false,
      "stateMutability": "nonpayable",
      "type": "function"
    },
    {
      "constant": false,
      "inputs": [],
      "name": "GetRanks",
      "outputs": [
        {
          "name": "",
          "type": "uint256[]"
        }
      ],
      "payable": false,
      "stateMutability": "nonpayable",
      "type": "function"
    },
    {
      "constant": false,
      "inputs": [
        {
          "name": "_name",
          "type": "string"
        },
        {
          "name": "_family",
          "type": "string"
        },
        {
          "name": "_patronymic",
          "type": "string"
        },
        {
          "name": "_rank",
          "type": "string"
        }
      ],
      "name": "CreateEmployer",
      "outputs": [
        {
          "name": "createEmployer",
          "type": "bool"
        }
      ],
      "payable": false,
      "stateMutability": "nonpayable",
      "type": "function"
    },
    {
      "constant": false,
      "inputs": [
        {
          "name": "_newRank",
          "type": "string"
        }
      ],
      "name": "UpdateEmployer",
      "outputs": [
        {
          "name": "updateEmployer",
          "type": "bool"
        }
      ],
      "payable": false,
      "stateMutability": "nonpayable",
      "type": "function"
    },
    {
      "constant": false,
      "inputs": [
        {
          "name": "num",
          "type": "uint256"
        },
        {
          "name": "_newRank",
          "type": "string"
        }
      ],
      "name": "UpdateEmployerFromNum",
      "outputs": [
        {
          "name": "updateEmployer",
          "type": "bool"
        }
      ],
      "payable": false,
      "stateMutability": "nonpayable",
      "type": "function"
    },
    {
      "constant": false,
      "inputs": [
        {
          "name": "_employerNum",
          "type": "uint256"
        },
        {
          "name": "_newStatus",
          "type": "bool"
        }
      ],
      "name": "UpdateStatusEmployer",
      "outputs": [
        {
          "name": "updateStatus",
          "type": "bool"
        }
      ],
      "payable": false,
      "stateMutability": "nonpayable",
      "type": "function"
    },
    {
      "constant": false,
      "inputs": [
        {
          "name": "_postId",
          "type": "uint256"
        }
      ],
      "name": "ApplyPost",
      "outputs": [
        {
          "name": "apply",
          "type": "bool"
        }
      ],
      "payable": false,
      "stateMutability": "nonpayable",
      "type": "function"
    },
    {
      "constant": false,
      "inputs": [
        {
          "name": "_departmentId",
          "type": "uint256"
        }
      ],
      "name": "ApplyDepartment",
      "outputs": [
        {
          "name": "apply",
          "type": "bool"
        }
      ],
      "payable": false,
      "stateMutability": "nonpayable",
      "type": "function"
    },
    {
      "constant": false,
      "inputs": [
        {
          "name": "_newPostId",
          "type": "uint256"
        }
      ],
      "name": "UpdatePostEmployer",
      "outputs": [
        {
          "name": "update",
          "type": "bool"
        }
      ],
      "payable": false,
      "stateMutability": "nonpayable",
      "type": "function"
    },
    {
      "constant": false,
      "inputs": [
        {
          "name": "_newDepartmentId",
          "type": "uint256"
        }
      ],
      "name": "UpdateDepartmentEmployer",
      "outputs": [
        {
          "name": "update",
          "type": "bool"
        }
      ],
      "payable": false,
      "stateMutability": "nonpayable",
      "type": "function"
    },
    {
      "constant": false,
      "inputs": [],
      "name": "GetEmployerArraySize",
      "outputs": [
        {
          "name": "",
          "type": "uint256[]"
        }
      ],
      "payable": false,
      "stateMutability": "nonpayable",
      "type": "function"
    },
    {
      "constant": false,
      "inputs": [
        {
          "name": "_employerNum",
          "type": "uint256"
        }
      ],
      "name": "GetEmployerFromEmployerNum",
      "outputs": [
        {
          "name": "num",
          "type": "uint256"
        },
        {
          "name": "name",
          "type": "string"
        },
        {
          "name": "family",
          "type": "string"
        },
        {
          "name": "patronymic",
          "type": "string"
        },
        {
          "name": "rank",
          "type": "string"
        },
        {
          "name": "status",
          "type": "bool"
        }
      ],
      "payable": false,
      "stateMutability": "nonpayable",
      "type": "function"
    },
    {
      "constant": false,
      "inputs": [
        {
          "name": "_employerNum",
          "type": "uint256"
        }
      ],
      "name": "GetEmployerWorkplaceFromNum",
      "outputs": [
        {
          "name": "postId",
          "type": "uint256"
        },
        {
          "name": "departmentId",
          "type": "uint256"
        }
      ],
      "payable": false,
      "stateMutability": "nonpayable",
      "type": "function"
    },
    {
      "constant": false,
      "inputs": [],
      "name": "GetEmployerFromEmployerAddr",
      "outputs": [
        {
          "name": "num",
          "type": "uint256"
        },
        {
          "name": "name",
          "type": "string"
        },
        {
          "name": "family",
          "type": "string"
        },
        {
          "name": "patronymic",
          "type": "string"
        },
        {
          "name": "rank",
          "type": "string"
        },
        {
          "name": "status",
          "type": "bool"
        }
      ],
      "payable": false,
      "stateMutability": "nonpayable",
      "type": "function"
    },
    {
      "constant": false,
      "inputs": [],
      "name": "GetEmployerWorkplaceFromAddr",
      "outputs": [
        {
          "name": "postId",
          "type": "uint256"
        },
        {
          "name": "departmentId",
          "type": "uint256"
        }
      ],
      "payable": false,
      "stateMutability": "nonpayable",
      "type": "function"
    },
    {
      "constant": false,
      "inputs": [],
      "name": "GetEmployerNumFromEmployerAddr",
      "outputs": [
        {
          "name": "num",
          "type": "uint256"
        }
      ],
      "payable": false,
      "stateMutability": "nonpayable",
      "type": "function"
    }
  ],
  "bytecode": "0x606060405234156200001057600080fd5b6200002e620008bd6401000000000262001dcb176401000000009004565b50600380548060010182816200004591906200114e565b9160005260206000209060090201600061012060405190810160405280600081526020016040805190810160405280600881526020017fd098d0b2d0b0d0bd00000000000000000000000000000000000000000000000081525081526020016040805190810160405280600e81526020017fd09bd0b8d0bfd183d0b3d0b8d0bd00000000000000000000000000000000000081525081526020016040805190810160405280601a81526020017fd090d0bbd0b5d0bad181d0b0d0bdd0b4d180d0bed0b2d0b8d187000000000000815250815260200160018152602001600181526020016040805190810160405280600e81526020017fd0a0d18fd0b4d0bed0b2d0bed0b90000000000000000000000000000000000008152508152602001600081526020016001151581525090919091506000820151816000015560208201518160010190805190602001906200019e92919062001183565b506040820151816002019080519060200190620001bd92919062001183565b506060820151816003019080519060200190620001dc92919062001183565b506080820151816004015560a0820151816005015560c08201518160060190805190602001906200020f92919062001183565b5060e082015181600701556101008201518160080160006101000a81548160ff021916908315150217905550505050600380548060010182816200025491906200114e565b9160005260206000209060090201600061012060405190810160405280600181526020016040805190810160405280600c81526020017fd09cd0b8d185d0b0d0b8d0bb000000000000000000000000000000000000000081525081526020016040805190810160405280600a81526020017fd0a4d0bed0bbd0b5d0b20000000000000000000000000000000000000000000081525081526020016040805190810160405280601081526020017fd09fd0b5d182d180d0bed0b2d0b8d18700000000000000000000000000000000815250815260200160028152602001600281526020016040805190810160405280601081526020017fd095d184d180d0b5d0b9d182d0bed18000000000000000000000000000000000815250815260200160018152602001600115158152509091909150600082015181600001556020820151816001019080519060200190620003ad92919062001183565b506040820151816002019080519060200190620003cc92919062001183565b506060820151816003019080519060200190620003eb92919062001183565b506080820151816004015560a0820151816005015560c08201518160060190805190602001906200041e92919062001183565b5060e082015181600701556101008201518160080160006101000a81548160ff021916908315150217905550505050600380548060010182816200046391906200114e565b9160005260206000209060090201600061012060405190810160405280600281526020016040805190810160405280600c81526020017fd090d0bdd0b4d180d0b5d0b9000000000000000000000000000000000000000081525081526020016040805190810160405280600e81526020017fd094d0b5d0b2d18fd182d0bed0b200000000000000000000000000000000000081525081526020016040805190810160405280601481526020017fd092d0b8d0bad182d0bed180d0bed0b2d0b8d187000000000000000000000000815250815260200160038152602001600381526020016040805190810160405280601d81526020017fd09cd0bbd0b0d0b4d188d0b8d0b920d181d0b5d180d0b6d0b0d0bdd182000000815250815260200160028152602001600115158152509091909150600082015181600001556020820151816001019080519060200190620005bc92919062001183565b506040820151816002019080519060200190620005db92919062001183565b506060820151816003019080519060200190620005fa92919062001183565b506080820151816004015560a0820151816005015560c08201518160060190805190602001906200062d92919062001183565b5060e082015181600701556101008201518160080160006101000a81548160ff021916908315150217905550505050600380548060010182816200067291906200114e565b9160005260206000209060090201600061012060405190810160405280600381526020016040805190810160405280600e81526020017fd090d0bbd0b5d0bad181d0b5d0b900000000000000000000000000000000000081525081526020016040805190810160405280601081526020017fd09bd0b5d0bad181d183d181d0bed0b20000000000000000000000000000000081525081526020016040805190810160405280601281526020017fd0a2d180d0b8d0bdd0b5d0b5d0b2d0b8d1870000000000000000000000000000815250815260200160048152602001600481526020016040805190810160405280601d81526020017fd09cd0bbd0b0d0b4d188d0b8d0b920d181d0b5d180d0b6d0b0d0bdd182000000815250815260200160028152602001600115158152509091909150600082015181600001556020820151816001019080519060200190620007cb92919062001183565b506040820151816002019080519060200190620007ea92919062001183565b5060608201518160030190805190602001906200080992919062001183565b506080820151816004015560a0820151816005015560c08201518160060190805190602001906200083c92919062001183565b5060e082015181600701556101008201518160080160006101000a81548160ff021916908315150217905550505050600460058190555060026000803373ffffffffffffffffffffffffffffffffffffffff1673ffffffffffffffffffffffffffffffffffffffff1681526020019081526020016000208190555062001403565b600060048054806001018281620008d591906200120a565b916000526020600020900160006040805190810160405280600e81526020017fd0a0d18fd0b4d0bed0b2d0bed0b9000000000000000000000000000000000000815250909190915090805190602001906200093292919062001239565b5050600480548060010182816200094a91906200120a565b916000526020600020900160006040805190810160405280601081526020017fd095d184d180d0b5d0b9d182d0bed1800000000000000000000000000000000081525090919091509080519060200190620009a792919062001239565b505060048054806001018281620009bf91906200120a565b916000526020600020900160006040805190810160405280601d81526020017fd09cd0bbd0b0d0b4d188d0b8d0b920d0a1d0b5d180d0b6d0b0d0bdd1820000008152509091909150908051906020019062000a1c92919062001239565b50506004805480600101828162000a3491906200120a565b916000526020600020900160006040805190810160405280600e81526020017fd0a1d0b5d180d0b6d0b0d0bdd1820000000000000000000000000000000000008152509091909150908051906020019062000a9192919062001239565b50506004805480600101828162000aa991906200120a565b916000526020600020900160006040805190810160405280601d81526020017fd0a1d182d0b0d180d188d0b8d0b920d0a1d0b5d180d0b6d0b0d0bdd1820000008152509091909150908051906020019062000b0692919062001239565b50506004805480600101828162000b1e91906200120a565b916000526020600020900160006040805190810160405280601281526020017fd09fd180d0b0d0bfd0bed180d189d0b8d0ba00000000000000000000000000008152509091909150908051906020019062000b7b92919062001239565b50506004805480600101828162000b9391906200120a565b91600052602060002090016000606060405190810160405280602181526020017fd0a1d182d180d0b0d188d0b8d0b920d0bfd180d0b0d0bfd0bed180d189d0b8d081526020017fb9000000000000000000000000000000000000000000000000000000000000008152509091909150908051906020019062000c1792919062001239565b50506004805480600101828162000c2f91906200120a565b91600052602060002090016000606060405190810160405280602181526020017fd09cd0bbd0b0d0b4d188d0b8d0b920d0bbd0b5d0b9d182d0b5d0bdd0b0d0bdd181526020017f82000000000000000000000000000000000000000000000000000000000000008152509091909150908051906020019062000cb392919062001239565b50506004805480600101828162000ccb91906200120a565b916000526020600020900160006040805190810160405280601281526020017fd09bd0b5d0b9d182d0b5d0bdd0b0d0bdd18200000000000000000000000000008152509091909150908051906020019062000d2892919062001239565b50506004805480600101828162000d4091906200120a565b91600052602060002090016000606060405190810160405280602181526020017fd0a1d182d0b0d180d188d0b8d0b920d09bd0b5d0b9d182d0b5d0bdd0b0d0bdd181526020017f82000000000000000000000000000000000000000000000000000000000000008152509091909150908051906020019062000dc492919062001239565b50506004805480600101828162000ddc91906200120a565b916000526020600020900160006040805190810160405280600e81526020017fd09ad0b0d0bfd0b8d182d0b0d0bd0000000000000000000000000000000000008152509091909150908051906020019062000e3992919062001239565b50506004805480600101828162000e5191906200120a565b916000526020600020900160006040805190810160405280600a81526020017fd09cd0b0d0b9d0bed180000000000000000000000000000000000000000000008152509091909150908051906020019062000eae92919062001239565b50506004805480600101828162000ec691906200120a565b916000526020600020900160006040805190810160405280601881526020017fd09fd0bed0b4d0bfd0bed0bbd0bad0bed0b2d0bdd0b8d0ba00000000000000008152509091909150908051906020019062000f2392919062001239565b50506004805480600101828162000f3b91906200120a565b916000526020600020900160006040805190810160405280601281526020017fd09fd0bed0bbd0bad0bed0b2d0bdd0b8d0ba00000000000000000000000000008152509091909150908051906020019062000f9892919062001239565b50506004805480600101828162000fb091906200120a565b916000526020600020900160006040805190810160405280601981526020017fd093d0b5d0bdd0b5d180d0b0d0bb2dd09cd0b0d0b9d0bed18000000000000000815250909190915090805190602001906200100d92919062001239565b5050600480548060010182816200102591906200120a565b91600052602060002090016000606060405190810160405280602181526020017fd093d0b5d0bdd0b5d180d0b0d0bb2dd0bbd0b5d0b9d182d0b5d0bdd0b0d0bdd181526020017f820000000000000000000000000000000000000000000000000000000000000081525090919091509080519060200190620010a992919062001239565b505060048054806001018281620010c191906200120a565b91600052602060002090016000606060405190810160405280602181526020017fd093d0b5d0bdd0b5d180d0b0d0bb2dd0bfd0bed0bbd0bad0bed0b2d0bdd0b8d081526020017fba00000000000000000000000000000000000000000000000000000000000000815250909190915090805190602001906200114592919062001239565b50506001905090565b8154818355818115116200117e576009028160090283600052602060002091820191016200117d9190620012c0565b5b505050565b828054600181600116156101000203166002900490600052602060002090601f016020900481019282601f10620011c657805160ff1916838001178555620011f7565b82800160010185558215620011f7579182015b82811115620011f6578251825591602001919060010190620011d9565b5b5090506200120691906200135e565b5090565b815481835581811511620012345781836000526020600020918201910162001233919062001386565b5b505050565b828054600181600116156101000203166002900490600052602060002090601f016020900481019282601f106200127c57805160ff1916838001178555620012ad565b82800160010185558215620012ad579182015b82811115620012ac5782518255916020019190600101906200128f565b5b509050620012bc91906200135e565b5090565b6200135b91905b808211156200135757600080820160009055600182016000620012eb9190620013b7565b600282016000620012fd9190620013b7565b6003820160006200130f9190620013b7565b60048201600090556005820160009055600682016000620013319190620013b7565b60078201600090556008820160006101000a81549060ff021916905550600901620012c7565b5090565b90565b6200138391905b808211156200137f57600081600090555060010162001365565b5090565b90565b620013b491905b80821115620013b05760008181620013a69190620013b7565b506001016200138d565b5090565b90565b50805460018160011615610100020316600290046000825580601f10620013df575062001400565b601f016020900490600052602060002090810190620013ff91906200135e565b5b50565b612b4f80620014136000396000f3006060604052600436106100f1576000357c0100000000000000000000000000000000000000000000000000000000900463ffffffff1680630aa5e098146100f65780634279591f14610131578063535a6118146101d457806354759f091461021a57806354fc5fe21461025857806356ce27981461044a5780636a5f1b2a1461048557806373cc1d6c146105c35780637a078889146105fe578063810209eb1461062e578063897bdd2514610812578063a147ecf81461087c578063b7241d19146108b7578063b978b0b4146108e4578063bbec8db61461094e578063ec036876146109cc578063f806fc42146109f5575b600080fd5b341561010157600080fd5b6101176004808035906020019091905050610a6a565b604051808215151515815260200191505060405180910390f35b341561013c57600080fd5b6101526004808035906020019091905050610bfd565b6040518083815260200180602001828103825283818151815260200191508051906020019080838360005b8381101561019857808201518184015260208101905061017d565b50505050905090810190601f1680156101c55780820380516001836020036101000a031916815260200191505b50935050505060405180910390f35b34156101df57600080fd5b61020060048080359060200190919080351515906020019091905050610cc7565b604051808215151515815260200191505060405180910390f35b341561022557600080fd5b61023b6004808035906020019091905050610d0b565b604051808381526020018281526020019250505060405180910390f35b341561026357600080fd5b6102796004808035906020019091905050610d59565b60405180878152602001806020018060200180602001806020018615151515815260200185810385528a818151815260200191508051906020019080838360005b838110156102d55780820151818401526020810190506102ba565b50505050905090810190601f1680156103025780820380516001836020036101000a031916815260200191505b50858103845289818151815260200191508051906020019080838360005b8381101561033b578082015181840152602081019050610320565b50505050905090810190601f1680156103685780820380516001836020036101000a031916815260200191505b50858103835288818151815260200191508051906020019080838360005b838110156103a1578082015181840152602081019050610386565b50505050905090810190601f1680156103ce5780820380516001836020036101000a031916815260200191505b50858103825287818151815260200191508051906020019080838360005b838110156104075780820151818401526020810190506103ec565b50505050905090810190601f1680156104345780820380516001836020036101000a031916815260200191505b509a505050505050505050505060405180910390f35b341561045557600080fd5b61046b60048080359060200190919050506110d1565b604051808215151515815260200191505060405180910390f35b341561049057600080fd5b6105a9600480803590602001908201803590602001908080601f0160208091040260200160405190810160405280939291908181526020018383808284378201915050505050509190803590602001908201803590602001908080601f0160208091040260200160405190810160405280939291908181526020018383808284378201915050505050509190803590602001908201803590602001908080601f0160208091040260200160405190810160405280939291908181526020018383808284378201915050505050509190803590602001908201803590602001908080601f01602080910402602001604051908101604052809392919081815260200183838082843782019150505050505091905050611264565b604051808215151515815260200191505060405180910390f35b34156105ce57600080fd5b6105e46004808035906020019091905050611401565b604051808215151515815260200191505060405180910390f35b341561060957600080fd5b6106116115b7565b604051808381526020018281526020019250505060405180910390f35b341561063957600080fd5b610641611680565b60405180878152602001806020018060200180602001806020018615151515815260200185810385528a818151815260200191508051906020019080838360005b8381101561069d578082015181840152602081019050610682565b50505050905090810190601f1680156106ca5780820380516001836020036101000a031916815260200191505b50858103845289818151815260200191508051906020019080838360005b838110156107035780820151818401526020810190506106e8565b50505050905090810190601f1680156107305780820380516001836020036101000a031916815260200191505b50858103835288818151815260200191508051906020019080838360005b8381101561076957808201518184015260208101905061074e565b50505050905090810190601f1680156107965780820380516001836020036101000a031916815260200191505b50858103825287818151815260200191508051906020019080838360005b838110156107cf5780820151818401526020810190506107b4565b50505050905090810190601f1680156107fc5780820380516001836020036101000a031916815260200191505b509a505050505050505050505060405180910390f35b341561081d57600080fd5b610825611b6b565b6040518080602001828103825283818151815260200191508051906020019060200280838360005b8381101561086857808201518184015260208101905061084d565b505050509050019250505060405180910390f35b341561088757600080fd5b61089d6004808035906020019091905050611c15565b604051808215151515815260200191505060405180910390f35b34156108c257600080fd5b6108ca611dcb565b604051808215151515815260200191505060405180910390f35b34156108ef57600080fd5b6108f7612618565b6040518080602001828103825283818151815260200191508051906020019060200280838360005b8381101561093a57808201518184015260208101905061091f565b505050509050019250505060405180910390f35b341561095957600080fd5b6109b2600480803590602001909190803590602001908201803590602001908080601f016020809104026020016040519081016040528093929190818152602001838380828437820191505050505050919050506126c2565b604051808215151515815260200191505060405180910390f35b34156109d757600080fd5b6109df612703565b6040518082815260200191505060405180910390f35b3415610a0057600080fd5b610a50600480803590602001908201803590602001908080601f0160208091040260200160405190810160405280939291908181526020018383808284378201915050505050509190505061274c565b604051808215151515815260200191505060405180910390f35b600080600090505b6001600084815260200190815260200160002080549050811015610b17576000803373ffffffffffffffffffffffffffffffffffffffff1673ffffffffffffffffffffffffffffffffffffffff168152602001908152602001600020546001600085815260200190815260200160002082815481101515610aef57fe5b9060005260206000209001541415610b0a5760009150610bf7565b8080600101915050610a72565b600160008481526020019081526020016000208054806001018281610b3c91906127ca565b916000526020600020900160008060003373ffffffffffffffffffffffffffffffffffffffff1673ffffffffffffffffffffffffffffffffffffffff16815260200190815260200160002054909190915055508260036000803373ffffffffffffffffffffffffffffffffffffffff1673ffffffffffffffffffffffffffffffffffffffff16815260200190815260200160002054815481101515610bdd57fe5b906000526020600020906009020160040181905550600191505b50919050565b6000610c076127f6565b82600484815481101515610c1757fe5b9060005260206000209001808054600181600116156101000203166002900480601f016020809104026020016040519081016040528092919081815260200182805460018160011615610100020316600290048015610cb75780601f10610c8c57610100808354040283529160200191610cb7565b820191906000526020600020905b815481529060010190602001808311610c9a57829003601f168201915b5050505050905091509150915091565b600081600384815481101515610cd957fe5b906000526020600020906009020160080160006101000a81548160ff0219169083151502179055506001905092915050565b600080600383815481101515610d1d57fe5b906000526020600020906009020160040154600384815481101515610d3e57fe5b90600052602060002090600902016005015491509150915091565b6000610d636127f6565b610d6b6127f6565b610d736127f6565b610d7b6127f6565b6000600387815481101515610d8c57fe5b906000526020600020906009020160000154600388815481101515610dad57fe5b9060005260206000209060090201600101600389815481101515610dcd57fe5b906000526020600020906009020160020160038a815481101515610ded57fe5b906000526020600020906009020160030160038b815481101515610e0d57fe5b906000526020600020906009020160060160038c815481101515610e2d57fe5b906000526020600020906009020160080160009054906101000a900460ff16848054600181600116156101000203166002900480601f016020809104026020016040519081016040528092919081815260200182805460018160011615610100020316600290048015610ee15780601f10610eb657610100808354040283529160200191610ee1565b820191906000526020600020905b815481529060010190602001808311610ec457829003601f168201915b50505050509450838054600181600116156101000203166002900480601f016020809104026020016040519081016040528092919081815260200182805460018160011615610100020316600290048015610f7d5780601f10610f5257610100808354040283529160200191610f7d565b820191906000526020600020905b815481529060010190602001808311610f6057829003601f168201915b50505050509350828054600181600116156101000203166002900480601f0160208091040260200160405190810160405280929190818152602001828054600181600116156101000203166002900480156110195780601f10610fee57610100808354040283529160200191611019565b820191906000526020600020905b815481529060010190602001808311610ffc57829003601f168201915b50505050509250818054600181600116156101000203166002900480601f0160208091040260200160405190810160405280929190818152602001828054600181600116156101000203166002900480156110b55780601f1061108a576101008083540402835291602001916110b5565b820191906000526020600020905b81548152906001019060200180831161109857829003601f168201915b5050505050915095509550955095509550955091939550919395565b600080600090505b600260008481526020019081526020016000208054905081101561117e576000803373ffffffffffffffffffffffffffffffffffffffff1673ffffffffffffffffffffffffffffffffffffffff16815260200190815260200160002054600260008581526020019081526020016000208281548110151561115657fe5b9060005260206000209001541415611171576000915061125e565b80806001019150506110d9565b6002600084815260200190815260200160002080548060010182816111a391906127ca565b916000526020600020900160008060003373ffffffffffffffffffffffffffffffffffffffff1673ffffffffffffffffffffffffffffffffffffffff16815260200190815260200160002054909190915055508260036000803373ffffffffffffffffffffffffffffffffffffffff1673ffffffffffffffffffffffffffffffffffffffff1681526020019081526020016000205481548110151561124457fe5b906000526020600020906009020160050181905550600191505b50919050565b600061126e61280a565b6101206040519081016040528060055481526020018781526020018681526020018581526020016000815260200160008152602001848152602001600081526020016001151581525090506005546000803373ffffffffffffffffffffffffffffffffffffffff1673ffffffffffffffffffffffffffffffffffffffff16815260200190815260200160002081905550600380548060010182816113129190612871565b9160005260206000209060090201600083909190915060008201518160000155602082015181600101908051906020019061134e9291906128a3565b50604082015181600201908051906020019061136b9291906128a3565b5060608201518160030190805190602001906113889291906128a3565b506080820151816004015560a0820151816005015560c08201518160060190805190602001906113b99291906128a3565b5060e082015181600701556101008201518160080160006101000a81548160ff0219169083151502179055505050506001600554016005819055506001915050949350505050565b60008060036000803373ffffffffffffffffffffffffffffffffffffffff1673ffffffffffffffffffffffffffffffffffffffff1681526020019081526020016000205481548110151561145157fe5b9060005260206000209060090201600501549050600260008281526020019081526020016000206000803373ffffffffffffffffffffffffffffffffffffffff1673ffffffffffffffffffffffffffffffffffffffff168152602001908152602001600020548154811015156114c357fe5b9060005260206000209001600090556002600084815260200190815260200160002080548060010182816114f791906127ca565b916000526020600020900160008060003373ffffffffffffffffffffffffffffffffffffffff1673ffffffffffffffffffffffffffffffffffffffff16815260200190815260200160002054909190915055508260036000803373ffffffffffffffffffffffffffffffffffffffff1673ffffffffffffffffffffffffffffffffffffffff1681526020019081526020016000205481548110151561159857fe5b9060005260206000209060090201600501819055506001915050919050565b60008060036000803373ffffffffffffffffffffffffffffffffffffffff1673ffffffffffffffffffffffffffffffffffffffff1681526020019081526020016000205481548110151561160757fe5b90600052602060002090600902016004015460036000803373ffffffffffffffffffffffffffffffffffffffff1673ffffffffffffffffffffffffffffffffffffffff1681526020019081526020016000205481548110151561166657fe5b906000526020600020906009020160050154915091509091565b600061168a6127f6565b6116926127f6565b61169a6127f6565b6116a26127f6565b600060036000803373ffffffffffffffffffffffffffffffffffffffff1673ffffffffffffffffffffffffffffffffffffffff168152602001908152602001600020548154811015156116f157fe5b90600052602060002090600902016000015460036000803373ffffffffffffffffffffffffffffffffffffffff1673ffffffffffffffffffffffffffffffffffffffff1681526020019081526020016000205481548110151561175057fe5b906000526020600020906009020160010160036000803373ffffffffffffffffffffffffffffffffffffffff1673ffffffffffffffffffffffffffffffffffffffff168152602001908152602001600020548154811015156117ae57fe5b906000526020600020906009020160020160036000803373ffffffffffffffffffffffffffffffffffffffff1673ffffffffffffffffffffffffffffffffffffffff1681526020019081526020016000205481548110151561180c57fe5b906000526020600020906009020160030160036000803373ffffffffffffffffffffffffffffffffffffffff1673ffffffffffffffffffffffffffffffffffffffff1681526020019081526020016000205481548110151561186a57fe5b906000526020600020906009020160060160036000803373ffffffffffffffffffffffffffffffffffffffff1673ffffffffffffffffffffffffffffffffffffffff168152602001908152602001600020548154811015156118c857fe5b906000526020600020906009020160080160009054906101000a900460ff16848054600181600116156101000203166002900480601f01602080910402602001604051908101604052809291908181526020018280546001816001161561010002031660029004801561197c5780601f106119515761010080835404028352916020019161197c565b820191906000526020600020905b81548152906001019060200180831161195f57829003601f168201915b50505050509450838054600181600116156101000203166002900480601f016020809104026020016040519081016040528092919081815260200182805460018160011615610100020316600290048015611a185780601f106119ed57610100808354040283529160200191611a18565b820191906000526020600020905b8154815290600101906020018083116119fb57829003601f168201915b50505050509350828054600181600116156101000203166002900480601f016020809104026020016040519081016040528092919081815260200182805460018160011615610100020316600290048015611ab45780601f10611a8957610100808354040283529160200191611ab4565b820191906000526020600020905b815481529060010190602001808311611a9757829003601f168201915b50505050509250818054600181600116156101000203166002900480601f016020809104026020016040519081016040528092919081815260200182805460018160011615610100020316600290048015611b505780601f10611b2557610100808354040283529160200191611b50565b820191906000526020600020905b815481529060010190602001808311611b3357829003601f168201915b50505050509150955095509550955095509550909192939495565b611b73612923565b600080600090505b600380549050811015611bbe57818054806001018281611b9b91906127ca565b916000526020600020900160006001909190915055508080600101915050611b7b565b81805480602002602001604051908101604052809291908181526020018280548015611c0957602002820191906000526020600020905b815481526020019060010190808311611bf5575b50505050509250505090565b60008060036000803373ffffffffffffffffffffffffffffffffffffffff1673ffffffffffffffffffffffffffffffffffffffff16815260200190815260200160002054815481101515611c6557fe5b9060005260206000209060090201600401549050600160008281526020019081526020016000206000803373ffffffffffffffffffffffffffffffffffffffff1673ffffffffffffffffffffffffffffffffffffffff16815260200190815260200160002054815481101515611cd757fe5b906000526020600020900160009055600160008481526020019081526020016000208054806001018281611d0b91906127ca565b916000526020600020900160008060003373ffffffffffffffffffffffffffffffffffffffff1673ffffffffffffffffffffffffffffffffffffffff16815260200190815260200160002054909190915055508260036000803373ffffffffffffffffffffffffffffffffffffffff1673ffffffffffffffffffffffffffffffffffffffff16815260200190815260200160002054815481101515611dac57fe5b9060005260206000209060090201600401819055506001915050919050565b600060048054806001018281611de19190612937565b916000526020600020900160006040805190810160405280600e81526020017fd0a0d18fd0b4d0bed0b2d0bed0b900000000000000000000000000000000000081525090919091509080519060200190611e3c929190612963565b505060048054806001018281611e529190612937565b916000526020600020900160006040805190810160405280601081526020017fd095d184d180d0b5d0b9d182d0bed1800000000000000000000000000000000081525090919091509080519060200190611ead929190612963565b505060048054806001018281611ec39190612937565b916000526020600020900160006040805190810160405280601d81526020017fd09cd0bbd0b0d0b4d188d0b8d0b920d0a1d0b5d180d0b6d0b0d0bdd18200000081525090919091509080519060200190611f1e929190612963565b505060048054806001018281611f349190612937565b916000526020600020900160006040805190810160405280600e81526020017fd0a1d0b5d180d0b6d0b0d0bdd18200000000000000000000000000000000000081525090919091509080519060200190611f8f929190612963565b505060048054806001018281611fa59190612937565b916000526020600020900160006040805190810160405280601d81526020017fd0a1d182d0b0d180d188d0b8d0b920d0a1d0b5d180d0b6d0b0d0bdd18200000081525090919091509080519060200190612000929190612963565b5050600480548060010182816120169190612937565b916000526020600020900160006040805190810160405280601281526020017fd09fd180d0b0d0bfd0bed180d189d0b8d0ba000000000000000000000000000081525090919091509080519060200190612071929190612963565b5050600480548060010182816120879190612937565b91600052602060002090016000606060405190810160405280602181526020017fd0a1d182d180d0b0d188d0b8d0b920d0bfd180d0b0d0bfd0bed180d189d0b8d081526020017fb90000000000000000000000000000000000000000000000000000000000000081525090919091509080519060200190612109929190612963565b50506004805480600101828161211f9190612937565b91600052602060002090016000606060405190810160405280602181526020017fd09cd0bbd0b0d0b4d188d0b8d0b920d0bbd0b5d0b9d182d0b5d0bdd0b0d0bdd181526020017f8200000000000000000000000000000000000000000000000000000000000000815250909190915090805190602001906121a1929190612963565b5050600480548060010182816121b79190612937565b916000526020600020900160006040805190810160405280601281526020017fd09bd0b5d0b9d182d0b5d0bdd0b0d0bdd182000000000000000000000000000081525090919091509080519060200190612212929190612963565b5050600480548060010182816122289190612937565b91600052602060002090016000606060405190810160405280602181526020017fd0a1d182d0b0d180d188d0b8d0b920d09bd0b5d0b9d182d0b5d0bdd0b0d0bdd181526020017f8200000000000000000000000000000000000000000000000000000000000000815250909190915090805190602001906122aa929190612963565b5050600480548060010182816122c09190612937565b916000526020600020900160006040805190810160405280600e81526020017fd09ad0b0d0bfd0b8d182d0b0d0bd0000000000000000000000000000000000008152509091909150908051906020019061231b929190612963565b5050600480548060010182816123319190612937565b916000526020600020900160006040805190810160405280600a81526020017fd09cd0b0d0b9d0bed180000000000000000000000000000000000000000000008152509091909150908051906020019061238c929190612963565b5050600480548060010182816123a29190612937565b916000526020600020900160006040805190810160405280601881526020017fd09fd0bed0b4d0bfd0bed0bbd0bad0bed0b2d0bdd0b8d0ba0000000000000000815250909190915090805190602001906123fd929190612963565b5050600480548060010182816124139190612937565b916000526020600020900160006040805190810160405280601281526020017fd09fd0bed0bbd0bad0bed0b2d0bdd0b8d0ba00000000000000000000000000008152509091909150908051906020019061246e929190612963565b5050600480548060010182816124849190612937565b916000526020600020900160006040805190810160405280601981526020017fd093d0b5d0bdd0b5d180d0b0d0bb2dd09cd0b0d0b9d0bed18000000000000000815250909190915090805190602001906124df929190612963565b5050600480548060010182816124f59190612937565b91600052602060002090016000606060405190810160405280602181526020017fd093d0b5d0bdd0b5d180d0b0d0bb2dd0bbd0b5d0b9d182d0b5d0bdd0b0d0bdd181526020017f820000000000000000000000000000000000000000000000000000000000000081525090919091509080519060200190612577929190612963565b50506004805480600101828161258d9190612937565b91600052602060002090016000606060405190810160405280602181526020017fd093d0b5d0bdd0b5d180d0b0d0bb2dd0bfd0bed0bbd0bad0bed0b2d0bdd0b8d081526020017fba000000000000000000000000000000000000000000000000000000000000008152509091909150908051906020019061260f929190612963565b50506001905090565b612620612923565b600080600090505b60048054905081101561266b5781805480600101828161264891906127ca565b916000526020600020900160006001909190915055508080600101915050612628565b818054806020026020016040519081016040528092919081815260200182805480156126b657602002820191906000526020600020905b8154815260200190600101908083116126a2575b50505050509250505090565b6000816003848154811015156126d457fe5b906000526020600020906009020160060190805190602001906126f8929190612963565b506001905092915050565b60008060003373ffffffffffffffffffffffffffffffffffffffff1673ffffffffffffffffffffffffffffffffffffffff16815260200190815260200160002054905080905090565b60008160036000803373ffffffffffffffffffffffffffffffffffffffff1673ffffffffffffffffffffffffffffffffffffffff1681526020019081526020016000205481548110151561279c57fe5b906000526020600020906009020160060190805190602001906127c0929190612963565b5060019050919050565b8154818355818115116127f1578183600052602060002091820191016127f091906129e3565b5b505050565b602060405190810160405280600081525090565b6101206040519081016040528060008152602001612826612a08565b8152602001612833612a08565b8152602001612840612a08565b8152602001600081526020016000815260200161285b612a08565b8152602001600081526020016000151581525090565b81548183558181151161289e5760090281600902836000526020600020918201910161289d9190612a1c565b5b505050565b828054600181600116156101000203166002900490600052602060002090601f016020900481019282601f106128e457805160ff1916838001178555612912565b82800160010185558215612912579182015b828111156129115782518255916020019190600101906128f6565b5b50905061291f91906129e3565b5090565b602060405190810160405280600081525090565b81548183558181151161295e5781836000526020600020918201910161295d9190612aaf565b5b505050565b828054600181600116156101000203166002900490600052602060002090601f016020900481019282601f106129a457805160ff19168380011785556129d2565b828001600101855582156129d2579182015b828111156129d15782518255916020019190600101906129b6565b5b5090506129df91906129e3565b5090565b612a0591905b80821115612a015760008160009055506001016129e9565b5090565b90565b602060405190810160405280600081525090565b612aac91905b80821115612aa857600080820160009055600182016000612a439190612adb565b600282016000612a539190612adb565b600382016000612a639190612adb565b60048201600090556005820160009055600682016000612a839190612adb565b60078201600090556008820160006101000a81549060ff021916905550600901612a22565b5090565b90565b612ad891905b80821115612ad45760008181612acb9190612adb565b50600101612ab5565b5090565b90565b50805460018160011615610100020316600290046000825580601f10612b015750612b20565b601f016020900490600052602060002090810190612b1f91906129e3565b5b505600a165627a7a72305820d4eb8015905eb8cc3450abc82ff4ecc84e835d4aeb6ac01970e87eb3c894fa3e0029",
  "source": "// ,          \n\npragma solidity ^0.4.18;\n\ncontract EmployerContract{\n\n    mapping (address => uint) employerAddr_employerNum;\n    mapping (uint => uint[]) postNum_employerNum;\n    mapping (uint => uint[]) departmentNum_employerNum;\n    //mapping (uint => string) number_rank;\n\n    struct EmployerStruct{\n        uint employerNum;\n        string employerName;\n        string employerFamily;\n        string employerPatronymic;\n        uint employerPostID;\n        uint employerDepartmentID;\n        string employerRank;\n        uint employerRankNum;\n        bool employerStatus;\n    }\n\n    EmployerStruct[] employerArray;\n    string[] rankArray;\n    uint employerNumber;\n\n    function EmployerContract() public {\n        RankCreater();\n        employerArray.push(EmployerStruct(0, \"\", \"\", \"\", 1, 1, \"\", 0 , true));\n        employerArray.push(EmployerStruct(1, \"\", \"\", \"\", 2, 2, \"\", 1 , true));\n        employerArray.push(EmployerStruct(2, \"\", \"\", \"\", 3, 3, \" \", 2, true));\n        employerArray.push(EmployerStruct(3, \"\", \"\", \"\", 4, 4, \" \", 2, true));\n        employerNumber = 4;\n        employerAddr_employerNum[msg.sender] = 2;\n    }\n\n    function RankCreater() returns(bool) {\n        rankArray.push(\"\");\n        rankArray.push(\"\");\n        rankArray.push(\" \");\n        rankArray.push(\"\");\n        rankArray.push(\" \");\n        rankArray.push(\"\");\n        rankArray.push(\" \");\n        rankArray.push(\" \");\n        rankArray.push(\"\");\n        rankArray.push(\" \");\n        rankArray.push(\"\");\n        rankArray.push(\"\");\n        rankArray.push(\"\");\n        rankArray.push(\"\");\n        rankArray.push(\"-\");\n        rankArray.push(\"-\");\n        rankArray.push(\"-\");\n        return true;\n    }\n\n    function GetRankFromNum(uint rankNum) returns(uint num, string rank){\n        return(rankNum, rankArray[rankNum]);\n    }\n\n    function GetRanks() returns(uint[]){\n        uint[] ranks;\n        for (uint i = 0; i < rankArray.length; i++){\n            ranks.push(1);\n        }\n        return(ranks);\n    }\n\n    function CreateEmployer(\n        string _name,\n        string _family, \n        string _patronymic,\n        //uint _postId,\n        //uint _departmentId, \n        string _rank) returns (bool createEmployer){\n            EmployerStruct memory newEmployer = EmployerStruct({\n                employerNum: employerNumber,\n                employerName:_name,\n                employerFamily:_family,\n                employerPatronymic:_patronymic,\n                employerPostID: 0,\n                employerDepartmentID: 0,\n                employerRank: _rank,\n                employerRankNum: 0,\n                employerStatus: true\n            });\n            employerAddr_employerNum[msg.sender] = employerNumber;\n            employerArray.push(newEmployer);\n            employerNumber = employerNumber + 1;\n            return true;\n        }\n        \n    function UpdateEmployer( \n        string _newRank\n    ) returns (bool updateEmployer) {\n        employerArray[employerAddr_employerNum[msg.sender]].employerRank = _newRank;\n        return true;\n    }\n\n    function UpdateEmployerFromNum(\n        uint num,\n        string _newRank\n    ) returns (bool updateEmployer){\n        employerArray[num].employerRank = _newRank;\n        return true;\n    }\n\n    function UpdateStatusEmployer(uint _employerNum, bool _newStatus) returns (bool updateStatus) {\n        employerArray[_employerNum].employerStatus = _newStatus;\n        return true;\n    }\n    \n    function ApplyPost(uint _postId) returns (bool apply){\n        for(uint i = 0; i < postNum_employerNum[_postId].length; i++){\n            if(postNum_employerNum[_postId][i] == employerAddr_employerNum[msg.sender]){\n                return false;\n            }\n        }\n        postNum_employerNum[_postId].push(employerAddr_employerNum[msg.sender]);\n        employerArray[employerAddr_employerNum[msg.sender]].employerPostID = _postId;\n        return true;\n    }\n\n    function ApplyDepartment(uint _departmentId) returns (bool apply){\n        for(uint i = 0; i < departmentNum_employerNum[_departmentId].length; i++){\n            if(departmentNum_employerNum[_departmentId][i] == employerAddr_employerNum[msg.sender]){\n                return false;\n            }\n        }\n        departmentNum_employerNum[_departmentId].push(employerAddr_employerNum[msg.sender]);\n        employerArray[employerAddr_employerNum[msg.sender]].employerDepartmentID = _departmentId;\n        return true;\n    }\n\n    function UpdatePostEmployer(uint _newPostId) returns (bool update){\n        uint reqPost = employerArray[employerAddr_employerNum[msg.sender]].employerPostID;\n        delete postNum_employerNum[reqPost][employerAddr_employerNum[msg.sender]];\n        postNum_employerNum[_newPostId].push(employerAddr_employerNum[msg.sender]);\n        employerArray[employerAddr_employerNum[msg.sender]].employerPostID = _newPostId;\n        return true;\n    }\n\n    function UpdateDepartmentEmployer(uint _newDepartmentId) returns (bool update){\n        uint reqDepartment = employerArray[employerAddr_employerNum[msg.sender]].employerDepartmentID;\n        delete departmentNum_employerNum[reqDepartment][employerAddr_employerNum[msg.sender]];\n        departmentNum_employerNum[_newDepartmentId].push(employerAddr_employerNum[msg.sender]);\n        employerArray[employerAddr_employerNum[msg.sender]].employerDepartmentID = _newDepartmentId;\n        return true;\n    }\n\n    function GetEmployerArraySize() returns(uint[]){\n        uint[] res;\n        for (uint i = 0; i < employerArray.length; i++){\n            res.push(1);\n        }\n        return(res);\n    }\n\n    function GetEmployerFromEmployerNum(uint _employerNum) returns(\n        uint num,\n        string name,\n        string family, \n        string patronymic,\n        //uint postId,\n        //uint departmentId, \n        string rank,\n        bool status){\n            return (\n                employerArray[_employerNum].employerNum,\n                employerArray[_employerNum].employerName,\n                employerArray[_employerNum].employerFamily,\n                employerArray[_employerNum].employerPatronymic,\n                //employerArray[_employerNum].employerPostID,\n                //employerArray[_employerNum].employerDepartmentID,\n                employerArray[_employerNum].employerRank,\n                employerArray[_employerNum].employerStatus);\n        }\n\n    function GetEmployerWorkplaceFromNum(uint _employerNum) returns(\n        uint postId,\n        uint departmentId){\n            return(\n                employerArray[_employerNum].employerPostID,\n                employerArray[_employerNum].employerDepartmentID\n            );\n    }\n\n    function GetEmployerFromEmployerAddr() returns(\n        uint num,\n        string name,\n        string family, \n        string patronymic,\n        //uint postId,\n        //uint departmentId, \n        string rank,\n        bool status){\n            return(\n                employerArray[employerAddr_employerNum[msg.sender]].employerNum,\n                employerArray[employerAddr_employerNum[msg.sender]].employerName,\n                employerArray[employerAddr_employerNum[msg.sender]].employerFamily,\n                employerArray[employerAddr_employerNum[msg.sender]].employerPatronymic,\n                //employerArray[employerAddr_employerNum[msg.sender]].employerPostID,\n                //employerArray[employerAddr_employerNum[msg.sender]].employerDepartmentID,\n                employerArray[employerAddr_employerNum[msg.sender]].employerRank,\n                employerArray[employerAddr_employerNum[msg.sender]].employerStatus\n                );\n        }\n\n    function GetEmployerWorkplaceFromAddr() returns(\n        uint postId,\n        uint departmentId){\n            return(\n                employerArray[employerAddr_employerNum[msg.sender]].employerPostID,\n                employerArray[employerAddr_employerNum[msg.sender]].employerDepartmentID\n            );\n    }\n\n    function GetEmployerNumFromEmployerAddr() returns(uint num){\n        num = employerAddr_employerNum[msg.sender];\n        return(num);\n        }\n}\n",
  "sourcePath": "/home/user/Documents/WorkFlow/contracts/EmployerContract.sol",
  "compiler": {
    "name": "solc",
    "version": "0.4.19+commit.c4cbbb05.Emscripten.clang"
  },
  "schemaVersion": "2.0.0",
  "updatedAt": "2018-04-03T13:44:23.279Z"
}