{
  "contractName": "EmployerContract",
  "abi": [
    {
      "inputs": [],
      "payable": false,
      "stateMutability": "nonpayable",
      "type": "constructor"
    },
    {
      "constant": false,
      "inputs": [],
      "name": "RankCreater",
      "outputs": [
        {
          "name": "",
          "type": "bool"
        }
      ],
      "payable": false,
      "stateMutability": "nonpayable",
      "type": "function"
    },
    {
      "constant": false,
      "inputs": [
        {
          "name": "rankNum",
          "type": "uint256"
        }
      ],
      "name": "GetRankFromNum",
      "outputs": [
        {
          "name": "num",
          "type": "uint256"
        },
        {
          "name": "rank",
          "type": "string"
        }
      ],
      "payable": false,
      "stateMutability": "nonpayable",
      "type": "function"
    },
    {
      "constant": false,
      "inputs": [],
      "name": "GetRanks",
      "outputs": [
        {
          "name": "",
          "type": "uint256[]"
        }
      ],
      "payable": false,
      "stateMutability": "nonpayable",
      "type": "function"
    },
    {
      "constant": false,
      "inputs": [
        {
          "name": "_name",
          "type": "string"
        },
        {
          "name": "_family",
          "type": "string"
        },
        {
          "name": "_patronymic",
          "type": "string"
        },
        {
          "name": "_rank",
          "type": "string"
        }
      ],
      "name": "CreateEmployer",
      "outputs": [
        {
          "name": "createEmployer",
          "type": "bool"
        }
      ],
      "payable": false,
      "stateMutability": "nonpayable",
      "type": "function"
    },
    {
      "constant": false,
      "inputs": [
        {
          "name": "_newRank",
          "type": "string"
        }
      ],
      "name": "UpdateEmployer",
      "outputs": [
        {
          "name": "updateEmployer",
          "type": "bool"
        }
      ],
      "payable": false,
      "stateMutability": "nonpayable",
      "type": "function"
    },
    {
      "constant": false,
      "inputs": [
        {
          "name": "num",
          "type": "uint256"
        },
        {
          "name": "_newRank",
          "type": "string"
        }
      ],
      "name": "UpdateEmployerFromNum",
      "outputs": [
        {
          "name": "updateEmployer",
          "type": "bool"
        }
      ],
      "payable": false,
      "stateMutability": "nonpayable",
      "type": "function"
    },
    {
      "constant": false,
      "inputs": [
        {
          "name": "num",
          "type": "uint256"
        },
        {
          "name": "newPost",
          "type": "uint256"
        },
        {
          "name": "newDepartment",
          "type": "uint256"
        },
        {
          "name": "newFlagIsConfirm",
          "type": "uint256"
        }
      ],
      "name": "UpdateEmployerWorkplaceFromNum",
      "outputs": [
        {
          "name": "updateEmployerWorkplace",
          "type": "bool"
        }
      ],
      "payable": false,
      "stateMutability": "nonpayable",
      "type": "function"
    },
    {
      "constant": false,
      "inputs": [
        {
          "name": "_employerNum",
          "type": "uint256"
        },
        {
          "name": "_newStatus",
          "type": "bool"
        }
      ],
      "name": "UpdateStatusEmployer",
      "outputs": [
        {
          "name": "updateStatus",
          "type": "bool"
        }
      ],
      "payable": false,
      "stateMutability": "nonpayable",
      "type": "function"
    },
    {
      "constant": false,
      "inputs": [],
      "name": "GetEmployerArraySize",
      "outputs": [
        {
          "name": "",
          "type": "uint256[]"
        }
      ],
      "payable": false,
      "stateMutability": "nonpayable",
      "type": "function"
    },
    {
      "constant": false,
      "inputs": [
        {
          "name": "_employerNum",
          "type": "uint256"
        }
      ],
      "name": "GetEmployerFromEmployerNum",
      "outputs": [
        {
          "name": "num",
          "type": "uint256"
        },
        {
          "name": "name",
          "type": "string"
        },
        {
          "name": "family",
          "type": "string"
        },
        {
          "name": "patronymic",
          "type": "string"
        },
        {
          "name": "rank",
          "type": "string"
        },
        {
          "name": "status",
          "type": "bool"
        },
        {
          "name": "employerRankNum",
          "type": "uint256"
        }
      ],
      "payable": false,
      "stateMutability": "nonpayable",
      "type": "function"
    },
    {
      "constant": false,
      "inputs": [
        {
          "name": "_employerNum",
          "type": "uint256"
        }
      ],
      "name": "GetEmployerWorkplaceFromNum",
      "outputs": [
        {
          "name": "postId",
          "type": "uint256"
        },
        {
          "name": "departmentId",
          "type": "uint256"
        },
        {
          "name": "isConfirm",
          "type": "bool"
        }
      ],
      "payable": false,
      "stateMutability": "nonpayable",
      "type": "function"
    },
    {
      "constant": false,
      "inputs": [],
      "name": "GetEmployerFromEmployerAddr",
      "outputs": [
        {
          "name": "num",
          "type": "uint256"
        },
        {
          "name": "name",
          "type": "string"
        },
        {
          "name": "family",
          "type": "string"
        },
        {
          "name": "patronymic",
          "type": "string"
        },
        {
          "name": "rank",
          "type": "string"
        },
        {
          "name": "status",
          "type": "bool"
        },
        {
          "name": "employerRankNum",
          "type": "uint256"
        }
      ],
      "payable": false,
      "stateMutability": "nonpayable",
      "type": "function"
    },
    {
      "constant": false,
      "inputs": [],
      "name": "GetEmployerWorkplaceFromAddr",
      "outputs": [
        {
          "name": "postId",
          "type": "uint256"
        },
        {
          "name": "departmentId",
          "type": "uint256"
        },
        {
          "name": "isConfirm",
          "type": "bool"
        }
      ],
      "payable": false,
      "stateMutability": "nonpayable",
      "type": "function"
    },
    {
      "constant": false,
      "inputs": [],
      "name": "GetEmployerNumFromEmployerAddr",
      "outputs": [
        {
          "name": "",
          "type": "uint256"
        }
      ],
      "payable": false,
      "stateMutability": "nonpayable",
      "type": "function"
    },
    {
      "constant": false,
      "inputs": [
        {
          "name": "depId",
          "type": "uint256"
        }
      ],
      "name": "GetEmployersFromDepartmentId",
      "outputs": [
        {
          "name": "",
          "type": "uint256[]"
        }
      ],
      "payable": false,
      "stateMutability": "nonpayable",
      "type": "function"
    },
    {
      "constant": false,
      "inputs": [
        {
          "name": "postId",
          "type": "uint256"
        }
      ],
      "name": "GetEmployersFromPostId",
      "outputs": [
        {
          "name": "",
          "type": "uint256[]"
        }
      ],
      "payable": false,
      "stateMutability": "nonpayable",
      "type": "function"
    }
  ],
  "bytecode": "0x606060405234156200001057600080fd5b6200002e62000b9e6401000000000262001be0176401000000009004565b5060018054806001018281620000459190620014a4565b9160005260206000209060090201600061014060405190810160405280600081526020016040805190810160405280600781526020017f4465666f756c740000000000000000000000000000000000000000000000000081525081526020016040805190810160405280600781526020017f44656661756c740000000000000000000000000000000000000000000000000081525081526020016040805190810160405280600781526020017f44656661756c7400000000000000000000000000000000000000000000000000815250815260200160008152602001600081526020016040805190810160405280600781526020017f44656661756c7400000000000000000000000000000000000000000000000000815250815260200160008152602001600015158152602001600015158152509091909150600082015181600001556020820151816001019080519060200190620001a7929190620014d9565b506040820151816002019080519060200190620001c6929190620014d9565b506060820151816003019080519060200190620001e5929190620014d9565b506080820151816004015560a0820151816005015560c082015181600601908051906020019062000218929190620014d9565b5060e082015181600701556101008201518160080160006101000a81548160ff0219169083151502179055506101208201518160080160016101000a81548160ff021916908315150217905550505050600180548060010182816200027e9190620014a4565b9160005260206000209060090201600061014060405190810160405280600181526020016040805190810160405280600881526020017fd098d0b2d0b0d0bd00000000000000000000000000000000000000000000000081525081526020016040805190810160405280600e81526020017fd09bd0b8d0bfd183d0b3d0b8d0bd00000000000000000000000000000000000081525081526020016040805190810160405280601a81526020017fd090d0bbd0b5d0bad181d0b0d0bdd0b4d180d0bed0b2d0b8d187000000000000815250815260200160018152602001600181526020016040805190810160405280600e81526020017fd0a0d18fd0b4d0bed0b2d0bed0b9000000000000000000000000000000000000815250815260200160018152602001600115158152602001600015158152509091909150600082015181600001556020820151816001019080519060200190620003e0929190620014d9565b506040820151816002019080519060200190620003ff929190620014d9565b5060608201518160030190805190602001906200041e929190620014d9565b506080820151816004015560a0820151816005015560c082015181600601908051906020019062000451929190620014d9565b5060e082015181600701556101008201518160080160006101000a81548160ff0219169083151502179055506101208201518160080160016101000a81548160ff02191690831515021790555050505060018054806001018281620004b79190620014a4565b9160005260206000209060090201600061014060405190810160405280600281526020016040805190810160405280600c81526020017fd09cd0b8d185d0b0d0b8d0bb000000000000000000000000000000000000000081525081526020016040805190810160405280600a81526020017fd0a4d0bed0bbd0b5d0b20000000000000000000000000000000000000000000081525081526020016040805190810160405280601081526020017fd09fd0b5d182d180d0bed0b2d0b8d18700000000000000000000000000000000815250815260200160028152602001600281526020016040805190810160405280601081526020017fd095d184d180d0b5d0b9d182d0bed1800000000000000000000000000000000081525081526020016002815260200160011515815260200160011515815250909190915060008201518160000155602082015181600101908051906020019062000619929190620014d9565b50604082015181600201908051906020019062000638929190620014d9565b50606082015181600301908051906020019062000657929190620014d9565b506080820151816004015560a0820151816005015560c08201518160060190805190602001906200068a929190620014d9565b5060e082015181600701556101008201518160080160006101000a81548160ff0219169083151502179055506101208201518160080160016101000a81548160ff02191690831515021790555050505060018054806001018281620006f09190620014a4565b9160005260206000209060090201600061014060405190810160405280600381526020016040805190810160405280600c81526020017fd090d0bdd0b4d180d0b5d0b9000000000000000000000000000000000000000081525081526020016040805190810160405280600e81526020017fd094d0b5d0b2d18fd182d0bed0b200000000000000000000000000000000000081525081526020016040805190810160405280601481526020017fd092d0b8d0bad182d0bed180d0bed0b2d0b8d187000000000000000000000000815250815260200160038152602001600381526020016040805190810160405280601d81526020017fd09cd0bbd0b0d0b4d188d0b8d0b920d181d0b5d180d0b6d0b0d0bdd18200000081525081526020016003815260200160011515815260200160011515815250909190915060008201518160000155602082015181600101908051906020019062000852929190620014d9565b50604082015181600201908051906020019062000871929190620014d9565b50606082015181600301908051906020019062000890929190620014d9565b506080820151816004015560a0820151816005015560c0820151816006019080519060200190620008c3929190620014d9565b5060e082015181600701556101008201518160080160006101000a81548160ff0219169083151502179055506101208201518160080160016101000a81548160ff02191690831515021790555050505060018054806001018281620009299190620014a4565b9160005260206000209060090201600061014060405190810160405280600481526020016040805190810160405280600e81526020017fd090d0bbd0b5d0bad181d0b5d0b900000000000000000000000000000000000081525081526020016040805190810160405280601081526020017fd09bd0b5d0bad181d183d181d0bed0b20000000000000000000000000000000081525081526020016040805190810160405280601281526020017fd0a2d180d0b8d0bdd0b5d0b5d0b2d0b8d1870000000000000000000000000000815250815260200160048152602001600481526020016040805190810160405280601d81526020017fd09cd0bbd0b0d0b4d188d0b8d0b920d181d0b5d180d0b6d0b0d0bdd18200000081525081526020016003815260200160011515815260200160011515815250909190915060008201518160000155602082015181600101908051906020019062000a8b929190620014d9565b50604082015181600201908051906020019062000aaa929190620014d9565b50606082015181600301908051906020019062000ac9929190620014d9565b506080820151816004015560a0820151816005015560c082015181600601908051906020019062000afc929190620014d9565b5060e082015181600701556101008201518160080160006101000a81548160ff0219169083151502179055506101208201518160080160016101000a81548160ff021916908315150217905550505050600560038190555060026000803373ffffffffffffffffffffffffffffffffffffffff1673ffffffffffffffffffffffffffffffffffffffff168152602001908152602001600020819055506200176d565b60006002805480600101828162000bb6919062001560565b916000526020600020900160006040805190810160405280601381526020017fd091d0b5d0b720d0b7d0b2d0b0d0bdd0b8d18f000000000000000000000000008152509091909150908051906020019062000c139291906200158f565b50506002805480600101828162000c2b919062001560565b916000526020600020900160006040805190810160405280600e81526020017fd0a0d18fd0b4d0bed0b2d0bed0b90000000000000000000000000000000000008152509091909150908051906020019062000c889291906200158f565b50506002805480600101828162000ca0919062001560565b916000526020600020900160006040805190810160405280601081526020017fd095d184d180d0b5d0b9d182d0bed180000000000000000000000000000000008152509091909150908051906020019062000cfd9291906200158f565b50506002805480600101828162000d15919062001560565b916000526020600020900160006040805190810160405280601d81526020017fd09cd0bbd0b0d0b4d188d0b8d0b920d0a1d0b5d180d0b6d0b0d0bdd1820000008152509091909150908051906020019062000d729291906200158f565b50506002805480600101828162000d8a919062001560565b916000526020600020900160006040805190810160405280600e81526020017fd0a1d0b5d180d0b6d0b0d0bdd1820000000000000000000000000000000000008152509091909150908051906020019062000de79291906200158f565b50506002805480600101828162000dff919062001560565b916000526020600020900160006040805190810160405280601d81526020017fd0a1d182d0b0d180d188d0b8d0b920d0a1d0b5d180d0b6d0b0d0bdd1820000008152509091909150908051906020019062000e5c9291906200158f565b50506002805480600101828162000e74919062001560565b916000526020600020900160006040805190810160405280601281526020017fd09fd180d0b0d0bfd0bed180d189d0b8d0ba00000000000000000000000000008152509091909150908051906020019062000ed19291906200158f565b50506002805480600101828162000ee9919062001560565b91600052602060002090016000606060405190810160405280602181526020017fd0a1d182d180d0b0d188d0b8d0b920d0bfd180d0b0d0bfd0bed180d189d0b8d081526020017fb9000000000000000000000000000000000000000000000000000000000000008152509091909150908051906020019062000f6d9291906200158f565b50506002805480600101828162000f85919062001560565b91600052602060002090016000606060405190810160405280602181526020017fd09cd0bbd0b0d0b4d188d0b8d0b920d0bbd0b5d0b9d182d0b5d0bdd0b0d0bdd181526020017f820000000000000000000000000000000000000000000000000000000000000081525090919091509080519060200190620010099291906200158f565b50506002805480600101828162001021919062001560565b916000526020600020900160006040805190810160405280601281526020017fd09bd0b5d0b9d182d0b5d0bdd0b0d0bdd1820000000000000000000000000000815250909190915090805190602001906200107e9291906200158f565b50506002805480600101828162001096919062001560565b91600052602060002090016000606060405190810160405280602181526020017fd0a1d182d0b0d180d188d0b8d0b920d09bd0b5d0b9d182d0b5d0bdd0b0d0bdd181526020017f8200000000000000000000000000000000000000000000000000000000000000815250909190915090805190602001906200111a9291906200158f565b50506002805480600101828162001132919062001560565b916000526020600020900160006040805190810160405280600e81526020017fd09ad0b0d0bfd0b8d182d0b0d0bd000000000000000000000000000000000000815250909190915090805190602001906200118f9291906200158f565b505060028054806001018281620011a7919062001560565b916000526020600020900160006040805190810160405280600a81526020017fd09cd0b0d0b9d0bed1800000000000000000000000000000000000000000000081525090919091509080519060200190620012049291906200158f565b5050600280548060010182816200121c919062001560565b916000526020600020900160006040805190810160405280601881526020017fd09fd0bed0b4d0bfd0bed0bbd0bad0bed0b2d0bdd0b8d0ba000000000000000081525090919091509080519060200190620012799291906200158f565b50506002805480600101828162001291919062001560565b916000526020600020900160006040805190810160405280601281526020017fd09fd0bed0bbd0bad0bed0b2d0bdd0b8d0ba000000000000000000000000000081525090919091509080519060200190620012ee9291906200158f565b50506002805480600101828162001306919062001560565b916000526020600020900160006040805190810160405280601981526020017fd093d0b5d0bdd0b5d180d0b0d0bb2dd09cd0b0d0b9d0bed1800000000000000081525090919091509080519060200190620013639291906200158f565b5050600280548060010182816200137b919062001560565b91600052602060002090016000606060405190810160405280602181526020017fd093d0b5d0bdd0b5d180d0b0d0bb2dd0bbd0b5d0b9d182d0b5d0bdd0b0d0bdd181526020017f820000000000000000000000000000000000000000000000000000000000000081525090919091509080519060200190620013ff9291906200158f565b50506002805480600101828162001417919062001560565b91600052602060002090016000606060405190810160405280602181526020017fd093d0b5d0bdd0b5d180d0b0d0bb2dd0bfd0bed0bbd0bad0bed0b2d0bdd0b8d081526020017fba00000000000000000000000000000000000000000000000000000000000000815250909190915090805190602001906200149b9291906200158f565b50506001905090565b815481835581811511620014d457600902816009028360005260206000209182019101620014d3919062001616565b5b505050565b828054600181600116156101000203166002900490600052602060002090601f016020900481019282601f106200151c57805160ff19168380011785556200154d565b828001600101855582156200154d579182015b828111156200154c5782518255916020019190600101906200152f565b5b5090506200155c9190620016c8565b5090565b8154818355818115116200158a57818360005260206000209182019101620015899190620016f0565b5b505050565b828054600181600116156101000203166002900490600052602060002090601f016020900481019282601f10620015d257805160ff191683800117855562001603565b8280016001018555821562001603579182015b8281111562001602578251825591602001919060010190620015e5565b5b509050620016129190620016c8565b5090565b620016c591905b80821115620016c15760008082016000905560018201600062001641919062001721565b60028201600062001653919062001721565b60038201600062001665919062001721565b6004820160009055600582016000905560068201600062001687919062001721565b60078201600090556008820160006101000a81549060ff02191690556008820160016101000a81549060ff0219169055506009016200161d565b5090565b90565b620016ed91905b80821115620016e9576000816000905550600101620016cf565b5090565b90565b6200171e91905b808211156200171a576000818162001710919062001721565b50600101620016f7565b5090565b90565b50805460018160011615610100020316600290046000825580601f106200174957506200176a565b601f016020900490600052602060002090810190620017699190620016c8565b5b50565b6129ef806200177d6000396000f3006060604052600436106100e6576000357c0100000000000000000000000000000000000000000000000000000000900463ffffffff1680630d5a2975146100eb5780634279591f146101635780634459762914610206578063535a61181461027e57806354759f09146102c457806354fc5fe21461030d5780636a5f1b2a146105065780637a07888914610644578063810209eb1461067f5780638915ce991461086a578063897bdd25146108c0578063b7241d191461092a578063b978b0b414610957578063bbec8db6146109c1578063ec03687614610a3f578063f806fc4214610a68575b600080fd5b34156100f657600080fd5b61010c6004808035906020019091905050610add565b6040518080602001828103825283818151815260200191508051906020019060200280838360005b8381101561014f578082015181840152602081019050610134565b505050509050019250505060405180910390f35b341561016e57600080fd5b6101846004808035906020019091905050610bdf565b6040518083815260200180602001828103825283818151815260200191508051906020019080838360005b838110156101ca5780820151818401526020810190506101af565b50505050905090810190601f1680156101f75780820380516001836020036101000a031916815260200191505b50935050505060405180910390f35b341561021157600080fd5b6102276004808035906020019091905050610ca9565b6040518080602001828103825283818151815260200191508051906020019060200280838360005b8381101561026a57808201518184015260208101905061024f565b505050509050019250505060405180910390f35b341561028957600080fd5b6102aa60048080359060200190919080351515906020019091905050610dab565b604051808215151515815260200191505060405180910390f35b34156102cf57600080fd5b6102e56004808035906020019091905050610def565b6040518084815260200183815260200182151515158152602001935050505060405180910390f35b341561031857600080fd5b61032e6004808035906020019091905050610e71565b60405180888152602001806020018060200180602001806020018715151515815260200186815260200185810385528b818151815260200191508051906020019080838360005b83811015610390578082015181840152602081019050610375565b50505050905090810190601f1680156103bd5780820380516001836020036101000a031916815260200191505b5085810384528a818151815260200191508051906020019080838360005b838110156103f65780820151818401526020810190506103db565b50505050905090810190601f1680156104235780820380516001836020036101000a031916815260200191505b50858103835289818151815260200191508051906020019080838360005b8381101561045c578082015181840152602081019050610441565b50505050905090810190601f1680156104895780820380516001836020036101000a031916815260200191505b50858103825288818151815260200191508051906020019080838360005b838110156104c25780820151818401526020810190506104a7565b50505050905090810190601f1680156104ef5780820380516001836020036101000a031916815260200191505b509b50505050505050505050505060405180910390f35b341561051157600080fd5b61062a600480803590602001908201803590602001908080601f0160208091040260200160405190810160405280939291908181526020018383808284378201915050505050509190803590602001908201803590602001908080601f0160208091040260200160405190810160405280939291908181526020018383808284378201915050505050509190803590602001908201803590602001908080601f0160208091040260200160405190810160405280939291908181526020018383808284378201915050505050509190803590602001908201803590602001908080601f0160208091040260200160405190810160405280939291908181526020018383808284378201915050505050509190505061120f565b604051808215151515815260200191505060405180910390f35b341561064f57600080fd5b6106576113d6565b6040518084815260200183815260200182151515158152602001935050505060405180910390f35b341561068a57600080fd5b610692611510565b60405180888152602001806020018060200180602001806020018715151515815260200186815260200185810385528b818151815260200191508051906020019080838360005b838110156106f45780820151818401526020810190506106d9565b50505050905090810190601f1680156107215780820380516001836020036101000a031916815260200191505b5085810384528a818151815260200191508051906020019080838360005b8381101561075a57808201518184015260208101905061073f565b50505050905090810190601f1680156107875780820380516001836020036101000a031916815260200191505b50858103835289818151815260200191508051906020019080838360005b838110156107c05780820151818401526020810190506107a5565b50505050905090810190601f1680156107ed5780820380516001836020036101000a031916815260200191505b50858103825288818151815260200191508051906020019080838360005b8381101561082657808201518184015260208101905061080b565b50505050905090810190601f1680156108535780820380516001836020036101000a031916815260200191505b509b50505050505050505050505060405180910390f35b341561087557600080fd5b6108a66004808035906020019091908035906020019091908035906020019091908035906020019091905050611a5e565b604051808215151515815260200191505060405180910390f35b34156108cb57600080fd5b6108d3611b36565b6040518080602001828103825283818151815260200191508051906020019060200280838360005b838110156109165780820151818401526020810190506108fb565b505050509050019250505060405180910390f35b341561093557600080fd5b61093d611be0565b604051808215151515815260200191505060405180910390f35b341561096257600080fd5b61096a61249e565b6040518080602001828103825283818151815260200191508051906020019060200280838360005b838110156109ad578082015181840152602081019050610992565b505050509050019250505060405180910390f35b34156109cc57600080fd5b610a25600480803590602001909190803590602001908201803590602001908080601f01602080910402602001604051908101604052809392919081815260200183838082843782019150505050505091905050612548565b604051808215151515815260200191505060405180910390f35b3415610a4a57600080fd5b610a52612589565b6040518082815260200191505060405180910390f35b3415610a7357600080fd5b610ac3600480803590602001908201803590602001908080601f016020809104026020016040519081016040528093929190818152602001838380828437820191505050505050919050506125cf565b604051808215151515815260200191505060405180910390f35b610ae561264d565b600080600090505b600180549050811015610b865783600182815481101515610b0a57fe5b9060005260206000209060090201600401541415610b5057818054806001018281610b359190612661565b91600052602060002090016000600190919091505550610b79565b818054806001018281610b639190612661565b9160005260206000209001600080909190915055505b8080600101915050610aed565b81805480602002602001604051908101604052809291908181526020018280548015610bd157602002820191906000526020600020905b815481526020019060010190808311610bbd575b505050505092505050919050565b6000610be961268d565b82600284815481101515610bf957fe5b9060005260206000209001808054600181600116156101000203166002900480601f016020809104026020016040519081016040528092919081815260200182805460018160011615610100020316600290048015610c995780601f10610c6e57610100808354040283529160200191610c99565b820191906000526020600020905b815481529060010190602001808311610c7c57829003601f168201915b5050505050905091509150915091565b610cb161264d565b600080600090505b600180549050811015610d525783600182815481101515610cd657fe5b9060005260206000209060090201600501541415610d1c57818054806001018281610d019190612661565b91600052602060002090016000600190919091505550610d45565b818054806001018281610d2f9190612661565b9160005260206000209001600080909190915055505b8080600101915050610cb9565b81805480602002602001604051908101604052809291908181526020018280548015610d9d57602002820191906000526020600020905b815481526020019060010190808311610d89575b505050505092505050919050565b600081600184815481101515610dbd57fe5b906000526020600020906009020160080160006101000a81548160ff0219169083151502179055506001905092915050565b6000806000600184815481101515610e0357fe5b906000526020600020906009020160040154600185815481101515610e2457fe5b906000526020600020906009020160050154600186815481101515610e4557fe5b906000526020600020906009020160080160019054906101000a900460ff169250925092509193909250565b6000610e7b61268d565b610e8361268d565b610e8b61268d565b610e9361268d565b600080600188815481101515610ea557fe5b906000526020600020906009020160000154600189815481101515610ec657fe5b906000526020600020906009020160010160018a815481101515610ee657fe5b906000526020600020906009020160020160018b815481101515610f0657fe5b906000526020600020906009020160030160018c815481101515610f2657fe5b906000526020600020906009020160060160018d815481101515610f4657fe5b906000526020600020906009020160080160009054906101000a900460ff1660018e815481101515610f7457fe5b906000526020600020906009020160070154858054600181600116156101000203166002900480601f01602080910402602001604051908101604052809291908181526020018280546001816001161561010002031660029004801561101b5780601f10610ff05761010080835404028352916020019161101b565b820191906000526020600020905b815481529060010190602001808311610ffe57829003601f168201915b50505050509550848054600181600116156101000203166002900480601f0160208091040260200160405190810160405280929190818152602001828054600181600116156101000203166002900480156110b75780601f1061108c576101008083540402835291602001916110b7565b820191906000526020600020905b81548152906001019060200180831161109a57829003601f168201915b50505050509450838054600181600116156101000203166002900480601f0160208091040260200160405190810160405280929190818152602001828054600181600116156101000203166002900480156111535780601f1061112857610100808354040283529160200191611153565b820191906000526020600020905b81548152906001019060200180831161113657829003601f168201915b50505050509350828054600181600116156101000203166002900480601f0160208091040260200160405190810160405280929190818152602001828054600181600116156101000203166002900480156111ef5780601f106111c4576101008083540402835291602001916111ef565b820191906000526020600020905b8154815290600101906020018083116111d257829003601f168201915b505050505092509650965096509650965096509650919395979092949650565b60006112196126a1565b6101406040519081016040528060035481526020018781526020018681526020018581526020016000815260200160008152602001848152602001600081526020016001151581526020016000151581525090506003546000803373ffffffffffffffffffffffffffffffffffffffff1673ffffffffffffffffffffffffffffffffffffffff16815260200190815260200160002081905550600180548060010182816112c69190612711565b91600052602060002090600902016000839091909150600082015181600001556020820151816001019080519060200190611302929190612743565b50604082015181600201908051906020019061131f929190612743565b50606082015181600301908051906020019061133c929190612743565b506080820151816004015560a0820151816005015560c082015181600601908051906020019061136d929190612743565b5060e082015181600701556101008201518160080160006101000a81548160ff0219169083151502179055506101208201518160080160016101000a81548160ff0219169083151502179055505050506001600354016003819055506001915050949350505050565b600080600060016000803373ffffffffffffffffffffffffffffffffffffffff1673ffffffffffffffffffffffffffffffffffffffff1681526020019081526020016000205481548110151561142857fe5b90600052602060002090600902016004015460016000803373ffffffffffffffffffffffffffffffffffffffff1673ffffffffffffffffffffffffffffffffffffffff1681526020019081526020016000205481548110151561148757fe5b90600052602060002090600902016005015460016000803373ffffffffffffffffffffffffffffffffffffffff1673ffffffffffffffffffffffffffffffffffffffff168152602001908152602001600020548154811015156114e657fe5b906000526020600020906009020160080160019054906101000a900460ff16925092509250909192565b600061151a61268d565b61152261268d565b61152a61268d565b61153261268d565b60008060016000803373ffffffffffffffffffffffffffffffffffffffff1673ffffffffffffffffffffffffffffffffffffffff1681526020019081526020016000205481548110151561158257fe5b90600052602060002090600902016000015460016000803373ffffffffffffffffffffffffffffffffffffffff1673ffffffffffffffffffffffffffffffffffffffff168152602001908152602001600020548154811015156115e157fe5b906000526020600020906009020160010160016000803373ffffffffffffffffffffffffffffffffffffffff1673ffffffffffffffffffffffffffffffffffffffff1681526020019081526020016000205481548110151561163f57fe5b906000526020600020906009020160020160016000803373ffffffffffffffffffffffffffffffffffffffff1673ffffffffffffffffffffffffffffffffffffffff1681526020019081526020016000205481548110151561169d57fe5b906000526020600020906009020160030160016000803373ffffffffffffffffffffffffffffffffffffffff1673ffffffffffffffffffffffffffffffffffffffff168152602001908152602001600020548154811015156116fb57fe5b906000526020600020906009020160060160016000803373ffffffffffffffffffffffffffffffffffffffff1673ffffffffffffffffffffffffffffffffffffffff1681526020019081526020016000205481548110151561175957fe5b906000526020600020906009020160080160009054906101000a900460ff1660016000803373ffffffffffffffffffffffffffffffffffffffff1673ffffffffffffffffffffffffffffffffffffffff168152602001908152602001600020548154811015156117c557fe5b906000526020600020906009020160070154858054600181600116156101000203166002900480601f01602080910402602001604051908101604052809291908181526020018280546001816001161561010002031660029004801561186c5780601f106118415761010080835404028352916020019161186c565b820191906000526020600020905b81548152906001019060200180831161184f57829003601f168201915b50505050509550848054600181600116156101000203166002900480601f0160208091040260200160405190810160405280929190818152602001828054600181600116156101000203166002900480156119085780601f106118dd57610100808354040283529160200191611908565b820191906000526020600020905b8154815290600101906020018083116118eb57829003601f168201915b50505050509450838054600181600116156101000203166002900480601f0160208091040260200160405190810160405280929190818152602001828054600181600116156101000203166002900480156119a45780601f10611979576101008083540402835291602001916119a4565b820191906000526020600020905b81548152906001019060200180831161198757829003601f168201915b50505050509350828054600181600116156101000203166002900480601f016020809104026020016040519081016040528092919081815260200182805460018160011615610100020316600290048015611a405780601f10611a1557610100808354040283529160200191611a40565b820191906000526020600020905b815481529060010190602001808311611a2357829003601f168201915b50505050509250965096509650965096509650965090919293949596565b600083600186815481101515611a7057fe5b90600052602060002090600902016004018190555082600186815481101515611a9557fe5b9060005260206000209060090201600501819055506001821415611af05760018086815481101515611ac357fe5b906000526020600020906009020160080160016101000a81548160ff021916908315150217905550611b2a565b6000600186815481101515611b0157fe5b906000526020600020906009020160080160016101000a81548160ff0219169083151502179055505b60019050949350505050565b611b3e61264d565b600080600090505b600180549050811015611b8957818054806001018281611b669190612661565b916000526020600020900160006001909190915055508080600101915050611b46565b81805480602002602001604051908101604052809291908181526020018280548015611bd457602002820191906000526020600020905b815481526020019060010190808311611bc0575b50505050509250505090565b600060028054806001018281611bf691906127c3565b916000526020600020900160006040805190810160405280601381526020017fd091d0b5d0b720d0b7d0b2d0b0d0bdd0b8d18f0000000000000000000000000081525090919091509080519060200190611c519291906127ef565b505060028054806001018281611c6791906127c3565b916000526020600020900160006040805190810160405280600e81526020017fd0a0d18fd0b4d0bed0b2d0bed0b900000000000000000000000000000000000081525090919091509080519060200190611cc29291906127ef565b505060028054806001018281611cd891906127c3565b916000526020600020900160006040805190810160405280601081526020017fd095d184d180d0b5d0b9d182d0bed1800000000000000000000000000000000081525090919091509080519060200190611d339291906127ef565b505060028054806001018281611d4991906127c3565b916000526020600020900160006040805190810160405280601d81526020017fd09cd0bbd0b0d0b4d188d0b8d0b920d0a1d0b5d180d0b6d0b0d0bdd18200000081525090919091509080519060200190611da49291906127ef565b505060028054806001018281611dba91906127c3565b916000526020600020900160006040805190810160405280600e81526020017fd0a1d0b5d180d0b6d0b0d0bdd18200000000000000000000000000000000000081525090919091509080519060200190611e159291906127ef565b505060028054806001018281611e2b91906127c3565b916000526020600020900160006040805190810160405280601d81526020017fd0a1d182d0b0d180d188d0b8d0b920d0a1d0b5d180d0b6d0b0d0bdd18200000081525090919091509080519060200190611e869291906127ef565b505060028054806001018281611e9c91906127c3565b916000526020600020900160006040805190810160405280601281526020017fd09fd180d0b0d0bfd0bed180d189d0b8d0ba000000000000000000000000000081525090919091509080519060200190611ef79291906127ef565b505060028054806001018281611f0d91906127c3565b91600052602060002090016000606060405190810160405280602181526020017fd0a1d182d180d0b0d188d0b8d0b920d0bfd180d0b0d0bfd0bed180d189d0b8d081526020017fb90000000000000000000000000000000000000000000000000000000000000081525090919091509080519060200190611f8f9291906127ef565b505060028054806001018281611fa591906127c3565b91600052602060002090016000606060405190810160405280602181526020017fd09cd0bbd0b0d0b4d188d0b8d0b920d0bbd0b5d0b9d182d0b5d0bdd0b0d0bdd181526020017f8200000000000000000000000000000000000000000000000000000000000000815250909190915090805190602001906120279291906127ef565b50506002805480600101828161203d91906127c3565b916000526020600020900160006040805190810160405280601281526020017fd09bd0b5d0b9d182d0b5d0bdd0b0d0bdd1820000000000000000000000000000815250909190915090805190602001906120989291906127ef565b5050600280548060010182816120ae91906127c3565b91600052602060002090016000606060405190810160405280602181526020017fd0a1d182d0b0d180d188d0b8d0b920d09bd0b5d0b9d182d0b5d0bdd0b0d0bdd181526020017f8200000000000000000000000000000000000000000000000000000000000000815250909190915090805190602001906121309291906127ef565b50506002805480600101828161214691906127c3565b916000526020600020900160006040805190810160405280600e81526020017fd09ad0b0d0bfd0b8d182d0b0d0bd000000000000000000000000000000000000815250909190915090805190602001906121a19291906127ef565b5050600280548060010182816121b791906127c3565b916000526020600020900160006040805190810160405280600a81526020017fd09cd0b0d0b9d0bed18000000000000000000000000000000000000000000000815250909190915090805190602001906122129291906127ef565b50506002805480600101828161222891906127c3565b916000526020600020900160006040805190810160405280601881526020017fd09fd0bed0b4d0bfd0bed0bbd0bad0bed0b2d0bdd0b8d0ba0000000000000000815250909190915090805190602001906122839291906127ef565b50506002805480600101828161229991906127c3565b916000526020600020900160006040805190810160405280601281526020017fd09fd0bed0bbd0bad0bed0b2d0bdd0b8d0ba0000000000000000000000000000815250909190915090805190602001906122f49291906127ef565b50506002805480600101828161230a91906127c3565b916000526020600020900160006040805190810160405280601981526020017fd093d0b5d0bdd0b5d180d0b0d0bb2dd09cd0b0d0b9d0bed18000000000000000815250909190915090805190602001906123659291906127ef565b50506002805480600101828161237b91906127c3565b91600052602060002090016000606060405190810160405280602181526020017fd093d0b5d0bdd0b5d180d0b0d0bb2dd0bbd0b5d0b9d182d0b5d0bdd0b0d0bdd181526020017f8200000000000000000000000000000000000000000000000000000000000000815250909190915090805190602001906123fd9291906127ef565b50506002805480600101828161241391906127c3565b91600052602060002090016000606060405190810160405280602181526020017fd093d0b5d0bdd0b5d180d0b0d0bb2dd0bfd0bed0bbd0bad0bed0b2d0bdd0b8d081526020017fba00000000000000000000000000000000000000000000000000000000000000815250909190915090805190602001906124959291906127ef565b50506001905090565b6124a661264d565b600080600090505b6002805490508110156124f1578180548060010182816124ce9190612661565b9160005260206000209001600060019091909150555080806001019150506124ae565b8180548060200260200160405190810160405280929190818152602001828054801561253c57602002820191906000526020600020905b815481526020019060010190808311612528575b50505050509250505090565b60008160018481548110151561255a57fe5b9060005260206000209060090201600601908051906020019061257e9291906127ef565b506001905092915050565b60008060003373ffffffffffffffffffffffffffffffffffffffff1673ffffffffffffffffffffffffffffffffffffffff16815260200190815260200160002054905090565b60008160016000803373ffffffffffffffffffffffffffffffffffffffff1673ffffffffffffffffffffffffffffffffffffffff1681526020019081526020016000205481548110151561261f57fe5b906000526020600020906009020160060190805190602001906126439291906127ef565b5060019050919050565b602060405190810160405280600081525090565b81548183558181151161268857818360005260206000209182019101612687919061286f565b5b505050565b602060405190810160405280600081525090565b61014060405190810160405280600081526020016126bd612894565b81526020016126ca612894565b81526020016126d7612894565b815260200160008152602001600081526020016126f2612894565b8152602001600081526020016000151581526020016000151581525090565b81548183558181151161273e5760090281600902836000526020600020918201910161273d91906128a8565b5b505050565b828054600181600116156101000203166002900490600052602060002090601f016020900481019282601f1061278457805160ff19168380011785556127b2565b828001600101855582156127b2579182015b828111156127b1578251825591602001919060010190612796565b5b5090506127bf919061286f565b5090565b8154818355818115116127ea578183600052602060002091820191016127e9919061294f565b5b505050565b828054600181600116156101000203166002900490600052602060002090601f016020900481019282601f1061283057805160ff191683800117855561285e565b8280016001018555821561285e579182015b8281111561285d578251825591602001919060010190612842565b5b50905061286b919061286f565b5090565b61289191905b8082111561288d576000816000905550600101612875565b5090565b90565b602060405190810160405280600081525090565b61294c91905b80821115612948576000808201600090556001820160006128cf919061297b565b6002820160006128df919061297b565b6003820160006128ef919061297b565b6004820160009055600582016000905560068201600061290f919061297b565b60078201600090556008820160006101000a81549060ff02191690556008820160016101000a81549060ff0219169055506009016128ae565b5090565b90565b61297891905b80821115612974576000818161296b919061297b565b50600101612955565b5090565b90565b50805460018160011615610100020316600290046000825580601f106129a157506129c0565b601f0160209004906000526020600020908101906129bf919061286f565b5b505600a165627a7a7230582054d7a06042c28c4fd9ed657417c743391f9b6963c9775b083ed5cb5c31a3c2110029",
  "source": "// ,          \n\npragma solidity ^0.4.18;\n\ncontract EmployerContract{\n\n    mapping (address => uint) employerAddr_employerNum;\n    //mapping (uint => string) number_rank;\n\n    struct EmployerStruct{\n        uint employerNum;\n        string employerName;\n        string employerFamily;\n        string employerPatronymic;\n        uint employerPostID;\n        uint employerDepartmentID;\n        string employerRank;\n        uint employerRankNum;\n        bool employerStatus;\n        bool isConfirm;\n    }\n\n    EmployerStruct[] employerArray;\n    string[] rankArray;\n    uint employerNumber;\n\n    function EmployerContract() public {\n        RankCreater();\n        employerArray.push(EmployerStruct(0, \"Defoult\", \"Default\", \"Default\", 0, 0, \"Default\", 0 , false, false));\n        employerArray.push(EmployerStruct(1, \"\", \"\", \"\", 1, 1, \"\", 1 , true, false));\n        employerArray.push(EmployerStruct(2, \"\", \"\", \"\", 2, 2, \"\", 2 , true, true));\n        employerArray.push(EmployerStruct(3, \"\", \"\", \"\", 3, 3, \" \", 3, true, true));\n        employerArray.push(EmployerStruct(4, \"\", \"\", \"\", 4, 4, \" \", 3, true, true));\n        employerNumber = 5;\n        employerAddr_employerNum[msg.sender] = 2;\n    }\n\n    function RankCreater() returns(bool) {\n        rankArray.push(\" \");\n        rankArray.push(\"\");\n        rankArray.push(\"\");\n        rankArray.push(\" \");\n        rankArray.push(\"\");\n        rankArray.push(\" \");\n        rankArray.push(\"\");\n        rankArray.push(\" \");\n        rankArray.push(\" \");\n        rankArray.push(\"\");\n        rankArray.push(\" \");\n        rankArray.push(\"\");\n        rankArray.push(\"\");\n        rankArray.push(\"\");\n        rankArray.push(\"\");\n        rankArray.push(\"-\");\n        rankArray.push(\"-\");\n        rankArray.push(\"-\");\n        return true;\n    }\n\n    function GetRankFromNum(uint rankNum) returns(uint num, string rank){\n        return(rankNum, rankArray[rankNum]);\n    }\n\n    function GetRanks() returns(uint[]){\n        uint[] ranks;\n        for (uint i = 0; i < rankArray.length; i++){\n            ranks.push(1);\n        }\n        return(ranks);\n    }\n\n    function CreateEmployer(\n        string _name,\n        string _family, \n        string _patronymic,\n        //uint _postId,\n        //uint _departmentId, \n        string _rank) returns (bool createEmployer){\n            EmployerStruct memory newEmployer = EmployerStruct({\n                employerNum: employerNumber,\n                employerName:_name,\n                employerFamily:_family,\n                employerPatronymic:_patronymic,\n                employerPostID: 0,\n                employerDepartmentID: 0,\n                employerRank: _rank,\n                employerRankNum: 0,\n                employerStatus: true,\n                isConfirm: false\n            });\n            employerAddr_employerNum[msg.sender] = employerNumber;\n            employerArray.push(newEmployer);\n            employerNumber = employerNumber + 1;\n            return true;\n        }\n        \n    function UpdateEmployer( \n        string _newRank\n    ) returns (bool updateEmployer) {\n        employerArray[employerAddr_employerNum[msg.sender]].employerRank = _newRank;\n        return true;\n    }\n\n    function UpdateEmployerFromNum(\n        uint num,\n        string _newRank\n    ) returns (bool updateEmployer){\n        employerArray[num].employerRank = _newRank;\n        return true;\n    }\n\n    function UpdateEmployerWorkplaceFromNum(\n        uint num,\n        uint newPost,\n        uint newDepartment,\n        uint newFlagIsConfirm\n        ) returns(bool updateEmployerWorkplace){\n            employerArray[num].employerPostID = newPost;\n            employerArray[num].employerDepartmentID = newDepartment;\n            if(newFlagIsConfirm == 1){\n                employerArray[num].isConfirm = true;\n            }else{\n                employerArray[num].isConfirm = false;\n            }\n            \n            return true;\n        }\n\n    function UpdateStatusEmployer(uint _employerNum, bool _newStatus) returns (bool updateStatus) {\n        employerArray[_employerNum].employerStatus = _newStatus;\n        return true;\n    }\n\n    function GetEmployerArraySize() returns(uint[]){\n        uint[] res;\n        for (uint i = 0; i < employerArray.length; i++){\n            res.push(1);\n        }\n        return(res);\n    }\n\n    function GetEmployerFromEmployerNum(uint _employerNum) returns(\n        uint num,\n        string name,\n        string family, \n        string patronymic,\n        string rank,\n        bool status,\n        uint employerRankNum){\n            return (\n                employerArray[_employerNum].employerNum,\n                employerArray[_employerNum].employerName,\n                employerArray[_employerNum].employerFamily,\n                employerArray[_employerNum].employerPatronymic,\n                employerArray[_employerNum].employerRank,\n                employerArray[_employerNum].employerStatus,\n                employerArray[_employerNum].employerRankNum);\n        }\n\n    function GetEmployerWorkplaceFromNum(uint _employerNum) returns(\n        uint postId,\n        uint departmentId,\n        bool isConfirm){\n            return(\n                employerArray[_employerNum].employerPostID,\n                employerArray[_employerNum].employerDepartmentID,\n                employerArray[_employerNum].isConfirm\n            );\n    }\n\n    function GetEmployerFromEmployerAddr() returns(\n        uint num,\n        string name,\n        string family, \n        string patronymic,\n        string rank,\n        bool status,\n        uint employerRankNum){\n            return(\n                employerArray[employerAddr_employerNum[msg.sender]].employerNum,\n                employerArray[employerAddr_employerNum[msg.sender]].employerName,\n                employerArray[employerAddr_employerNum[msg.sender]].employerFamily,\n                employerArray[employerAddr_employerNum[msg.sender]].employerPatronymic,\n                employerArray[employerAddr_employerNum[msg.sender]].employerRank,\n                employerArray[employerAddr_employerNum[msg.sender]].employerStatus,\n                employerArray[employerAddr_employerNum[msg.sender]].employerRankNum);\n        }\n\n    function GetEmployerWorkplaceFromAddr() returns(\n        uint postId,\n        uint departmentId,\n        bool isConfirm){\n            return(\n                employerArray[employerAddr_employerNum[msg.sender]].employerPostID,\n                employerArray[employerAddr_employerNum[msg.sender]].employerDepartmentID,\n                employerArray[employerAddr_employerNum[msg.sender]].isConfirm\n            );\n    }\n\n    /*function GetEmployerNumFromEmployerAddr() returns(uint[]){\n        uint[] num;\n        num.push(employerAddr_employerNum[msg.sender]);\n        return(num);\n    }*/\n\n    function GetEmployerNumFromEmployerAddr() returns(uint){\n        return(employerAddr_employerNum[msg.sender]);\n    }\n\n    function GetEmployersFromDepartmentId (uint depId) returns (uint[]){\n        uint[] result;\n        for (uint i =0; i < employerArray.length; i++){\n            if(employerArray[i].employerDepartmentID == depId){\n                result.push(1);\n            }else{\n                result.push(0);\n            }\n        }\n        return(result);\n    }\n\n    function GetEmployersFromPostId (uint postId) returns (uint[]){\n        uint[] result;\n        for (uint i =0; i < employerArray.length; i++){\n            if(employerArray[i].employerPostID == postId){\n                result.push(1);\n            }else{\n                result.push(0);\n            }\n        }\n        return(result);\n    }\n}\n",
  "sourcePath": "/home/user/Documents/WorkFlow/contracts/EmployerContract.sol",
  "compiler": {
    "name": "solc",
    "version": "0.4.19+commit.c4cbbb05.Emscripten.clang"
  },
  "schemaVersion": "2.0.0",
  "updatedAt": "2018-04-19T20:40:17.880Z"
}