{
  "contractName": "EmployerContract",
  "abi": [
    {
      "inputs": [],
      "payable": false,
      "stateMutability": "nonpayable",
      "type": "constructor"
    },
    {
      "constant": false,
      "inputs": [],
      "name": "RankCreater",
      "outputs": [
        {
          "name": "",
          "type": "bool"
        }
      ],
      "payable": false,
      "stateMutability": "nonpayable",
      "type": "function"
    },
    {
      "constant": false,
      "inputs": [
        {
          "name": "rankNum",
          "type": "uint256"
        }
      ],
      "name": "GetRankFromNum",
      "outputs": [
        {
          "name": "num",
          "type": "uint256"
        },
        {
          "name": "rank",
          "type": "string"
        }
      ],
      "payable": false,
      "stateMutability": "nonpayable",
      "type": "function"
    },
    {
      "constant": false,
      "inputs": [],
      "name": "GetRanks",
      "outputs": [
        {
          "name": "",
          "type": "uint256[]"
        }
      ],
      "payable": false,
      "stateMutability": "nonpayable",
      "type": "function"
    },
    {
      "constant": false,
      "inputs": [
        {
          "name": "_name",
          "type": "string"
        },
        {
          "name": "_family",
          "type": "string"
        },
        {
          "name": "_patronymic",
          "type": "string"
        },
        {
          "name": "_rank",
          "type": "string"
        }
      ],
      "name": "CreateEmployer",
      "outputs": [
        {
          "name": "createEmployer",
          "type": "bool"
        }
      ],
      "payable": false,
      "stateMutability": "nonpayable",
      "type": "function"
    },
    {
      "constant": false,
      "inputs": [
        {
          "name": "_newRank",
          "type": "string"
        }
      ],
      "name": "UpdateEmployer",
      "outputs": [
        {
          "name": "updateEmployer",
          "type": "bool"
        }
      ],
      "payable": false,
      "stateMutability": "nonpayable",
      "type": "function"
    },
    {
      "constant": false,
      "inputs": [
        {
          "name": "num",
          "type": "uint256"
        },
        {
          "name": "_newRank",
          "type": "string"
        }
      ],
      "name": "UpdateEmployerFromNum",
      "outputs": [
        {
          "name": "updateEmployer",
          "type": "bool"
        }
      ],
      "payable": false,
      "stateMutability": "nonpayable",
      "type": "function"
    },
    {
      "constant": false,
      "inputs": [
        {
          "name": "num",
          "type": "uint256"
        },
        {
          "name": "newPost",
          "type": "uint256"
        },
        {
          "name": "newDepartment",
          "type": "uint256"
        }
      ],
      "name": "UpdateEmployerWorkplaceFromNum",
      "outputs": [
        {
          "name": "updateEmployerWorkplace",
          "type": "bool"
        }
      ],
      "payable": false,
      "stateMutability": "nonpayable",
      "type": "function"
    },
    {
      "constant": false,
      "inputs": [
        {
          "name": "_employerNum",
          "type": "uint256"
        },
        {
          "name": "_newStatus",
          "type": "bool"
        }
      ],
      "name": "UpdateStatusEmployer",
      "outputs": [
        {
          "name": "updateStatus",
          "type": "bool"
        }
      ],
      "payable": false,
      "stateMutability": "nonpayable",
      "type": "function"
    },
    {
      "constant": false,
      "inputs": [
        {
          "name": "_postId",
          "type": "uint256"
        }
      ],
      "name": "ApplyPost",
      "outputs": [
        {
          "name": "apply",
          "type": "bool"
        }
      ],
      "payable": false,
      "stateMutability": "nonpayable",
      "type": "function"
    },
    {
      "constant": false,
      "inputs": [
        {
          "name": "_departmentId",
          "type": "uint256"
        }
      ],
      "name": "ApplyDepartment",
      "outputs": [
        {
          "name": "apply",
          "type": "bool"
        }
      ],
      "payable": false,
      "stateMutability": "nonpayable",
      "type": "function"
    },
    {
      "constant": false,
      "inputs": [
        {
          "name": "_newPostId",
          "type": "uint256"
        }
      ],
      "name": "UpdatePostEmployer",
      "outputs": [
        {
          "name": "update",
          "type": "bool"
        }
      ],
      "payable": false,
      "stateMutability": "nonpayable",
      "type": "function"
    },
    {
      "constant": false,
      "inputs": [
        {
          "name": "_newDepartmentId",
          "type": "uint256"
        }
      ],
      "name": "UpdateDepartmentEmployer",
      "outputs": [
        {
          "name": "update",
          "type": "bool"
        }
      ],
      "payable": false,
      "stateMutability": "nonpayable",
      "type": "function"
    },
    {
      "constant": false,
      "inputs": [],
      "name": "GetEmployerArraySize",
      "outputs": [
        {
          "name": "",
          "type": "uint256[]"
        }
      ],
      "payable": false,
      "stateMutability": "nonpayable",
      "type": "function"
    },
    {
      "constant": false,
      "inputs": [
        {
          "name": "_employerNum",
          "type": "uint256"
        }
      ],
      "name": "GetEmployerFromEmployerNum",
      "outputs": [
        {
          "name": "num",
          "type": "uint256"
        },
        {
          "name": "name",
          "type": "string"
        },
        {
          "name": "family",
          "type": "string"
        },
        {
          "name": "patronymic",
          "type": "string"
        },
        {
          "name": "rank",
          "type": "string"
        },
        {
          "name": "status",
          "type": "bool"
        }
      ],
      "payable": false,
      "stateMutability": "nonpayable",
      "type": "function"
    },
    {
      "constant": false,
      "inputs": [
        {
          "name": "_employerNum",
          "type": "uint256"
        }
      ],
      "name": "GetEmployerWorkplaceFromNum",
      "outputs": [
        {
          "name": "postId",
          "type": "uint256"
        },
        {
          "name": "departmentId",
          "type": "uint256"
        }
      ],
      "payable": false,
      "stateMutability": "nonpayable",
      "type": "function"
    },
    {
      "constant": false,
      "inputs": [],
      "name": "GetEmployerFromEmployerAddr",
      "outputs": [
        {
          "name": "num",
          "type": "uint256"
        },
        {
          "name": "name",
          "type": "string"
        },
        {
          "name": "family",
          "type": "string"
        },
        {
          "name": "patronymic",
          "type": "string"
        },
        {
          "name": "rank",
          "type": "string"
        },
        {
          "name": "status",
          "type": "bool"
        }
      ],
      "payable": false,
      "stateMutability": "nonpayable",
      "type": "function"
    },
    {
      "constant": false,
      "inputs": [],
      "name": "GetEmployerWorkplaceFromAddr",
      "outputs": [
        {
          "name": "postId",
          "type": "uint256"
        },
        {
          "name": "departmentId",
          "type": "uint256"
        }
      ],
      "payable": false,
      "stateMutability": "nonpayable",
      "type": "function"
    },
    {
      "constant": false,
      "inputs": [],
      "name": "GetEmployerNumFromEmployerAddr",
      "outputs": [
        {
          "name": "num",
          "type": "uint256"
        }
      ],
      "payable": false,
      "stateMutability": "nonpayable",
      "type": "function"
    },
    {
      "constant": false,
      "inputs": [
        {
          "name": "depId",
          "type": "uint256"
        }
      ],
      "name": "GetEmployersFromDepartmentId",
      "outputs": [
        {
          "name": "",
          "type": "uint256[]"
        }
      ],
      "payable": false,
      "stateMutability": "nonpayable",
      "type": "function"
    },
    {
      "constant": false,
      "inputs": [
        {
          "name": "postId",
          "type": "uint256"
        }
      ],
      "name": "GetEmployersFromPostId",
      "outputs": [
        {
          "name": "",
          "type": "uint256[]"
        }
      ],
      "payable": false,
      "stateMutability": "nonpayable",
      "type": "function"
    }
  ],
  "bytecode": "0x606060405234156200001057600080fd5b6200002e620008bd640100000000026200212d176401000000009004565b50600380548060010182816200004591906200114e565b9160005260206000209060090201600061012060405190810160405280600081526020016040805190810160405280600881526020017fd098d0b2d0b0d0bd00000000000000000000000000000000000000000000000081525081526020016040805190810160405280600e81526020017fd09bd0b8d0bfd183d0b3d0b8d0bd00000000000000000000000000000000000081525081526020016040805190810160405280601a81526020017fd090d0bbd0b5d0bad181d0b0d0bdd0b4d180d0bed0b2d0b8d187000000000000815250815260200160018152602001600181526020016040805190810160405280600e81526020017fd0a0d18fd0b4d0bed0b2d0bed0b90000000000000000000000000000000000008152508152602001600081526020016001151581525090919091506000820151816000015560208201518160010190805190602001906200019e92919062001183565b506040820151816002019080519060200190620001bd92919062001183565b506060820151816003019080519060200190620001dc92919062001183565b506080820151816004015560a0820151816005015560c08201518160060190805190602001906200020f92919062001183565b5060e082015181600701556101008201518160080160006101000a81548160ff021916908315150217905550505050600380548060010182816200025491906200114e565b9160005260206000209060090201600061012060405190810160405280600181526020016040805190810160405280600c81526020017fd09cd0b8d185d0b0d0b8d0bb000000000000000000000000000000000000000081525081526020016040805190810160405280600a81526020017fd0a4d0bed0bbd0b5d0b20000000000000000000000000000000000000000000081525081526020016040805190810160405280601081526020017fd09fd0b5d182d180d0bed0b2d0b8d18700000000000000000000000000000000815250815260200160028152602001600281526020016040805190810160405280601081526020017fd095d184d180d0b5d0b9d182d0bed18000000000000000000000000000000000815250815260200160018152602001600115158152509091909150600082015181600001556020820151816001019080519060200190620003ad92919062001183565b506040820151816002019080519060200190620003cc92919062001183565b506060820151816003019080519060200190620003eb92919062001183565b506080820151816004015560a0820151816005015560c08201518160060190805190602001906200041e92919062001183565b5060e082015181600701556101008201518160080160006101000a81548160ff021916908315150217905550505050600380548060010182816200046391906200114e565b9160005260206000209060090201600061012060405190810160405280600281526020016040805190810160405280600c81526020017fd090d0bdd0b4d180d0b5d0b9000000000000000000000000000000000000000081525081526020016040805190810160405280600e81526020017fd094d0b5d0b2d18fd182d0bed0b200000000000000000000000000000000000081525081526020016040805190810160405280601481526020017fd092d0b8d0bad182d0bed180d0bed0b2d0b8d187000000000000000000000000815250815260200160038152602001600381526020016040805190810160405280601d81526020017fd09cd0bbd0b0d0b4d188d0b8d0b920d181d0b5d180d0b6d0b0d0bdd182000000815250815260200160028152602001600115158152509091909150600082015181600001556020820151816001019080519060200190620005bc92919062001183565b506040820151816002019080519060200190620005db92919062001183565b506060820151816003019080519060200190620005fa92919062001183565b506080820151816004015560a0820151816005015560c08201518160060190805190602001906200062d92919062001183565b5060e082015181600701556101008201518160080160006101000a81548160ff021916908315150217905550505050600380548060010182816200067291906200114e565b9160005260206000209060090201600061012060405190810160405280600381526020016040805190810160405280600e81526020017fd090d0bbd0b5d0bad181d0b5d0b900000000000000000000000000000000000081525081526020016040805190810160405280601081526020017fd09bd0b5d0bad181d183d181d0bed0b20000000000000000000000000000000081525081526020016040805190810160405280601281526020017fd0a2d180d0b8d0bdd0b5d0b5d0b2d0b8d1870000000000000000000000000000815250815260200160048152602001600481526020016040805190810160405280601d81526020017fd09cd0bbd0b0d0b4d188d0b8d0b920d181d0b5d180d0b6d0b0d0bdd182000000815250815260200160028152602001600115158152509091909150600082015181600001556020820151816001019080519060200190620007cb92919062001183565b506040820151816002019080519060200190620007ea92919062001183565b5060608201518160030190805190602001906200080992919062001183565b506080820151816004015560a0820151816005015560c08201518160060190805190602001906200083c92919062001183565b5060e082015181600701556101008201518160080160006101000a81548160ff021916908315150217905550505050600460058190555060026000803373ffffffffffffffffffffffffffffffffffffffff1673ffffffffffffffffffffffffffffffffffffffff1681526020019081526020016000208190555062001403565b600060048054806001018281620008d591906200120a565b916000526020600020900160006040805190810160405280600e81526020017fd0a0d18fd0b4d0bed0b2d0bed0b9000000000000000000000000000000000000815250909190915090805190602001906200093292919062001239565b5050600480548060010182816200094a91906200120a565b916000526020600020900160006040805190810160405280601081526020017fd095d184d180d0b5d0b9d182d0bed1800000000000000000000000000000000081525090919091509080519060200190620009a792919062001239565b505060048054806001018281620009bf91906200120a565b916000526020600020900160006040805190810160405280601d81526020017fd09cd0bbd0b0d0b4d188d0b8d0b920d0a1d0b5d180d0b6d0b0d0bdd1820000008152509091909150908051906020019062000a1c92919062001239565b50506004805480600101828162000a3491906200120a565b916000526020600020900160006040805190810160405280600e81526020017fd0a1d0b5d180d0b6d0b0d0bdd1820000000000000000000000000000000000008152509091909150908051906020019062000a9192919062001239565b50506004805480600101828162000aa991906200120a565b916000526020600020900160006040805190810160405280601d81526020017fd0a1d182d0b0d180d188d0b8d0b920d0a1d0b5d180d0b6d0b0d0bdd1820000008152509091909150908051906020019062000b0692919062001239565b50506004805480600101828162000b1e91906200120a565b916000526020600020900160006040805190810160405280601281526020017fd09fd180d0b0d0bfd0bed180d189d0b8d0ba00000000000000000000000000008152509091909150908051906020019062000b7b92919062001239565b50506004805480600101828162000b9391906200120a565b91600052602060002090016000606060405190810160405280602181526020017fd0a1d182d180d0b0d188d0b8d0b920d0bfd180d0b0d0bfd0bed180d189d0b8d081526020017fb9000000000000000000000000000000000000000000000000000000000000008152509091909150908051906020019062000c1792919062001239565b50506004805480600101828162000c2f91906200120a565b91600052602060002090016000606060405190810160405280602181526020017fd09cd0bbd0b0d0b4d188d0b8d0b920d0bbd0b5d0b9d182d0b5d0bdd0b0d0bdd181526020017f82000000000000000000000000000000000000000000000000000000000000008152509091909150908051906020019062000cb392919062001239565b50506004805480600101828162000ccb91906200120a565b916000526020600020900160006040805190810160405280601281526020017fd09bd0b5d0b9d182d0b5d0bdd0b0d0bdd18200000000000000000000000000008152509091909150908051906020019062000d2892919062001239565b50506004805480600101828162000d4091906200120a565b91600052602060002090016000606060405190810160405280602181526020017fd0a1d182d0b0d180d188d0b8d0b920d09bd0b5d0b9d182d0b5d0bdd0b0d0bdd181526020017f82000000000000000000000000000000000000000000000000000000000000008152509091909150908051906020019062000dc492919062001239565b50506004805480600101828162000ddc91906200120a565b916000526020600020900160006040805190810160405280600e81526020017fd09ad0b0d0bfd0b8d182d0b0d0bd0000000000000000000000000000000000008152509091909150908051906020019062000e3992919062001239565b50506004805480600101828162000e5191906200120a565b916000526020600020900160006040805190810160405280600a81526020017fd09cd0b0d0b9d0bed180000000000000000000000000000000000000000000008152509091909150908051906020019062000eae92919062001239565b50506004805480600101828162000ec691906200120a565b916000526020600020900160006040805190810160405280601881526020017fd09fd0bed0b4d0bfd0bed0bbd0bad0bed0b2d0bdd0b8d0ba00000000000000008152509091909150908051906020019062000f2392919062001239565b50506004805480600101828162000f3b91906200120a565b916000526020600020900160006040805190810160405280601281526020017fd09fd0bed0bbd0bad0bed0b2d0bdd0b8d0ba00000000000000000000000000008152509091909150908051906020019062000f9892919062001239565b50506004805480600101828162000fb091906200120a565b916000526020600020900160006040805190810160405280601981526020017fd093d0b5d0bdd0b5d180d0b0d0bb2dd09cd0b0d0b9d0bed18000000000000000815250909190915090805190602001906200100d92919062001239565b5050600480548060010182816200102591906200120a565b91600052602060002090016000606060405190810160405280602181526020017fd093d0b5d0bdd0b5d180d0b0d0bb2dd0bbd0b5d0b9d182d0b5d0bdd0b0d0bdd181526020017f820000000000000000000000000000000000000000000000000000000000000081525090919091509080519060200190620010a992919062001239565b505060048054806001018281620010c191906200120a565b91600052602060002090016000606060405190810160405280602181526020017fd093d0b5d0bdd0b5d180d0b0d0bb2dd0bfd0bed0bbd0bad0bed0b2d0bdd0b8d081526020017fba00000000000000000000000000000000000000000000000000000000000000815250909190915090805190602001906200114592919062001239565b50506001905090565b8154818355818115116200117e576009028160090283600052602060002091820191016200117d9190620012c0565b5b505050565b828054600181600116156101000203166002900490600052602060002090601f016020900481019282601f10620011c657805160ff1916838001178555620011f7565b82800160010185558215620011f7579182015b82811115620011f6578251825591602001919060010190620011d9565b5b5090506200120691906200135e565b5090565b815481835581811511620012345781836000526020600020918201910162001233919062001386565b5b505050565b828054600181600116156101000203166002900490600052602060002090601f016020900481019282601f106200127c57805160ff1916838001178555620012ad565b82800160010185558215620012ad579182015b82811115620012ac5782518255916020019190600101906200128f565b5b509050620012bc91906200135e565b5090565b6200135b91905b808211156200135757600080820160009055600182016000620012eb9190620013b7565b600282016000620012fd9190620013b7565b6003820160006200130f9190620013b7565b60048201600090556005820160009055600682016000620013319190620013b7565b60078201600090556008820160006101000a81549060ff021916905550600901620012c7565b5090565b90565b6200138391905b808211156200137f57600081600090555060010162001365565b5090565b90565b620013b491905b80821115620013b05760008181620013a69190620013b7565b506001016200138d565b5090565b90565b50805460018160011615610100020316600290046000825580601f10620013df575062001400565b601f016020900490600052602060002090810190620013ff91906200135e565b5b50565b612f0880620014136000396000f300606060405260043610610112576000357c0100000000000000000000000000000000000000000000000000000000900463ffffffff1680630aa5e098146101175780630d5a2975146101525780634279591f146101ca578063445976291461026d578063535a6118146102e557806354759f091461032b57806354fc5fe21461036957806356ce27981461055b5780636a5f1b2a1461059657806373cc1d6c146106d45780637a0788891461070f578063810209eb1461073f578063897bdd2514610923578063a147ecf81461098d578063b7241d19146109c8578063b978b0b4146109f5578063bbec8db614610a5f578063d6d8093c14610add578063ec03687614610b2a578063f806fc4214610b53575b600080fd5b341561012257600080fd5b6101386004808035906020019091905050610bc8565b604051808215151515815260200191505060405180910390f35b341561015d57600080fd5b6101736004808035906020019091905050610d5b565b6040518080602001828103825283818151815260200191508051906020019060200280838360005b838110156101b657808201518184015260208101905061019b565b505050509050019250505060405180910390f35b34156101d557600080fd5b6101eb6004808035906020019091905050610e5d565b6040518083815260200180602001828103825283818151815260200191508051906020019080838360005b83811015610231578082015181840152602081019050610216565b50505050905090810190601f16801561025e5780820380516001836020036101000a031916815260200191505b50935050505060405180910390f35b341561027857600080fd5b61028e6004808035906020019091905050610f27565b6040518080602001828103825283818151815260200191508051906020019060200280838360005b838110156102d15780820151818401526020810190506102b6565b505050509050019250505060405180910390f35b34156102f057600080fd5b61031160048080359060200190919080351515906020019091905050611029565b604051808215151515815260200191505060405180910390f35b341561033657600080fd5b61034c600480803590602001909190505061106d565b604051808381526020018281526020019250505060405180910390f35b341561037457600080fd5b61038a60048080359060200190919050506110bb565b60405180878152602001806020018060200180602001806020018615151515815260200185810385528a818151815260200191508051906020019080838360005b838110156103e65780820151818401526020810190506103cb565b50505050905090810190601f1680156104135780820380516001836020036101000a031916815260200191505b50858103845289818151815260200191508051906020019080838360005b8381101561044c578082015181840152602081019050610431565b50505050905090810190601f1680156104795780820380516001836020036101000a031916815260200191505b50858103835288818151815260200191508051906020019080838360005b838110156104b2578082015181840152602081019050610497565b50505050905090810190601f1680156104df5780820380516001836020036101000a031916815260200191505b50858103825287818151815260200191508051906020019080838360005b838110156105185780820151818401526020810190506104fd565b50505050905090810190601f1680156105455780820380516001836020036101000a031916815260200191505b509a505050505050505050505060405180910390f35b341561056657600080fd5b61057c6004808035906020019091905050611433565b604051808215151515815260200191505060405180910390f35b34156105a157600080fd5b6106ba600480803590602001908201803590602001908080601f0160208091040260200160405190810160405280939291908181526020018383808284378201915050505050509190803590602001908201803590602001908080601f0160208091040260200160405190810160405280939291908181526020018383808284378201915050505050509190803590602001908201803590602001908080601f0160208091040260200160405190810160405280939291908181526020018383808284378201915050505050509190803590602001908201803590602001908080601f016020809104026020016040519081016040528093929190818152602001838380828437820191505050505050919050506115c6565b604051808215151515815260200191505060405180910390f35b34156106df57600080fd5b6106f56004808035906020019091905050611763565b604051808215151515815260200191505060405180910390f35b341561071a57600080fd5b610722611919565b604051808381526020018281526020019250505060405180910390f35b341561074a57600080fd5b6107526119e2565b60405180878152602001806020018060200180602001806020018615151515815260200185810385528a818151815260200191508051906020019080838360005b838110156107ae578082015181840152602081019050610793565b50505050905090810190601f1680156107db5780820380516001836020036101000a031916815260200191505b50858103845289818151815260200191508051906020019080838360005b838110156108145780820151818401526020810190506107f9565b50505050905090810190601f1680156108415780820380516001836020036101000a031916815260200191505b50858103835288818151815260200191508051906020019080838360005b8381101561087a57808201518184015260208101905061085f565b50505050905090810190601f1680156108a75780820380516001836020036101000a031916815260200191505b50858103825287818151815260200191508051906020019080838360005b838110156108e05780820151818401526020810190506108c5565b50505050905090810190601f16801561090d5780820380516001836020036101000a031916815260200191505b509a505050505050505050505060405180910390f35b341561092e57600080fd5b610936611ecd565b6040518080602001828103825283818151815260200191508051906020019060200280838360005b8381101561097957808201518184015260208101905061095e565b505050509050019250505060405180910390f35b341561099857600080fd5b6109ae6004808035906020019091905050611f77565b604051808215151515815260200191505060405180910390f35b34156109d357600080fd5b6109db61212d565b604051808215151515815260200191505060405180910390f35b3415610a0057600080fd5b610a0861297a565b6040518080602001828103825283818151815260200191508051906020019060200280838360005b83811015610a4b578082015181840152602081019050610a30565b505050509050019250505060405180910390f35b3415610a6a57600080fd5b610ac3600480803590602001909190803590602001908201803590602001908080601f01602080910402602001604051908101604052809392919081815260200183838082843782019150505050505091905050612a24565b604051808215151515815260200191505060405180910390f35b3415610ae857600080fd5b610b106004808035906020019091908035906020019091908035906020019091905050612a65565b604051808215151515815260200191505060405180910390f35b3415610b3557600080fd5b610b3d612abc565b6040518082815260200191505060405180910390f35b3415610b5e57600080fd5b610bae600480803590602001908201803590602001908080601f01602080910402602001604051908101604052809392919081815260200183838082843782019150505050505091905050612b05565b604051808215151515815260200191505060405180910390f35b600080600090505b6001600084815260200190815260200160002080549050811015610c75576000803373ffffffffffffffffffffffffffffffffffffffff1673ffffffffffffffffffffffffffffffffffffffff168152602001908152602001600020546001600085815260200190815260200160002082815481101515610c4d57fe5b9060005260206000209001541415610c685760009150610d55565b8080600101915050610bd0565b600160008481526020019081526020016000208054806001018281610c9a9190612b83565b916000526020600020900160008060003373ffffffffffffffffffffffffffffffffffffffff1673ffffffffffffffffffffffffffffffffffffffff16815260200190815260200160002054909190915055508260036000803373ffffffffffffffffffffffffffffffffffffffff1673ffffffffffffffffffffffffffffffffffffffff16815260200190815260200160002054815481101515610d3b57fe5b906000526020600020906009020160040181905550600191505b50919050565b610d63612baf565b600080600090505b600380549050811015610e045783600382815481101515610d8857fe5b9060005260206000209060090201600401541415610dce57818054806001018281610db39190612b83565b91600052602060002090016000600190919091505550610df7565b818054806001018281610de19190612b83565b9160005260206000209001600080909190915055505b8080600101915050610d6b565b81805480602002602001604051908101604052809291908181526020018280548015610e4f57602002820191906000526020600020905b815481526020019060010190808311610e3b575b505050505092505050919050565b6000610e67612bc3565b82600484815481101515610e7757fe5b9060005260206000209001808054600181600116156101000203166002900480601f016020809104026020016040519081016040528092919081815260200182805460018160011615610100020316600290048015610f175780601f10610eec57610100808354040283529160200191610f17565b820191906000526020600020905b815481529060010190602001808311610efa57829003601f168201915b5050505050905091509150915091565b610f2f612baf565b600080600090505b600380549050811015610fd05783600382815481101515610f5457fe5b9060005260206000209060090201600501541415610f9a57818054806001018281610f7f9190612b83565b91600052602060002090016000600190919091505550610fc3565b818054806001018281610fad9190612b83565b9160005260206000209001600080909190915055505b8080600101915050610f37565b8180548060200260200160405190810160405280929190818152602001828054801561101b57602002820191906000526020600020905b815481526020019060010190808311611007575b505050505092505050919050565b60008160038481548110151561103b57fe5b906000526020600020906009020160080160006101000a81548160ff0219169083151502179055506001905092915050565b60008060038381548110151561107f57fe5b9060005260206000209060090201600401546003848154811015156110a057fe5b90600052602060002090600902016005015491509150915091565b60006110c5612bc3565b6110cd612bc3565b6110d5612bc3565b6110dd612bc3565b60006003878154811015156110ee57fe5b90600052602060002090600902016000015460038881548110151561110f57fe5b906000526020600020906009020160010160038981548110151561112f57fe5b906000526020600020906009020160020160038a81548110151561114f57fe5b906000526020600020906009020160030160038b81548110151561116f57fe5b906000526020600020906009020160060160038c81548110151561118f57fe5b906000526020600020906009020160080160009054906101000a900460ff16848054600181600116156101000203166002900480601f0160208091040260200160405190810160405280929190818152602001828054600181600116156101000203166002900480156112435780601f1061121857610100808354040283529160200191611243565b820191906000526020600020905b81548152906001019060200180831161122657829003601f168201915b50505050509450838054600181600116156101000203166002900480601f0160208091040260200160405190810160405280929190818152602001828054600181600116156101000203166002900480156112df5780601f106112b4576101008083540402835291602001916112df565b820191906000526020600020905b8154815290600101906020018083116112c257829003601f168201915b50505050509350828054600181600116156101000203166002900480601f01602080910402602001604051908101604052809291908181526020018280546001816001161561010002031660029004801561137b5780601f106113505761010080835404028352916020019161137b565b820191906000526020600020905b81548152906001019060200180831161135e57829003601f168201915b50505050509250818054600181600116156101000203166002900480601f0160208091040260200160405190810160405280929190818152602001828054600181600116156101000203166002900480156114175780601f106113ec57610100808354040283529160200191611417565b820191906000526020600020905b8154815290600101906020018083116113fa57829003601f168201915b5050505050915095509550955095509550955091939550919395565b600080600090505b60026000848152602001908152602001600020805490508110156114e0576000803373ffffffffffffffffffffffffffffffffffffffff1673ffffffffffffffffffffffffffffffffffffffff1681526020019081526020016000205460026000858152602001908152602001600020828154811015156114b857fe5b90600052602060002090015414156114d357600091506115c0565b808060010191505061143b565b6002600084815260200190815260200160002080548060010182816115059190612b83565b916000526020600020900160008060003373ffffffffffffffffffffffffffffffffffffffff1673ffffffffffffffffffffffffffffffffffffffff16815260200190815260200160002054909190915055508260036000803373ffffffffffffffffffffffffffffffffffffffff1673ffffffffffffffffffffffffffffffffffffffff168152602001908152602001600020548154811015156115a657fe5b906000526020600020906009020160050181905550600191505b50919050565b60006115d0612bd7565b6101206040519081016040528060055481526020018781526020018681526020018581526020016000815260200160008152602001848152602001600081526020016001151581525090506005546000803373ffffffffffffffffffffffffffffffffffffffff1673ffffffffffffffffffffffffffffffffffffffff16815260200190815260200160002081905550600380548060010182816116749190612c3e565b916000526020600020906009020160008390919091506000820151816000015560208201518160010190805190602001906116b0929190612c70565b5060408201518160020190805190602001906116cd929190612c70565b5060608201518160030190805190602001906116ea929190612c70565b506080820151816004015560a0820151816005015560c082015181600601908051906020019061171b929190612c70565b5060e082015181600701556101008201518160080160006101000a81548160ff0219169083151502179055505050506001600554016005819055506001915050949350505050565b60008060036000803373ffffffffffffffffffffffffffffffffffffffff1673ffffffffffffffffffffffffffffffffffffffff168152602001908152602001600020548154811015156117b357fe5b9060005260206000209060090201600501549050600260008281526020019081526020016000206000803373ffffffffffffffffffffffffffffffffffffffff1673ffffffffffffffffffffffffffffffffffffffff1681526020019081526020016000205481548110151561182557fe5b9060005260206000209001600090556002600084815260200190815260200160002080548060010182816118599190612b83565b916000526020600020900160008060003373ffffffffffffffffffffffffffffffffffffffff1673ffffffffffffffffffffffffffffffffffffffff16815260200190815260200160002054909190915055508260036000803373ffffffffffffffffffffffffffffffffffffffff1673ffffffffffffffffffffffffffffffffffffffff168152602001908152602001600020548154811015156118fa57fe5b9060005260206000209060090201600501819055506001915050919050565b60008060036000803373ffffffffffffffffffffffffffffffffffffffff1673ffffffffffffffffffffffffffffffffffffffff1681526020019081526020016000205481548110151561196957fe5b90600052602060002090600902016004015460036000803373ffffffffffffffffffffffffffffffffffffffff1673ffffffffffffffffffffffffffffffffffffffff168152602001908152602001600020548154811015156119c857fe5b906000526020600020906009020160050154915091509091565b60006119ec612bc3565b6119f4612bc3565b6119fc612bc3565b611a04612bc3565b600060036000803373ffffffffffffffffffffffffffffffffffffffff1673ffffffffffffffffffffffffffffffffffffffff16815260200190815260200160002054815481101515611a5357fe5b90600052602060002090600902016000015460036000803373ffffffffffffffffffffffffffffffffffffffff1673ffffffffffffffffffffffffffffffffffffffff16815260200190815260200160002054815481101515611ab257fe5b906000526020600020906009020160010160036000803373ffffffffffffffffffffffffffffffffffffffff1673ffffffffffffffffffffffffffffffffffffffff16815260200190815260200160002054815481101515611b1057fe5b906000526020600020906009020160020160036000803373ffffffffffffffffffffffffffffffffffffffff1673ffffffffffffffffffffffffffffffffffffffff16815260200190815260200160002054815481101515611b6e57fe5b906000526020600020906009020160030160036000803373ffffffffffffffffffffffffffffffffffffffff1673ffffffffffffffffffffffffffffffffffffffff16815260200190815260200160002054815481101515611bcc57fe5b906000526020600020906009020160060160036000803373ffffffffffffffffffffffffffffffffffffffff1673ffffffffffffffffffffffffffffffffffffffff16815260200190815260200160002054815481101515611c2a57fe5b906000526020600020906009020160080160009054906101000a900460ff16848054600181600116156101000203166002900480601f016020809104026020016040519081016040528092919081815260200182805460018160011615610100020316600290048015611cde5780601f10611cb357610100808354040283529160200191611cde565b820191906000526020600020905b815481529060010190602001808311611cc157829003601f168201915b50505050509450838054600181600116156101000203166002900480601f016020809104026020016040519081016040528092919081815260200182805460018160011615610100020316600290048015611d7a5780601f10611d4f57610100808354040283529160200191611d7a565b820191906000526020600020905b815481529060010190602001808311611d5d57829003601f168201915b50505050509350828054600181600116156101000203166002900480601f016020809104026020016040519081016040528092919081815260200182805460018160011615610100020316600290048015611e165780601f10611deb57610100808354040283529160200191611e16565b820191906000526020600020905b815481529060010190602001808311611df957829003601f168201915b50505050509250818054600181600116156101000203166002900480601f016020809104026020016040519081016040528092919081815260200182805460018160011615610100020316600290048015611eb25780601f10611e8757610100808354040283529160200191611eb2565b820191906000526020600020905b815481529060010190602001808311611e9557829003601f168201915b50505050509150955095509550955095509550909192939495565b611ed5612baf565b600080600090505b600380549050811015611f2057818054806001018281611efd9190612b83565b916000526020600020900160006001909190915055508080600101915050611edd565b81805480602002602001604051908101604052809291908181526020018280548015611f6b57602002820191906000526020600020905b815481526020019060010190808311611f57575b50505050509250505090565b60008060036000803373ffffffffffffffffffffffffffffffffffffffff1673ffffffffffffffffffffffffffffffffffffffff16815260200190815260200160002054815481101515611fc757fe5b9060005260206000209060090201600401549050600160008281526020019081526020016000206000803373ffffffffffffffffffffffffffffffffffffffff1673ffffffffffffffffffffffffffffffffffffffff1681526020019081526020016000205481548110151561203957fe5b90600052602060002090016000905560016000848152602001908152602001600020805480600101828161206d9190612b83565b916000526020600020900160008060003373ffffffffffffffffffffffffffffffffffffffff1673ffffffffffffffffffffffffffffffffffffffff16815260200190815260200160002054909190915055508260036000803373ffffffffffffffffffffffffffffffffffffffff1673ffffffffffffffffffffffffffffffffffffffff1681526020019081526020016000205481548110151561210e57fe5b9060005260206000209060090201600401819055506001915050919050565b6000600480548060010182816121439190612cf0565b916000526020600020900160006040805190810160405280600e81526020017fd0a0d18fd0b4d0bed0b2d0bed0b90000000000000000000000000000000000008152509091909150908051906020019061219e929190612d1c565b5050600480548060010182816121b49190612cf0565b916000526020600020900160006040805190810160405280601081526020017fd095d184d180d0b5d0b9d182d0bed180000000000000000000000000000000008152509091909150908051906020019061220f929190612d1c565b5050600480548060010182816122259190612cf0565b916000526020600020900160006040805190810160405280601d81526020017fd09cd0bbd0b0d0b4d188d0b8d0b920d0a1d0b5d180d0b6d0b0d0bdd18200000081525090919091509080519060200190612280929190612d1c565b5050600480548060010182816122969190612cf0565b916000526020600020900160006040805190810160405280600e81526020017fd0a1d0b5d180d0b6d0b0d0bdd182000000000000000000000000000000000000815250909190915090805190602001906122f1929190612d1c565b5050600480548060010182816123079190612cf0565b916000526020600020900160006040805190810160405280601d81526020017fd0a1d182d0b0d180d188d0b8d0b920d0a1d0b5d180d0b6d0b0d0bdd18200000081525090919091509080519060200190612362929190612d1c565b5050600480548060010182816123789190612cf0565b916000526020600020900160006040805190810160405280601281526020017fd09fd180d0b0d0bfd0bed180d189d0b8d0ba0000000000000000000000000000815250909190915090805190602001906123d3929190612d1c565b5050600480548060010182816123e99190612cf0565b91600052602060002090016000606060405190810160405280602181526020017fd0a1d182d180d0b0d188d0b8d0b920d0bfd180d0b0d0bfd0bed180d189d0b8d081526020017fb9000000000000000000000000000000000000000000000000000000000000008152509091909150908051906020019061246b929190612d1c565b5050600480548060010182816124819190612cf0565b91600052602060002090016000606060405190810160405280602181526020017fd09cd0bbd0b0d0b4d188d0b8d0b920d0bbd0b5d0b9d182d0b5d0bdd0b0d0bdd181526020017f820000000000000000000000000000000000000000000000000000000000000081525090919091509080519060200190612503929190612d1c565b5050600480548060010182816125199190612cf0565b916000526020600020900160006040805190810160405280601281526020017fd09bd0b5d0b9d182d0b5d0bdd0b0d0bdd182000000000000000000000000000081525090919091509080519060200190612574929190612d1c565b50506004805480600101828161258a9190612cf0565b91600052602060002090016000606060405190810160405280602181526020017fd0a1d182d0b0d180d188d0b8d0b920d09bd0b5d0b9d182d0b5d0bdd0b0d0bdd181526020017f82000000000000000000000000000000000000000000000000000000000000008152509091909150908051906020019061260c929190612d1c565b5050600480548060010182816126229190612cf0565b916000526020600020900160006040805190810160405280600e81526020017fd09ad0b0d0bfd0b8d182d0b0d0bd0000000000000000000000000000000000008152509091909150908051906020019061267d929190612d1c565b5050600480548060010182816126939190612cf0565b916000526020600020900160006040805190810160405280600a81526020017fd09cd0b0d0b9d0bed18000000000000000000000000000000000000000000000815250909190915090805190602001906126ee929190612d1c565b5050600480548060010182816127049190612cf0565b916000526020600020900160006040805190810160405280601881526020017fd09fd0bed0b4d0bfd0bed0bbd0bad0bed0b2d0bdd0b8d0ba00000000000000008152509091909150908051906020019061275f929190612d1c565b5050600480548060010182816127759190612cf0565b916000526020600020900160006040805190810160405280601281526020017fd09fd0bed0bbd0bad0bed0b2d0bdd0b8d0ba0000000000000000000000000000815250909190915090805190602001906127d0929190612d1c565b5050600480548060010182816127e69190612cf0565b916000526020600020900160006040805190810160405280601981526020017fd093d0b5d0bdd0b5d180d0b0d0bb2dd09cd0b0d0b9d0bed1800000000000000081525090919091509080519060200190612841929190612d1c565b5050600480548060010182816128579190612cf0565b91600052602060002090016000606060405190810160405280602181526020017fd093d0b5d0bdd0b5d180d0b0d0bb2dd0bbd0b5d0b9d182d0b5d0bdd0b0d0bdd181526020017f8200000000000000000000000000000000000000000000000000000000000000815250909190915090805190602001906128d9929190612d1c565b5050600480548060010182816128ef9190612cf0565b91600052602060002090016000606060405190810160405280602181526020017fd093d0b5d0bdd0b5d180d0b0d0bb2dd0bfd0bed0bbd0bad0bed0b2d0bdd0b8d081526020017fba0000000000000000000000000000000000000000000000000000000000000081525090919091509080519060200190612971929190612d1c565b50506001905090565b612982612baf565b600080600090505b6004805490508110156129cd578180548060010182816129aa9190612b83565b91600052602060002090016000600190919091505550808060010191505061298a565b81805480602002602001604051908101604052809291908181526020018280548015612a1857602002820191906000526020600020905b815481526020019060010190808311612a04575b50505050509250505090565b600081600384815481101515612a3657fe5b90600052602060002090600902016006019080519060200190612a5a929190612d1c565b506001905092915050565b600082600385815481101515612a7757fe5b90600052602060002090600902016004018190555081600385815481101515612a9c57fe5b906000526020600020906009020160050181905550600190509392505050565b60008060003373ffffffffffffffffffffffffffffffffffffffff1673ffffffffffffffffffffffffffffffffffffffff16815260200190815260200160002054905080905090565b60008160036000803373ffffffffffffffffffffffffffffffffffffffff1673ffffffffffffffffffffffffffffffffffffffff16815260200190815260200160002054815481101515612b5557fe5b90600052602060002090600902016006019080519060200190612b79929190612d1c565b5060019050919050565b815481835581811511612baa57818360005260206000209182019101612ba99190612d9c565b5b505050565b602060405190810160405280600081525090565b602060405190810160405280600081525090565b6101206040519081016040528060008152602001612bf3612dc1565b8152602001612c00612dc1565b8152602001612c0d612dc1565b81526020016000815260200160008152602001612c28612dc1565b8152602001600081526020016000151581525090565b815481835581811511612c6b57600902816009028360005260206000209182019101612c6a9190612dd5565b5b505050565b828054600181600116156101000203166002900490600052602060002090601f016020900481019282601f10612cb157805160ff1916838001178555612cdf565b82800160010185558215612cdf579182015b82811115612cde578251825591602001919060010190612cc3565b5b509050612cec9190612d9c565b5090565b815481835581811511612d1757818360005260206000209182019101612d169190612e68565b5b505050565b828054600181600116156101000203166002900490600052602060002090601f016020900481019282601f10612d5d57805160ff1916838001178555612d8b565b82800160010185558215612d8b579182015b82811115612d8a578251825591602001919060010190612d6f565b5b509050612d989190612d9c565b5090565b612dbe91905b80821115612dba576000816000905550600101612da2565b5090565b90565b602060405190810160405280600081525090565b612e6591905b80821115612e6157600080820160009055600182016000612dfc9190612e94565b600282016000612e0c9190612e94565b600382016000612e1c9190612e94565b60048201600090556005820160009055600682016000612e3c9190612e94565b60078201600090556008820160006101000a81549060ff021916905550600901612ddb565b5090565b90565b612e9191905b80821115612e8d5760008181612e849190612e94565b50600101612e6e565b5090565b90565b50805460018160011615610100020316600290046000825580601f10612eba5750612ed9565b601f016020900490600052602060002090810190612ed89190612d9c565b5b505600a165627a7a72305820bc5eea9d046d252cc45e299dee5a3ffcbb8bb1fa01e24245ecdaddda19bd5c970029",
  "source": "// ,          \n\npragma solidity ^0.4.18;\n\ncontract EmployerContract{\n\n    mapping (address => uint) employerAddr_employerNum;\n    mapping (uint => uint[]) postNum_employerNum;\n    mapping (uint => uint[]) departmentNum_employerNum;\n    //mapping (uint => string) number_rank;\n\n    struct EmployerStruct{\n        uint employerNum;\n        string employerName;\n        string employerFamily;\n        string employerPatronymic;\n        uint employerPostID;\n        uint employerDepartmentID;\n        string employerRank;\n        uint employerRankNum;\n        bool employerStatus;\n    }\n\n    EmployerStruct[] employerArray;\n    string[] rankArray;\n    uint employerNumber;\n\n    function EmployerContract() public {\n        RankCreater();\n        employerArray.push(EmployerStruct(0, \"\", \"\", \"\", 1, 1, \"\", 0 , true));\n        employerArray.push(EmployerStruct(1, \"\", \"\", \"\", 2, 2, \"\", 1 , true));\n        employerArray.push(EmployerStruct(2, \"\", \"\", \"\", 3, 3, \" \", 2, true));\n        employerArray.push(EmployerStruct(3, \"\", \"\", \"\", 4, 4, \" \", 2, true));\n        employerNumber = 4;\n        employerAddr_employerNum[msg.sender] = 2;\n    }\n\n    function RankCreater() returns(bool) {\n        rankArray.push(\"\");\n        rankArray.push(\"\");\n        rankArray.push(\" \");\n        rankArray.push(\"\");\n        rankArray.push(\" \");\n        rankArray.push(\"\");\n        rankArray.push(\" \");\n        rankArray.push(\" \");\n        rankArray.push(\"\");\n        rankArray.push(\" \");\n        rankArray.push(\"\");\n        rankArray.push(\"\");\n        rankArray.push(\"\");\n        rankArray.push(\"\");\n        rankArray.push(\"-\");\n        rankArray.push(\"-\");\n        rankArray.push(\"-\");\n        return true;\n    }\n\n    function GetRankFromNum(uint rankNum) returns(uint num, string rank){\n        return(rankNum, rankArray[rankNum]);\n    }\n\n    function GetRanks() returns(uint[]){\n        uint[] ranks;\n        for (uint i = 0; i < rankArray.length; i++){\n            ranks.push(1);\n        }\n        return(ranks);\n    }\n\n    function CreateEmployer(\n        string _name,\n        string _family, \n        string _patronymic,\n        //uint _postId,\n        //uint _departmentId, \n        string _rank) returns (bool createEmployer){\n            EmployerStruct memory newEmployer = EmployerStruct({\n                employerNum: employerNumber,\n                employerName:_name,\n                employerFamily:_family,\n                employerPatronymic:_patronymic,\n                employerPostID: 0,\n                employerDepartmentID: 0,\n                employerRank: _rank,\n                employerRankNum: 0,\n                employerStatus: true\n            });\n            employerAddr_employerNum[msg.sender] = employerNumber;\n            employerArray.push(newEmployer);\n            employerNumber = employerNumber + 1;\n            return true;\n        }\n        \n    function UpdateEmployer( \n        string _newRank\n    ) returns (bool updateEmployer) {\n        employerArray[employerAddr_employerNum[msg.sender]].employerRank = _newRank;\n        return true;\n    }\n\n    function UpdateEmployerFromNum(\n        uint num,\n        string _newRank\n    ) returns (bool updateEmployer){\n        employerArray[num].employerRank = _newRank;\n        return true;\n    }\n\n    function UpdateEmployerWorkplaceFromNum(\n        uint num,\n        uint newPost,\n        uint newDepartment\n        ) returns(bool updateEmployerWorkplace){\n            employerArray[num].employerPostID = newPost;\n            employerArray[num].employerDepartmentID = newDepartment;\n            return true;\n        }\n\n    function UpdateStatusEmployer(uint _employerNum, bool _newStatus) returns (bool updateStatus) {\n        employerArray[_employerNum].employerStatus = _newStatus;\n        return true;\n    }\n    \n    function ApplyPost(uint _postId) returns (bool apply){\n        for(uint i = 0; i < postNum_employerNum[_postId].length; i++){\n            if(postNum_employerNum[_postId][i] == employerAddr_employerNum[msg.sender]){\n                return false;\n            }\n        }\n        postNum_employerNum[_postId].push(employerAddr_employerNum[msg.sender]);\n        employerArray[employerAddr_employerNum[msg.sender]].employerPostID = _postId;\n        return true;\n    }\n\n    function ApplyDepartment(uint _departmentId) returns (bool apply){\n        for(uint i = 0; i < departmentNum_employerNum[_departmentId].length; i++){\n            if(departmentNum_employerNum[_departmentId][i] == employerAddr_employerNum[msg.sender]){\n                return false;\n            }\n        }\n        departmentNum_employerNum[_departmentId].push(employerAddr_employerNum[msg.sender]);\n        employerArray[employerAddr_employerNum[msg.sender]].employerDepartmentID = _departmentId;\n        return true;\n    }\n\n    function UpdatePostEmployer(uint _newPostId) returns (bool update){\n        uint reqPost = employerArray[employerAddr_employerNum[msg.sender]].employerPostID;\n        delete postNum_employerNum[reqPost][employerAddr_employerNum[msg.sender]];\n        postNum_employerNum[_newPostId].push(employerAddr_employerNum[msg.sender]);\n        employerArray[employerAddr_employerNum[msg.sender]].employerPostID = _newPostId;\n        return true;\n    }\n\n    function UpdateDepartmentEmployer(uint _newDepartmentId) returns (bool update){\n        uint reqDepartment = employerArray[employerAddr_employerNum[msg.sender]].employerDepartmentID;\n        delete departmentNum_employerNum[reqDepartment][employerAddr_employerNum[msg.sender]];\n        departmentNum_employerNum[_newDepartmentId].push(employerAddr_employerNum[msg.sender]);\n        employerArray[employerAddr_employerNum[msg.sender]].employerDepartmentID = _newDepartmentId;\n        return true;\n    }\n\n    function GetEmployerArraySize() returns(uint[]){\n        uint[] res;\n        for (uint i = 0; i < employerArray.length; i++){\n            res.push(1);\n        }\n        return(res);\n    }\n\n    function GetEmployerFromEmployerNum(uint _employerNum) returns(\n        uint num,\n        string name,\n        string family, \n        string patronymic,\n        //uint postId,\n        //uint departmentId, \n        string rank,\n        bool status){\n            return (\n                employerArray[_employerNum].employerNum,\n                employerArray[_employerNum].employerName,\n                employerArray[_employerNum].employerFamily,\n                employerArray[_employerNum].employerPatronymic,\n                //employerArray[_employerNum].employerPostID,\n                //employerArray[_employerNum].employerDepartmentID,\n                employerArray[_employerNum].employerRank,\n                employerArray[_employerNum].employerStatus);\n        }\n\n    function GetEmployerWorkplaceFromNum(uint _employerNum) returns(\n        uint postId,\n        uint departmentId){\n            return(\n                employerArray[_employerNum].employerPostID,\n                employerArray[_employerNum].employerDepartmentID\n            );\n    }\n\n    function GetEmployerFromEmployerAddr() returns(\n        uint num,\n        string name,\n        string family, \n        string patronymic,\n        //uint postId,\n        //uint departmentId, \n        string rank,\n        bool status){\n            return(\n                employerArray[employerAddr_employerNum[msg.sender]].employerNum,\n                employerArray[employerAddr_employerNum[msg.sender]].employerName,\n                employerArray[employerAddr_employerNum[msg.sender]].employerFamily,\n                employerArray[employerAddr_employerNum[msg.sender]].employerPatronymic,\n                //employerArray[employerAddr_employerNum[msg.sender]].employerPostID,\n                //employerArray[employerAddr_employerNum[msg.sender]].employerDepartmentID,\n                employerArray[employerAddr_employerNum[msg.sender]].employerRank,\n                employerArray[employerAddr_employerNum[msg.sender]].employerStatus\n                );\n        }\n\n    function GetEmployerWorkplaceFromAddr() returns(\n        uint postId,\n        uint departmentId){\n            return(\n                employerArray[employerAddr_employerNum[msg.sender]].employerPostID,\n                employerArray[employerAddr_employerNum[msg.sender]].employerDepartmentID\n            );\n    }\n\n    function GetEmployerNumFromEmployerAddr() returns(uint num){\n        num = employerAddr_employerNum[msg.sender];\n        return(num);\n        }\n\n    function GetEmployersFromDepartmentId (uint depId) returns (uint[]){\n        uint[] result;\n        for (uint i =0; i < employerArray.length; i++){\n            if(employerArray[i].employerDepartmentID == depId){\n                result.push(1);\n            }else{\n                result.push(0);\n            }\n        }\n        return(result);\n    }\n\n    function GetEmployersFromPostId (uint postId) returns (uint[]){\n        uint[] result;\n        for (uint i =0; i < employerArray.length; i++){\n            if(employerArray[i].employerPostID == postId){\n                result.push(1);\n            }else{\n                result.push(0);\n            }\n        }\n        return(result);\n    }\n}\n",
  "sourcePath": "/home/user/Documents/WorkFlow/contracts/EmployerContract.sol",
  "compiler": {
    "name": "solc",
    "version": "0.4.19+commit.c4cbbb05.Emscripten.clang"
  },
  "schemaVersion": "2.0.0",
  "updatedAt": "2018-04-10T23:01:36.133Z"
}