{
  "contractName": "EmployerContract",
  "abi": [
    {
      "inputs": [],
      "payable": false,
      "stateMutability": "nonpayable",
      "type": "constructor"
    },
    {
      "constant": false,
      "inputs": [],
      "name": "RankCreater",
      "outputs": [
        {
          "name": "",
          "type": "bool"
        }
      ],
      "payable": false,
      "stateMutability": "nonpayable",
      "type": "function"
    },
    {
      "constant": false,
      "inputs": [
        {
          "name": "rankNum",
          "type": "uint256"
        }
      ],
      "name": "GetRankFromNum",
      "outputs": [
        {
          "name": "num",
          "type": "uint256"
        },
        {
          "name": "rank",
          "type": "string"
        }
      ],
      "payable": false,
      "stateMutability": "nonpayable",
      "type": "function"
    },
    {
      "constant": false,
      "inputs": [],
      "name": "GetRanks",
      "outputs": [
        {
          "name": "",
          "type": "uint256[]"
        }
      ],
      "payable": false,
      "stateMutability": "nonpayable",
      "type": "function"
    },
    {
      "constant": false,
      "inputs": [
        {
          "name": "_name",
          "type": "string"
        },
        {
          "name": "_family",
          "type": "string"
        },
        {
          "name": "_patronymic",
          "type": "string"
        },
        {
          "name": "_rank",
          "type": "string"
        }
      ],
      "name": "CreateEmployer",
      "outputs": [
        {
          "name": "createEmployer",
          "type": "bool"
        }
      ],
      "payable": false,
      "stateMutability": "nonpayable",
      "type": "function"
    },
    {
      "constant": false,
      "inputs": [
        {
          "name": "_newRank",
          "type": "string"
        }
      ],
      "name": "UpdateEmployer",
      "outputs": [
        {
          "name": "updateEmployer",
          "type": "bool"
        }
      ],
      "payable": false,
      "stateMutability": "nonpayable",
      "type": "function"
    },
    {
      "constant": false,
      "inputs": [
        {
          "name": "num",
          "type": "uint256"
        },
        {
          "name": "_newRank",
          "type": "string"
        }
      ],
      "name": "UpdateEmployerFromNum",
      "outputs": [
        {
          "name": "updateEmployer",
          "type": "bool"
        }
      ],
      "payable": false,
      "stateMutability": "nonpayable",
      "type": "function"
    },
    {
      "constant": false,
      "inputs": [
        {
          "name": "num",
          "type": "uint256"
        },
        {
          "name": "newPost",
          "type": "uint256"
        },
        {
          "name": "newDepartment",
          "type": "uint256"
        }
      ],
      "name": "UpdateEmployerWorkplaceFromNum",
      "outputs": [
        {
          "name": "updateEmployerWorkplace",
          "type": "bool"
        }
      ],
      "payable": false,
      "stateMutability": "nonpayable",
      "type": "function"
    },
    {
      "constant": false,
      "inputs": [
        {
          "name": "_employerNum",
          "type": "uint256"
        },
        {
          "name": "_newStatus",
          "type": "bool"
        }
      ],
      "name": "UpdateStatusEmployer",
      "outputs": [
        {
          "name": "updateStatus",
          "type": "bool"
        }
      ],
      "payable": false,
      "stateMutability": "nonpayable",
      "type": "function"
    },
    {
      "constant": false,
      "inputs": [
        {
          "name": "_postId",
          "type": "uint256"
        }
      ],
      "name": "ApplyPost",
      "outputs": [
        {
          "name": "apply",
          "type": "bool"
        }
      ],
      "payable": false,
      "stateMutability": "nonpayable",
      "type": "function"
    },
    {
      "constant": false,
      "inputs": [
        {
          "name": "_departmentId",
          "type": "uint256"
        }
      ],
      "name": "ApplyDepartment",
      "outputs": [
        {
          "name": "apply",
          "type": "bool"
        }
      ],
      "payable": false,
      "stateMutability": "nonpayable",
      "type": "function"
    },
    {
      "constant": false,
      "inputs": [
        {
          "name": "_newPostId",
          "type": "uint256"
        }
      ],
      "name": "UpdatePostEmployer",
      "outputs": [
        {
          "name": "update",
          "type": "bool"
        }
      ],
      "payable": false,
      "stateMutability": "nonpayable",
      "type": "function"
    },
    {
      "constant": false,
      "inputs": [
        {
          "name": "_newDepartmentId",
          "type": "uint256"
        }
      ],
      "name": "UpdateDepartmentEmployer",
      "outputs": [
        {
          "name": "update",
          "type": "bool"
        }
      ],
      "payable": false,
      "stateMutability": "nonpayable",
      "type": "function"
    },
    {
      "constant": false,
      "inputs": [],
      "name": "GetEmployerArraySize",
      "outputs": [
        {
          "name": "",
          "type": "uint256[]"
        }
      ],
      "payable": false,
      "stateMutability": "nonpayable",
      "type": "function"
    },
    {
      "constant": false,
      "inputs": [
        {
          "name": "_employerNum",
          "type": "uint256"
        }
      ],
      "name": "GetEmployerFromEmployerNum",
      "outputs": [
        {
          "name": "num",
          "type": "uint256"
        },
        {
          "name": "name",
          "type": "string"
        },
        {
          "name": "family",
          "type": "string"
        },
        {
          "name": "patronymic",
          "type": "string"
        },
        {
          "name": "rank",
          "type": "string"
        },
        {
          "name": "status",
          "type": "bool"
        }
      ],
      "payable": false,
      "stateMutability": "nonpayable",
      "type": "function"
    },
    {
      "constant": false,
      "inputs": [
        {
          "name": "_employerNum",
          "type": "uint256"
        }
      ],
      "name": "GetEmployerWorkplaceFromNum",
      "outputs": [
        {
          "name": "postId",
          "type": "uint256"
        },
        {
          "name": "departmentId",
          "type": "uint256"
        }
      ],
      "payable": false,
      "stateMutability": "nonpayable",
      "type": "function"
    },
    {
      "constant": false,
      "inputs": [],
      "name": "GetEmployerFromEmployerAddr",
      "outputs": [
        {
          "name": "num",
          "type": "uint256"
        },
        {
          "name": "name",
          "type": "string"
        },
        {
          "name": "family",
          "type": "string"
        },
        {
          "name": "patronymic",
          "type": "string"
        },
        {
          "name": "rank",
          "type": "string"
        },
        {
          "name": "status",
          "type": "bool"
        }
      ],
      "payable": false,
      "stateMutability": "nonpayable",
      "type": "function"
    },
    {
      "constant": false,
      "inputs": [
        {
          "name": "employer",
          "type": "address"
        }
      ],
      "name": "GetEmployerWorkplaceFromAddr",
      "outputs": [
        {
          "name": "postId",
          "type": "uint256"
        },
        {
          "name": "departmentId",
          "type": "uint256"
        }
      ],
      "payable": false,
      "stateMutability": "nonpayable",
      "type": "function"
    },
    {
      "constant": false,
      "inputs": [],
      "name": "GetEmployerNumFromEmployerAddr",
      "outputs": [
        {
          "name": "",
          "type": "uint256[]"
        }
      ],
      "payable": false,
      "stateMutability": "nonpayable",
      "type": "function"
    },
    {
      "constant": false,
      "inputs": [
        {
          "name": "depId",
          "type": "uint256"
        }
      ],
      "name": "GetEmployersFromDepartmentId",
      "outputs": [
        {
          "name": "",
          "type": "uint256[]"
        }
      ],
      "payable": false,
      "stateMutability": "nonpayable",
      "type": "function"
    },
    {
      "constant": false,
      "inputs": [
        {
          "name": "postId",
          "type": "uint256"
        }
      ],
      "name": "GetEmployersFromPostId",
      "outputs": [
        {
          "name": "",
          "type": "uint256[]"
        }
      ],
      "payable": false,
      "stateMutability": "nonpayable",
      "type": "function"
    }
  ],
  "bytecode": "0x606060405234156200001057600080fd5b6200002e620008bd64010000000002620020c9176401000000009004565b50600380548060010182816200004591906200114e565b9160005260206000209060090201600061012060405190810160405280600081526020016040805190810160405280600881526020017fd098d0b2d0b0d0bd00000000000000000000000000000000000000000000000081525081526020016040805190810160405280600e81526020017fd09bd0b8d0bfd183d0b3d0b8d0bd00000000000000000000000000000000000081525081526020016040805190810160405280601a81526020017fd090d0bbd0b5d0bad181d0b0d0bdd0b4d180d0bed0b2d0b8d187000000000000815250815260200160018152602001600181526020016040805190810160405280600e81526020017fd0a0d18fd0b4d0bed0b2d0bed0b90000000000000000000000000000000000008152508152602001600081526020016001151581525090919091506000820151816000015560208201518160010190805190602001906200019e92919062001183565b506040820151816002019080519060200190620001bd92919062001183565b506060820151816003019080519060200190620001dc92919062001183565b506080820151816004015560a0820151816005015560c08201518160060190805190602001906200020f92919062001183565b5060e082015181600701556101008201518160080160006101000a81548160ff021916908315150217905550505050600380548060010182816200025491906200114e565b9160005260206000209060090201600061012060405190810160405280600181526020016040805190810160405280600c81526020017fd09cd0b8d185d0b0d0b8d0bb000000000000000000000000000000000000000081525081526020016040805190810160405280600a81526020017fd0a4d0bed0bbd0b5d0b20000000000000000000000000000000000000000000081525081526020016040805190810160405280601081526020017fd09fd0b5d182d180d0bed0b2d0b8d18700000000000000000000000000000000815250815260200160028152602001600281526020016040805190810160405280601081526020017fd095d184d180d0b5d0b9d182d0bed18000000000000000000000000000000000815250815260200160018152602001600115158152509091909150600082015181600001556020820151816001019080519060200190620003ad92919062001183565b506040820151816002019080519060200190620003cc92919062001183565b506060820151816003019080519060200190620003eb92919062001183565b506080820151816004015560a0820151816005015560c08201518160060190805190602001906200041e92919062001183565b5060e082015181600701556101008201518160080160006101000a81548160ff021916908315150217905550505050600380548060010182816200046391906200114e565b9160005260206000209060090201600061012060405190810160405280600281526020016040805190810160405280600c81526020017fd090d0bdd0b4d180d0b5d0b9000000000000000000000000000000000000000081525081526020016040805190810160405280600e81526020017fd094d0b5d0b2d18fd182d0bed0b200000000000000000000000000000000000081525081526020016040805190810160405280601481526020017fd092d0b8d0bad182d0bed180d0bed0b2d0b8d187000000000000000000000000815250815260200160038152602001600381526020016040805190810160405280601d81526020017fd09cd0bbd0b0d0b4d188d0b8d0b920d181d0b5d180d0b6d0b0d0bdd182000000815250815260200160028152602001600115158152509091909150600082015181600001556020820151816001019080519060200190620005bc92919062001183565b506040820151816002019080519060200190620005db92919062001183565b506060820151816003019080519060200190620005fa92919062001183565b506080820151816004015560a0820151816005015560c08201518160060190805190602001906200062d92919062001183565b5060e082015181600701556101008201518160080160006101000a81548160ff021916908315150217905550505050600380548060010182816200067291906200114e565b9160005260206000209060090201600061012060405190810160405280600381526020016040805190810160405280600e81526020017fd090d0bbd0b5d0bad181d0b5d0b900000000000000000000000000000000000081525081526020016040805190810160405280601081526020017fd09bd0b5d0bad181d183d181d0bed0b20000000000000000000000000000000081525081526020016040805190810160405280601281526020017fd0a2d180d0b8d0bdd0b5d0b5d0b2d0b8d1870000000000000000000000000000815250815260200160048152602001600481526020016040805190810160405280601d81526020017fd09cd0bbd0b0d0b4d188d0b8d0b920d181d0b5d180d0b6d0b0d0bdd182000000815250815260200160028152602001600115158152509091909150600082015181600001556020820151816001019080519060200190620007cb92919062001183565b506040820151816002019080519060200190620007ea92919062001183565b5060608201518160030190805190602001906200080992919062001183565b506080820151816004015560a0820151816005015560c08201518160060190805190602001906200083c92919062001183565b5060e082015181600701556101008201518160080160006101000a81548160ff021916908315150217905550505050600460058190555060026000803373ffffffffffffffffffffffffffffffffffffffff1673ffffffffffffffffffffffffffffffffffffffff1681526020019081526020016000208190555062001403565b600060048054806001018281620008d591906200120a565b916000526020600020900160006040805190810160405280600e81526020017fd0a0d18fd0b4d0bed0b2d0bed0b9000000000000000000000000000000000000815250909190915090805190602001906200093292919062001239565b5050600480548060010182816200094a91906200120a565b916000526020600020900160006040805190810160405280601081526020017fd095d184d180d0b5d0b9d182d0bed1800000000000000000000000000000000081525090919091509080519060200190620009a792919062001239565b505060048054806001018281620009bf91906200120a565b916000526020600020900160006040805190810160405280601d81526020017fd09cd0bbd0b0d0b4d188d0b8d0b920d0a1d0b5d180d0b6d0b0d0bdd1820000008152509091909150908051906020019062000a1c92919062001239565b50506004805480600101828162000a3491906200120a565b916000526020600020900160006040805190810160405280600e81526020017fd0a1d0b5d180d0b6d0b0d0bdd1820000000000000000000000000000000000008152509091909150908051906020019062000a9192919062001239565b50506004805480600101828162000aa991906200120a565b916000526020600020900160006040805190810160405280601d81526020017fd0a1d182d0b0d180d188d0b8d0b920d0a1d0b5d180d0b6d0b0d0bdd1820000008152509091909150908051906020019062000b0692919062001239565b50506004805480600101828162000b1e91906200120a565b916000526020600020900160006040805190810160405280601281526020017fd09fd180d0b0d0bfd0bed180d189d0b8d0ba00000000000000000000000000008152509091909150908051906020019062000b7b92919062001239565b50506004805480600101828162000b9391906200120a565b91600052602060002090016000606060405190810160405280602181526020017fd0a1d182d180d0b0d188d0b8d0b920d0bfd180d0b0d0bfd0bed180d189d0b8d081526020017fb9000000000000000000000000000000000000000000000000000000000000008152509091909150908051906020019062000c1792919062001239565b50506004805480600101828162000c2f91906200120a565b91600052602060002090016000606060405190810160405280602181526020017fd09cd0bbd0b0d0b4d188d0b8d0b920d0bbd0b5d0b9d182d0b5d0bdd0b0d0bdd181526020017f82000000000000000000000000000000000000000000000000000000000000008152509091909150908051906020019062000cb392919062001239565b50506004805480600101828162000ccb91906200120a565b916000526020600020900160006040805190810160405280601281526020017fd09bd0b5d0b9d182d0b5d0bdd0b0d0bdd18200000000000000000000000000008152509091909150908051906020019062000d2892919062001239565b50506004805480600101828162000d4091906200120a565b91600052602060002090016000606060405190810160405280602181526020017fd0a1d182d0b0d180d188d0b8d0b920d09bd0b5d0b9d182d0b5d0bdd0b0d0bdd181526020017f82000000000000000000000000000000000000000000000000000000000000008152509091909150908051906020019062000dc492919062001239565b50506004805480600101828162000ddc91906200120a565b916000526020600020900160006040805190810160405280600e81526020017fd09ad0b0d0bfd0b8d182d0b0d0bd0000000000000000000000000000000000008152509091909150908051906020019062000e3992919062001239565b50506004805480600101828162000e5191906200120a565b916000526020600020900160006040805190810160405280600a81526020017fd09cd0b0d0b9d0bed180000000000000000000000000000000000000000000008152509091909150908051906020019062000eae92919062001239565b50506004805480600101828162000ec691906200120a565b916000526020600020900160006040805190810160405280601881526020017fd09fd0bed0b4d0bfd0bed0bbd0bad0bed0b2d0bdd0b8d0ba00000000000000008152509091909150908051906020019062000f2392919062001239565b50506004805480600101828162000f3b91906200120a565b916000526020600020900160006040805190810160405280601281526020017fd09fd0bed0bbd0bad0bed0b2d0bdd0b8d0ba00000000000000000000000000008152509091909150908051906020019062000f9892919062001239565b50506004805480600101828162000fb091906200120a565b916000526020600020900160006040805190810160405280601981526020017fd093d0b5d0bdd0b5d180d0b0d0bb2dd09cd0b0d0b9d0bed18000000000000000815250909190915090805190602001906200100d92919062001239565b5050600480548060010182816200102591906200120a565b91600052602060002090016000606060405190810160405280602181526020017fd093d0b5d0bdd0b5d180d0b0d0bb2dd0bbd0b5d0b9d182d0b5d0bdd0b0d0bdd181526020017f820000000000000000000000000000000000000000000000000000000000000081525090919091509080519060200190620010a992919062001239565b505060048054806001018281620010c191906200120a565b91600052602060002090016000606060405190810160405280602181526020017fd093d0b5d0bdd0b5d180d0b0d0bb2dd0bfd0bed0bbd0bad0bed0b2d0bdd0b8d081526020017fba00000000000000000000000000000000000000000000000000000000000000815250909190915090805190602001906200114592919062001239565b50506001905090565b8154818355818115116200117e576009028160090283600052602060002091820191016200117d9190620012c0565b5b505050565b828054600181600116156101000203166002900490600052602060002090601f016020900481019282601f10620011c657805160ff1916838001178555620011f7565b82800160010185558215620011f7579182015b82811115620011f6578251825591602001919060010190620011d9565b5b5090506200120691906200135e565b5090565b815481835581811511620012345781836000526020600020918201910162001233919062001386565b5b505050565b828054600181600116156101000203166002900490600052602060002090601f016020900481019282601f106200127c57805160ff1916838001178555620012ad565b82800160010185558215620012ad579182015b82811115620012ac5782518255916020019190600101906200128f565b5b509050620012bc91906200135e565b5090565b6200135b91905b808211156200135757600080820160009055600182016000620012eb9190620013b7565b600282016000620012fd9190620013b7565b6003820160006200130f9190620013b7565b60048201600090556005820160009055600682016000620013319190620013b7565b60078201600090556008820160006101000a81549060ff021916905550600901620012c7565b5090565b90565b6200138391905b808211156200137f57600081600090555060010162001365565b5090565b90565b620013b491905b80821115620013b05760008181620013a69190620013b7565b506001016200138d565b5090565b90565b50805460018160011615610100020316600290046000825580601f10620013df575062001400565b601f016020900490600052602060002090810190620013ff91906200135e565b5b50565b612feb80620014136000396000f300606060405260043610610112576000357c0100000000000000000000000000000000000000000000000000000000900463ffffffff1680630aa5e098146101175780630d5a2975146101525780634279591f146101ca578063445976291461026d578063535a6118146102e557806354759f091461032b57806354fc5fe21461036957806356ce27981461055b5780636a5f1b2a1461059657806373cc1d6c146106d4578063810209eb1461070f578063897bdd25146108f3578063a147ecf81461095d578063b7241d1914610998578063b978b0b4146109c5578063bbec8db614610a2f578063cf3305fa14610aad578063d6d8093c14610b01578063ec03687614610b4e578063f806fc4214610bb8575b600080fd5b341561012257600080fd5b6101386004808035906020019091905050610c2d565b604051808215151515815260200191505060405180910390f35b341561015d57600080fd5b6101736004808035906020019091905050610dc0565b6040518080602001828103825283818151815260200191508051906020019060200280838360005b838110156101b657808201518184015260208101905061019b565b505050509050019250505060405180910390f35b34156101d557600080fd5b6101eb6004808035906020019091905050610ec2565b6040518083815260200180602001828103825283818151815260200191508051906020019080838360005b83811015610231578082015181840152602081019050610216565b50505050905090810190601f16801561025e5780820380516001836020036101000a031916815260200191505b50935050505060405180910390f35b341561027857600080fd5b61028e6004808035906020019091905050610f8c565b6040518080602001828103825283818151815260200191508051906020019060200280838360005b838110156102d15780820151818401526020810190506102b6565b505050509050019250505060405180910390f35b34156102f057600080fd5b6103116004808035906020019091908035151590602001909190505061108e565b604051808215151515815260200191505060405180910390f35b341561033657600080fd5b61034c60048080359060200190919050506110d2565b604051808381526020018281526020019250505060405180910390f35b341561037457600080fd5b61038a6004808035906020019091905050611120565b60405180878152602001806020018060200180602001806020018615151515815260200185810385528a818151815260200191508051906020019080838360005b838110156103e65780820151818401526020810190506103cb565b50505050905090810190601f1680156104135780820380516001836020036101000a031916815260200191505b50858103845289818151815260200191508051906020019080838360005b8381101561044c578082015181840152602081019050610431565b50505050905090810190601f1680156104795780820380516001836020036101000a031916815260200191505b50858103835288818151815260200191508051906020019080838360005b838110156104b2578082015181840152602081019050610497565b50505050905090810190601f1680156104df5780820380516001836020036101000a031916815260200191505b50858103825287818151815260200191508051906020019080838360005b838110156105185780820151818401526020810190506104fd565b50505050905090810190601f1680156105455780820380516001836020036101000a031916815260200191505b509a505050505050505050505060405180910390f35b341561056657600080fd5b61057c6004808035906020019091905050611498565b604051808215151515815260200191505060405180910390f35b34156105a157600080fd5b6106ba600480803590602001908201803590602001908080601f0160208091040260200160405190810160405280939291908181526020018383808284378201915050505050509190803590602001908201803590602001908080601f0160208091040260200160405190810160405280939291908181526020018383808284378201915050505050509190803590602001908201803590602001908080601f0160208091040260200160405190810160405280939291908181526020018383808284378201915050505050509190803590602001908201803590602001908080601f0160208091040260200160405190810160405280939291908181526020018383808284378201915050505050509190505061162b565b604051808215151515815260200191505060405180910390f35b34156106df57600080fd5b6106f560048080359060200190919050506117c8565b604051808215151515815260200191505060405180910390f35b341561071a57600080fd5b61072261197e565b60405180878152602001806020018060200180602001806020018615151515815260200185810385528a818151815260200191508051906020019080838360005b8381101561077e578082015181840152602081019050610763565b50505050905090810190601f1680156107ab5780820380516001836020036101000a031916815260200191505b50858103845289818151815260200191508051906020019080838360005b838110156107e45780820151818401526020810190506107c9565b50505050905090810190601f1680156108115780820380516001836020036101000a031916815260200191505b50858103835288818151815260200191508051906020019080838360005b8381101561084a57808201518184015260208101905061082f565b50505050905090810190601f1680156108775780820380516001836020036101000a031916815260200191505b50858103825287818151815260200191508051906020019080838360005b838110156108b0578082015181840152602081019050610895565b50505050905090810190601f1680156108dd5780820380516001836020036101000a031916815260200191505b509a505050505050505050505060405180910390f35b34156108fe57600080fd5b610906611e69565b6040518080602001828103825283818151815260200191508051906020019060200280838360005b8381101561094957808201518184015260208101905061092e565b505050509050019250505060405180910390f35b341561096857600080fd5b61097e6004808035906020019091905050611f13565b604051808215151515815260200191505060405180910390f35b34156109a357600080fd5b6109ab6120c9565b604051808215151515815260200191505060405180910390f35b34156109d057600080fd5b6109d8612916565b6040518080602001828103825283818151815260200191508051906020019060200280838360005b83811015610a1b578082015181840152602081019050610a00565b505050509050019250505060405180910390f35b3415610a3a57600080fd5b610a93600480803590602001909190803590602001908201803590602001908080601f016020809104026020016040519081016040528093929190818152602001838380828437820191505050505050919050506129c0565b604051808215151515815260200191505060405180910390f35b3415610ab857600080fd5b610ae4600480803573ffffffffffffffffffffffffffffffffffffffff16906020019091905050612a01565b604051808381526020018281526020019250505060405180910390f35b3415610b0c57600080fd5b610b346004808035906020019091908035906020019091908035906020019091905050612acb565b604051808215151515815260200191505060405180910390f35b3415610b5957600080fd5b610b61612b22565b6040518080602001828103825283818151815260200191508051906020019060200280838360005b83811015610ba4578082015181840152602081019050610b89565b505050509050019250505060405180910390f35b3415610bc357600080fd5b610c13600480803590602001908201803590602001908080601f01602080910402602001604051908101604052809392919081815260200183838082843782019150505050505091905050612be8565b604051808215151515815260200191505060405180910390f35b600080600090505b6001600084815260200190815260200160002080549050811015610cda576000803373ffffffffffffffffffffffffffffffffffffffff1673ffffffffffffffffffffffffffffffffffffffff168152602001908152602001600020546001600085815260200190815260200160002082815481101515610cb257fe5b9060005260206000209001541415610ccd5760009150610dba565b8080600101915050610c35565b600160008481526020019081526020016000208054806001018281610cff9190612c66565b916000526020600020900160008060003373ffffffffffffffffffffffffffffffffffffffff1673ffffffffffffffffffffffffffffffffffffffff16815260200190815260200160002054909190915055508260036000803373ffffffffffffffffffffffffffffffffffffffff1673ffffffffffffffffffffffffffffffffffffffff16815260200190815260200160002054815481101515610da057fe5b906000526020600020906009020160040181905550600191505b50919050565b610dc8612c92565b600080600090505b600380549050811015610e695783600382815481101515610ded57fe5b9060005260206000209060090201600401541415610e3357818054806001018281610e189190612c66565b91600052602060002090016000600190919091505550610e5c565b818054806001018281610e469190612c66565b9160005260206000209001600080909190915055505b8080600101915050610dd0565b81805480602002602001604051908101604052809291908181526020018280548015610eb457602002820191906000526020600020905b815481526020019060010190808311610ea0575b505050505092505050919050565b6000610ecc612ca6565b82600484815481101515610edc57fe5b9060005260206000209001808054600181600116156101000203166002900480601f016020809104026020016040519081016040528092919081815260200182805460018160011615610100020316600290048015610f7c5780601f10610f5157610100808354040283529160200191610f7c565b820191906000526020600020905b815481529060010190602001808311610f5f57829003601f168201915b5050505050905091509150915091565b610f94612c92565b600080600090505b6003805490508110156110355783600382815481101515610fb957fe5b9060005260206000209060090201600501541415610fff57818054806001018281610fe49190612c66565b91600052602060002090016000600190919091505550611028565b8180548060010182816110129190612c66565b9160005260206000209001600080909190915055505b8080600101915050610f9c565b8180548060200260200160405190810160405280929190818152602001828054801561108057602002820191906000526020600020905b81548152602001906001019080831161106c575b505050505092505050919050565b6000816003848154811015156110a057fe5b906000526020600020906009020160080160006101000a81548160ff0219169083151502179055506001905092915050565b6000806003838154811015156110e457fe5b90600052602060002090600902016004015460038481548110151561110557fe5b90600052602060002090600902016005015491509150915091565b600061112a612ca6565b611132612ca6565b61113a612ca6565b611142612ca6565b600060038781548110151561115357fe5b90600052602060002090600902016000015460038881548110151561117457fe5b906000526020600020906009020160010160038981548110151561119457fe5b906000526020600020906009020160020160038a8154811015156111b457fe5b906000526020600020906009020160030160038b8154811015156111d457fe5b906000526020600020906009020160060160038c8154811015156111f457fe5b906000526020600020906009020160080160009054906101000a900460ff16848054600181600116156101000203166002900480601f0160208091040260200160405190810160405280929190818152602001828054600181600116156101000203166002900480156112a85780601f1061127d576101008083540402835291602001916112a8565b820191906000526020600020905b81548152906001019060200180831161128b57829003601f168201915b50505050509450838054600181600116156101000203166002900480601f0160208091040260200160405190810160405280929190818152602001828054600181600116156101000203166002900480156113445780601f1061131957610100808354040283529160200191611344565b820191906000526020600020905b81548152906001019060200180831161132757829003601f168201915b50505050509350828054600181600116156101000203166002900480601f0160208091040260200160405190810160405280929190818152602001828054600181600116156101000203166002900480156113e05780601f106113b5576101008083540402835291602001916113e0565b820191906000526020600020905b8154815290600101906020018083116113c357829003601f168201915b50505050509250818054600181600116156101000203166002900480601f01602080910402602001604051908101604052809291908181526020018280546001816001161561010002031660029004801561147c5780601f106114515761010080835404028352916020019161147c565b820191906000526020600020905b81548152906001019060200180831161145f57829003601f168201915b5050505050915095509550955095509550955091939550919395565b600080600090505b6002600084815260200190815260200160002080549050811015611545576000803373ffffffffffffffffffffffffffffffffffffffff1673ffffffffffffffffffffffffffffffffffffffff16815260200190815260200160002054600260008581526020019081526020016000208281548110151561151d57fe5b90600052602060002090015414156115385760009150611625565b80806001019150506114a0565b60026000848152602001908152602001600020805480600101828161156a9190612c66565b916000526020600020900160008060003373ffffffffffffffffffffffffffffffffffffffff1673ffffffffffffffffffffffffffffffffffffffff16815260200190815260200160002054909190915055508260036000803373ffffffffffffffffffffffffffffffffffffffff1673ffffffffffffffffffffffffffffffffffffffff1681526020019081526020016000205481548110151561160b57fe5b906000526020600020906009020160050181905550600191505b50919050565b6000611635612cba565b6101206040519081016040528060055481526020018781526020018681526020018581526020016000815260200160008152602001848152602001600081526020016001151581525090506005546000803373ffffffffffffffffffffffffffffffffffffffff1673ffffffffffffffffffffffffffffffffffffffff16815260200190815260200160002081905550600380548060010182816116d99190612d21565b91600052602060002090600902016000839091909150600082015181600001556020820151816001019080519060200190611715929190612d53565b506040820151816002019080519060200190611732929190612d53565b50606082015181600301908051906020019061174f929190612d53565b506080820151816004015560a0820151816005015560c0820151816006019080519060200190611780929190612d53565b5060e082015181600701556101008201518160080160006101000a81548160ff0219169083151502179055505050506001600554016005819055506001915050949350505050565b60008060036000803373ffffffffffffffffffffffffffffffffffffffff1673ffffffffffffffffffffffffffffffffffffffff1681526020019081526020016000205481548110151561181857fe5b9060005260206000209060090201600501549050600260008281526020019081526020016000206000803373ffffffffffffffffffffffffffffffffffffffff1673ffffffffffffffffffffffffffffffffffffffff1681526020019081526020016000205481548110151561188a57fe5b9060005260206000209001600090556002600084815260200190815260200160002080548060010182816118be9190612c66565b916000526020600020900160008060003373ffffffffffffffffffffffffffffffffffffffff1673ffffffffffffffffffffffffffffffffffffffff16815260200190815260200160002054909190915055508260036000803373ffffffffffffffffffffffffffffffffffffffff1673ffffffffffffffffffffffffffffffffffffffff1681526020019081526020016000205481548110151561195f57fe5b9060005260206000209060090201600501819055506001915050919050565b6000611988612ca6565b611990612ca6565b611998612ca6565b6119a0612ca6565b600060036000803373ffffffffffffffffffffffffffffffffffffffff1673ffffffffffffffffffffffffffffffffffffffff168152602001908152602001600020548154811015156119ef57fe5b90600052602060002090600902016000015460036000803373ffffffffffffffffffffffffffffffffffffffff1673ffffffffffffffffffffffffffffffffffffffff16815260200190815260200160002054815481101515611a4e57fe5b906000526020600020906009020160010160036000803373ffffffffffffffffffffffffffffffffffffffff1673ffffffffffffffffffffffffffffffffffffffff16815260200190815260200160002054815481101515611aac57fe5b906000526020600020906009020160020160036000803373ffffffffffffffffffffffffffffffffffffffff1673ffffffffffffffffffffffffffffffffffffffff16815260200190815260200160002054815481101515611b0a57fe5b906000526020600020906009020160030160036000803373ffffffffffffffffffffffffffffffffffffffff1673ffffffffffffffffffffffffffffffffffffffff16815260200190815260200160002054815481101515611b6857fe5b906000526020600020906009020160060160036000803373ffffffffffffffffffffffffffffffffffffffff1673ffffffffffffffffffffffffffffffffffffffff16815260200190815260200160002054815481101515611bc657fe5b906000526020600020906009020160080160009054906101000a900460ff16848054600181600116156101000203166002900480601f016020809104026020016040519081016040528092919081815260200182805460018160011615610100020316600290048015611c7a5780601f10611c4f57610100808354040283529160200191611c7a565b820191906000526020600020905b815481529060010190602001808311611c5d57829003601f168201915b50505050509450838054600181600116156101000203166002900480601f016020809104026020016040519081016040528092919081815260200182805460018160011615610100020316600290048015611d165780601f10611ceb57610100808354040283529160200191611d16565b820191906000526020600020905b815481529060010190602001808311611cf957829003601f168201915b50505050509350828054600181600116156101000203166002900480601f016020809104026020016040519081016040528092919081815260200182805460018160011615610100020316600290048015611db25780601f10611d8757610100808354040283529160200191611db2565b820191906000526020600020905b815481529060010190602001808311611d9557829003601f168201915b50505050509250818054600181600116156101000203166002900480601f016020809104026020016040519081016040528092919081815260200182805460018160011615610100020316600290048015611e4e5780601f10611e2357610100808354040283529160200191611e4e565b820191906000526020600020905b815481529060010190602001808311611e3157829003601f168201915b50505050509150955095509550955095509550909192939495565b611e71612c92565b600080600090505b600380549050811015611ebc57818054806001018281611e999190612c66565b916000526020600020900160006001909190915055508080600101915050611e79565b81805480602002602001604051908101604052809291908181526020018280548015611f0757602002820191906000526020600020905b815481526020019060010190808311611ef3575b50505050509250505090565b60008060036000803373ffffffffffffffffffffffffffffffffffffffff1673ffffffffffffffffffffffffffffffffffffffff16815260200190815260200160002054815481101515611f6357fe5b9060005260206000209060090201600401549050600160008281526020019081526020016000206000803373ffffffffffffffffffffffffffffffffffffffff1673ffffffffffffffffffffffffffffffffffffffff16815260200190815260200160002054815481101515611fd557fe5b9060005260206000209001600090556001600084815260200190815260200160002080548060010182816120099190612c66565b916000526020600020900160008060003373ffffffffffffffffffffffffffffffffffffffff1673ffffffffffffffffffffffffffffffffffffffff16815260200190815260200160002054909190915055508260036000803373ffffffffffffffffffffffffffffffffffffffff1673ffffffffffffffffffffffffffffffffffffffff168152602001908152602001600020548154811015156120aa57fe5b9060005260206000209060090201600401819055506001915050919050565b6000600480548060010182816120df9190612dd3565b916000526020600020900160006040805190810160405280600e81526020017fd0a0d18fd0b4d0bed0b2d0bed0b90000000000000000000000000000000000008152509091909150908051906020019061213a929190612dff565b5050600480548060010182816121509190612dd3565b916000526020600020900160006040805190810160405280601081526020017fd095d184d180d0b5d0b9d182d0bed18000000000000000000000000000000000815250909190915090805190602001906121ab929190612dff565b5050600480548060010182816121c19190612dd3565b916000526020600020900160006040805190810160405280601d81526020017fd09cd0bbd0b0d0b4d188d0b8d0b920d0a1d0b5d180d0b6d0b0d0bdd1820000008152509091909150908051906020019061221c929190612dff565b5050600480548060010182816122329190612dd3565b916000526020600020900160006040805190810160405280600e81526020017fd0a1d0b5d180d0b6d0b0d0bdd1820000000000000000000000000000000000008152509091909150908051906020019061228d929190612dff565b5050600480548060010182816122a39190612dd3565b916000526020600020900160006040805190810160405280601d81526020017fd0a1d182d0b0d180d188d0b8d0b920d0a1d0b5d180d0b6d0b0d0bdd182000000815250909190915090805190602001906122fe929190612dff565b5050600480548060010182816123149190612dd3565b916000526020600020900160006040805190810160405280601281526020017fd09fd180d0b0d0bfd0bed180d189d0b8d0ba00000000000000000000000000008152509091909150908051906020019061236f929190612dff565b5050600480548060010182816123859190612dd3565b91600052602060002090016000606060405190810160405280602181526020017fd0a1d182d180d0b0d188d0b8d0b920d0bfd180d0b0d0bfd0bed180d189d0b8d081526020017fb90000000000000000000000000000000000000000000000000000000000000081525090919091509080519060200190612407929190612dff565b50506004805480600101828161241d9190612dd3565b91600052602060002090016000606060405190810160405280602181526020017fd09cd0bbd0b0d0b4d188d0b8d0b920d0bbd0b5d0b9d182d0b5d0bdd0b0d0bdd181526020017f82000000000000000000000000000000000000000000000000000000000000008152509091909150908051906020019061249f929190612dff565b5050600480548060010182816124b59190612dd3565b916000526020600020900160006040805190810160405280601281526020017fd09bd0b5d0b9d182d0b5d0bdd0b0d0bdd182000000000000000000000000000081525090919091509080519060200190612510929190612dff565b5050600480548060010182816125269190612dd3565b91600052602060002090016000606060405190810160405280602181526020017fd0a1d182d0b0d180d188d0b8d0b920d09bd0b5d0b9d182d0b5d0bdd0b0d0bdd181526020017f8200000000000000000000000000000000000000000000000000000000000000815250909190915090805190602001906125a8929190612dff565b5050600480548060010182816125be9190612dd3565b916000526020600020900160006040805190810160405280600e81526020017fd09ad0b0d0bfd0b8d182d0b0d0bd00000000000000000000000000000000000081525090919091509080519060200190612619929190612dff565b50506004805480600101828161262f9190612dd3565b916000526020600020900160006040805190810160405280600a81526020017fd09cd0b0d0b9d0bed180000000000000000000000000000000000000000000008152509091909150908051906020019061268a929190612dff565b5050600480548060010182816126a09190612dd3565b916000526020600020900160006040805190810160405280601881526020017fd09fd0bed0b4d0bfd0bed0bbd0bad0bed0b2d0bdd0b8d0ba0000000000000000815250909190915090805190602001906126fb929190612dff565b5050600480548060010182816127119190612dd3565b916000526020600020900160006040805190810160405280601281526020017fd09fd0bed0bbd0bad0bed0b2d0bdd0b8d0ba00000000000000000000000000008152509091909150908051906020019061276c929190612dff565b5050600480548060010182816127829190612dd3565b916000526020600020900160006040805190810160405280601981526020017fd093d0b5d0bdd0b5d180d0b0d0bb2dd09cd0b0d0b9d0bed18000000000000000815250909190915090805190602001906127dd929190612dff565b5050600480548060010182816127f39190612dd3565b91600052602060002090016000606060405190810160405280602181526020017fd093d0b5d0bdd0b5d180d0b0d0bb2dd0bbd0b5d0b9d182d0b5d0bdd0b0d0bdd181526020017f820000000000000000000000000000000000000000000000000000000000000081525090919091509080519060200190612875929190612dff565b50506004805480600101828161288b9190612dd3565b91600052602060002090016000606060405190810160405280602181526020017fd093d0b5d0bdd0b5d180d0b0d0bb2dd0bfd0bed0bbd0bad0bed0b2d0bdd0b8d081526020017fba000000000000000000000000000000000000000000000000000000000000008152509091909150908051906020019061290d929190612dff565b50506001905090565b61291e612c92565b600080600090505b600480549050811015612969578180548060010182816129469190612c66565b916000526020600020900160006001909190915055508080600101915050612926565b818054806020026020016040519081016040528092919081815260200182805480156129b457602002820191906000526020600020905b8154815260200190600101908083116129a0575b50505050509250505090565b6000816003848154811015156129d257fe5b906000526020600020906009020160060190805190602001906129f6929190612dff565b506001905092915050565b60008060036000808573ffffffffffffffffffffffffffffffffffffffff1673ffffffffffffffffffffffffffffffffffffffff16815260200190815260200160002054815481101515612a5157fe5b90600052602060002090600902016004015460036000808673ffffffffffffffffffffffffffffffffffffffff1673ffffffffffffffffffffffffffffffffffffffff16815260200190815260200160002054815481101515612ab057fe5b90600052602060002090600902016005015491509150915091565b600082600385815481101515612add57fe5b90600052602060002090600902016004018190555081600385815481101515612b0257fe5b906000526020600020906009020160050181905550600190509392505050565b612b2a612c92565b6000808054806001018281612b3f9190612c66565b916000526020600020900160008060003373ffffffffffffffffffffffffffffffffffffffff1673ffffffffffffffffffffffffffffffffffffffff168152602001908152602001600020549091909150555080805480602002602001604051908101604052809291908181526020018280548015612bdd57602002820191906000526020600020905b815481526020019060010190808311612bc9575b505050505091505090565b60008160036000803373ffffffffffffffffffffffffffffffffffffffff1673ffffffffffffffffffffffffffffffffffffffff16815260200190815260200160002054815481101515612c3857fe5b90600052602060002090600902016006019080519060200190612c5c929190612dff565b5060019050919050565b815481835581811511612c8d57818360005260206000209182019101612c8c9190612e7f565b5b505050565b602060405190810160405280600081525090565b602060405190810160405280600081525090565b6101206040519081016040528060008152602001612cd6612ea4565b8152602001612ce3612ea4565b8152602001612cf0612ea4565b81526020016000815260200160008152602001612d0b612ea4565b8152602001600081526020016000151581525090565b815481835581811511612d4e57600902816009028360005260206000209182019101612d4d9190612eb8565b5b505050565b828054600181600116156101000203166002900490600052602060002090601f016020900481019282601f10612d9457805160ff1916838001178555612dc2565b82800160010185558215612dc2579182015b82811115612dc1578251825591602001919060010190612da6565b5b509050612dcf9190612e7f565b5090565b815481835581811511612dfa57818360005260206000209182019101612df99190612f4b565b5b505050565b828054600181600116156101000203166002900490600052602060002090601f016020900481019282601f10612e4057805160ff1916838001178555612e6e565b82800160010185558215612e6e579182015b82811115612e6d578251825591602001919060010190612e52565b5b509050612e7b9190612e7f565b5090565b612ea191905b80821115612e9d576000816000905550600101612e85565b5090565b90565b602060405190810160405280600081525090565b612f4891905b80821115612f4457600080820160009055600182016000612edf9190612f77565b600282016000612eef9190612f77565b600382016000612eff9190612f77565b60048201600090556005820160009055600682016000612f1f9190612f77565b60078201600090556008820160006101000a81549060ff021916905550600901612ebe565b5090565b90565b612f7491905b80821115612f705760008181612f679190612f77565b50600101612f51565b5090565b90565b50805460018160011615610100020316600290046000825580601f10612f9d5750612fbc565b601f016020900490600052602060002090810190612fbb9190612e7f565b5b505600a165627a7a723058204c7160e41039e0818a9675cc3ca0496c063d5d46e03f0550dedf791ec9f1ec160029",
  "source": "// ,          \n\npragma solidity ^0.4.18;\n\ncontract EmployerContract{\n\n    mapping (address => uint) employerAddr_employerNum;\n    mapping (uint => uint[]) postNum_employerNum;\n    mapping (uint => uint[]) departmentNum_employerNum;\n    //mapping (uint => string) number_rank;\n\n    struct EmployerStruct{\n        uint employerNum;\n        string employerName;\n        string employerFamily;\n        string employerPatronymic;\n        uint employerPostID;\n        uint employerDepartmentID;\n        string employerRank;\n        uint employerRankNum;\n        bool employerStatus;\n    }\n\n    EmployerStruct[] employerArray;\n    string[] rankArray;\n    uint employerNumber;\n\n    function EmployerContract() public {\n        RankCreater();\n        employerArray.push(EmployerStruct(0, \"\", \"\", \"\", 1, 1, \"\", 0 , true));\n        employerArray.push(EmployerStruct(1, \"\", \"\", \"\", 2, 2, \"\", 1 , true));\n        employerArray.push(EmployerStruct(2, \"\", \"\", \"\", 3, 3, \" \", 2, true));\n        employerArray.push(EmployerStruct(3, \"\", \"\", \"\", 4, 4, \" \", 2, true));\n        employerNumber = 4;\n        employerAddr_employerNum[msg.sender] = 2;\n    }\n\n    function RankCreater() returns(bool) {\n        rankArray.push(\"\");\n        rankArray.push(\"\");\n        rankArray.push(\" \");\n        rankArray.push(\"\");\n        rankArray.push(\" \");\n        rankArray.push(\"\");\n        rankArray.push(\" \");\n        rankArray.push(\" \");\n        rankArray.push(\"\");\n        rankArray.push(\" \");\n        rankArray.push(\"\");\n        rankArray.push(\"\");\n        rankArray.push(\"\");\n        rankArray.push(\"\");\n        rankArray.push(\"-\");\n        rankArray.push(\"-\");\n        rankArray.push(\"-\");\n        return true;\n    }\n\n    function GetRankFromNum(uint rankNum) returns(uint num, string rank){\n        return(rankNum, rankArray[rankNum]);\n    }\n\n    function GetRanks() returns(uint[]){\n        uint[] ranks;\n        for (uint i = 0; i < rankArray.length; i++){\n            ranks.push(1);\n        }\n        return(ranks);\n    }\n\n    function CreateEmployer(\n        string _name,\n        string _family, \n        string _patronymic,\n        //uint _postId,\n        //uint _departmentId, \n        string _rank) returns (bool createEmployer){\n            EmployerStruct memory newEmployer = EmployerStruct({\n                employerNum: employerNumber,\n                employerName:_name,\n                employerFamily:_family,\n                employerPatronymic:_patronymic,\n                employerPostID: 0,\n                employerDepartmentID: 0,\n                employerRank: _rank,\n                employerRankNum: 0,\n                employerStatus: true\n            });\n            employerAddr_employerNum[msg.sender] = employerNumber;\n            employerArray.push(newEmployer);\n            employerNumber = employerNumber + 1;\n            return true;\n        }\n        \n    function UpdateEmployer( \n        string _newRank\n    ) returns (bool updateEmployer) {\n        employerArray[employerAddr_employerNum[msg.sender]].employerRank = _newRank;\n        return true;\n    }\n\n    function UpdateEmployerFromNum(\n        uint num,\n        string _newRank\n    ) returns (bool updateEmployer){\n        employerArray[num].employerRank = _newRank;\n        return true;\n    }\n\n    function UpdateEmployerWorkplaceFromNum(\n        uint num,\n        uint newPost,\n        uint newDepartment\n        ) returns(bool updateEmployerWorkplace){\n            employerArray[num].employerPostID = newPost;\n            employerArray[num].employerDepartmentID = newDepartment;\n            return true;\n        }\n\n    function UpdateStatusEmployer(uint _employerNum, bool _newStatus) returns (bool updateStatus) {\n        employerArray[_employerNum].employerStatus = _newStatus;\n        return true;\n    }\n    \n    function ApplyPost(uint _postId) returns (bool apply){\n        for(uint i = 0; i < postNum_employerNum[_postId].length; i++){\n            if(postNum_employerNum[_postId][i] == employerAddr_employerNum[msg.sender]){\n                return false;\n            }\n        }\n        postNum_employerNum[_postId].push(employerAddr_employerNum[msg.sender]);\n        employerArray[employerAddr_employerNum[msg.sender]].employerPostID = _postId;\n        return true;\n    }\n\n    function ApplyDepartment(uint _departmentId) returns (bool apply){\n        for(uint i = 0; i < departmentNum_employerNum[_departmentId].length; i++){\n            if(departmentNum_employerNum[_departmentId][i] == employerAddr_employerNum[msg.sender]){\n                return false;\n            }\n        }\n        departmentNum_employerNum[_departmentId].push(employerAddr_employerNum[msg.sender]);\n        employerArray[employerAddr_employerNum[msg.sender]].employerDepartmentID = _departmentId;\n        return true;\n    }\n\n    function UpdatePostEmployer(uint _newPostId) returns (bool update){\n        uint reqPost = employerArray[employerAddr_employerNum[msg.sender]].employerPostID;\n        delete postNum_employerNum[reqPost][employerAddr_employerNum[msg.sender]];\n        postNum_employerNum[_newPostId].push(employerAddr_employerNum[msg.sender]);\n        employerArray[employerAddr_employerNum[msg.sender]].employerPostID = _newPostId;\n        return true;\n    }\n\n    function UpdateDepartmentEmployer(uint _newDepartmentId) returns (bool update){\n        uint reqDepartment = employerArray[employerAddr_employerNum[msg.sender]].employerDepartmentID;\n        delete departmentNum_employerNum[reqDepartment][employerAddr_employerNum[msg.sender]];\n        departmentNum_employerNum[_newDepartmentId].push(employerAddr_employerNum[msg.sender]);\n        employerArray[employerAddr_employerNum[msg.sender]].employerDepartmentID = _newDepartmentId;\n        return true;\n    }\n\n    function GetEmployerArraySize() returns(uint[]){\n        uint[] res;\n        for (uint i = 0; i < employerArray.length; i++){\n            res.push(1);\n        }\n        return(res);\n    }\n\n    function GetEmployerFromEmployerNum(uint _employerNum) returns(\n        uint num,\n        string name,\n        string family, \n        string patronymic,\n        //uint postId,\n        //uint departmentId, \n        string rank,\n        bool status){\n            return (\n                employerArray[_employerNum].employerNum,\n                employerArray[_employerNum].employerName,\n                employerArray[_employerNum].employerFamily,\n                employerArray[_employerNum].employerPatronymic,\n                //employerArray[_employerNum].employerPostID,\n                //employerArray[_employerNum].employerDepartmentID,\n                employerArray[_employerNum].employerRank,\n                employerArray[_employerNum].employerStatus);\n        }\n\n    function GetEmployerWorkplaceFromNum(uint _employerNum) returns(\n        uint postId,\n        uint departmentId){\n            return(\n                employerArray[_employerNum].employerPostID,\n                employerArray[_employerNum].employerDepartmentID\n            );\n    }\n\n    function GetEmployerFromEmployerAddr() returns(\n        uint num,\n        string name,\n        string family, \n        string patronymic,\n        //uint postId,\n        //uint departmentId, \n        string rank,\n        bool status){\n            return(\n                employerArray[employerAddr_employerNum[msg.sender]].employerNum,\n                employerArray[employerAddr_employerNum[msg.sender]].employerName,\n                employerArray[employerAddr_employerNum[msg.sender]].employerFamily,\n                employerArray[employerAddr_employerNum[msg.sender]].employerPatronymic,\n                //employerArray[employerAddr_employerNum[msg.sender]].employerPostID,\n                //employerArray[employerAddr_employerNum[msg.sender]].employerDepartmentID,\n                employerArray[employerAddr_employerNum[msg.sender]].employerRank,\n                employerArray[employerAddr_employerNum[msg.sender]].employerStatus\n                );\n        }\n\n    function GetEmployerWorkplaceFromAddr(address employer) returns(\n        uint postId,\n        uint departmentId){\n            return(\n                employerArray[employerAddr_employerNum[employer]].employerPostID,\n                employerArray[employerAddr_employerNum[employer]].employerDepartmentID\n            );\n    }\n\n    function GetEmployerNumFromEmployerAddr() returns(uint[]){\n        uint[] num;\n        num.push(employerAddr_employerNum[msg.sender]);\n        return(num);\n        }   \n\n    function GetEmployersFromDepartmentId (uint depId) returns (uint[]){\n        uint[] result;\n        for (uint i =0; i < employerArray.length; i++){\n            if(employerArray[i].employerDepartmentID == depId){\n                result.push(1);\n            }else{\n                result.push(0);\n            }\n        }\n        return(result);\n    }\n\n    function GetEmployersFromPostId (uint postId) returns (uint[]){\n        uint[] result;\n        for (uint i =0; i < employerArray.length; i++){\n            if(employerArray[i].employerPostID == postId){\n                result.push(1);\n            }else{\n                result.push(0);\n            }\n        }\n        return(result);\n    }\n}\n",
  "sourcePath": "/home/user/Documents/WorkFlow/contracts/EmployerContract.sol",
  "compiler": {
    "name": "solc",
    "version": "0.4.19+commit.c4cbbb05.Emscripten.clang"
  },
  "schemaVersion": "2.0.0",
  "updatedAt": "2018-04-15T15:55:35.980Z"
}