{
  "contractName": "PostContract",
  "abi": [
    {
      "constant": false,
      "inputs": [],
      "name": "GetAdminFlag",
      "outputs": [
        {
          "name": "",
          "type": "bool"
        }
      ],
      "payable": false,
      "stateMutability": "nonpayable",
      "type": "function"
    },
    {
      "constant": false,
      "inputs": [],
      "name": "AssertAdmin",
      "outputs": [
        {
          "name": "",
          "type": "bool"
        }
      ],
      "payable": false,
      "stateMutability": "nonpayable",
      "type": "function"
    },
    {
      "constant": false,
      "inputs": [],
      "name": "GetAdmin",
      "outputs": [
        {
          "name": "admin",
          "type": "address"
        }
      ],
      "payable": false,
      "stateMutability": "nonpayable",
      "type": "function"
    },
    {
      "constant": false,
      "inputs": [],
      "name": "SetAdmin",
      "outputs": [
        {
          "name": "flag",
          "type": "bool"
        }
      ],
      "payable": false,
      "stateMutability": "nonpayable",
      "type": "function"
    },
    {
      "inputs": [],
      "payable": false,
      "stateMutability": "nonpayable",
      "type": "constructor"
    },
    {
      "constant": false,
      "inputs": [
        {
          "name": "_title",
          "type": "string"
        }
      ],
      "name": "CreatePost",
      "outputs": [
        {
          "name": "",
          "type": "bool"
        }
      ],
      "payable": false,
      "stateMutability": "nonpayable",
      "type": "function"
    },
    {
      "constant": false,
      "inputs": [
        {
          "name": "_postId",
          "type": "uint256"
        },
        {
          "name": "_newTitle",
          "type": "string"
        }
      ],
      "name": "UpdatePost",
      "outputs": [
        {
          "name": "",
          "type": "bool"
        }
      ],
      "payable": false,
      "stateMutability": "nonpayable",
      "type": "function"
    },
    {
      "constant": false,
      "inputs": [],
      "name": "GetPostNum",
      "outputs": [
        {
          "name": "postNumArray",
          "type": "uint256[]"
        }
      ],
      "payable": false,
      "stateMutability": "nonpayable",
      "type": "function"
    },
    {
      "constant": false,
      "inputs": [],
      "name": "GetActivePostNum",
      "outputs": [
        {
          "name": "postNumArray",
          "type": "uint256[]"
        }
      ],
      "payable": false,
      "stateMutability": "nonpayable",
      "type": "function"
    },
    {
      "constant": false,
      "inputs": [
        {
          "name": "_postId",
          "type": "uint256"
        }
      ],
      "name": "ViewPostDetails",
      "outputs": [
        {
          "name": "ret_title",
          "type": "string"
        },
        {
          "name": "ret_status",
          "type": "bool"
        }
      ],
      "payable": false,
      "stateMutability": "nonpayable",
      "type": "function"
    }
  ],
  "bytecode": "0x606060405260008060146101000a81548160ff021916908315150217905550341561002957600080fd5b610b38806100386000396000f300606060405260043610610099576000357c0100000000000000000000000000000000000000000000000000000000900463ffffffff16806317265cb71461009e5780632d64a79814610108578063490829ef1461018657806356f6ecb0146101b357806357fce39d146101e057806359af52e4146102355780638dfade50146102aa578063ce2e026b14610351578063f018d4ad146103bb575b600080fd5b34156100a957600080fd5b6100b16103e8565b6040518080602001828103825283818151815260200191508051906020019060200280838360005b838110156100f45780820151818401526020810190506100d9565b505050509050019250505060405180910390f35b341561011357600080fd5b61016c600480803590602001909190803590602001908201803590602001908080601f016020809104026020016040519081016040528093929190818152602001838380828437820191505050505050919050506104cc565b604051808215151515815260200191505060405180910390f35b341561019157600080fd5b61019961050d565b604051808215151515815260200191505060405180910390f35b34156101be57600080fd5b6101c6610523565b604051808215151515815260200191505060405180910390f35b34156101eb57600080fd5b6101f361058b565b604051808273ffffffffffffffffffffffffffffffffffffffff1673ffffffffffffffffffffffffffffffffffffffff16815260200191505060405180910390f35b341561024057600080fd5b610290600480803590602001908201803590602001908080601f0160208091040260200160405190810160405280939291908181526020018383808284378201915050505050509190505061060f565b604051808215151515815260200191505060405180910390f35b34156102b557600080fd5b6102cb600480803590602001909190505061071e565b604051808060200183151515158152602001828103825284818151815260200191508051906020019080838360005b838110156103155780820151818401526020810190506102fa565b50505050905090810190601f1680156103425780820380516001836020036101000a031916815260200191505b50935050505060405180910390f35b341561035c57600080fd5b61036461081e565b6040518080602001828103825283818151815260200191508051906020019060200280838360005b838110156103a757808201518184015260208101905061038c565b505050509050019250505060405180910390f35b34156103c657600080fd5b6103ce61082c565b604051808215151515815260200191505060405180910390f35b6103f0610890565b600080600090505b600280549050811015610475576001151560028281548110151561041857fe5b906000526020600020906003020160020160009054906101000a900460ff16151514156104685781805480600101828161045291906108a4565b9160005260206000209001600083909190915055505b80806001019150506103f8565b818054806020026020016040519081016040528092919081815260200182805480156104c057602002820191906000526020600020905b8154815260200190600101908083116104ac575b50505050509250505090565b6000816002848154811015156104de57fe5b906000526020600020906003020160010190805190602001906105029291906108d0565b506001905092915050565b60008060149054906101000a900460ff16905090565b60003373ffffffffffffffffffffffffffffffffffffffff166000809054906101000a900473ffffffffffffffffffffffffffffffffffffffff1673ffffffffffffffffffffffffffffffffffffffff1614156105835760019050610588565b600090505b90565b60008060009054906101000a900473ffffffffffffffffffffffffffffffffffffffff1673ffffffffffffffffffffffffffffffffffffffff163373ffffffffffffffffffffffffffffffffffffffff161415156105e857600080fd5b6000809054906101000a900473ffffffffffffffffffffffffffffffffffffffff16905090565b6000610619610950565b606060405190810160405280600454815260200184815260200160011515815250905060028054806001018281610650919061097a565b9160005260206000209060030201600083909190915060008201518160000155602082015181600101908051906020019061068c9291906109ac565b5060408201518160020160006101000a81548160ff021916908315150217905550505050600380548060010182816106c491906108a4565b91600052602060002090016000600454909190915055506001806000600454815260200190815260200160002060006101000a81548160ff0219169083151502179055506001600454016004819055506001915050919050565b610726610a2c565b600060028381548110151561073757fe5b90600052602060002090600302016001018054600181600116156101000203166002900480601f0160208091040260200160405190810160405280929190818152602001828054600181600116156101000203166002900480156107dc5780601f106107b1576101008083540402835291602001916107dc565b820191906000526020600020905b8154815290600101906020018083116107bf57829003601f168201915b505050505091506002838154811015156107f257fe5b906000526020600020906003020160020160009054906101000a900460ff169050818191509150915091565b610826610890565b80905090565b6000336000806101000a81548173ffffffffffffffffffffffffffffffffffffffff021916908373ffffffffffffffffffffffffffffffffffffffff1602179055506001600060146101000a81548160ff0219169083151502179055506001905090565b602060405190810160405280600081525090565b8154818355818115116108cb578183600052602060002091820191016108ca9190610a40565b5b505050565b828054600181600116156101000203166002900490600052602060002090601f016020900481019282601f1061091157805160ff191683800117855561093f565b8280016001018555821561093f579182015b8281111561093e578251825591602001919060010190610923565b5b50905061094c9190610a40565b5090565b6060604051908101604052806000815260200161096b610a65565b81526020016000151581525090565b8154818355818115116109a7576003028160030283600052602060002091820191016109a69190610a79565b5b505050565b828054600181600116156101000203166002900490600052602060002090601f016020900481019282601f106109ed57805160ff1916838001178555610a1b565b82800160010185558215610a1b579182015b82811115610a1a5782518255916020019190600101906109ff565b5b509050610a289190610a40565b5090565b602060405190810160405280600081525090565b610a6291905b80821115610a5e576000816000905550600101610a46565b5090565b90565b602060405190810160405280600081525090565b610ac191905b80821115610abd57600080820160009055600182016000610aa09190610ac4565b6002820160006101000a81549060ff021916905550600301610a7f565b5090565b90565b50805460018160011615610100020316600290046000825580601f10610aea5750610b09565b601f016020900490600052602060002090810190610b089190610a40565b5b505600a165627a7a72305820f3da84a20d8ef7786dfe256b2e75d92234dc98cc27eba73deec1ce6a3d984cae0029",
  "source": "//Контракт, содержащий данные о должности сотрудников и функции для добавления и удаления должностей\n\npragma solidity ^0.4.18;\n\nimport \"./AdminContract.sol\";\n\ncontract PostContract is AdminContract{\n\n    mapping (uint => bool) postNum_isPostActive;\n\n    struct PostStruct{\n        uint postId;\n        string postTitle;\n        bool postStatus;\n    }\n\n    PostStruct[] postArray;\n    uint[] postNumArray;\n    uint postID;\n\n    function PostContract() public{\n\n    }\n\n    function CreatePost(string _title) returns (bool){\n        PostStruct memory newPost = PostStruct({postId:postID, postTitle:_title, postStatus: true});\n        postArray.push(newPost);\n        postNumArray.push(postID);\n        postNum_isPostActive[postID] = true;\n        postID = postID + 1;\n        return true;\n    }\n\n    function UpdatePost(uint _postId, string _newTitle) returns (bool){\n        postArray[_postId].postTitle = _newTitle;\n        return true;\n    }\n\n    function GetPostNum() returns (uint[] postNumArray){\n        return (postNumArray);\n    }\n\n    function GetActivePostNum() returns (uint[] postNumArray){\n        uint[] activePostNumArray;\n        for(uint i = 0; i < postArray.length; i++){\n            if(postArray[i].postStatus == true){\n                activePostNumArray.push(i);\n            }\n        }\n        return (activePostNumArray);\n    }\n\n    function ViewPostDetails(uint _postId) returns (string ret_title, bool ret_status){\n        ret_title = postArray[_postId].postTitle;\n        ret_status = postArray[_postId].postStatus;\n        return (ret_title, ret_status);\n    }\n\n}",
  "sourcePath": "/home/user/Documents/WorkFlow/contracts/PostContract.sol",
  "compiler": {
    "name": "solc",
    "version": "0.4.19+commit.c4cbbb05.Emscripten.clang"
  },
  "schemaVersion": "2.0.0",
  "updatedAt": "2018-04-03T13:44:23.204Z"
}