{
  "contractName": "PostContract",
  "abi": [
    {
      "constant": false,
      "inputs": [],
      "name": "GetAdminFlag",
      "outputs": [
        {
          "name": "",
          "type": "bool"
        }
      ],
      "payable": false,
      "stateMutability": "nonpayable",
      "type": "function"
    },
    {
      "constant": false,
      "inputs": [],
      "name": "AssertAdmin",
      "outputs": [
        {
          "name": "",
          "type": "bool"
        }
      ],
      "payable": false,
      "stateMutability": "nonpayable",
      "type": "function"
    },
    {
      "constant": false,
      "inputs": [],
      "name": "GetAdmin",
      "outputs": [
        {
          "name": "admin",
          "type": "address"
        }
      ],
      "payable": false,
      "stateMutability": "nonpayable",
      "type": "function"
    },
    {
      "constant": false,
      "inputs": [],
      "name": "SetAdmin",
      "outputs": [
        {
          "name": "flag",
          "type": "bool"
        }
      ],
      "payable": false,
      "stateMutability": "nonpayable",
      "type": "function"
    },
    {
      "inputs": [],
      "payable": false,
      "stateMutability": "nonpayable",
      "type": "constructor"
    },
    {
      "constant": false,
      "inputs": [
        {
          "name": "_title",
          "type": "string"
        }
      ],
      "name": "CreatePost",
      "outputs": [
        {
          "name": "",
          "type": "bool"
        }
      ],
      "payable": false,
      "stateMutability": "nonpayable",
      "type": "function"
    },
    {
      "constant": false,
      "inputs": [
        {
          "name": "_postId",
          "type": "uint256"
        },
        {
          "name": "_newTitle",
          "type": "string"
        }
      ],
      "name": "UpdatePost",
      "outputs": [
        {
          "name": "",
          "type": "bool"
        }
      ],
      "payable": false,
      "stateMutability": "nonpayable",
      "type": "function"
    },
    {
      "constant": false,
      "inputs": [],
      "name": "GetPostNum",
      "outputs": [
        {
          "name": "postNumArray",
          "type": "uint256[]"
        }
      ],
      "payable": false,
      "stateMutability": "nonpayable",
      "type": "function"
    },
    {
      "constant": false,
      "inputs": [],
      "name": "GetActivePostNum",
      "outputs": [
        {
          "name": "postNumArray",
          "type": "uint256[]"
        }
      ],
      "payable": false,
      "stateMutability": "nonpayable",
      "type": "function"
    },
    {
      "constant": false,
      "inputs": [
        {
          "name": "_postId",
          "type": "uint256"
        }
      ],
      "name": "ViewPostDetails",
      "outputs": [
        {
          "name": "ret_title",
          "type": "string"
        },
        {
          "name": "ret_status",
          "type": "bool"
        }
      ],
      "payable": false,
      "stateMutability": "nonpayable",
      "type": "function"
    },
    {
      "constant": false,
      "inputs": [],
      "name": "GetPostArraySize",
      "outputs": [
        {
          "name": "",
          "type": "uint256[]"
        }
      ],
      "payable": false,
      "stateMutability": "nonpayable",
      "type": "function"
    },
    {
      "constant": false,
      "inputs": [
        {
          "name": "_num",
          "type": "uint256"
        }
      ],
      "name": "GetPostFromPostNum",
      "outputs": [
        {
          "name": "num",
          "type": "uint256"
        },
        {
          "name": "title",
          "type": "string"
        },
        {
          "name": "status",
          "type": "bool"
        }
      ],
      "payable": false,
      "stateMutability": "nonpayable",
      "type": "function"
    },
    {
      "constant": false,
      "inputs": [
        {
          "name": "_num",
          "type": "uint256"
        },
        {
          "name": "_newStatus",
          "type": "bool"
        }
      ],
      "name": "UpdateStatusPost",
      "outputs": [
        {
          "name": "updateStatus",
          "type": "bool"
        }
      ],
      "payable": false,
      "stateMutability": "nonpayable",
      "type": "function"
    }
  ],
  "bytecode": "0x606060405260008060146101000a81548160ff02191690831515021790555034156200002a57600080fd5b6000600280548060010182816200004291906200045a565b91600052602060002090600302016000606060405190810160405280600081526020016040805190810160405280601f81526020017fd09dd0b0d187d0b0d0bbd18cd0bdd0b8d0ba20d0bed182d0b4d0b5d0bbd0b0008152508152602001600115158152509091909150600082015181600001556020820151816001019080519060200190620000d49291906200048f565b5060408201518160020160006101000a81548160ff021916908315150217905550505050600280548060010182816200010e91906200045a565b9160005260206000209060030201600060606040519081016040528060018152602001606060405190810160405280602781526020017fd097d0b0d0bc2e20d0bdd0b0d187d0b0d0bbd18cd0bdd0b8d0ba20d0bed182d081526020017fb4d0b5d0bbd0b0000000000000000000000000000000000000000000000000008152508152602001600115158152509091909150600082015181600001556020820151816001019080519060200190620001c79291906200048f565b5060408201518160020160006101000a81548160ff021916908315150217905550505050600280548060010182816200020191906200045a565b91600052602060002090600302016000606060405190810160405280600281526020016040805190810160405280601681526020017fd09ad0bed0bdd181d183d0bbd18cd182d0b0d0bdd182000000000000000000008152508152602001600115158152509091909150600082015181600001556020820151816001019080519060200190620002939291906200048f565b5060408201518160020160006101000a81548160ff02191690831515021790555050505060028054806001018281620002cd91906200045a565b91600052602060002090600302016000606060405190810160405280600381526020016040805190810160405280601281526020017fd0a1d0bbd183d188d0b0d182d0b5d0bbd18c000000000000000000000000000081525081526020016001151581525090919091506000820151816000015560208201518160010190805190602001906200035f9291906200048f565b5060408201518160020160006101000a81548160ff021916908315150217905550505050600280548060010182816200039991906200045a565b91600052602060002090600302016000606060405190810160405280600481526020016040805190810160405280601a81526020017fd09fd180d0b5d0bfd0bed0b4d0b0d0b2d0b0d182d0b5d0bbd18c00000000000081525081526020016001151581525090919091506000820151816000015560208201518160010190805190602001906200042b9291906200048f565b5060408201518160020160006101000a81548160ff0219169083151502179055505050506005905050620005da565b8154818355818115116200048a5760030281600302836000526020600020918201910162000489919062000516565b5b505050565b828054600181600116156101000203166002900490600052602060002090601f016020900481019282601f10620004d257805160ff191683800117855562000503565b8280016001018555821562000503579182015b8281111562000502578251825591602001919060010190620004e5565b5b50905062000512919062000566565b5090565b6200056391905b808211156200055f576000808201600090556001820160006200054191906200058e565b6002820160006101000a81549060ff0219169055506003016200051d565b5090565b90565b6200058b91905b80821115620005875760008160009055506001016200056d565b5090565b90565b50805460018160011615610100020316600290046000825580601f10620005b65750620005d7565b601f016020900490600052602060002090810190620005d6919062000566565b5b50565b610ec980620005ea6000396000f3006060604052600436106100ba576000357c0100000000000000000000000000000000000000000000000000000000900463ffffffff1680631613a9fe146100bf57806317265cb71461016d5780632d64a798146101d7578063438cf47914610255578063490829ef146102bf57806356f6ecb0146102ec57806357fce39d1461031957806359af52e41461036e5780638dfade50146103e3578063ce2e026b1461048a578063ea8fdb33146104f4578063f018d4ad1461053a575b600080fd5b34156100ca57600080fd5b6100e06004808035906020019091905050610567565b604051808481526020018060200183151515158152602001828103825284818151815260200191508051906020019080838360005b83811015610130578082015181840152602081019050610115565b50505050905090810190601f16801561015d5780820380516001836020036101000a031916815260200191505b5094505050505060405180910390f35b341561017857600080fd5b61018061068b565b6040518080602001828103825283818151815260200191508051906020019060200280838360005b838110156101c35780820151818401526020810190506101a8565b505050509050019250505060405180910390f35b34156101e257600080fd5b61023b600480803590602001909190803590602001908201803590602001908080601f0160208091040260200160405190810160405280939291908181526020018383808284378201915050505050509190505061076f565b604051808215151515815260200191505060405180910390f35b341561026057600080fd5b6102686107b0565b6040518080602001828103825283818151815260200191508051906020019060200280838360005b838110156102ab578082015181840152602081019050610290565b505050509050019250505060405180910390f35b34156102ca57600080fd5b6102d261085a565b604051808215151515815260200191505060405180910390f35b34156102f757600080fd5b6102ff610870565b604051808215151515815260200191505060405180910390f35b341561032457600080fd5b61032c6108d8565b604051808273ffffffffffffffffffffffffffffffffffffffff1673ffffffffffffffffffffffffffffffffffffffff16815260200191505060405180910390f35b341561037957600080fd5b6103c9600480803590602001908201803590602001908080601f0160208091040260200160405190810160405280939291908181526020018383808284378201915050505050509190505061095c565b604051808215151515815260200191505060405180910390f35b34156103ee57600080fd5b6104046004808035906020019091905050610a6b565b604051808060200183151515158152602001828103825284818151815260200191508051906020019080838360005b8381101561044e578082015181840152602081019050610433565b50505050905090810190601f16801561047b5780820380516001836020036101000a031916815260200191505b50935050505060405180910390f35b341561049557600080fd5b61049d610b6b565b6040518080602001828103825283818151815260200191508051906020019060200280838360005b838110156104e05780820151818401526020810190506104c5565b505050509050019250505060405180910390f35b34156104ff57600080fd5b61052060048080359060200190919080351515906020019091905050610b79565b604051808215151515815260200191505060405180910390f35b341561054557600080fd5b61054d610bbd565b604051808215151515815260200191505060405180910390f35b6000610571610c21565b600060028481548110151561058257fe5b9060005260206000209060030201600001546002858154811015156105a357fe5b90600052602060002090600302016001016002868154811015156105c357fe5b906000526020600020906003020160020160009054906101000a900460ff16818054600181600116156101000203166002900480601f0160208091040260200160405190810160405280929190818152602001828054600181600116156101000203166002900480156106775780601f1061064c57610100808354040283529160200191610677565b820191906000526020600020905b81548152906001019060200180831161065a57829003601f168201915b505050505091509250925092509193909250565b610693610c35565b600080600090505b60028054905081101561071857600115156002828154811015156106bb57fe5b906000526020600020906003020160020160009054906101000a900460ff161515141561070b578180548060010182816106f59190610c49565b9160005260206000209001600083909190915055505b808060010191505061069b565b8180548060200260200160405190810160405280929190818152602001828054801561076357602002820191906000526020600020905b81548152602001906001019080831161074f575b50505050509250505090565b60008160028481548110151561078157fe5b906000526020600020906003020160010190805190602001906107a5929190610c75565b506001905092915050565b6107b8610c35565b600080600090505b600280549050811015610803578180548060010182816107e09190610c49565b9160005260206000209001600060019091909150555080806001019150506107c0565b8180548060200260200160405190810160405280929190818152602001828054801561084e57602002820191906000526020600020905b81548152602001906001019080831161083a575b50505050509250505090565b60008060149054906101000a900460ff16905090565b60003373ffffffffffffffffffffffffffffffffffffffff166000809054906101000a900473ffffffffffffffffffffffffffffffffffffffff1673ffffffffffffffffffffffffffffffffffffffff1614156108d057600190506108d5565b600090505b90565b60008060009054906101000a900473ffffffffffffffffffffffffffffffffffffffff1673ffffffffffffffffffffffffffffffffffffffff163373ffffffffffffffffffffffffffffffffffffffff1614151561093557600080fd5b6000809054906101000a900473ffffffffffffffffffffffffffffffffffffffff16905090565b6000610966610cf5565b60606040519081016040528060045481526020018481526020016001151581525090506002805480600101828161099d9190610d1f565b916000526020600020906003020160008390919091506000820151816000015560208201518160010190805190602001906109d9929190610d51565b5060408201518160020160006101000a81548160ff02191690831515021790555050505060038054806001018281610a119190610c49565b91600052602060002090016000600454909190915055506001806000600454815260200190815260200160002060006101000a81548160ff0219169083151502179055506001600454016004819055506001915050919050565b610a73610c21565b6000600283815481101515610a8457fe5b90600052602060002090600302016001018054600181600116156101000203166002900480601f016020809104026020016040519081016040528092919081815260200182805460018160011615610100020316600290048015610b295780601f10610afe57610100808354040283529160200191610b29565b820191906000526020600020905b815481529060010190602001808311610b0c57829003601f168201915b50505050509150600283815481101515610b3f57fe5b906000526020600020906003020160020160009054906101000a900460ff169050818191509150915091565b610b73610c35565b80905090565b600081600284815481101515610b8b57fe5b906000526020600020906003020160020160006101000a81548160ff0219169083151502179055506001905092915050565b6000336000806101000a81548173ffffffffffffffffffffffffffffffffffffffff021916908373ffffffffffffffffffffffffffffffffffffffff1602179055506001600060146101000a81548160ff0219169083151502179055506001905090565b602060405190810160405280600081525090565b602060405190810160405280600081525090565b815481835581811511610c7057818360005260206000209182019101610c6f9190610dd1565b5b505050565b828054600181600116156101000203166002900490600052602060002090601f016020900481019282601f10610cb657805160ff1916838001178555610ce4565b82800160010185558215610ce4579182015b82811115610ce3578251825591602001919060010190610cc8565b5b509050610cf19190610dd1565b5090565b60606040519081016040528060008152602001610d10610df6565b81526020016000151581525090565b815481835581811511610d4c57600302816003028360005260206000209182019101610d4b9190610e0a565b5b505050565b828054600181600116156101000203166002900490600052602060002090601f016020900481019282601f10610d9257805160ff1916838001178555610dc0565b82800160010185558215610dc0579182015b82811115610dbf578251825591602001919060010190610da4565b5b509050610dcd9190610dd1565b5090565b610df391905b80821115610def576000816000905550600101610dd7565b5090565b90565b602060405190810160405280600081525090565b610e5291905b80821115610e4e57600080820160009055600182016000610e319190610e55565b6002820160006101000a81549060ff021916905550600301610e10565b5090565b90565b50805460018160011615610100020316600290046000825580601f10610e7b5750610e9a565b601f016020900490600052602060002090810190610e999190610dd1565b5b505600a165627a7a7230582024e862ee949426cfc24edce233f4e39da71fbce39d0e974153e34d06b6900a850029",
  "source": "//Контракт, содержащий данные о должности сотрудников и функции для добавления и удаления должностей\n\npragma solidity ^0.4.18;\n\nimport \"./AdminContract.sol\";\n\ncontract PostContract is AdminContract{\n\n    mapping (uint => bool) postNum_isPostActive;\n\n    struct PostStruct{\n        uint postId;\n        string postTitle;\n        bool postStatus;\n    }\n\n    PostStruct[] postArray;\n    uint[] postNumArray;\n    uint postID;\n\n    function PostContract() public{\n        postArray.push(PostStruct(0, \"Начальник отдела\", true));\n        postArray.push(PostStruct(1, \"Зам. начальник отдела\", true));\n        postArray.push(PostStruct(2, \"Консультант\", true));\n        postArray.push(PostStruct(3, \"Слушатель\", true));\n        postArray.push(PostStruct(4, \"Преподаватель\", true));\n        uint postID = 5;\n    }\n\n    function CreatePost(string _title) returns (bool){\n        PostStruct memory newPost = PostStruct({postId:postID, postTitle:_title, postStatus: true});\n        postArray.push(newPost);\n        postNumArray.push(postID);\n        postNum_isPostActive[postID] = true;\n        postID = postID + 1;\n        return true;\n    }\n\n    function UpdatePost(uint _postId, string _newTitle) returns (bool){\n        postArray[_postId].postTitle = _newTitle;\n        return true;\n    }\n\n    function GetPostNum() returns (uint[] postNumArray){\n        return (postNumArray);\n    }\n\n    function GetActivePostNum() returns (uint[] postNumArray){\n        uint[] activePostNumArray;\n        for(uint i = 0; i < postArray.length; i++){\n            if(postArray[i].postStatus == true){\n                activePostNumArray.push(i);\n            }\n        }\n        return (activePostNumArray);\n    }\n\n    function ViewPostDetails(uint _postId) returns (string ret_title, bool ret_status){\n        ret_title = postArray[_postId].postTitle;\n        ret_status = postArray[_postId].postStatus;\n        return (ret_title, ret_status);\n    }\n\n    function GetPostArraySize() returns(uint[]){\n        uint[] res;\n        for (uint i = 0; i < postArray.length; i++){\n            res.push(1);\n        }\n        return(res);\n    }\n\n    function GetPostFromPostNum(uint _num) returns(\n        uint num,\n        string title,\n        bool status){\n            return (\n                postArray[_num].postId,\n                postArray[_num].postTitle,\n                postArray[_num].postStatus);\n    }\n\n    function UpdateStatusPost(uint _num, bool _newStatus) returns (bool updateStatus) {\n        postArray[_num].postStatus = _newStatus;\n        return true;\n    }\n}",
  "sourcePath": "/home/user/Documents/WorkFlow/contracts/PostContract.sol",
  "compiler": {
    "name": "solc",
    "version": "0.4.19+commit.c4cbbb05.Emscripten.clang"
  },
  "schemaVersion": "2.0.0",
  "updatedAt": "2018-04-15T15:55:35.949Z"
}