{
  "contractName": "ReportContract",
  "abi": [
    {
      "constant": true,
      "inputs": [],
      "name": "reportNuber",
      "outputs": [
        {
          "name": "",
          "type": "uint256"
        }
      ],
      "payable": false,
      "stateMutability": "view",
      "type": "function"
    },
    {
      "constant": true,
      "inputs": [],
      "name": "templateReportNumber",
      "outputs": [
        {
          "name": "",
          "type": "uint256"
        }
      ],
      "payable": false,
      "stateMutability": "view",
      "type": "function"
    },
    {
      "constant": true,
      "inputs": [
        {
          "name": "",
          "type": "uint256"
        }
      ],
      "name": "employerReportArray",
      "outputs": [
        {
          "name": "reportNum",
          "type": "uint256"
        },
        {
          "name": "employerNum",
          "type": "uint256"
        },
        {
          "name": "templateReportNum",
          "type": "uint256"
        },
        {
          "name": "isApprove",
          "type": "bool"
        }
      ],
      "payable": false,
      "stateMutability": "view",
      "type": "function"
    },
    {
      "constant": true,
      "inputs": [
        {
          "name": "",
          "type": "uint256"
        }
      ],
      "name": "templateReportArray",
      "outputs": [
        {
          "name": "templateReportNum",
          "type": "uint256"
        },
        {
          "name": "reportTitle",
          "type": "string"
        }
      ],
      "payable": false,
      "stateMutability": "view",
      "type": "function"
    },
    {
      "inputs": [],
      "payable": false,
      "stateMutability": "nonpayable",
      "type": "constructor"
    },
    {
      "constant": false,
      "inputs": [],
      "name": "AutoCreaterTemplateReport",
      "outputs": [],
      "payable": false,
      "stateMutability": "nonpayable",
      "type": "function"
    },
    {
      "constant": false,
      "inputs": [],
      "name": "AutoCreaterEmployerReport",
      "outputs": [],
      "payable": false,
      "stateMutability": "nonpayable",
      "type": "function"
    },
    {
      "constant": false,
      "inputs": [
        {
          "name": "_title",
          "type": "string"
        }
      ],
      "name": "CreateReport",
      "outputs": [
        {
          "name": "createReport",
          "type": "bool"
        }
      ],
      "payable": false,
      "stateMutability": "nonpayable",
      "type": "function"
    },
    {
      "constant": false,
      "inputs": [
        {
          "name": "_employerNum",
          "type": "uint256"
        }
      ],
      "name": "GetEmployersReport",
      "outputs": [
        {
          "name": "reportsArray",
          "type": "uint256[]"
        }
      ],
      "payable": false,
      "stateMutability": "nonpayable",
      "type": "function"
    },
    {
      "constant": false,
      "inputs": [],
      "name": "GetEmployersAcceptReport",
      "outputs": [
        {
          "name": "",
          "type": "uint256[]"
        }
      ],
      "payable": false,
      "stateMutability": "nonpayable",
      "type": "function"
    },
    {
      "constant": false,
      "inputs": [],
      "name": "GetEmployersNotAcceptReport",
      "outputs": [
        {
          "name": "",
          "type": "uint256[]"
        }
      ],
      "payable": false,
      "stateMutability": "nonpayable",
      "type": "function"
    },
    {
      "constant": false,
      "inputs": [],
      "name": "GetEmployerReportSize",
      "outputs": [
        {
          "name": "",
          "type": "uint256[]"
        }
      ],
      "payable": false,
      "stateMutability": "nonpayable",
      "type": "function"
    },
    {
      "constant": false,
      "inputs": [
        {
          "name": "_num",
          "type": "uint256"
        }
      ],
      "name": "GetEmployersReportFromNum",
      "outputs": [
        {
          "name": "employerNum",
          "type": "uint256"
        },
        {
          "name": "title",
          "type": "string"
        },
        {
          "name": "isApprove",
          "type": "bool"
        },
        {
          "name": "depNum",
          "type": "uint256[]"
        },
        {
          "name": "empNum",
          "type": "uint256[]"
        },
        {
          "name": "",
          "type": "uint256[]"
        }
      ],
      "payable": false,
      "stateMutability": "nonpayable",
      "type": "function"
    },
    {
      "constant": false,
      "inputs": [
        {
          "name": "_num",
          "type": "uint256"
        }
      ],
      "name": "GetTemplateReportFromNum",
      "outputs": [
        {
          "name": "reportTitle",
          "type": "string"
        },
        {
          "name": "",
          "type": "uint256[]"
        },
        {
          "name": "",
          "type": "uint256[]"
        }
      ],
      "payable": false,
      "stateMutability": "nonpayable",
      "type": "function"
    },
    {
      "constant": false,
      "inputs": [
        {
          "name": "_num",
          "type": "uint256"
        },
        {
          "name": "newStatus",
          "type": "bool"
        }
      ],
      "name": "UpdateStatusReprot",
      "outputs": [
        {
          "name": "",
          "type": "bool"
        }
      ],
      "payable": false,
      "stateMutability": "nonpayable",
      "type": "function"
    }
  ],
  "bytecode": "0x606060405234156200001057600080fd5b6200002e62000052640100000000026200078a176401000000009004565b6200004c620005636401000000000262001416176401000000009004565b620027f6565b6007805480600101828162000068919062001fa0565b916000526020600020906002020160006040805190810160405280600081526020016040805190810160405280601d81526020017fd0a0d0b0d0bfd0bed180d18220d0bdd0b0206fd182d0bfd183d181d0ba0000008152508152509091909150600082015181600001556020820151816001019080519060200190620000f092919062001fd5565b50505050600780548060010182816200010a919062001fa0565b916000526020600020906002020160006040805190810160405280600181526020016040805190810160405280602081526020017fd0a0d0b0d0bfd0bed180d18220d0bdd0b020d182d0b5d185d0bdd0b8d0bad18381525081525090919091506000820151816000015560208201518160010190805190602001906200019292919062001fd5565b5050505060078054806001018281620001ac919062001fa0565b91600052602060002090600202016000604080519081016040528060028152602001606060405190810160405280602281526020017fd0a0d0b0d0bfd0bed180d18220d0bdd0b020d0bfd0b0d180d0bad0bed0b2d0ba81526020017fd18300000000000000000000000000000000000000000000000000000000000081525081525090919091506000820151816000015560208201518160010190805190602001906200025b92919062001fd5565b505050506007805480600101828162000275919062001fa0565b916000526020600020906002020160006040805190810160405280600381526020016040805190810160405280602081526020017fd0a0d0b0d0bfd0bed180d18220d0bdd0b020d0bbd0b5d187d0b5d0bdd0b8d0b58152508152509091909150600082015181600001556020820151816001019080519060200190620002fd92919062001fd5565b50505050606060405190810160405280600160ff168152602001600260ff168152602001600360ff16815250600160008081526020019081526020016000209060036200034c9291906200205c565b50600160008081526020019081526020016000208054806001018281620003749190620020b3565b916000526020600020900160006004909190915055506040805190810160405280600060ff168152602001600160ff1681525060026000808152602001908152602001600020906002620003ca929190620020e2565b50606060405190810160405280600060ff168152602001600360ff168152602001600460ff168152506001600060018152602001908152602001600020906003620004179291906200205c565b506040805190810160405280600060ff168152602001600160ff16815250600260006001815260200190815260200160002090600262000459929190620020e2565b50602060405190810160405280600060ff1681525060016000600281526020019081526020016000209060016200049292919062002139565b506040805190810160405280600060ff168152602001600160ff168152506002600060028152602001908152602001600020906002620004d4929190620020e2565b506040805190810160405280600460ff168152602001600560ff16815250600160006003815260200190815260200160002090600262000516929190620020e2565b506040805190810160405280600060ff168152602001600160ff16815250600260006003815260200190815260200160002090600262000558929190620020e2565b506004600881905550565b6006805480600101828162000579919062002190565b9160005260206000209060040201600060806040519081016040528060008152602001600081526020016000815260200160001515815250909190915060008201518160000155602082015181600101556040820151816002015560608201518160030160006101000a81548160ff021916908315150217905550505050608060405190810160405280600060ff168152602001600060ff168152602001600060ff168152602001600060ff16815250600360008081526020019081526020016000209060046200064c929190620021c5565b506080604051908101604052806002808111156200066657fe5b60028111156200067257fe5b81526020016002808111156200068457fe5b60028111156200069057fe5b8152602001600280811115620006a257fe5b6002811115620006ae57fe5b8152602001600280811115620006c057fe5b6002811115620006cc57fe5b81525060046000808152602001908152602001600020906004620006f29291906200221c565b506080604051908101604052806040805190810160405280600481526020017f4e6f6e650000000000000000000000000000000000000000000000000000000081525081526020016040805190810160405280600481526020017f4e6f6e650000000000000000000000000000000000000000000000000000000081525081526020016040805190810160405280600481526020017f4e6f6e650000000000000000000000000000000000000000000000000000000081525081526020016040805190810160405280600481526020017f4e6f6e6500000000000000000000000000000000000000000000000000000000815250815250600560008081526020019081526020016000209060046200080c929190620022d3565b506006805480600101828162000823919062002190565b9160005260206000209060040201600060806040519081016040528060018152602001600181526020016000815260200160001515815250909190915060008201518160000155602082015181600101556040820151816002015560608201518160030160006101000a81548160ff021916908315150217905550505050608060405190810160405280600060ff168152602001600060ff168152602001600060ff168152602001600060ff168152506003600060018152602001908152602001600020906004620008f7929190620021c5565b506080604051908101604052806002808111156200091157fe5b60028111156200091d57fe5b81526020016002808111156200092f57fe5b60028111156200093b57fe5b81526020016002808111156200094d57fe5b60028111156200095957fe5b81526020016002808111156200096b57fe5b60028111156200097757fe5b81525060046000600181526020019081526020016000209060046200099e9291906200221c565b506080604051908101604052806040805190810160405280600481526020017f4e6f6e650000000000000000000000000000000000000000000000000000000081525081526020016040805190810160405280600481526020017f4e6f6e650000000000000000000000000000000000000000000000000000000081525081526020016040805190810160405280600481526020017f4e6f6e650000000000000000000000000000000000000000000000000000000081525081526020016040805190810160405280600481526020017f4e6f6e6500000000000000000000000000000000000000000000000000000000815250815250600560006001815260200190815260200160002090600462000ab9929190620022d3565b506006805480600101828162000ad0919062002190565b9160005260206000209060040201600060806040519081016040528060028152602001600281526020016000815260200160001515815250909190915060008201518160000155602082015181600101556040820151816002015560608201518160030160006101000a81548160ff021916908315150217905550505050608060405190810160405280600060ff168152602001600060ff168152602001600060ff168152602001600060ff16815250600360006002815260200190815260200160002090600462000ba4929190620021c5565b5060806040519081016040528060028081111562000bbe57fe5b600281111562000bca57fe5b815260200160028081111562000bdc57fe5b600281111562000be857fe5b815260200160028081111562000bfa57fe5b600281111562000c0657fe5b815260200160028081111562000c1857fe5b600281111562000c2457fe5b815250600460006002815260200190815260200160002090600462000c4b9291906200221c565b506080604051908101604052806040805190810160405280600481526020017f4e6f6e650000000000000000000000000000000000000000000000000000000081525081526020016040805190810160405280600481526020017f4e6f6e650000000000000000000000000000000000000000000000000000000081525081526020016040805190810160405280600481526020017f4e6f6e650000000000000000000000000000000000000000000000000000000081525081526020016040805190810160405280600481526020017f4e6f6e6500000000000000000000000000000000000000000000000000000000815250815250600560006002815260200190815260200160002090600462000d66929190620022d3565b506006805480600101828162000d7d919062002190565b9160005260206000209060040201600060806040519081016040528060038152602001600381526020016000815260200160001515815250909190915060008201518160000155602082015181600101556040820151816002015560608201518160030160006101000a81548160ff021916908315150217905550505050608060405190810160405280600060ff168152602001600060ff168152602001600060ff168152602001600060ff16815250600360006003815260200190815260200160002090600462000e51929190620021c5565b5060806040519081016040528060028081111562000e6b57fe5b600281111562000e7757fe5b815260200160028081111562000e8957fe5b600281111562000e9557fe5b815260200160028081111562000ea757fe5b600281111562000eb357fe5b815260200160028081111562000ec557fe5b600281111562000ed157fe5b815250600460006003815260200190815260200160002090600462000ef89291906200221c565b506080604051908101604052806040805190810160405280600481526020017f4e6f6e650000000000000000000000000000000000000000000000000000000081525081526020016040805190810160405280600481526020017f4e6f6e650000000000000000000000000000000000000000000000000000000081525081526020016040805190810160405280600481526020017f4e6f6e650000000000000000000000000000000000000000000000000000000081525081526020016040805190810160405280600481526020017f4e6f6e6500000000000000000000000000000000000000000000000000000000815250815250600560006003815260200190815260200160002090600462001013929190620022d3565b50600680548060010182816200102a919062002190565b9160005260206000209060040201600060806040519081016040528060048152602001600081526020016001815260200160001515815250909190915060008201518160000155602082015181600101556040820151816002015560608201518160030160006101000a81548160ff021916908315150217905550505050606060405190810160405280600060ff168152602001600060ff168152602001600060ff168152506003600060048152602001908152602001600020906003620010f49291906200205c565b506060604051908101604052806002808111156200110e57fe5b60028111156200111a57fe5b81526020016002808111156200112c57fe5b60028111156200113857fe5b81526020016002808111156200114a57fe5b60028111156200115657fe5b81525060046000600481526020019081526020016000209060036200117d9291906200233a565b506060604051908101604052806040805190810160405280600481526020017f4e6f6e650000000000000000000000000000000000000000000000000000000081525081526020016040805190810160405280600481526020017f4e6f6e650000000000000000000000000000000000000000000000000000000081525081526020016040805190810160405280600481526020017f4e6f6e650000000000000000000000000000000000000000000000000000000081525081525060056000600581526020019081526020016000209060036200125d929190620023f1565b506006805480600101828162001274919062002190565b9160005260206000209060040201600060806040519081016040528060058152602001600181526020016001815260200160001515815250909190915060008201518160000155602082015181600101556040820151816002015560608201518160030160006101000a81548160ff021916908315150217905550505050606060405190810160405280600060ff168152602001600060ff168152602001600060ff1681525060036000600581526020019081526020016000209060036200133e9291906200205c565b506060604051908101604052806002808111156200135857fe5b60028111156200136457fe5b81526020016002808111156200137657fe5b60028111156200138257fe5b81526020016002808111156200139457fe5b6002811115620013a057fe5b8152506004600060058152602001908152602001600020906003620013c79291906200233a565b506060604051908101604052806040805190810160405280600481526020017f4e6f6e650000000000000000000000000000000000000000000000000000000081525081526020016040805190810160405280600481526020017f4e6f6e650000000000000000000000000000000000000000000000000000000081525081526020016040805190810160405280600481526020017f4e6f6e65000000000000000000000000000000000000000000000000000000008152508152506005600060058152602001908152602001600020906003620014a7929190620023f1565b5060068054806001018281620014be919062002190565b9160005260206000209060040201600060806040519081016040528060068152602001600081526020016002815260200160001515815250909190915060008201518160000155602082015181600101556040820151816002015560608201518160030160006101000a81548160ff021916908315150217905550505050602060405190810160405280600060ff1681525060036000600681526020019081526020016000209060016200157492919062002139565b506020604051908101604052806002808111156200158e57fe5b60028111156200159a57fe5b8152506004600060068152602001908152602001600020906001620015c192919062002458565b506020604051908101604052806040805190810160405280600481526020017f4e6f6e650000000000000000000000000000000000000000000000000000000081525081525060056000600681526020019081526020016000209060016200162b9291906200250f565b506006805480600101828162001642919062002190565b9160005260206000209060040201600060806040519081016040528060078152602001600281526020016002815260200160001515815250909190915060008201518160000155602082015181600101556040820151816002015560608201518160030160006101000a81548160ff021916908315150217905550505050602060405190810160405280600060ff168152506003600060078152602001908152602001600020906001620016f892919062002139565b506020604051908101604052806002808111156200171257fe5b60028111156200171e57fe5b81525060046000600781526020019081526020016000209060016200174592919062002458565b506020604051908101604052806040805190810160405280600481526020017f4e6f6e65000000000000000000000000000000000000000000000000000000008152508152506005600060078152602001908152602001600020906001620017af9291906200250f565b5060068054806001018281620017c6919062002190565b9160005260206000209060040201600060806040519081016040528060088152602001600381526020016002815260200160001515815250909190915060008201518160000155602082015181600101556040820151816002015560608201518160030160006101000a81548160ff021916908315150217905550505050602060405190810160405280600060ff1681525060036000600881526020019081526020016000209060016200187c92919062002139565b506020604051908101604052806002808111156200189657fe5b6002811115620018a257fe5b8152506004600060088152602001908152602001600020906001620018c992919062002458565b506020604051908101604052806040805190810160405280600481526020017f4e6f6e65000000000000000000000000000000000000000000000000000000008152508152506005600060088152602001908152602001600020906001620019339291906200250f565b50600680548060010182816200194a919062002190565b9160005260206000209060040201600060806040519081016040528060098152602001600081526020016003815260200160001515815250909190915060008201518160000155602082015181600101556040820151816002015560608201518160030160006101000a81548160ff0219169083151502179055505050506040805190810160405280600060ff168152602001600060ff16815250600360006009815260200190815260200160002090600262001a09929190620020e2565b50604080519081016040528060028081111562001a2257fe5b600281111562001a2e57fe5b815260200160028081111562001a4057fe5b600281111562001a4c57fe5b815250600460006009815260200190815260200160002090600262001a7392919062002576565b5060408051908101604052806040805190810160405280600481526020017f4e6f6e650000000000000000000000000000000000000000000000000000000081525081526020016040805190810160405280600481526020017f4e6f6e6500000000000000000000000000000000000000000000000000000000815250815250600560006009815260200190815260200160002090600262001b179291906200262d565b506006805480600101828162001b2e919062002190565b91600052602060002090600402016000608060405190810160405280600a8152602001600381526020016003815260200160001515815250909190915060008201518160000155602082015181600101556040820151816002015560608201518160030160006101000a81548160ff0219169083151502179055505050506040805190810160405280600060ff168152602001600060ff1681525060036000600a815260200190815260200160002090600262001bed929190620020e2565b50604080519081016040528060028081111562001c0657fe5b600281111562001c1257fe5b815260200160028081111562001c2457fe5b600281111562001c3057fe5b81525060046000600a815260200190815260200160002090600262001c5792919062002576565b5060408051908101604052806040805190810160405280600481526020017f4e6f6e650000000000000000000000000000000000000000000000000000000081525081526020016040805190810160405280600481526020017f4e6f6e650000000000000000000000000000000000000000000000000000000081525081525060056000600a815260200190815260200160002090600262001cfb9291906200262d565b50600080808152602001908152602001600020805480600101828162001d229190620020b3565b916000526020600020900160008090919091505550600080808152602001908152602001600020805480600101828162001d5d9190620020b3565b91600052602060002090016000600490919091505550600080808152602001908152602001600020805480600101828162001d999190620020b3565b91600052602060002090016000600690919091505550600080808152602001908152602001600020805480600101828162001dd59190620020b3565b9160005260206000209001600060099091909150555060008060018152602001908152602001600020805480600101828162001e129190620020b3565b9160005260206000209001600060019091909150555060008060018152602001908152602001600020805480600101828162001e4f9190620020b3565b9160005260206000209001600060059091909150555060008060028152602001908152602001600020805480600101828162001e8c9190620020b3565b9160005260206000209001600060029091909150555060008060028152602001908152602001600020805480600101828162001ec99190620020b3565b9160005260206000209001600060079091909150555060008060038152602001908152602001600020805480600101828162001f069190620020b3565b9160005260206000209001600060039091909150555060008060038152602001908152602001600020805480600101828162001f439190620020b3565b9160005260206000209001600060089091909150555060008060038152602001908152602001600020805480600101828162001f809190620020b3565b91600052602060002090016000600a90919091505550600b600981905550565b81548183558181151162001fd05760020281600202836000526020600020918201910162001fcf919062002694565b5b505050565b828054600181600116156101000203166002900490600052602060002090601f016020900481019282601f106200201857805160ff191683800117855562002049565b8280016001018555821562002049579182015b82811115620020485782518255916020019190600101906200202b565b5b509050620020589190620026d0565b5090565b828054828255906000526020600020908101928215620020a0579160200282015b828111156200209f578251829060ff169055916020019190600101906200207d565b5b509050620020af9190620026d0565b5090565b815481835581811511620020dd57818360005260206000209182019101620020dc9190620026d0565b5b505050565b82805482825590600052602060002090810192821562002126579160200282015b8281111562002125578251829060ff1690559160200191906001019062002103565b5b509050620021359190620026d0565b5090565b8280548282559060005260206000209081019282156200217d579160200282015b828111156200217c578251829060ff169055916020019190600101906200215a565b5b5090506200218c9190620026d0565b5090565b815481835581811511620021c057600402816004028360005260206000209182019101620021bf9190620026f8565b5b505050565b82805482825590600052602060002090810192821562002209579160200282015b8281111562002208578251829060ff16905591602001919060010190620021e6565b5b509050620022189190620026d0565b5090565b82805482825590600052602060002090601f01602090048101928215620022c05791602002820160005b838211156200228f57835183826101000a81548160ff021916908360028111156200226d57fe5b0217905550926020019260010160208160000104928301926001030262002246565b8015620022be5782816101000a81549060ff02191690556001016020816000010492830192600103026200228f565b505b509050620022cf919062002746565b5090565b82805482825590600052602060002090810192821562002327579160200282015b82811115620023265782518290805190602001906200231592919062001fd5565b5091602001919060010190620022f4565b5b50905062002336919062002779565b5090565b82805482825590600052602060002090601f01602090048101928215620023de5791602002820160005b83821115620023ad57835183826101000a81548160ff021916908360028111156200238b57fe5b0217905550926020019260010160208160000104928301926001030262002364565b8015620023dc5782816101000a81549060ff0219169055600101602081600001049283019260010302620023ad565b505b509050620023ed919062002746565b5090565b82805482825590600052602060002090810192821562002445579160200282015b82811115620024445782518290805190602001906200243392919062001fd5565b509160200191906001019062002412565b5b50905062002454919062002779565b5090565b82805482825590600052602060002090601f01602090048101928215620024fc5791602002820160005b83821115620024cb57835183826101000a81548160ff02191690836002811115620024a957fe5b0217905550926020019260010160208160000104928301926001030262002482565b8015620024fa5782816101000a81549060ff0219169055600101602081600001049283019260010302620024cb565b505b5090506200250b919062002746565b5090565b82805482825590600052602060002090810192821562002563579160200282015b82811115620025625782518290805190602001906200255192919062001fd5565b509160200191906001019062002530565b5b50905062002572919062002779565b5090565b82805482825590600052602060002090601f016020900481019282156200261a5791602002820160005b83821115620025e957835183826101000a81548160ff02191690836002811115620025c757fe5b02179055509260200192600101602081600001049283019260010302620025a0565b8015620026185782816101000a81549060ff0219169055600101602081600001049283019260010302620025e9565b505b50905062002629919062002746565b5090565b82805482825590600052602060002090810192821562002681579160200282015b82811115620026805782518290805190602001906200266f92919062001fd5565b50916020019190600101906200264e565b5b50905062002690919062002779565b5090565b620026cd91905b80821115620026c957600080820160009055600182016000620026bf9190620027aa565b506002016200269b565b5090565b90565b620026f591905b80821115620026f1576000816000905550600101620026d7565b5090565b90565b6200274391905b808211156200273f57600080820160009055600182016000905560028201600090556003820160006101000a81549060ff021916905550600401620026ff565b5090565b90565b6200277691905b808211156200277257600081816101000a81549060ff0219169055506001016200274d565b5090565b90565b620027a791905b80821115620027a35760008181620027999190620027aa565b5060010162002780565b5090565b90565b50805460018160011615610100020316600290046000825580601f10620027d25750620027f3565b601f016020900490600052602060002090810190620027f29190620026d0565b5b50565b61380780620028066000396000f3006060604052600436106100d0576000357c0100000000000000000000000000000000000000000000000000000000900463ffffffff16806308b43f75146100d55780633c619d90146100fe57806340afe7e714610113578063473f3e241461013c57806354a220c2146101a65780635cb30d2e1461021e5780635cd96ac61461026457806365a3b7da146103ea5780637581c69f146104545780637612f82e146104be5780639802dc1614610533578063bf56f56414610548578063e4ad6fdd14610674578063ecc1bdbb146106c4575b600080fd5b34156100e057600080fd5b6100e8610784565b6040518082815260200191505060405180910390f35b341561010957600080fd5b61011161078a565b005b341561011e57600080fd5b610126610c79565b6040518082815260200191505060405180910390f35b341561014757600080fd5b61014f610c7f565b6040518080602001828103825283818151815260200191508051906020019060200280838360005b83811015610192578082015181840152602081019050610177565b505050509050019250505060405180910390f35b34156101b157600080fd5b6101c76004808035906020019091905050610d29565b6040518080602001828103825283818151815260200191508051906020019060200280838360005b8381101561020a5780820151818401526020810190506101ef565b505050509050019250505060405180910390f35b341561022957600080fd5b61024a60048080359060200190919080351515906020019091905050610d99565b604051808215151515815260200191505060405180910390f35b341561026f57600080fd5b6102856004808035906020019091905050610ddd565b60405180878152602001806020018615151515815260200180602001806020018060200185810385528a818151815260200191508051906020019080838360005b838110156102e15780820151818401526020810190506102c6565b50505050905090810190601f16801561030e5780820380516001836020036101000a031916815260200191505b50858103845288818151815260200191508051906020019060200280838360005b8381101561034a57808201518184015260208101905061032f565b50505050905001858103835287818151815260200191508051906020019060200280838360005b8381101561038c578082015181840152602081019050610371565b50505050905001858103825286818151815260200191508051906020019060200280838360005b838110156103ce5780820151818401526020810190506103b3565b505050509050019a505050505050505050505060405180910390f35b34156103f557600080fd5b6103fd6111e9565b6040518080602001828103825283818151815260200191508051906020019060200280838360005b83811015610440578082015181840152602081019050610425565b505050509050019250505060405180910390f35b341561045f57600080fd5b6104676112bf565b6040518080602001828103825283818151815260200191508051906020019060200280838360005b838110156104aa57808201518184015260208101905061048f565b505050509050019250505060405180910390f35b34156104c957600080fd5b610519600480803590602001908201803590602001908080601f01602080910402602001604051908101604052809392919081815260200183838082843782019150505050505091905050611395565b604051808215151515815260200191505060405180910390f35b341561053e57600080fd5b610546611416565b005b341561055357600080fd5b6105696004808035906020019091905050612dab565b60405180806020018060200180602001848103845287818151815260200191508051906020019080838360005b838110156105b1578082015181840152602081019050610596565b50505050905090810190601f1680156105de5780820380516001836020036101000a031916815260200191505b50848103835286818151815260200191508051906020019060200280838360005b8381101561061a5780820151818401526020810190506105ff565b50505050905001848103825285818151815260200191508051906020019060200280838360005b8381101561065c578082015181840152602081019050610641565b50505050905001965050505050505060405180910390f35b341561067f57600080fd5b6106956004808035906020019091905050612f56565b604051808581526020018481526020018381526020018215151515815260200194505050505060405180910390f35b34156106cf57600080fd5b6106e56004808035906020019091905050612fa2565b60405180838152602001806020018281038252838181546001816001161561010002031660029004815260200191508054600181600116156101000203166002900480156107745780601f1061074957610100808354040283529160200191610774565b820191906000526020600020905b81548152906001019060200180831161075757829003601f168201915b5050935050505060405180910390f35b60095481565b6007805480600101828161079e9190612fd4565b916000526020600020906002020160006040805190810160405280600081526020016040805190810160405280601d81526020017fd0a0d0b0d0bfd0bed180d18220d0bdd0b0206fd182d0bfd183d181d0ba0000008152508152509091909150600082015181600001556020820151816001019080519060200190610824929190613006565b505050506007805480600101828161083c9190612fd4565b916000526020600020906002020160006040805190810160405280600181526020016040805190810160405280602081526020017fd0a0d0b0d0bfd0bed180d18220d0bdd0b020d182d0b5d185d0bdd0b8d0bad18381525081525090919091506000820151816000015560208201518160010190805190602001906108c2929190613006565b50505050600780548060010182816108da9190612fd4565b91600052602060002090600202016000604080519081016040528060028152602001606060405190810160405280602281526020017fd0a0d0b0d0bfd0bed180d18220d0bdd0b020d0bfd0b0d180d0bad0bed0b2d0ba81526020017fd1830000000000000000000000000000000000000000000000000000000000008152508152509091909150600082015181600001556020820151816001019080519060200190610987929190613006565b505050506007805480600101828161099f9190612fd4565b916000526020600020906002020160006040805190810160405280600381526020016040805190810160405280602081526020017fd0a0d0b0d0bfd0bed180d18220d0bdd0b020d0bbd0b5d187d0b5d0bdd0b8d0b58152508152509091909150600082015181600001556020820151816001019080519060200190610a25929190613006565b50505050606060405190810160405280600160ff168152602001600260ff168152602001600360ff1681525060016000808152602001908152602001600020906003610a72929190613086565b50600160008081526020019081526020016000208054806001018281610a9891906130d8565b916000526020600020900160006004909190915055506040805190810160405280600060ff168152602001600160ff1681525060026000808152602001908152602001600020906002610aec929190613104565b50606060405190810160405280600060ff168152602001600360ff168152602001600460ff168152506001600060018152602001908152602001600020906003610b37929190613086565b506040805190810160405280600060ff168152602001600160ff168152506002600060018152602001908152602001600020906002610b77929190613104565b50602060405190810160405280600060ff168152506001600060028152602001908152602001600020906001610bae929190613156565b506040805190810160405280600060ff168152602001600160ff168152506002600060028152602001908152602001600020906002610bee929190613104565b506040805190810160405280600460ff168152602001600560ff168152506001600060038152602001908152602001600020906002610c2e929190613104565b506040805190810160405280600060ff168152602001600160ff168152506002600060038152602001908152602001600020906002610c6e929190613104565b506004600881905550565b60085481565b610c876131a8565b600080600090505b600680549050811015610cd257818054806001018281610caf91906130d8565b916000526020600020900160006001909190915055508080600101915050610c8f565b81805480602002602001604051908101604052809291908181526020018280548015610d1d57602002820191906000526020600020905b815481526020019060010190808311610d09575b50505050509250505090565b610d316131a8565b600080838152602001908152602001600020805480602002602001604051908101604052809291908181526020018280548015610d8d57602002820191906000526020600020905b815481526020019060010190808311610d79575b50505050509050919050565b600081600684815481101515610dab57fe5b906000526020600020906004020160030160006101000a81548160ff0219169083151502179055506001905092915050565b6000610de76131bc565b6000610df16131a8565b610df96131a8565b610e016131a8565b600080600060068a815481101515610e1557fe5b906000526020600020906004020160020154925060016000848152602001908152602001600020805480602002602001604051908101604052809291908181526020018280548015610e8657602002820191906000526020600020905b815481526020019060010190808311610e72575b50505050509550600360008b8152602001908152602001600020805480602002602001604051908101604052809291908181526020018280548015610eea57602002820191906000526020600020905b815481526020019060010190808311610ed6575b50505050509450600090505b855181101561104e5760006002811115610f0c57fe5b600460008c815260200190815260200160002082815481101515610f2c57fe5b90600052602060002090602091828204019190069054906101000a900460ff166002811115610f5757fe5b1415610f8b57818054806001018281610f7091906130d8565b91600052602060002090016000600190919091505550611041565b60016002811115610f9857fe5b600460008c815260200190815260200160002082815481101515610fb857fe5b90600052602060002090602091828204019190069054906101000a900460ff166002811115610fe357fe5b141561101657818054806001018281610ffc91906130d8565b916000526020600020900160008090919091505550611040565b81805480600101828161102991906130d8565b916000526020600020900160006002909190915055505b5b8080600101915050610ef6565b60068a81548110151561105d57fe5b906000526020600020906004020160010154985088600760068c81548110151561108357fe5b9060005260206000209060040201600201548154811015156110a157fe5b906000526020600020906002020160010160068c8154811015156110c157fe5b906000526020600020906004020160030160009054906101000a900460ff16888886848054600181600116156101000203166002900480601f0160208091040260200160405190810160405280929190818152602001828054600181600116156101000203166002900480156111785780601f1061114d57610100808354040283529160200191611178565b820191906000526020600020905b81548152906001019060200180831161115b57829003601f168201915b50505050509450808054806020026020016040519081016040528092919081815260200182805480156111ca57602002820191906000526020600020905b8154815260200190600101908083116111b6575b5050505050905098509850985098509850985050505091939550919395565b6111f16131a8565b600080600090505b600680549050811015611268576001151560068281548110151561121957fe5b906000526020600020906004020160030160009054906101000a900460ff161515141561125b57818181548110151561124e57fe5b9060005260206000209050505b80806001019150506111f9565b818054806020026020016040519081016040528092919081815260200182805480156112b357602002820191906000526020600020905b81548152602001906001019080831161129f575b50505050509250505090565b6112c76131a8565b600080600090505b60068054905081101561133e57600015156006828154811015156112ef57fe5b906000526020600020906004020160030160009054906101000a900460ff161515141561133157818181548110151561132457fe5b9060005260206000209050505b80806001019150506112cf565b8180548060200260200160405190810160405280929190818152602001828054801561138957602002820191906000526020600020905b815481526020019060010190808311611375575b50505050509250505090565b6000600780548060010182816113ab9190612fd4565b91600052602060002090600202016000604080519081016040528060085481526020018681525090919091506000820151816000015560208201518160010190805190602001906113fd929190613006565b5050505060016008540160088190555060019050919050565b6006805480600101828161142a91906131d0565b9160005260206000209060040201600060806040519081016040528060008152602001600081526020016000815260200160001515815250909190915060008201518160000155602082015181600101556040820151816002015560608201518160030160006101000a81548160ff021916908315150217905550505050608060405190810160405280600060ff168152602001600060ff168152602001600060ff168152602001600060ff16815250600360008081526020019081526020016000209060046114fb929190613202565b5060806040519081016040528060028081111561151457fe5b600281111561151f57fe5b815260200160028081111561153057fe5b600281111561153b57fe5b815260200160028081111561154c57fe5b600281111561155757fe5b815260200160028081111561156857fe5b600281111561157357fe5b81525060046000808152602001908152602001600020906004611597929190613254565b506080604051908101604052806040805190810160405280600481526020017f4e6f6e650000000000000000000000000000000000000000000000000000000081525081526020016040805190810160405280600481526020017f4e6f6e650000000000000000000000000000000000000000000000000000000081525081526020016040805190810160405280600481526020017f4e6f6e650000000000000000000000000000000000000000000000000000000081525081526020016040805190810160405280600481526020017f4e6f6e6500000000000000000000000000000000000000000000000000000000815250815250600560008081526020019081526020016000209060046116af929190613303565b50600680548060010182816116c491906131d0565b9160005260206000209060040201600060806040519081016040528060018152602001600181526020016000815260200160001515815250909190915060008201518160000155602082015181600101556040820151816002015560608201518160030160006101000a81548160ff021916908315150217905550505050608060405190810160405280600060ff168152602001600060ff168152602001600060ff168152602001600060ff168152506003600060018152602001908152602001600020906004611796929190613202565b506080604051908101604052806002808111156117af57fe5b60028111156117ba57fe5b81526020016002808111156117cb57fe5b60028111156117d657fe5b81526020016002808111156117e757fe5b60028111156117f257fe5b815260200160028081111561180357fe5b600281111561180e57fe5b8152506004600060018152602001908152602001600020906004611833929190613254565b506080604051908101604052806040805190810160405280600481526020017f4e6f6e650000000000000000000000000000000000000000000000000000000081525081526020016040805190810160405280600481526020017f4e6f6e650000000000000000000000000000000000000000000000000000000081525081526020016040805190810160405280600481526020017f4e6f6e650000000000000000000000000000000000000000000000000000000081525081526020016040805190810160405280600481526020017f4e6f6e6500000000000000000000000000000000000000000000000000000000815250815250600560006001815260200190815260200160002090600461194c929190613303565b506006805480600101828161196191906131d0565b9160005260206000209060040201600060806040519081016040528060028152602001600281526020016000815260200160001515815250909190915060008201518160000155602082015181600101556040820151816002015560608201518160030160006101000a81548160ff021916908315150217905550505050608060405190810160405280600060ff168152602001600060ff168152602001600060ff168152602001600060ff168152506003600060028152602001908152602001600020906004611a33929190613202565b50608060405190810160405280600280811115611a4c57fe5b6002811115611a5757fe5b8152602001600280811115611a6857fe5b6002811115611a7357fe5b8152602001600280811115611a8457fe5b6002811115611a8f57fe5b8152602001600280811115611aa057fe5b6002811115611aab57fe5b8152506004600060028152602001908152602001600020906004611ad0929190613254565b506080604051908101604052806040805190810160405280600481526020017f4e6f6e650000000000000000000000000000000000000000000000000000000081525081526020016040805190810160405280600481526020017f4e6f6e650000000000000000000000000000000000000000000000000000000081525081526020016040805190810160405280600481526020017f4e6f6e650000000000000000000000000000000000000000000000000000000081525081526020016040805190810160405280600481526020017f4e6f6e65000000000000000000000000000000000000000000000000000000008152508152506005600060028152602001908152602001600020906004611be9929190613303565b5060068054806001018281611bfe91906131d0565b9160005260206000209060040201600060806040519081016040528060038152602001600381526020016000815260200160001515815250909190915060008201518160000155602082015181600101556040820151816002015560608201518160030160006101000a81548160ff021916908315150217905550505050608060405190810160405280600060ff168152602001600060ff168152602001600060ff168152602001600060ff168152506003600060038152602001908152602001600020906004611cd0929190613202565b50608060405190810160405280600280811115611ce957fe5b6002811115611cf457fe5b8152602001600280811115611d0557fe5b6002811115611d1057fe5b8152602001600280811115611d2157fe5b6002811115611d2c57fe5b8152602001600280811115611d3d57fe5b6002811115611d4857fe5b8152506004600060038152602001908152602001600020906004611d6d929190613254565b506080604051908101604052806040805190810160405280600481526020017f4e6f6e650000000000000000000000000000000000000000000000000000000081525081526020016040805190810160405280600481526020017f4e6f6e650000000000000000000000000000000000000000000000000000000081525081526020016040805190810160405280600481526020017f4e6f6e650000000000000000000000000000000000000000000000000000000081525081526020016040805190810160405280600481526020017f4e6f6e65000000000000000000000000000000000000000000000000000000008152508152506005600060038152602001908152602001600020906004611e86929190613303565b5060068054806001018281611e9b91906131d0565b9160005260206000209060040201600060806040519081016040528060048152602001600081526020016001815260200160001515815250909190915060008201518160000155602082015181600101556040820151816002015560608201518160030160006101000a81548160ff021916908315150217905550505050606060405190810160405280600060ff168152602001600060ff168152602001600060ff168152506003600060048152602001908152602001600020906003611f63929190613086565b50606060405190810160405280600280811115611f7c57fe5b6002811115611f8757fe5b8152602001600280811115611f9857fe5b6002811115611fa357fe5b8152602001600280811115611fb457fe5b6002811115611fbf57fe5b8152506004600060048152602001908152602001600020906003611fe4929190613363565b506060604051908101604052806040805190810160405280600481526020017f4e6f6e650000000000000000000000000000000000000000000000000000000081525081526020016040805190810160405280600481526020017f4e6f6e650000000000000000000000000000000000000000000000000000000081525081526020016040805190810160405280600481526020017f4e6f6e650000000000000000000000000000000000000000000000000000000081525081525060056000600581526020019081526020016000209060036120c2929190613412565b50600680548060010182816120d791906131d0565b9160005260206000209060040201600060806040519081016040528060058152602001600181526020016001815260200160001515815250909190915060008201518160000155602082015181600101556040820151816002015560608201518160030160006101000a81548160ff021916908315150217905550505050606060405190810160405280600060ff168152602001600060ff168152602001600060ff16815250600360006005815260200190815260200160002090600361219f929190613086565b506060604051908101604052806002808111156121b857fe5b60028111156121c357fe5b81526020016002808111156121d457fe5b60028111156121df57fe5b81526020016002808111156121f057fe5b60028111156121fb57fe5b8152506004600060058152602001908152602001600020906003612220929190613363565b506060604051908101604052806040805190810160405280600481526020017f4e6f6e650000000000000000000000000000000000000000000000000000000081525081526020016040805190810160405280600481526020017f4e6f6e650000000000000000000000000000000000000000000000000000000081525081526020016040805190810160405280600481526020017f4e6f6e650000000000000000000000000000000000000000000000000000000081525081525060056000600581526020019081526020016000209060036122fe929190613412565b506006805480600101828161231391906131d0565b9160005260206000209060040201600060806040519081016040528060068152602001600081526020016002815260200160001515815250909190915060008201518160000155602082015181600101556040820151816002015560608201518160030160006101000a81548160ff021916908315150217905550505050602060405190810160405280600060ff1681525060036000600681526020019081526020016000209060016123c7929190613156565b506020604051908101604052806002808111156123e057fe5b60028111156123eb57fe5b8152506004600060068152602001908152602001600020906001612410929190613472565b506020604051908101604052806040805190810160405280600481526020017f4e6f6e65000000000000000000000000000000000000000000000000000000008152508152506005600060068152602001908152602001600020906001612478929190613521565b506006805480600101828161248d91906131d0565b9160005260206000209060040201600060806040519081016040528060078152602001600281526020016002815260200160001515815250909190915060008201518160000155602082015181600101556040820151816002015560608201518160030160006101000a81548160ff021916908315150217905550505050602060405190810160405280600060ff168152506003600060078152602001908152602001600020906001612541929190613156565b5060206040519081016040528060028081111561255a57fe5b600281111561256557fe5b815250600460006007815260200190815260200160002090600161258a929190613472565b506020604051908101604052806040805190810160405280600481526020017f4e6f6e650000000000000000000000000000000000000000000000000000000081525081525060056000600781526020019081526020016000209060016125f2929190613521565b506006805480600101828161260791906131d0565b9160005260206000209060040201600060806040519081016040528060088152602001600381526020016002815260200160001515815250909190915060008201518160000155602082015181600101556040820151816002015560608201518160030160006101000a81548160ff021916908315150217905550505050602060405190810160405280600060ff1681525060036000600881526020019081526020016000209060016126bb929190613156565b506020604051908101604052806002808111156126d457fe5b60028111156126df57fe5b8152506004600060088152602001908152602001600020906001612704929190613472565b506020604051908101604052806040805190810160405280600481526020017f4e6f6e6500000000000000000000000000000000000000000000000000000000815250815250600560006008815260200190815260200160002090600161276c929190613521565b506006805480600101828161278191906131d0565b9160005260206000209060040201600060806040519081016040528060098152602001600081526020016003815260200160001515815250909190915060008201518160000155602082015181600101556040820151816002015560608201518160030160006101000a81548160ff0219169083151502179055505050506040805190810160405280600060ff168152602001600060ff16815250600360006009815260200190815260200160002090600261283e929190613104565b50604080519081016040528060028081111561285657fe5b600281111561286157fe5b815260200160028081111561287257fe5b600281111561287d57fe5b81525060046000600981526020019081526020016000209060026128a2929190613581565b5060408051908101604052806040805190810160405280600481526020017f4e6f6e650000000000000000000000000000000000000000000000000000000081525081526020016040805190810160405280600481526020017f4e6f6e65000000000000000000000000000000000000000000000000000000008152508152506005600060098152602001908152602001600020906002612944929190613630565b506006805480600101828161295991906131d0565b91600052602060002090600402016000608060405190810160405280600a8152602001600381526020016003815260200160001515815250909190915060008201518160000155602082015181600101556040820151816002015560608201518160030160006101000a81548160ff0219169083151502179055505050506040805190810160405280600060ff168152602001600060ff1681525060036000600a8152602001908152602001600020906002612a16929190613104565b506040805190810160405280600280811115612a2e57fe5b6002811115612a3957fe5b8152602001600280811115612a4a57fe5b6002811115612a5557fe5b81525060046000600a8152602001908152602001600020906002612a7a929190613581565b5060408051908101604052806040805190810160405280600481526020017f4e6f6e650000000000000000000000000000000000000000000000000000000081525081526020016040805190810160405280600481526020017f4e6f6e650000000000000000000000000000000000000000000000000000000081525081525060056000600a8152602001908152602001600020906002612b1c929190613630565b506000808081526020019081526020016000208054806001018281612b4191906130d8565b9160005260206000209001600080909190915055506000808081526020019081526020016000208054806001018281612b7a91906130d8565b916000526020600020900160006004909190915055506000808081526020019081526020016000208054806001018281612bb491906130d8565b916000526020600020900160006006909190915055506000808081526020019081526020016000208054806001018281612bee91906130d8565b91600052602060002090016000600990919091505550600080600181526020019081526020016000208054806001018281612c2991906130d8565b91600052602060002090016000600190919091505550600080600181526020019081526020016000208054806001018281612c6491906130d8565b91600052602060002090016000600590919091505550600080600281526020019081526020016000208054806001018281612c9f91906130d8565b91600052602060002090016000600290919091505550600080600281526020019081526020016000208054806001018281612cda91906130d8565b91600052602060002090016000600790919091505550600080600381526020019081526020016000208054806001018281612d1591906130d8565b91600052602060002090016000600390919091505550600080600381526020019081526020016000208054806001018281612d5091906130d8565b91600052602060002090016000600890919091505550600080600381526020019081526020016000208054806001018281612d8b91906130d8565b91600052602060002090016000600a90919091505550600b600981905550565b612db36131bc565b612dbb6131a8565b612dc36131a8565b600784815481101515612dd257fe5b90600052602060002090600202016001016001600086815260200190815260200160002060026000878152602001908152602001600020828054600181600116156101000203166002900480601f016020809104026020016040519081016040528092919081815260200182805460018160011615610100020316600290048015612e9e5780601f10612e7357610100808354040283529160200191612e9e565b820191906000526020600020905b815481529060010190602001808311612e8157829003601f168201915b5050505050925081805480602002602001604051908101604052809291908181526020018280548015612ef057602002820191906000526020600020905b815481526020019060010190808311612edc575b5050505050915080805480602002602001604051908101604052809291908181526020018280548015612f4257602002820191906000526020600020905b815481526020019060010190808311612f2e575b505050505090509250925092509193909250565b600681815481101515612f6557fe5b90600052602060002090600402016000915090508060000154908060010154908060020154908060030160009054906101000a900460ff16905084565b600781815481101515612fb157fe5b906000526020600020906002020160009150905080600001549080600101905082565b815481835581811511613001576002028160020283600052602060002091820191016130009190613690565b5b505050565b828054600181600116156101000203166002900490600052602060002090601f016020900481019282601f1061304757805160ff1916838001178555613075565b82800160010185558215613075579182015b82811115613074578251825591602001919060010190613059565b5b50905061308291906136c7565b5090565b8280548282559060005260206000209081019282156130c7579160200282015b828111156130c6578251829060ff169055916020019190600101906130a6565b5b5090506130d491906136c7565b5090565b8154818355818115116130ff578183600052602060002091820191016130fe91906136c7565b5b505050565b828054828255906000526020600020908101928215613145579160200282015b82811115613144578251829060ff16905591602001919060010190613124565b5b50905061315291906136c7565b5090565b828054828255906000526020600020908101928215613197579160200282015b82811115613196578251829060ff16905591602001919060010190613176565b5b5090506131a491906136c7565b5090565b602060405190810160405280600081525090565b602060405190810160405280600081525090565b8154818355818115116131fd576004028160040283600052602060002091820191016131fc91906136ec565b5b505050565b828054828255906000526020600020908101928215613243579160200282015b82811115613242578251829060ff16905591602001919060010190613222565b5b50905061325091906136c7565b5090565b82805482825590600052602060002090601f016020900481019282156132f25791602002820160005b838211156132c357835183826101000a81548160ff021916908360028111156132a257fe5b0217905550926020019260010160208160000104928301926001030261327d565b80156132f05782816101000a81549060ff02191690556001016020816000010492830192600103026132c3565b505b5090506132ff9190613737565b5090565b828054828255906000526020600020908101928215613352579160200282015b82811115613351578251829080519060200190613341929190613006565b5091602001919060010190613323565b5b50905061335f9190613767565b5090565b82805482825590600052602060002090601f016020900481019282156134015791602002820160005b838211156133d257835183826101000a81548160ff021916908360028111156133b157fe5b0217905550926020019260010160208160000104928301926001030261338c565b80156133ff5782816101000a81549060ff02191690556001016020816000010492830192600103026133d2565b505b50905061340e9190613737565b5090565b828054828255906000526020600020908101928215613461579160200282015b82811115613460578251829080519060200190613450929190613006565b5091602001919060010190613432565b5b50905061346e9190613767565b5090565b82805482825590600052602060002090601f016020900481019282156135105791602002820160005b838211156134e157835183826101000a81548160ff021916908360028111156134c057fe5b0217905550926020019260010160208160000104928301926001030261349b565b801561350e5782816101000a81549060ff02191690556001016020816000010492830192600103026134e1565b505b50905061351d9190613737565b5090565b828054828255906000526020600020908101928215613570579160200282015b8281111561356f57825182908051906020019061355f929190613006565b5091602001919060010190613541565b5b50905061357d9190613767565b5090565b82805482825590600052602060002090601f0160209004810192821561361f5791602002820160005b838211156135f057835183826101000a81548160ff021916908360028111156135cf57fe5b021790555092602001926001016020816000010492830192600103026135aa565b801561361d5782816101000a81549060ff02191690556001016020816000010492830192600103026135f0565b505b50905061362c9190613737565b5090565b82805482825590600052602060002090810192821561367f579160200282015b8281111561367e57825182908051906020019061366e929190613006565b5091602001919060010190613650565b5b50905061368c9190613767565b5090565b6136c491905b808211156136c0576000808201600090556001820160006136b79190613793565b50600201613696565b5090565b90565b6136e991905b808211156136e55760008160009055506001016136cd565b5090565b90565b61373491905b8082111561373057600080820160009055600182016000905560028201600090556003820160006101000a81549060ff0219169055506004016136f2565b5090565b90565b61376491905b8082111561376057600081816101000a81549060ff02191690555060010161373d565b5090565b90565b61379091905b8082111561378c57600081816137839190613793565b5060010161376d565b5090565b90565b50805460018160011615610100020316600290046000825580601f106137b957506137d8565b601f0160209004906000526020600020908101906137d791906136c7565b5b505600a165627a7a723058206530984a10b89567db2f1e1cf1fe06512c90b09636f158cabc80865b5f1545280029",
  "source": "pragma solidity ^0.4.18;\n\ncontract ReportContract {\n\n    mapping (uint => uint[]) employerNum_reportArrayNum;\n    \n    mapping (uint => uint[]) templateReportNum_departmentNum;\n    mapping (uint => uint[]) templateReportNum_postNum; //    \n    mapping (uint => uint[]) reportNum_employersNum;\n    mapping (uint => IsVerification[]) reportNum_isVer;\n    mapping (uint => string[]) reportNum_reasonForDeny;\n    \n    enum IsVerification{\n        ACCEPT,\n        DENY,\n        PROCESSING\n    }\n\n    struct TemplateReportStruct{\n        uint templateReportNum;\n        string reportTitle;\n    }\n\n    struct EmployersReportStruct{\n        uint reportNum;\n        uint employerNum;\n        uint templateReportNum;\n        bool isApprove;\n    }\n\n    EmployersReportStruct[] public employerReportArray;\n    TemplateReportStruct[] public templateReportArray;\n\n    uint public templateReportNumber;\n    uint public reportNuber;\n\n    function ReportContract() public{\n        AutoCreaterTemplateReport();\n        AutoCreaterEmployerReport();\n    }\n    \n    function AutoCreaterTemplateReport() {\n\n        templateReportArray.push(TemplateReportStruct(0, \"  o\"));\n        templateReportArray.push(TemplateReportStruct(1, \"  \"));\n        templateReportArray.push(TemplateReportStruct(2, \"  \"));\n        templateReportArray.push(TemplateReportStruct(3, \"  \"));\n        \n        templateReportNum_departmentNum[0] = [1,2,3];\n        templateReportNum_departmentNum[0].push(4);\n        templateReportNum_postNum[0] = [0,1];\n        \n        templateReportNum_departmentNum[1] = [0,3,4];\n        templateReportNum_postNum[1] = [0,1];\n        \n        templateReportNum_departmentNum[2] = [0];\n        templateReportNum_postNum[2] = [0,1];\n        \n        templateReportNum_departmentNum[3] = [4,5];\n        templateReportNum_postNum[3] = [0,1];\n        \n        templateReportNumber = 4;\n    }\n    \n    function AutoCreaterEmployerReport(){\n        \n        employerReportArray.push(EmployersReportStruct(0, 0, 0 ,false));\n        reportNum_employersNum[0] = [0,0,0,0];\n        reportNum_isVer[0] = [IsVerification.PROCESSING, IsVerification.PROCESSING, IsVerification.PROCESSING, IsVerification.PROCESSING];\n        reportNum_reasonForDeny[0] = [\"None\", \"None\", \"None\", \"None\"];\n        \n        employerReportArray.push(EmployersReportStruct(1, 1, 0 ,false));\n        reportNum_employersNum[1] = [0,0,0,0];\n        reportNum_isVer[1] = [IsVerification.PROCESSING, IsVerification.PROCESSING, IsVerification.PROCESSING, IsVerification.PROCESSING];\n        reportNum_reasonForDeny[1] = [\"None\", \"None\", \"None\", \"None\"];\n        \n        employerReportArray.push(EmployersReportStruct(2, 2, 0 ,false));\n        reportNum_employersNum[2] = [0,0,0,0];\n        reportNum_isVer[2] = [IsVerification.PROCESSING, IsVerification.PROCESSING, IsVerification.PROCESSING, IsVerification.PROCESSING];\n        reportNum_reasonForDeny[2] = [\"None\", \"None\", \"None\", \"None\"];\n        \n        employerReportArray.push(EmployersReportStruct(3, 3, 0 ,false));\n        reportNum_employersNum[3] = [0,0,0,0];\n        reportNum_isVer[3] = [IsVerification.PROCESSING, IsVerification.PROCESSING, IsVerification.PROCESSING, IsVerification.PROCESSING];\n        reportNum_reasonForDeny[3] = [\"None\", \"None\", \"None\", \"None\"];\n        \n        employerReportArray.push(EmployersReportStruct(4, 0, 1 ,false));\n        reportNum_employersNum[4] = [0,0,0];\n        reportNum_isVer[4] = [IsVerification.PROCESSING, IsVerification.PROCESSING, IsVerification.PROCESSING];\n        reportNum_reasonForDeny[5] = [\"None\", \"None\", \"None\"];\n        \n        employerReportArray.push(EmployersReportStruct(5, 1, 1 ,false));\n        reportNum_employersNum[5] = [0,0,0];\n        reportNum_isVer[5] = [IsVerification.PROCESSING, IsVerification.PROCESSING, IsVerification.PROCESSING];\n        reportNum_reasonForDeny[5] = [\"None\", \"None\", \"None\"];\n        \n        employerReportArray.push(EmployersReportStruct(6, 0, 2 ,false));\n        reportNum_employersNum[6] = [0];\n        reportNum_isVer[6] = [IsVerification.PROCESSING];\n        reportNum_reasonForDeny[6] = [\"None\"];\n        \n        employerReportArray.push(EmployersReportStruct(7, 2, 2 ,false));\n        reportNum_employersNum[7] = [0];\n        reportNum_isVer[7] = [IsVerification.PROCESSING];\n        reportNum_reasonForDeny[7] = [\"None\"];\n        \n        employerReportArray.push(EmployersReportStruct(8, 3, 2 ,false));\n        reportNum_employersNum[8] = [0];\n        reportNum_isVer[8] = [IsVerification.PROCESSING];\n        reportNum_reasonForDeny[8] = [\"None\"];\n        \n        employerReportArray.push(EmployersReportStruct(9, 0, 3 ,false));\n        reportNum_employersNum[9] = [0,0];\n        reportNum_isVer[9] = [IsVerification.PROCESSING, IsVerification.PROCESSING];\n        reportNum_reasonForDeny[9] = [\"None\", \"None\"];\n        \n        employerReportArray.push(EmployersReportStruct(10, 3, 3 ,false));\n        reportNum_employersNum[10] = [0,0];\n        reportNum_isVer[10] = [IsVerification.PROCESSING, IsVerification.PROCESSING];\n        reportNum_reasonForDeny[10] = [\"None\", \"None\"];\n        \n        employerNum_reportArrayNum[0].push(0);\n        employerNum_reportArrayNum[0].push(4);\n        employerNum_reportArrayNum[0].push(6);\n        employerNum_reportArrayNum[0].push(9);\n        employerNum_reportArrayNum[1].push(1);\n        employerNum_reportArrayNum[1].push(5);\n        employerNum_reportArrayNum[2].push(2);\n        employerNum_reportArrayNum[2].push(7);\n        employerNum_reportArrayNum[3].push(3);\n        employerNum_reportArrayNum[3].push(8);\n        employerNum_reportArrayNum[3].push(10);\n\n        reportNuber = 11;\n    }\n\n    function CreateReport(\n        string _title\n    ) returns (bool createReport){\n        \n        templateReportArray.push(TemplateReportStruct(\n            templateReportNumber,\n            _title\n        ));\n        \n        templateReportNumber = templateReportNumber + 1;\n        return true;\n    }\n\n    function GetEmployersReport(uint _employerNum) returns(uint[] reportsArray){\n        return employerNum_reportArrayNum[_employerNum];\n    }\n    \n    function GetEmployersAcceptReport() returns(uint[]){\n        uint[] acceptReport;\n        for(uint i = 0; i<employerReportArray.length; i++){\n            if(employerReportArray[i].isApprove == true){\n                acceptReport[i];\n            }\n        }\n        return acceptReport;\n    }\n    \n    function GetEmployersNotAcceptReport() returns(uint[]){\n        uint[] notAcceptReport;\n        for(uint i = 0; i<employerReportArray.length; i++){\n            if(employerReportArray[i].isApprove == false){\n                notAcceptReport[i];\n            }\n        }\n        return notAcceptReport;\n    }\n\n    function GetEmployerReportSize() returns(uint[]){\n        uint[] arr;\n        for (uint i = 0; i < employerReportArray.length; i++){\n            arr.push(1);\n        }\n        return arr;\n    }\n    \n    function GetEmployersReportFromNum(uint _num) returns(\n        uint employerNum,\n        string title,\n        bool isApprove,\n        uint[] depNum,\n        uint[] empNum,\n        uint[] \n        ){\n            \n            uint templateReport = employerReportArray[_num].templateReportNum;\n            depNum = templateReportNum_departmentNum[templateReport];\n            empNum = reportNum_employersNum[_num];\n            \n            uint[] isVer;\n            \n            for (uint i=0; i<depNum.length; i++){\n                if(reportNum_isVer[_num][i] == IsVerification.ACCEPT){\n                    isVer.push(1);\n                }else{\n                    if(reportNum_isVer[_num][i] == IsVerification.DENY){\n                        isVer.push(0);\n                    }else{\n                        isVer.push(2);\n                    }\n                }\n            }\n            \n            return(\n                employerNum = employerReportArray[_num].employerNum,\n                templateReportArray[employerReportArray[_num].templateReportNum].reportTitle,\n                employerReportArray[_num].isApprove,\n                depNum,\n                empNum,\n                isVer\n            );\n    }\n    \n    /*function GetMessageFromDepartmentNumReportNum(\n    uint _reportNum, \n    uint _departmentNum) returns (string reason){\n        return(employerReportArray[_reportNum].departmentNum_resonForDeny[_departmentNum]);\n    } */\n\n    function GetTemplateReportFromNum(uint _num) returns (\n        string reportTitle,\n        uint[],\n        uint[]){\n            return(\n                templateReportArray[_num].reportTitle,\n                templateReportNum_departmentNum[_num],\n                templateReportNum_postNum[_num]);\n    }\n\n    function UpdateStatusReprot(uint _num, bool newStatus) returns (\n        bool){\n            employerReportArray[_num].isApprove = newStatus;\n            return true;\n    }\n    \n}",
  "sourcePath": "/home/user/Documents/WorkFlow/contracts/ReportContract.sol",
  "compiler": {
    "name": "solc",
    "version": "0.4.19+commit.c4cbbb05.Emscripten.clang"
  },
  "schemaVersion": "2.0.0",
  "updatedAt": "2018-04-10T23:01:36.286Z"
}