{
  "contractName": "ReportContract",
  "abi": [
    {
      "constant": true,
      "inputs": [],
      "name": "reportNuber",
      "outputs": [
        {
          "name": "",
          "type": "uint256"
        }
      ],
      "payable": false,
      "stateMutability": "view",
      "type": "function"
    },
    {
      "constant": true,
      "inputs": [],
      "name": "templateReportNumber",
      "outputs": [
        {
          "name": "",
          "type": "uint256"
        }
      ],
      "payable": false,
      "stateMutability": "view",
      "type": "function"
    },
    {
      "constant": true,
      "inputs": [
        {
          "name": "",
          "type": "uint256"
        }
      ],
      "name": "employerReportArray",
      "outputs": [
        {
          "name": "reportNum",
          "type": "uint256"
        },
        {
          "name": "employerNum",
          "type": "uint256"
        },
        {
          "name": "templateReportNum",
          "type": "uint256"
        },
        {
          "name": "isApprove",
          "type": "bool"
        },
        {
          "name": "time",
          "type": "uint256"
        }
      ],
      "payable": false,
      "stateMutability": "view",
      "type": "function"
    },
    {
      "constant": true,
      "inputs": [
        {
          "name": "",
          "type": "uint256"
        }
      ],
      "name": "templateReportArray",
      "outputs": [
        {
          "name": "templateReportNum",
          "type": "uint256"
        },
        {
          "name": "reportTitle",
          "type": "string"
        }
      ],
      "payable": false,
      "stateMutability": "view",
      "type": "function"
    },
    {
      "inputs": [],
      "payable": false,
      "stateMutability": "nonpayable",
      "type": "constructor"
    },
    {
      "constant": false,
      "inputs": [],
      "name": "AutoCreaterTemplateReport",
      "outputs": [],
      "payable": false,
      "stateMutability": "nonpayable",
      "type": "function"
    },
    {
      "constant": false,
      "inputs": [],
      "name": "AutoCreaterEmployerReport",
      "outputs": [],
      "payable": false,
      "stateMutability": "nonpayable",
      "type": "function"
    },
    {
      "constant": false,
      "inputs": [],
      "name": "AutoCreaterFieldForReport",
      "outputs": [],
      "payable": false,
      "stateMutability": "nonpayable",
      "type": "function"
    },
    {
      "constant": false,
      "inputs": [
        {
          "name": "_templateReport",
          "type": "uint256"
        },
        {
          "name": "_employerNum",
          "type": "uint256"
        }
      ],
      "name": "CreateReport",
      "outputs": [
        {
          "name": "createReport",
          "type": "bool"
        }
      ],
      "payable": false,
      "stateMutability": "nonpayable",
      "type": "function"
    },
    {
      "constant": false,
      "inputs": [
        {
          "name": "_templateReportNum",
          "type": "uint256"
        }
      ],
      "name": "GetReportFieldSize",
      "outputs": [
        {
          "name": "",
          "type": "uint256"
        }
      ],
      "payable": false,
      "stateMutability": "nonpayable",
      "type": "function"
    },
    {
      "constant": false,
      "inputs": [
        {
          "name": "_templateReportNum",
          "type": "uint256"
        },
        {
          "name": "_fieldNum",
          "type": "uint256"
        }
      ],
      "name": "GetReportFieldNameFromFieldNum",
      "outputs": [
        {
          "name": "",
          "type": "string"
        }
      ],
      "payable": false,
      "stateMutability": "nonpayable",
      "type": "function"
    },
    {
      "constant": false,
      "inputs": [
        {
          "name": "_reportNum",
          "type": "uint256"
        },
        {
          "name": "_fieldData",
          "type": "string"
        }
      ],
      "name": "SetReportFieldDataFromFieldNum",
      "outputs": [
        {
          "name": "",
          "type": "bool"
        }
      ],
      "payable": false,
      "stateMutability": "nonpayable",
      "type": "function"
    },
    {
      "constant": false,
      "inputs": [
        {
          "name": "_reportNum",
          "type": "uint256"
        },
        {
          "name": "_fieldData",
          "type": "string"
        }
      ],
      "name": "SetReportFieldData",
      "outputs": [
        {
          "name": "",
          "type": "bool"
        }
      ],
      "payable": false,
      "stateMutability": "nonpayable",
      "type": "function"
    },
    {
      "constant": false,
      "inputs": [
        {
          "name": "_title",
          "type": "string"
        },
        {
          "name": "_departments",
          "type": "uint256[]"
        }
      ],
      "name": "CreateTemplateReport",
      "outputs": [
        {
          "name": "createTemplateReport",
          "type": "bool"
        }
      ],
      "payable": false,
      "stateMutability": "nonpayable",
      "type": "function"
    },
    {
      "constant": false,
      "inputs": [
        {
          "name": "_employerNum",
          "type": "uint256"
        }
      ],
      "name": "GetEmployersReportListFromNum",
      "outputs": [
        {
          "name": "reportsArray",
          "type": "uint256[]"
        }
      ],
      "payable": false,
      "stateMutability": "nonpayable",
      "type": "function"
    },
    {
      "constant": false,
      "inputs": [],
      "name": "GetEmployersAcceptReport",
      "outputs": [
        {
          "name": "",
          "type": "uint256[]"
        }
      ],
      "payable": false,
      "stateMutability": "nonpayable",
      "type": "function"
    },
    {
      "constant": false,
      "inputs": [],
      "name": "GetEmployersNotAcceptReport",
      "outputs": [
        {
          "name": "",
          "type": "uint256[]"
        }
      ],
      "payable": false,
      "stateMutability": "nonpayable",
      "type": "function"
    },
    {
      "constant": false,
      "inputs": [],
      "name": "GetEmployerReportSize",
      "outputs": [
        {
          "name": "",
          "type": "uint256[]"
        }
      ],
      "payable": false,
      "stateMutability": "nonpayable",
      "type": "function"
    },
    {
      "constant": false,
      "inputs": [
        {
          "name": "_num",
          "type": "uint256"
        }
      ],
      "name": "GetEmployersReportFromNum",
      "outputs": [
        {
          "name": "employerNum",
          "type": "uint256"
        },
        {
          "name": "title",
          "type": "string"
        },
        {
          "name": "isApprove",
          "type": "bool"
        },
        {
          "name": "depNum",
          "type": "uint256[]"
        },
        {
          "name": "empNum",
          "type": "uint256[]"
        },
        {
          "name": "",
          "type": "uint256[]"
        },
        {
          "name": "reportTime",
          "type": "uint256"
        }
      ],
      "payable": false,
      "stateMutability": "nonpayable",
      "type": "function"
    },
    {
      "constant": false,
      "inputs": [],
      "name": "GetTemplateReportArraySize",
      "outputs": [
        {
          "name": "",
          "type": "uint256[]"
        }
      ],
      "payable": false,
      "stateMutability": "nonpayable",
      "type": "function"
    },
    {
      "constant": false,
      "inputs": [
        {
          "name": "_num",
          "type": "uint256"
        }
      ],
      "name": "GetTemplateReportFromNum",
      "outputs": [
        {
          "name": "reportTitle",
          "type": "string"
        },
        {
          "name": "",
          "type": "uint256[]"
        },
        {
          "name": "",
          "type": "uint256[]"
        },
        {
          "name": "",
          "type": "uint256"
        }
      ],
      "payable": false,
      "stateMutability": "nonpayable",
      "type": "function"
    },
    {
      "constant": false,
      "inputs": [
        {
          "name": "_num",
          "type": "uint256"
        },
        {
          "name": "newStatus",
          "type": "bool"
        }
      ],
      "name": "UpdateStatusReprot",
      "outputs": [
        {
          "name": "",
          "type": "bool"
        }
      ],
      "payable": false,
      "stateMutability": "nonpayable",
      "type": "function"
    },
    {
      "constant": false,
      "inputs": [
        {
          "name": "dep",
          "type": "uint256"
        }
      ],
      "name": "GetReportForDepartment",
      "outputs": [
        {
          "name": "",
          "type": "uint256[]"
        }
      ],
      "payable": false,
      "stateMutability": "nonpayable",
      "type": "function"
    },
    {
      "constant": false,
      "inputs": [
        {
          "name": "_reportNum",
          "type": "uint256"
        },
        {
          "name": "depNum",
          "type": "uint256"
        },
        {
          "name": "_employerNum",
          "type": "uint256"
        }
      ],
      "name": "UpdateStatusReportSuccess",
      "outputs": [
        {
          "name": "",
          "type": "bool"
        }
      ],
      "payable": false,
      "stateMutability": "nonpayable",
      "type": "function"
    },
    {
      "constant": false,
      "inputs": [
        {
          "name": "_reportNum",
          "type": "uint256"
        },
        {
          "name": "depNum",
          "type": "uint256"
        },
        {
          "name": "_employerNum",
          "type": "uint256"
        }
      ],
      "name": "UpdateStatusReportDeny",
      "outputs": [
        {
          "name": "",
          "type": "bool"
        }
      ],
      "payable": false,
      "stateMutability": "nonpayable",
      "type": "function"
    }
  ],
  "bytecode": "0x606060405234156200001057600080fd5b6200002e620000706401000000000262000e75176401000000009004565b6200004c620009b56401000000000262001f4f176401000000009004565b6200006a6200366c6401000000000262001e1e176401000000009004565b62003f33565b600b80548060010182816200008691906200366e565b916000526020600020906002020160006040805190810160405280600081526020016040805190810160405280601d81526020017fd0a0d0b0d0bfd0bed180d18220d0bdd0b0206fd182d0bfd183d181d0ba00000081525081525090919091506000820151816000015560208201518160010190805190602001906200010e929190620036a3565b50505050600b80548060010182816200012891906200366e565b916000526020600020906002020160006040805190810160405280600181526020016040805190810160405280602081526020017fd0a0d0b0d0bfd0bed180d18220d0bdd0b020d182d0b5d185d0bdd0b8d0bad1838152508152509091909150600082015181600001556020820151816001019080519060200190620001b0929190620036a3565b50505050600b8054806001018281620001ca91906200366e565b91600052602060002090600202016000604080519081016040528060028152602001606060405190810160405280602281526020017fd0a0d0b0d0bfd0bed180d18220d0bdd0b020d0bfd0b0d180d0bad0bed0b2d0ba81526020017fd183000000000000000000000000000000000000000000000000000000000000815250815250909190915060008201518160000155602082015181600101908051906020019062000279929190620036a3565b50505050600b80548060010182816200029391906200366e565b916000526020600020906002020160006040805190810160405280600381526020016040805190810160405280602081526020017fd0a0d0b0d0bfd0bed180d18220d0bdd0b020d0bbd0b5d187d0b5d0bdd0b8d0b581525081525090919091506000820151816000015560208201518160010190805190602001906200031b929190620036a3565b50505050608060405190810160405280600160ff168152602001600260ff168152602001600360ff168152602001600460ff1681525060016000808152602001908152602001600020906004620003749291906200372a565b506040805190810160405280600160ff168152602001600260ff1681525060026000808152602001908152602001600020906002620003b592919062003781565b5060a060405190810160405280606060405190810160405280602e81526020017fd09cd0b5d181d182d0be20d0bfd180d0bed0b2d0b5d0b4d0b5d0bdd0b8d18f2081526020017fd0bed182d0bfd183d181d0bad0b000000000000000000000000000000000000081525081526020016040805190810160405280601b81526020017fd092d0b8d0b420d182d180d0b0d0bdd181d0bfd0bed180d182d0b000000000008152508152602001606060405190810160405280603581526020017fd09bd0b8d186d0b02c20d0bad0bed182d0bed180d18bd0b520d181d0bbd0b5d081526020017fb4d183d18ed18220d181d0be20d0bcd0bdd0bed0b900000000000000000000008152508152602001606060405190810160405280602481526020017fd094d0b0d182d0b020d0bdd0b0d187d0b0d0bbd0b020d0bed182d0bfd183d18181526020017fd0bad0b0000000000000000000000000000000000000000000000000000000008152508152602001606060405190810160405280602a81526020017fd094d0b0d182d0b020d0bed0bad0bed0bdd187d0b0d0bdd0b8d18f20d0bed18281526020017fd0bfd183d181d0bad0b00000000000000000000000000000000000000000000081525081525060036000808152602001908152602001600020906005620005a6929190620037d8565b50606060405190810160405280600160ff168152602001600460ff168152602001600560ff168152506001600060018152602001908152602001600020906003620005f39291906200383f565b506040805190810160405280600160ff168152602001600260ff1681525060026000600181526020019081526020016000209060026200063592919062003781565b506060604051908101604052806040805190810160405280601b81526020017fd0a2d0b8d0bf20d183d181d182d180d0bed0b9d182d181d0b2d0b0000000000081525081526020016040805190810160405280601b81526020017fd0a1d0b8d180d0b8d0b9d0bdd18bd0b920d0bdd0bed0bcd0b5d18000000000008152508152602001606060405190810160405280602981526020017fd09fd0bed182d180d0b5d0b1d0bbd18fd0b5d0bcd0b0d18f20d0bcd0bed189d081526020017fbdd0bed181d182d18c000000000000000000000000000000000000000000000081525081525060036000600181526020019081526020016000209060036200073c92919062003896565b50602060405190810160405280600160ff16815250600160006002815260200190815260200160002090600162000775929190620038fd565b506040805190810160405280600160ff168152602001600260ff168152506002600060028152602001908152602001600020906002620007b792919062003781565b5060408051908101604052806040805190810160405280601f81526020017fd09cd0b0d180d0bad0b020d0b0d0b2d182d0bed0bcd0bed0b1d0b8d0bbd18f0081525081526020016040805190810160405280601b81526020017fd0a1d0b8d180d0b8d0b9d0bdd18bd0b920d0bdd0bed0bcd0b5d180000000000081525081525060036000600281526020019081526020016000209060026200085b92919062003954565b506040805190810160405280600560ff168152602001600660ff1681525060016000600381526020019081526020016000209060026200089d92919062003781565b506040805190810160405280600160ff168152602001600260ff168152506002600060038152602001908152602001600020906002620008df92919062003781565b5060408051908101604052806040805190810160405280601d81526020017fd0a2d0b8d0bf20d0b7d0b0d0b1d0bed0bbd0b5d0b2d0b0d0bdd0b8d18f0000008152508152602001606060405190810160405280602481526020017fd094d0b0d182d0b020d0bdd0b0d187d0b0d0bbd0b020d0bbd0b5d187d0b5d0bd81526020017fd0b8d18f000000000000000000000000000000000000000000000000000000008152508152506003600060038152602001908152602001600020906002620009aa92919062003954565b506004600c81905550565b6000600a8054806001018281620009cd9190620039bb565b9160005260206000209060050201600060a06040519081016040528060008152602001600181526020016000815260200160001515815260200142815250909190915060008201518160000155602082015181600101556040820151816002015560608201518160030160006101000a81548160ff02191690831515021790555060808201518160040155505050608060405190810160405280600060ff168152602001600060ff168152602001600060ff168152602001600060ff168152506004600080815260200190815260200160002090600462000ab09291906200372a565b5060806040519081016040528060028081111562000aca57fe5b600281111562000ad657fe5b815260200160028081111562000ae857fe5b600281111562000af457fe5b815260200160028081111562000b0657fe5b600281111562000b1257fe5b815260200160028081111562000b2457fe5b600281111562000b3057fe5b8152506005600080815260200190815260200160002090600462000b56929190620039f0565b506080604051908101604052806040805190810160405280600481526020017f4e6f6e650000000000000000000000000000000000000000000000000000000081525081526020016040805190810160405280600481526020017f4e6f6e650000000000000000000000000000000000000000000000000000000081525081526020016040805190810160405280600481526020017f4e6f6e650000000000000000000000000000000000000000000000000000000081525081526020016040805190810160405280600481526020017f4e6f6e65000000000000000000000000000000000000000000000000000000008152508152506006600080815260200190815260200160002090600462000c7092919062003aa7565b50600090505b600160008081526020019081526020016000208054905081101562000d0b5760086000600160008081526020019081526020016000208381548110151562000cba57fe5b9060005260206000209001548152602001908152602001600020805480600101828162000ce8919062003b0e565b916000526020600020900160008090919091505550808060010191505062000c76565b60a060405190810160405280606060405190810160405280603681526020017fd0a0d0b5d181d0bfd183d0b1d0bbd0b8d0bad0b020d0a7d183d0b2d0b0d188d081526020017fb8d18f2c20d0b32ed090d0bbd0b0d182d18bd180d18c0000000000000000000081525081526020016040805190810160405280600a81526020017fd09fd0bed0b5d0b7d0b40000000000000000000000000000000000000000000081525081526020016040805190810160405280600881526020017fd09ed0b4d0b8d0bd00000000000000000000000000000000000000000000000081525081526020016040805190810160405280600981526020017f312e30382e32303138000000000000000000000000000000000000000000000081525081526020016040805190810160405280600a81526020017f33312e30382e32303138000000000000000000000000000000000000000000008152508152506007600080815260200190815260200160002090600562000e86929190620037d8565b50600a805480600101828162000e9d9190620039bb565b9160005260206000209060050201600060a06040519081016040528060018152602001600281526020016000815260200160001515815260200142815250909190915060008201518160000155602082015181600101556040820151816002015560608201518160030160006101000a81548160ff02191690831515021790555060808201518160040155505050608060405190810160405280600060ff168152602001600060ff168152602001600060ff168152602001600060ff16815250600460006001815260200190815260200160002090600462000f819291906200372a565b5060806040519081016040528060028081111562000f9b57fe5b600281111562000fa757fe5b815260200160028081111562000fb957fe5b600281111562000fc557fe5b815260200160028081111562000fd757fe5b600281111562000fe357fe5b815260200160028081111562000ff557fe5b60028111156200100157fe5b815250600560006001815260200190815260200160002090600462001028929190620039f0565b506080604051908101604052806040805190810160405280600481526020017f4e6f6e650000000000000000000000000000000000000000000000000000000081525081526020016040805190810160405280600481526020017f4e6f6e650000000000000000000000000000000000000000000000000000000081525081526020016040805190810160405280600481526020017f4e6f6e650000000000000000000000000000000000000000000000000000000081525081526020016040805190810160405280600481526020017f4e6f6e650000000000000000000000000000000000000000000000000000000081525081525060066000600181526020019081526020016000209060046200114392919062003aa7565b50600090505b6001600080815260200190815260200160002080549050811015620011df576008600060016000808152602001908152602001600020838154811015156200118d57fe5b90600052602060002090015481526020019081526020016000208054806001018281620011bb919062003b0e565b91600052602060002090016000600190919091505550808060010191505062001149565b60a060405190810160405280606060405190810160405280603081526020017fd09ad0b8d180d0bed0b2d181d0bad0b0d18f20d0bed0b1d0bbd0b0d181d182d181526020017f8c2c20d0b32ed09ad0b8d180d0bed0b20000000000000000000000000000000081525081526020016040805190810160405280600a81526020017fd09fd0bed0b5d0b7d0b40000000000000000000000000000000000000000000081525081526020016040805190810160405280600881526020017fd09ed0b4d0b8d0bd00000000000000000000000000000000000000000000000081525081526020016040805190810160405280600981526020017f312e30382e32303138000000000000000000000000000000000000000000000081525081526020016040805190810160405280600a81526020017f33312e30382e323031380000000000000000000000000000000000000000000081525081525060076000600181526020019081526020016000209060056200135b929190620037d8565b50600a8054806001018281620013729190620039bb565b9160005260206000209060050201600060a06040519081016040528060028152602001600381526020016000815260200160001515815260200142815250909190915060008201518160000155602082015181600101556040820151816002015560608201518160030160006101000a81548160ff02191690831515021790555060808201518160040155505050608060405190810160405280600060ff168152602001600060ff168152602001600060ff168152602001600060ff168152506004600060028152602001908152602001600020906004620014569291906200372a565b506080604051908101604052806002808111156200147057fe5b60028111156200147c57fe5b81526020016002808111156200148e57fe5b60028111156200149a57fe5b8152602001600280811115620014ac57fe5b6002811115620014b857fe5b8152602001600280811115620014ca57fe5b6002811115620014d657fe5b8152506005600060028152602001908152602001600020906004620014fd929190620039f0565b506080604051908101604052806040805190810160405280600481526020017f4e6f6e650000000000000000000000000000000000000000000000000000000081525081526020016040805190810160405280600481526020017f4e6f6e650000000000000000000000000000000000000000000000000000000081525081526020016040805190810160405280600481526020017f4e6f6e650000000000000000000000000000000000000000000000000000000081525081526020016040805190810160405280600481526020017f4e6f6e650000000000000000000000000000000000000000000000000000000081525081525060066000600281526020019081526020016000209060046200161892919062003aa7565b50600090505b6001600080815260200190815260200160002080549050811015620016b4576008600060016000808152602001908152602001600020838154811015156200166257fe5b9060005260206000209001548152602001908152602001600020805480600101828162001690919062003b0e565b9160005260206000209001600060029091909150555080806001019150506200161e565b60a060405190810160405280606060405190810160405280603681526020017fd09fd0b5d0bdd0b7d0b5d0bdd181d0bad0b0d18f20d0bed0b1d0bbd0b0d181d181526020017f82d18c2c20d0b32ed09ad183d0b7d0bdd0b5d186d0ba0000000000000000000081525081526020016040805190810160405280600a81526020017fd09fd0bed0b5d0b7d0b40000000000000000000000000000000000000000000081525081526020016040805190810160405280600881526020017fd09ed0b4d0b8d0bd00000000000000000000000000000000000000000000000081525081526020016040805190810160405280600981526020017f312e30382e32303138000000000000000000000000000000000000000000000081525081526020016040805190810160405280600a81526020017f33312e30382e3230313800000000000000000000000000000000000000000000815250815250600760006002815260200190815260200160002090600562001830929190620037d8565b50600a8054806001018281620018479190620039bb565b9160005260206000209060050201600060a06040519081016040528060038152602001600481526020016000815260200160001515815260200142815250909190915060008201518160000155602082015181600101556040820151816002015560608201518160030160006101000a81548160ff02191690831515021790555060808201518160040155505050608060405190810160405280600060ff168152602001600060ff168152602001600060ff168152602001600060ff1681525060046000600381526020019081526020016000209060046200192b9291906200372a565b506080604051908101604052806002808111156200194557fe5b60028111156200195157fe5b81526020016002808111156200196357fe5b60028111156200196f57fe5b81526020016002808111156200198157fe5b60028111156200198d57fe5b81526020016002808111156200199f57fe5b6002811115620019ab57fe5b8152506005600060038152602001908152602001600020906004620019d2929190620039f0565b506080604051908101604052806040805190810160405280600481526020017f4e6f6e650000000000000000000000000000000000000000000000000000000081525081526020016040805190810160405280600481526020017f4e6f6e650000000000000000000000000000000000000000000000000000000081525081526020016040805190810160405280600481526020017f4e6f6e650000000000000000000000000000000000000000000000000000000081525081526020016040805190810160405280600481526020017f4e6f6e6500000000000000000000000000000000000000000000000000000000815250815250600660006003815260200190815260200160002090600462001aed92919062003aa7565b50600090505b600160008081526020019081526020016000208054905081101562001b895760086000600160008081526020019081526020016000208381548110151562001b3757fe5b9060005260206000209001548152602001908152602001600020805480600101828162001b65919062003b0e565b91600052602060002090016000600390919091505550808060010191505062001af3565b60a060405190810160405280608060405190810160405280604b81526020017fd09bd0b5d0bdd0b8d0bdd0b3d180d0b0d0b4d181d0bad0b0d18f20d0bed0b1d081526020017fbbd0b0d181d182d18c2c20d0b32ed0a1d0b0d0bdd0bad1822dd09fd0b5d182d081526020017fb5d180d0b1d183d180d0b300000000000000000000000000000000000000000081525081526020016040805190810160405280600a81526020017fd09fd0bed0b5d0b7d0b40000000000000000000000000000000000000000000081525081526020016040805190810160405280600881526020017fd09ed0b4d0b8d0bd00000000000000000000000000000000000000000000000081525081526020016040805190810160405280600981526020017f312e30382e32303138000000000000000000000000000000000000000000000081525081526020016040805190810160405280600a81526020017f33312e30382e3230313800000000000000000000000000000000000000000000815250815250600760006003815260200190815260200160002090600562001d2b929190620037d8565b50600a805480600101828162001d429190620039bb565b9160005260206000209060050201600060a06040519081016040528060048152602001600181526020016001815260200160001515815260200142815250909190915060008201518160000155602082015181600101556040820151816002015560608201518160030160006101000a81548160ff02191690831515021790555060808201518160040155505050606060405190810160405280600060ff168152602001600060ff168152602001600060ff16815250600460006004815260200190815260200160002090600362001e1c9291906200383f565b5060606040519081016040528060028081111562001e3657fe5b600281111562001e4257fe5b815260200160028081111562001e5457fe5b600281111562001e6057fe5b815260200160028081111562001e7257fe5b600281111562001e7e57fe5b815250600560006004815260200190815260200160002090600362001ea592919062003b3d565b506060604051908101604052806040805190810160405280600481526020017f4e6f6e650000000000000000000000000000000000000000000000000000000081525081526020016040805190810160405280600481526020017f4e6f6e650000000000000000000000000000000000000000000000000000000081525081526020016040805190810160405280600481526020017f4e6f6e6500000000000000000000000000000000000000000000000000000000815250815250600660006005815260200190815260200160002090600362001f8592919062003896565b50600090505b60016000600181526020019081526020016000208054905081101562002023576008600060016000600181526020019081526020016000208381548110151562001fd157fe5b9060005260206000209001548152602001908152602001600020805480600101828162001fff919062003b0e565b91600052602060002090016000600490919091505550808060010191505062001f8b565b6060604051908101604052806040805190810160405280600c81526020017fd0a7d0b0d0b9d0bdd0b8d0ba000000000000000000000000000000000000000081525081526020016040805190810160405280600e81526020017f313233303934383731323338343700000000000000000000000000000000000081525081526020016040805190810160405280600881526020017f3120d0bad092d18200000000000000000000000000000000000000000000000081525081525060076000600481526020019081526020016000209060036200210292919062003896565b50600a8054806001018281620021199190620039bb565b9160005260206000209060050201600060a06040519081016040528060058152602001600281526020016001815260200160001515815260200142815250909190915060008201518160000155602082015181600101556040820151816002015560608201518160030160006101000a81548160ff02191690831515021790555060808201518160040155505050606060405190810160405280600060ff168152602001600060ff168152602001600060ff168152506004600060058152602001908152602001600020906003620021f39291906200383f565b506060604051908101604052806002808111156200220d57fe5b60028111156200221957fe5b81526020016002808111156200222b57fe5b60028111156200223757fe5b81526020016002808111156200224957fe5b60028111156200225557fe5b81525060056000600581526020019081526020016000209060036200227c92919062003b3d565b506060604051908101604052806040805190810160405280600481526020017f4e6f6e650000000000000000000000000000000000000000000000000000000081525081526020016040805190810160405280600481526020017f4e6f6e650000000000000000000000000000000000000000000000000000000081525081526020016040805190810160405280600481526020017f4e6f6e650000000000000000000000000000000000000000000000000000000081525081525060066000600581526020019081526020016000209060036200235c92919062003896565b50600090505b600160006001815260200190815260200160002080549050811015620023fa5760086000600160006001815260200190815260200160002083815481101515620023a857fe5b90600052602060002090015481526020019081526020016000208054806001018281620023d6919062003b0e565b91600052602060002090016000600590919091505550808060010191505062002362565b6060604051908101604052806040805190810160405280600a81526020017fd09bd0b0d0bcd0bfd0b00000000000000000000000000000000000000000000081525081526020016040805190810160405280600c81526020017f323334353233343532333435000000000000000000000000000000000000000081525081526020016040805190810160405280600781526020017f363020d092d182000000000000000000000000000000000000000000000000008152508152506007600060058152602001908152602001600020906003620024d992919062003896565b50600a8054806001018281620024f09190620039bb565b9160005260206000209060050201600060a06040519081016040528060068152602001600181526020016002815260200160001515815260200142815250909190915060008201518160000155602082015181600101556040820151816002015560608201518160030160006101000a81548160ff02191690831515021790555060808201518160040155505050602060405190810160405280600060ff168152506004600060068152602001908152602001600020906001620025b6929190620038fd565b50602060405190810160405280600280811115620025d057fe5b6002811115620025dc57fe5b81525060056000600681526020019081526020016000209060016200260392919062003bf4565b506020604051908101604052806040805190810160405280600481526020017f4e6f6e650000000000000000000000000000000000000000000000000000000081525081525060066000600681526020019081526020016000209060016200266d92919062003cab565b50600090505b6001600060028152602001908152602001600020805490508110156200270b5760086000600160006002815260200190815260200160002083815481101515620026b957fe5b90600052602060002090015481526020019081526020016000208054806001018281620026e7919062003b0e565b91600052602060002090016000600690919091505550808060010191505062002673565b60408051908101604052806040805190810160405280601381526020017fd09bd0b0d0b4d0b020d092d0b5d181d182d0b00000000000000000000000000081525081526020016040805190810160405280600981526020017fd184343230d181d0b100000000000000000000000000000000000000000000008152508152506007600060068152602001908152602001600020906002620027ae92919062003954565b50600a8054806001018281620027c59190620039bb565b9160005260206000209060050201600060a06040519081016040528060078152602001600381526020016002815260200160001515815260200142815250909190915060008201518160000155602082015181600101556040820151816002015560608201518160030160006101000a81548160ff02191690831515021790555060808201518160040155505050602060405190810160405280600060ff1681525060046000600781526020019081526020016000209060016200288b929190620038fd565b50602060405190810160405280600280811115620028a557fe5b6002811115620028b157fe5b8152506005600060078152602001908152602001600020906001620028d892919062003bf4565b506020604051908101604052806040805190810160405280600481526020017f4e6f6e650000000000000000000000000000000000000000000000000000000081525081525060066000600781526020019081526020016000209060016200294292919062003cab565b50600090505b600160006002815260200190815260200160002080549050811015620029e057600860006001600060028152602001908152602001600020838154811015156200298e57fe5b90600052602060002090015481526020019081526020016000208054806001018281620029bc919062003b0e565b91600052602060002090016000600790919091505550808060010191505062002948565b60408051908101604052806040805190810160405280601581526020017fd09bd0b0d0b4d0b020d093d180d0b0d0bdd182d0b0000000000000000000000081525081526020016040805190810160405280600981526020017fd184313230d181d0b10000000000000000000000000000000000000000000000815250815250600760006007815260200190815260200160002090600262002a8392919062003954565b50600a805480600101828162002a9a9190620039bb565b9160005260206000209060050201600060a06040519081016040528060088152602001600481526020016002815260200160001515815260200142815250909190915060008201518160000155602082015181600101556040820151816002015560608201518160030160006101000a81548160ff02191690831515021790555060808201518160040155505050602060405190810160405280600060ff16815250600460006008815260200190815260200160002090600162002b60929190620038fd565b5060206040519081016040528060028081111562002b7a57fe5b600281111562002b8657fe5b815250600560006008815260200190815260200160002090600162002bad92919062003bf4565b506020604051908101604052806040805190810160405280600481526020017f4e6f6e6500000000000000000000000000000000000000000000000000000000815250815250600660006008815260200190815260200160002090600162002c1792919062003cab565b50600090505b60016000600281526020019081526020016000208054905081101562002cb5576008600060016000600281526020019081526020016000208381548110151562002c6357fe5b9060005260206000209001548152602001908152602001600020805480600101828162002c91919062003b0e565b91600052602060002090016000600890919091505550808060010191505062002c1d565b60408051908101604052806040805190810160405280601581526020017fd09bd0b0d0b4d0b020d09fd180d0b8d0bed180d0b0000000000000000000000081525081526020016040805190810160405280600981526020017fd184303031d181d0b10000000000000000000000000000000000000000000000815250815250600760006008815260200190815260200160002090600262002d5892919062003954565b50600a805480600101828162002d6f9190620039bb565b9160005260206000209060050201600060a06040519081016040528060098152602001600181526020016003815260200160001515815260200142815250909190915060008201518160000155602082015181600101556040820151816002015560608201518160030160006101000a81548160ff021916908315150217905550608082015181600401555050506040805190810160405280600060ff168152602001600060ff16815250600460006009815260200190815260200160002090600262002e3e92919062003781565b50604080519081016040528060028081111562002e5757fe5b600281111562002e6357fe5b815260200160028081111562002e7557fe5b600281111562002e8157fe5b815250600560006009815260200190815260200160002090600262002ea892919062003d12565b5060408051908101604052806040805190810160405280600481526020017f4e6f6e650000000000000000000000000000000000000000000000000000000081525081526020016040805190810160405280600481526020017f4e6f6e6500000000000000000000000000000000000000000000000000000000815250815250600660006009815260200190815260200160002090600262002f4c92919062003954565b50600090505b60016000600381526020019081526020016000208054905081101562002fea576008600060016000600381526020019081526020016000208381548110151562002f9857fe5b9060005260206000209001548152602001908152602001600020805480600101828162002fc6919062003b0e565b91600052602060002090016000600990919091505550808060010191505062002f52565b60408051908101604052806040805190810160405280601f81526020017fd0a1d0bed182d180d18fd181d0b5d0bdd0b8d0b520d0bcd0bed0b7d0b3d0b00081525081526020016040805190810160405280600a81526020017f31322e30352e323031380000000000000000000000000000000000000000000081525081525060076000600981526020019081526020016000209060026200308d92919062003954565b50600a8054806001018281620030a49190620039bb565b9160005260206000209060050201600060a060405190810160405280600a8152602001600481526020016003815260200160001515815260200142815250909190915060008201518160000155602082015181600101556040820151816002015560608201518160030160006101000a81548160ff021916908315150217905550608082015181600401555050506040805190810160405280600060ff168152602001600060ff1681525060046000600a81526020019081526020016000209060026200317392919062003781565b5060408051908101604052806002808111156200318c57fe5b60028111156200319857fe5b8152602001600280811115620031aa57fe5b6002811115620031b657fe5b81525060056000600a8152602001908152602001600020906002620031dd92919062003d12565b5060408051908101604052806040805190810160405280600481526020017f4e6f6e650000000000000000000000000000000000000000000000000000000081525081526020016040805190810160405280600481526020017f4e6f6e650000000000000000000000000000000000000000000000000000000081525081525060066000600a81526020019081526020016000209060026200328192919062003954565b50600090505b6001600060038152602001908152602001600020805490508110156200331f5760086000600160006003815260200190815260200160002083815481101515620032cd57fe5b90600052602060002090015481526020019081526020016000208054806001018281620032fb919062003b0e565b91600052602060002090016000600a90919091505550808060010191505062003287565b60408051908101604052806040805190810160405280601d81526020017fd093d0bed180d0bbd0bed0b2d0bed0b920d0b0d0b1d181d186d0b5d18100000081525081526020016040805190810160405280600981526020017f312e30352e32303138000000000000000000000000000000000000000000000081525081525060076000600a8152602001908152602001600020906002620033c292919062003954565b50600080600181526020019081526020016000208054806001018281620033ea919062003b0e565b91600052602060002090016000809091909150555060008060018152602001908152602001600020805480600101828162003426919062003b0e565b9160005260206000209001600060049091909150555060008060018152602001908152602001600020805480600101828162003463919062003b0e565b91600052602060002090016000600690919091505550600080600181526020019081526020016000208054806001018281620034a0919062003b0e565b91600052602060002090016000600990919091505550600080600281526020019081526020016000208054806001018281620034dd919062003b0e565b916000526020600020900160006001909190915055506000806002815260200190815260200160002080548060010182816200351a919062003b0e565b9160005260206000209001600060059091909150555060008060038152602001908152602001600020805480600101828162003557919062003b0e565b9160005260206000209001600060029091909150555060008060038152602001908152602001600020805480600101828162003594919062003b0e565b91600052602060002090016000600790919091505550600080600481526020019081526020016000208054806001018281620035d1919062003b0e565b916000526020600020900160006003909190915055506000806004815260200190815260200160002080548060010182816200360e919062003b0e565b916000526020600020900160006008909190915055506000806004815260200190815260200160002080548060010182816200364b919062003b0e565b91600052602060002090016000600a90919091505550600b600d8190555050565b565b8154818355818115116200369e576002028160020283600052602060002091820191016200369d919062003dc9565b5b505050565b828054600181600116156101000203166002900490600052602060002090601f016020900481019282601f10620036e657805160ff191683800117855562003717565b8280016001018555821562003717579182015b8281111562003716578251825591602001919060010190620036f9565b5b50905062003726919062003e05565b5090565b8280548282559060005260206000209081019282156200376e579160200282015b828111156200376d578251829060ff169055916020019190600101906200374b565b5b5090506200377d919062003e05565b5090565b828054828255906000526020600020908101928215620037c5579160200282015b82811115620037c4578251829060ff16905591602001919060010190620037a2565b5b509050620037d4919062003e05565b5090565b8280548282559060005260206000209081019282156200382c579160200282015b828111156200382b5782518290805190602001906200381a929190620036a3565b5091602001919060010190620037f9565b5b5090506200383b919062003e2d565b5090565b82805482825590600052602060002090810192821562003883579160200282015b8281111562003882578251829060ff1690559160200191906001019062003860565b5b50905062003892919062003e05565b5090565b828054828255906000526020600020908101928215620038ea579160200282015b82811115620038e9578251829080519060200190620038d8929190620036a3565b5091602001919060010190620038b7565b5b509050620038f9919062003e2d565b5090565b82805482825590600052602060002090810192821562003941579160200282015b8281111562003940578251829060ff169055916020019190600101906200391e565b5b50905062003950919062003e05565b5090565b828054828255906000526020600020908101928215620039a8579160200282015b82811115620039a757825182908051906020019062003996929190620036a3565b509160200191906001019062003975565b5b509050620039b7919062003e2d565b5090565b815481835581811511620039eb57600502816005028360005260206000209182019101620039ea919062003e5e565b5b505050565b82805482825590600052602060002090601f0160209004810192821562003a945791602002820160005b8382111562003a6357835183826101000a81548160ff0219169083600281111562003a4157fe5b0217905550926020019260010160208160000104928301926001030262003a1a565b801562003a925782816101000a81549060ff021916905560010160208160000104928301926001030262003a63565b505b50905062003aa3919062003eb4565b5090565b82805482825590600052602060002090810192821562003afb579160200282015b8281111562003afa57825182908051906020019062003ae9929190620036a3565b509160200191906001019062003ac8565b5b50905062003b0a919062003e2d565b5090565b81548183558181151162003b385781836000526020600020918201910162003b37919062003e05565b5b505050565b82805482825590600052602060002090601f0160209004810192821562003be15791602002820160005b8382111562003bb057835183826101000a81548160ff0219169083600281111562003b8e57fe5b0217905550926020019260010160208160000104928301926001030262003b67565b801562003bdf5782816101000a81549060ff021916905560010160208160000104928301926001030262003bb0565b505b50905062003bf0919062003eb4565b5090565b82805482825590600052602060002090601f0160209004810192821562003c985791602002820160005b8382111562003c6757835183826101000a81548160ff0219169083600281111562003c4557fe5b0217905550926020019260010160208160000104928301926001030262003c1e565b801562003c965782816101000a81549060ff021916905560010160208160000104928301926001030262003c67565b505b50905062003ca7919062003eb4565b5090565b82805482825590600052602060002090810192821562003cff579160200282015b8281111562003cfe57825182908051906020019062003ced929190620036a3565b509160200191906001019062003ccc565b5b50905062003d0e919062003e2d565b5090565b82805482825590600052602060002090601f0160209004810192821562003db65791602002820160005b8382111562003d8557835183826101000a81548160ff0219169083600281111562003d6357fe5b0217905550926020019260010160208160000104928301926001030262003d3c565b801562003db45782816101000a81549060ff021916905560010160208160000104928301926001030262003d85565b505b50905062003dc5919062003eb4565b5090565b62003e0291905b8082111562003dfe5760008082016000905560018201600062003df4919062003ee7565b5060020162003dd0565b5090565b90565b62003e2a91905b8082111562003e2657600081600090555060010162003e0c565b5090565b90565b62003e5b91905b8082111562003e57576000818162003e4d919062003ee7565b5060010162003e34565b5090565b90565b62003eb191905b8082111562003ead57600080820160009055600182016000905560028201600090556003820160006101000a81549060ff021916905560048201600090555060050162003e65565b5090565b90565b62003ee491905b8082111562003ee057600081816101000a81549060ff02191690555060010162003ebb565b5090565b90565b50805460018160011615610100020316600290046000825580601f1062003f0f575062003f30565b601f01602090049060005260206000209081019062003f2f919062003e05565b5b50565b615f898062003f436000396000f30060606040526004361061013e576000357c0100000000000000000000000000000000000000000000000000000000900463ffffffff168063048b4cb61461014357806308b43f75146101e85780631c801a37146102115780633b4afa70146102895780633c619d90146102d657806340afe7e7146102eb5780634367cb7814610314578063473f3e241461037e5780635cb30d2e146103e85780635cd96ac61461042e57806365a3b7da146105bb5780637377bc8d146106255780637581c69f1461063a5780638c31d7d5146106a45780639802dc1614610722578063b81c808e14610737578063bd80a2a714610784578063bf56f56414610839578063c623d55c1461096c578063e4ad6fdd146109e4578063e68db92814610a3b578063ecc1bdbb14610ab9578063ede8db5714610b79578063fb7c2cd314610bbd575b600080fd5b341561014e57600080fd5b61016d6004808035906020019091908035906020019091905050610bf4565b6040518080602001828103825283818151815260200191508051906020019080838360005b838110156101ad578082015181840152602081019050610192565b50505050905090810190601f1680156101da5780820380516001836020036101000a031916815260200191505b509250505060405180910390f35b34156101f357600080fd5b6101fb610cc8565b6040518082815260200191505060405180910390f35b341561021c57600080fd5b6102326004808035906020019091905050610cce565b6040518080602001828103825283818151815260200191508051906020019060200280838360005b8381101561027557808201518184015260208101905061025a565b505050509050019250505060405180910390f35b341561029457600080fd5b6102bc6004808035906020019091908035906020019091908035906020019091905050610d3e565b604051808215151515815260200191505060405180910390f35b34156102e157600080fd5b6102e9610e75565b005b34156102f657600080fd5b6102fe611792565b6040518082815260200191505060405180910390f35b341561031f57600080fd5b610327611798565b6040518080602001828103825283818151815260200191508051906020019060200280838360005b8381101561036a57808201518184015260208101905061034f565b505050509050019250505060405180910390f35b341561038957600080fd5b610391611825565b6040518080602001828103825283818151815260200191508051906020019060200280838360005b838110156103d45780820151818401526020810190506103b9565b505050509050019250505060405180910390f35b34156103f357600080fd5b610414600480803590602001909190803515159060200190919050506118cf565b604051808215151515815260200191505060405180910390f35b341561043957600080fd5b61044f6004808035906020019091905050611913565b60405180888152602001806020018715151515815260200180602001806020018060200186815260200185810385528b818151815260200191508051906020019080838360005b838110156104b1578082015181840152602081019050610496565b50505050905090810190601f1680156104de5780820380516001836020036101000a031916815260200191505b50858103845289818151815260200191508051906020019060200280838360005b8381101561051a5780820151818401526020810190506104ff565b50505050905001858103835288818151815260200191508051906020019060200280838360005b8381101561055c578082015181840152602081019050610541565b50505050905001858103825287818151815260200191508051906020019060200280838360005b8381101561059e578082015181840152602081019050610583565b505050509050019b50505050505050505050505060405180910390f35b34156105c657600080fd5b6105ce611d48565b6040518080602001828103825283818151815260200191508051906020019060200280838360005b838110156106115780820151818401526020810190506105f6565b505050509050019250505060405180910390f35b341561063057600080fd5b610638611e1e565b005b341561064557600080fd5b61064d611e20565b6040518080602001828103825283818151815260200191508051906020019060200280838360005b83811015610690578082015181840152602081019050610675565b505050509050019250505060405180910390f35b34156106af57600080fd5b610708600480803590602001909190803590602001908201803590602001908080601f01602080910402602001604051908101604052809392919081815260200183838082843782019150505050505091905050611ef6565b604051808215151515815260200191505060405180910390f35b341561072d57600080fd5b610735611f4f565b005b341561074257600080fd5b61076a6004808035906020019091908035906020019091908035906020019091905050614b11565b604051808215151515815260200191505060405180910390f35b341561078f57600080fd5b61081f600480803590602001908201803590602001908080601f0160208091040260200160405190810160405280939291908181526020018383808284378201915050505050509190803590602001908201803590602001908080602002602001604051908101604052809392919081815260200183836020028082843782019150505050505091905050614c48565b604051808215151515815260200191505060405180910390f35b341561084457600080fd5b61085a6004808035906020019091905050614d88565b60405180806020018060200180602001858152602001848103845288818151815260200191508051906020019080838360005b838110156108a857808201518184015260208101905061088d565b50505050905090810190601f1680156108d55780820380516001836020036101000a031916815260200191505b50848103835287818151815260200191508051906020019060200280838360005b838110156109115780820151818401526020810190506108f6565b50505050905001848103825286818151815260200191508051906020019060200280838360005b83811015610953578082015181840152602081019050610938565b5050505090500197505050505050505060405180910390f35b341561097757600080fd5b61098d6004808035906020019091905050614f58565b6040518080602001828103825283818151815260200191508051906020019060200280838360005b838110156109d05780820151818401526020810190506109b5565b505050509050019250505060405180910390f35b34156109ef57600080fd5b610a0560048080359060200190919050506151bb565b60405180868152602001858152602001848152602001831515151581526020018281526020019550505050505060405180910390f35b3415610a4657600080fd5b610a9f600480803590602001909190803590602001908201803590602001908080601f0160208091040260200160405190810160405280939291908181526020018383808284378201915050505050509190505061520d565b604051808215151515815260200191505060405180910390f35b3415610ac457600080fd5b610ada6004808035906020019091905050615266565b6040518083815260200180602001828103825283818154600181600116156101000203166002900481526020019150805460018160011615610100020316600290048015610b695780601f10610b3e57610100808354040283529160200191610b69565b820191906000526020600020905b815481529060010190602001808311610b4c57829003601f168201915b5050935050505060405180910390f35b3415610b8457600080fd5b610ba36004808035906020019091908035906020019091905050615298565b604051808215151515815260200191505060405180910390f35b3415610bc857600080fd5b610bde6004808035906020019091905050615582565b6040518082815260200191505060405180910390f35b610bfc6155a2565b6003600084815260200190815260200160002082815481101515610c1c57fe5b90600052602060002090018054600181600116156101000203166002900480601f016020809104026020016040519081016040528092919081815260200182805460018160011615610100020316600290048015610cbb5780601f10610c9057610100808354040283529160200191610cbb565b820191906000526020600020905b815481529060010190602001808311610c9e57829003601f168201915b5050505050905092915050565b600d5481565b610cd66155b6565b600080838152602001908152602001600020805480602002602001604051908101604052809291908181526020018280548015610d3257602002820191906000526020600020905b815481526020019060010190808311610d1e575b50505050509050919050565b600080600090505b60016000600a87815481101515610d5957fe5b906000526020600020906005020160020154815260200190815260200160002080549050811015610e695760016000600a87815481101515610d9757fe5b906000526020600020906005020160020154815260200190815260200160002081815481101515610dc457fe5b906000526020600020900154841415610e5c5760016005600087815260200190815260200160002082815481101515610df957fe5b90600052602060002090602091828204019190066101000a81548160ff02191690836002811115610e2657fe5b0217905550826004600087815260200190815260200160002082815481101515610e4c57fe5b9060005260206000209001819055505b8080600101915050610d46565b60019150509392505050565b600b8054806001018281610e8991906155ca565b916000526020600020906002020160006040805190810160405280600081526020016040805190810160405280601d81526020017fd0a0d0b0d0bfd0bed180d18220d0bdd0b0206fd182d0bfd183d181d0ba0000008152508152509091909150600082015181600001556020820151816001019080519060200190610f0f9291906155fc565b50505050600b8054806001018281610f2791906155ca565b916000526020600020906002020160006040805190810160405280600181526020016040805190810160405280602081526020017fd0a0d0b0d0bfd0bed180d18220d0bdd0b020d182d0b5d185d0bdd0b8d0bad1838152508152509091909150600082015181600001556020820151816001019080519060200190610fad9291906155fc565b50505050600b8054806001018281610fc591906155ca565b91600052602060002090600202016000604080519081016040528060028152602001606060405190810160405280602281526020017fd0a0d0b0d0bfd0bed180d18220d0bdd0b020d0bfd0b0d180d0bad0bed0b2d0ba81526020017fd18300000000000000000000000000000000000000000000000000000000000081525081525090919091506000820151816000015560208201518160010190805190602001906110729291906155fc565b50505050600b805480600101828161108a91906155ca565b916000526020600020906002020160006040805190810160405280600381526020016040805190810160405280602081526020017fd0a0d0b0d0bfd0bed180d18220d0bdd0b020d0bbd0b5d187d0b5d0bdd0b8d0b581525081525090919091506000820151816000015560208201518160010190805190602001906111109291906155fc565b50505050608060405190810160405280600160ff168152602001600260ff168152602001600360ff168152602001600460ff168152506001600080815260200190815260200160002090600461116792919061567c565b506040805190810160405280600160ff168152602001600260ff16815250600260008081526020019081526020016000209060026111a69291906156ce565b5060a060405190810160405280606060405190810160405280602e81526020017fd09cd0b5d181d182d0be20d0bfd180d0bed0b2d0b5d0b4d0b5d0bdd0b8d18f2081526020017fd0bed182d0bfd183d181d0bad0b000000000000000000000000000000000000081525081526020016040805190810160405280601b81526020017fd092d0b8d0b420d182d180d0b0d0bdd181d0bfd0bed180d182d0b000000000008152508152602001606060405190810160405280603581526020017fd09bd0b8d186d0b02c20d0bad0bed182d0bed180d18bd0b520d181d0bbd0b5d081526020017fb4d183d18ed18220d181d0be20d0bcd0bdd0bed0b900000000000000000000008152508152602001606060405190810160405280602481526020017fd094d0b0d182d0b020d0bdd0b0d187d0b0d0bbd0b020d0bed182d0bfd183d18181526020017fd0bad0b0000000000000000000000000000000000000000000000000000000008152508152602001606060405190810160405280602a81526020017fd094d0b0d182d0b020d0bed0bad0bed0bdd187d0b0d0bdd0b8d18f20d0bed18281526020017fd0bfd183d181d0bad0b00000000000000000000000000000000000000000000081525081525060036000808152602001908152602001600020906005611395929190615720565b50606060405190810160405280600160ff168152602001600460ff168152602001600560ff1681525060016000600181526020019081526020016000209060036113e0929190615780565b506040805190810160405280600160ff168152602001600260ff1681525060026000600181526020019081526020016000209060026114209291906156ce565b506060604051908101604052806040805190810160405280601b81526020017fd0a2d0b8d0bf20d183d181d182d180d0bed0b9d182d181d0b2d0b0000000000081525081526020016040805190810160405280601b81526020017fd0a1d0b8d180d0b8d0b9d0bdd18bd0b920d0bdd0bed0bcd0b5d18000000000008152508152602001606060405190810160405280602981526020017fd09fd0bed182d180d0b5d0b1d0bbd18fd0b5d0bcd0b0d18f20d0bcd0bed189d081526020017fbdd0bed181d182d18c000000000000000000000000000000000000000000000081525081525060036000600181526020019081526020016000209060036115259291906157d2565b50602060405190810160405280600160ff16815250600160006002815260200190815260200160002090600161155c929190615832565b506040805190810160405280600160ff168152602001600260ff16815250600260006002815260200190815260200160002090600261159c9291906156ce565b5060408051908101604052806040805190810160405280601f81526020017fd09cd0b0d180d0bad0b020d0b0d0b2d182d0bed0bcd0bed0b1d0b8d0bbd18f0081525081526020016040805190810160405280601b81526020017fd0a1d0b8d180d0b8d0b9d0bdd18bd0b920d0bdd0bed0bcd0b5d1800000000000815250815250600360006002815260200190815260200160002090600261163e929190615884565b506040805190810160405280600560ff168152602001600660ff16815250600160006003815260200190815260200160002090600261167e9291906156ce565b506040805190810160405280600160ff168152602001600260ff1681525060026000600381526020019081526020016000209060026116be9291906156ce565b5060408051908101604052806040805190810160405280601d81526020017fd0a2d0b8d0bf20d0b7d0b0d0b1d0bed0bbd0b5d0b2d0b0d0bdd0b8d18f0000008152508152602001606060405190810160405280602481526020017fd094d0b0d182d0b020d0bdd0b0d187d0b0d0bbd0b020d0bbd0b5d187d0b5d0bd81526020017fd0b8d18f000000000000000000000000000000000000000000000000000000008152508152506003600060038152602001908152602001600020906002611787929190615884565b506004600c81905550565b600c5481565b6117a06155b6565b60008080548060010182816117b591906158e4565b91600052602060002090016000600b80549050909190915055508080548060200260200160405190810160405280929190818152602001828054801561181a57602002820191906000526020600020905b815481526020019060010190808311611806575b505050505091505090565b61182d6155b6565b600080600090505b600a805490508110156118785781805480600101828161185591906158e4565b916000526020600020900160006001909190915055508080600101915050611835565b818054806020026020016040519081016040528092919081815260200182805480156118c357602002820191906000526020600020905b8154815260200190600101908083116118af575b50505050509250505090565b600081600a848154811015156118e157fe5b906000526020600020906005020160030160006101000a81548160ff0219169083151502179055506001905092915050565b600061191d6155a2565b60006119276155b6565b61192f6155b6565b6119376155b6565b600080600080600a8b81548110151561194c57fe5b9060005260206000209060050201600201549250600160008481526020019081526020016000208054806020026020016040519081016040528092919081815260200182805480156119bd57602002820191906000526020600020905b8154815260200190600101908083116119a9575b50505050509650600460008c8152602001908152602001600020805480602002602001604051908101604052809291908181526020018280548015611a2157602002820191906000526020600020905b815481526020019060010190808311611a0d575b50505050509550600a8b815481101515611a3757fe5b9060005260206000209060050201600401549350600090505b8651811015611ba85760006002811115611a6657fe5b600560008d815260200190815260200160002082815481101515611a8657fe5b90600052602060002090602091828204019190069054906101000a900460ff166002811115611ab157fe5b1415611ae557818054806001018281611aca91906158e4565b91600052602060002090016000600190919091505550611b9b565b60016002811115611af257fe5b600560008d815260200190815260200160002082815481101515611b1257fe5b90600052602060002090602091828204019190069054906101000a900460ff166002811115611b3d57fe5b1415611b7057818054806001018281611b5691906158e4565b916000526020600020900160008090919091505550611b9a565b818054806001018281611b8391906158e4565b916000526020600020900160006002909190915055505b5b8080600101915050611a50565b600a8b815481101515611bb757fe5b906000526020600020906005020160010154995089600b600a8d815481101515611bdd57fe5b906000526020600020906005020160020154815481101515611bfb57fe5b9060005260206000209060020201600101600a8d815481101515611c1b57fe5b906000526020600020906005020160030160009054906101000a900460ff1689898689858054600181600116156101000203166002900480601f016020809104026020016040519081016040528092919081815260200182805460018160011615610100020316600290048015611cd35780601f10611ca857610100808354040283529160200191611cd3565b820191906000526020600020905b815481529060010190602001808311611cb657829003601f168201915b5050505050955081805480602002602001604051908101604052809291908181526020018280548015611d2557602002820191906000526020600020905b815481526020019060010190808311611d11575b505050505091509950995099509950995099509950505050919395979092949650565b611d506155b6565b600080600090505b600a80549050811015611dc75760011515600a82815481101515611d7857fe5b906000526020600020906005020160030160009054906101000a900460ff1615151415611dba578181815481101515611dad57fe5b9060005260206000209050505b8080600101915050611d58565b81805480602002602001604051908101604052809291908181526020018280548015611e1257602002820191906000526020600020905b815481526020019060010190808311611dfe575b50505050509250505090565b565b611e286155b6565b600080600090505b600a80549050811015611e9f5760001515600a82815481101515611e5057fe5b906000526020600020906005020160030160009054906101000a900460ff1615151415611e92578181815481101515611e8557fe5b9060005260206000209050505b8080600101915050611e30565b81805480602002602001604051908101604052809291908181526020018280548015611eea57602002820191906000526020600020905b815481526020019060010190808311611ed6575b50505050509250505090565b6000600760008481526020019081526020016000208054806001018281611f1d9190615910565b916000526020600020900160008490919091509080519060200190611f4392919061593c565b50506001905092915050565b6000600a8054806001018281611f6591906159bc565b9160005260206000209060050201600060a06040519081016040528060008152602001600181526020016000815260200160001515815260200142815250909190915060008201518160000155602082015181600101556040820151816002015560608201518160030160006101000a81548160ff02191690831515021790555060808201518160040155505050608060405190810160405280600060ff168152602001600060ff168152602001600060ff168152602001600060ff168152506004600080815260200190815260200160002090600461204692919061567c565b5060806040519081016040528060028081111561205f57fe5b600281111561206a57fe5b815260200160028081111561207b57fe5b600281111561208657fe5b815260200160028081111561209757fe5b60028111156120a257fe5b81526020016002808111156120b357fe5b60028111156120be57fe5b815250600560008081526020019081526020016000209060046120e29291906159ee565b506080604051908101604052806040805190810160405280600481526020017f4e6f6e650000000000000000000000000000000000000000000000000000000081525081526020016040805190810160405280600481526020017f4e6f6e650000000000000000000000000000000000000000000000000000000081525081526020016040805190810160405280600481526020017f4e6f6e650000000000000000000000000000000000000000000000000000000081525081526020016040805190810160405280600481526020017f4e6f6e6500000000000000000000000000000000000000000000000000000000815250815250600660008081526020019081526020016000209060046121fa929190615a9d565b50600090505b60016000808152602001908152602001600020805490508110156122905760086000600160008081526020019081526020016000208381548110151561224257fe5b9060005260206000209001548152602001908152602001600020805480600101828161226e91906158e4565b9160005260206000209001600080909190915055508080600101915050612200565b60a060405190810160405280606060405190810160405280603681526020017fd0a0d0b5d181d0bfd183d0b1d0bbd0b8d0bad0b020d0a7d183d0b2d0b0d188d081526020017fb8d18f2c20d0b32ed090d0bbd0b0d182d18bd180d18c0000000000000000000081525081526020016040805190810160405280600a81526020017fd09fd0bed0b5d0b7d0b40000000000000000000000000000000000000000000081525081526020016040805190810160405280600881526020017fd09ed0b4d0b8d0bd00000000000000000000000000000000000000000000000081525081526020016040805190810160405280600981526020017f312e30382e32303138000000000000000000000000000000000000000000000081525081526020016040805190810160405280600a81526020017f33312e30382e323031380000000000000000000000000000000000000000000081525081525060076000808152602001908152602001600020906005612409929190615720565b50600a805480600101828161241e91906159bc565b9160005260206000209060050201600060a06040519081016040528060018152602001600281526020016000815260200160001515815260200142815250909190915060008201518160000155602082015181600101556040820151816002015560608201518160030160006101000a81548160ff02191690831515021790555060808201518160040155505050608060405190810160405280600060ff168152602001600060ff168152602001600060ff168152602001600060ff16815250600460006001815260200190815260200160002090600461250092919061567c565b5060806040519081016040528060028081111561251957fe5b600281111561252457fe5b815260200160028081111561253557fe5b600281111561254057fe5b815260200160028081111561255157fe5b600281111561255c57fe5b815260200160028081111561256d57fe5b600281111561257857fe5b815250600560006001815260200190815260200160002090600461259d9291906159ee565b506080604051908101604052806040805190810160405280600481526020017f4e6f6e650000000000000000000000000000000000000000000000000000000081525081526020016040805190810160405280600481526020017f4e6f6e650000000000000000000000000000000000000000000000000000000081525081526020016040805190810160405280600481526020017f4e6f6e650000000000000000000000000000000000000000000000000000000081525081526020016040805190810160405280600481526020017f4e6f6e650000000000000000000000000000000000000000000000000000000081525081525060066000600181526020019081526020016000209060046126b6929190615a9d565b50600090505b600160008081526020019081526020016000208054905081101561274d576008600060016000808152602001908152602001600020838154811015156126fe57fe5b9060005260206000209001548152602001908152602001600020805480600101828161272a91906158e4565b9160005260206000209001600060019091909150555080806001019150506126bc565b60a060405190810160405280606060405190810160405280603081526020017fd09ad0b8d180d0bed0b2d181d0bad0b0d18f20d0bed0b1d0bbd0b0d181d182d181526020017f8c2c20d0b32ed09ad0b8d180d0bed0b20000000000000000000000000000000081525081526020016040805190810160405280600a81526020017fd09fd0bed0b5d0b7d0b40000000000000000000000000000000000000000000081525081526020016040805190810160405280600881526020017fd09ed0b4d0b8d0bd00000000000000000000000000000000000000000000000081525081526020016040805190810160405280600981526020017f312e30382e32303138000000000000000000000000000000000000000000000081525081526020016040805190810160405280600a81526020017f33312e30382e323031380000000000000000000000000000000000000000000081525081525060076000600181526020019081526020016000209060056128c7929190615720565b50600a80548060010182816128dc91906159bc565b9160005260206000209060050201600060a06040519081016040528060028152602001600381526020016000815260200160001515815260200142815250909190915060008201518160000155602082015181600101556040820151816002015560608201518160030160006101000a81548160ff02191690831515021790555060808201518160040155505050608060405190810160405280600060ff168152602001600060ff168152602001600060ff168152602001600060ff1681525060046000600281526020019081526020016000209060046129be92919061567c565b506080604051908101604052806002808111156129d757fe5b60028111156129e257fe5b81526020016002808111156129f357fe5b60028111156129fe57fe5b8152602001600280811115612a0f57fe5b6002811115612a1a57fe5b8152602001600280811115612a2b57fe5b6002811115612a3657fe5b8152506005600060028152602001908152602001600020906004612a5b9291906159ee565b506080604051908101604052806040805190810160405280600481526020017f4e6f6e650000000000000000000000000000000000000000000000000000000081525081526020016040805190810160405280600481526020017f4e6f6e650000000000000000000000000000000000000000000000000000000081525081526020016040805190810160405280600481526020017f4e6f6e650000000000000000000000000000000000000000000000000000000081525081526020016040805190810160405280600481526020017f4e6f6e65000000000000000000000000000000000000000000000000000000008152508152506006600060028152602001908152602001600020906004612b74929190615a9d565b50600090505b6001600080815260200190815260200160002080549050811015612c0b57600860006001600080815260200190815260200160002083815481101515612bbc57fe5b90600052602060002090015481526020019081526020016000208054806001018281612be891906158e4565b916000526020600020900160006002909190915055508080600101915050612b7a565b60a060405190810160405280606060405190810160405280603681526020017fd09fd0b5d0bdd0b7d0b5d0bdd181d0bad0b0d18f20d0bed0b1d0bbd0b0d181d181526020017f82d18c2c20d0b32ed09ad183d0b7d0bdd0b5d186d0ba0000000000000000000081525081526020016040805190810160405280600a81526020017fd09fd0bed0b5d0b7d0b40000000000000000000000000000000000000000000081525081526020016040805190810160405280600881526020017fd09ed0b4d0b8d0bd00000000000000000000000000000000000000000000000081525081526020016040805190810160405280600981526020017f312e30382e32303138000000000000000000000000000000000000000000000081525081526020016040805190810160405280600a81526020017f33312e30382e32303138000000000000000000000000000000000000000000008152508152506007600060028152602001908152602001600020906005612d85929190615720565b50600a8054806001018281612d9a91906159bc565b9160005260206000209060050201600060a06040519081016040528060038152602001600481526020016000815260200160001515815260200142815250909190915060008201518160000155602082015181600101556040820151816002015560608201518160030160006101000a81548160ff02191690831515021790555060808201518160040155505050608060405190810160405280600060ff168152602001600060ff168152602001600060ff168152602001600060ff168152506004600060038152602001908152602001600020906004612e7c92919061567c565b50608060405190810160405280600280811115612e9557fe5b6002811115612ea057fe5b8152602001600280811115612eb157fe5b6002811115612ebc57fe5b8152602001600280811115612ecd57fe5b6002811115612ed857fe5b8152602001600280811115612ee957fe5b6002811115612ef457fe5b8152506005600060038152602001908152602001600020906004612f199291906159ee565b506080604051908101604052806040805190810160405280600481526020017f4e6f6e650000000000000000000000000000000000000000000000000000000081525081526020016040805190810160405280600481526020017f4e6f6e650000000000000000000000000000000000000000000000000000000081525081526020016040805190810160405280600481526020017f4e6f6e650000000000000000000000000000000000000000000000000000000081525081526020016040805190810160405280600481526020017f4e6f6e65000000000000000000000000000000000000000000000000000000008152508152506006600060038152602001908152602001600020906004613032929190615a9d565b50600090505b60016000808152602001908152602001600020805490508110156130c95760086000600160008081526020019081526020016000208381548110151561307a57fe5b906000526020600020900154815260200190815260200160002080548060010182816130a691906158e4565b916000526020600020900160006003909190915055508080600101915050613038565b60a060405190810160405280608060405190810160405280604b81526020017fd09bd0b5d0bdd0b8d0bdd0b3d180d0b0d0b4d181d0bad0b0d18f20d0bed0b1d081526020017fbbd0b0d181d182d18c2c20d0b32ed0a1d0b0d0bdd0bad1822dd09fd0b5d182d081526020017fb5d180d0b1d183d180d0b300000000000000000000000000000000000000000081525081526020016040805190810160405280600a81526020017fd09fd0bed0b5d0b7d0b40000000000000000000000000000000000000000000081525081526020016040805190810160405280600881526020017fd09ed0b4d0b8d0bd00000000000000000000000000000000000000000000000081525081526020016040805190810160405280600981526020017f312e30382e32303138000000000000000000000000000000000000000000000081525081526020016040805190810160405280600a81526020017f33312e30382e32303138000000000000000000000000000000000000000000008152508152506007600060038152602001908152602001600020906005613269929190615720565b50600a805480600101828161327e91906159bc565b9160005260206000209060050201600060a06040519081016040528060048152602001600181526020016001815260200160001515815260200142815250909190915060008201518160000155602082015181600101556040820151816002015560608201518160030160006101000a81548160ff02191690831515021790555060808201518160040155505050606060405190810160405280600060ff168152602001600060ff168152602001600060ff168152506004600060048152602001908152602001600020906003613356929190615780565b5060606040519081016040528060028081111561336f57fe5b600281111561337a57fe5b815260200160028081111561338b57fe5b600281111561339657fe5b81526020016002808111156133a757fe5b60028111156133b257fe5b81525060056000600481526020019081526020016000209060036133d7929190615afd565b506060604051908101604052806040805190810160405280600481526020017f4e6f6e650000000000000000000000000000000000000000000000000000000081525081526020016040805190810160405280600481526020017f4e6f6e650000000000000000000000000000000000000000000000000000000081525081526020016040805190810160405280600481526020017f4e6f6e650000000000000000000000000000000000000000000000000000000081525081525060066000600581526020019081526020016000209060036134b59291906157d2565b50600090505b60016000600181526020019081526020016000208054905081101561354e57600860006001600060018152602001908152602001600020838154811015156134ff57fe5b9060005260206000209001548152602001908152602001600020805480600101828161352b91906158e4565b9160005260206000209001600060049091909150555080806001019150506134bb565b6060604051908101604052806040805190810160405280600c81526020017fd0a7d0b0d0b9d0bdd0b8d0ba000000000000000000000000000000000000000081525081526020016040805190810160405280600e81526020017f313233303934383731323338343700000000000000000000000000000000000081525081526020016040805190810160405280600881526020017f3120d0bad092d182000000000000000000000000000000000000000000000000815250815250600760006004815260200190815260200160002090600361362b9291906157d2565b50600a805480600101828161364091906159bc565b9160005260206000209060050201600060a06040519081016040528060058152602001600281526020016001815260200160001515815260200142815250909190915060008201518160000155602082015181600101556040820151816002015560608201518160030160006101000a81548160ff02191690831515021790555060808201518160040155505050606060405190810160405280600060ff168152602001600060ff168152602001600060ff168152506004600060058152602001908152602001600020906003613718929190615780565b5060606040519081016040528060028081111561373157fe5b600281111561373c57fe5b815260200160028081111561374d57fe5b600281111561375857fe5b815260200160028081111561376957fe5b600281111561377457fe5b8152506005600060058152602001908152602001600020906003613799929190615afd565b506060604051908101604052806040805190810160405280600481526020017f4e6f6e650000000000000000000000000000000000000000000000000000000081525081526020016040805190810160405280600481526020017f4e6f6e650000000000000000000000000000000000000000000000000000000081525081526020016040805190810160405280600481526020017f4e6f6e650000000000000000000000000000000000000000000000000000000081525081525060066000600581526020019081526020016000209060036138779291906157d2565b50600090505b60016000600181526020019081526020016000208054905081101561391057600860006001600060018152602001908152602001600020838154811015156138c157fe5b906000526020600020900154815260200190815260200160002080548060010182816138ed91906158e4565b91600052602060002090016000600590919091505550808060010191505061387d565b6060604051908101604052806040805190810160405280600a81526020017fd09bd0b0d0bcd0bfd0b00000000000000000000000000000000000000000000081525081526020016040805190810160405280600c81526020017f323334353233343532333435000000000000000000000000000000000000000081525081526020016040805190810160405280600781526020017f363020d092d1820000000000000000000000000000000000000000000000000081525081525060076000600581526020019081526020016000209060036139ed9291906157d2565b50600a8054806001018281613a0291906159bc565b9160005260206000209060050201600060a06040519081016040528060068152602001600181526020016002815260200160001515815260200142815250909190915060008201518160000155602082015181600101556040820151816002015560608201518160030160006101000a81548160ff02191690831515021790555060808201518160040155505050602060405190810160405280600060ff168152506004600060068152602001908152602001600020906001613ac6929190615832565b50602060405190810160405280600280811115613adf57fe5b6002811115613aea57fe5b8152506005600060068152602001908152602001600020906001613b0f929190615bac565b506020604051908101604052806040805190810160405280600481526020017f4e6f6e65000000000000000000000000000000000000000000000000000000008152508152506006600060068152602001908152602001600020906001613b77929190615c5b565b50600090505b600160006002815260200190815260200160002080549050811015613c105760086000600160006002815260200190815260200160002083815481101515613bc157fe5b90600052602060002090015481526020019081526020016000208054806001018281613bed91906158e4565b916000526020600020900160006006909190915055508080600101915050613b7d565b60408051908101604052806040805190810160405280601381526020017fd09bd0b0d0b4d0b020d092d0b5d181d182d0b00000000000000000000000000081525081526020016040805190810160405280600981526020017fd184343230d181d0b100000000000000000000000000000000000000000000008152508152506007600060068152602001908152602001600020906002613cb1929190615884565b50600a8054806001018281613cc691906159bc565b9160005260206000209060050201600060a06040519081016040528060078152602001600381526020016002815260200160001515815260200142815250909190915060008201518160000155602082015181600101556040820151816002015560608201518160030160006101000a81548160ff02191690831515021790555060808201518160040155505050602060405190810160405280600060ff168152506004600060078152602001908152602001600020906001613d8a929190615832565b50602060405190810160405280600280811115613da357fe5b6002811115613dae57fe5b8152506005600060078152602001908152602001600020906001613dd3929190615bac565b506020604051908101604052806040805190810160405280600481526020017f4e6f6e65000000000000000000000000000000000000000000000000000000008152508152506006600060078152602001908152602001600020906001613e3b929190615c5b565b50600090505b600160006002815260200190815260200160002080549050811015613ed45760086000600160006002815260200190815260200160002083815481101515613e8557fe5b90600052602060002090015481526020019081526020016000208054806001018281613eb191906158e4565b916000526020600020900160006007909190915055508080600101915050613e41565b60408051908101604052806040805190810160405280601581526020017fd09bd0b0d0b4d0b020d093d180d0b0d0bdd182d0b0000000000000000000000081525081526020016040805190810160405280600981526020017fd184313230d181d0b100000000000000000000000000000000000000000000008152508152506007600060078152602001908152602001600020906002613f75929190615884565b50600a8054806001018281613f8a91906159bc565b9160005260206000209060050201600060a06040519081016040528060088152602001600481526020016002815260200160001515815260200142815250909190915060008201518160000155602082015181600101556040820151816002015560608201518160030160006101000a81548160ff02191690831515021790555060808201518160040155505050602060405190810160405280600060ff16815250600460006008815260200190815260200160002090600161404e929190615832565b5060206040519081016040528060028081111561406757fe5b600281111561407257fe5b8152506005600060088152602001908152602001600020906001614097929190615bac565b506020604051908101604052806040805190810160405280600481526020017f4e6f6e650000000000000000000000000000000000000000000000000000000081525081525060066000600881526020019081526020016000209060016140ff929190615c5b565b50600090505b600160006002815260200190815260200160002080549050811015614198576008600060016000600281526020019081526020016000208381548110151561414957fe5b9060005260206000209001548152602001908152602001600020805480600101828161417591906158e4565b916000526020600020900160006008909190915055508080600101915050614105565b60408051908101604052806040805190810160405280601581526020017fd09bd0b0d0b4d0b020d09fd180d0b8d0bed180d0b0000000000000000000000081525081526020016040805190810160405280600981526020017fd184303031d181d0b100000000000000000000000000000000000000000000008152508152506007600060088152602001908152602001600020906002614239929190615884565b50600a805480600101828161424e91906159bc565b9160005260206000209060050201600060a06040519081016040528060098152602001600181526020016003815260200160001515815260200142815250909190915060008201518160000155602082015181600101556040820151816002015560608201518160030160006101000a81548160ff021916908315150217905550608082015181600401555050506040805190810160405280600060ff168152602001600060ff16815250600460006009815260200190815260200160002090600261431b9291906156ce565b50604080519081016040528060028081111561433357fe5b600281111561433e57fe5b815260200160028081111561434f57fe5b600281111561435a57fe5b815250600560006009815260200190815260200160002090600261437f929190615cbb565b5060408051908101604052806040805190810160405280600481526020017f4e6f6e650000000000000000000000000000000000000000000000000000000081525081526020016040805190810160405280600481526020017f4e6f6e65000000000000000000000000000000000000000000000000000000008152508152506006600060098152602001908152602001600020906002614421929190615884565b50600090505b6001600060038152602001908152602001600020805490508110156144ba576008600060016000600381526020019081526020016000208381548110151561446b57fe5b9060005260206000209001548152602001908152602001600020805480600101828161449791906158e4565b916000526020600020900160006009909190915055508080600101915050614427565b60408051908101604052806040805190810160405280601f81526020017fd0a1d0bed182d180d18fd181d0b5d0bdd0b8d0b520d0bcd0bed0b7d0b3d0b00081525081526020016040805190810160405280600a81526020017f31322e30352e3230313800000000000000000000000000000000000000000000815250815250600760006009815260200190815260200160002090600261455b929190615884565b50600a805480600101828161457091906159bc565b9160005260206000209060050201600060a060405190810160405280600a8152602001600481526020016003815260200160001515815260200142815250909190915060008201518160000155602082015181600101556040820151816002015560608201518160030160006101000a81548160ff021916908315150217905550608082015181600401555050506040805190810160405280600060ff168152602001600060ff1681525060046000600a815260200190815260200160002090600261463d9291906156ce565b50604080519081016040528060028081111561465557fe5b600281111561466057fe5b815260200160028081111561467157fe5b600281111561467c57fe5b81525060056000600a81526020019081526020016000209060026146a1929190615cbb565b5060408051908101604052806040805190810160405280600481526020017f4e6f6e650000000000000000000000000000000000000000000000000000000081525081526020016040805190810160405280600481526020017f4e6f6e650000000000000000000000000000000000000000000000000000000081525081525060066000600a8152602001908152602001600020906002614743929190615884565b50600090505b6001600060038152602001908152602001600020805490508110156147dc576008600060016000600381526020019081526020016000208381548110151561478d57fe5b906000526020600020900154815260200190815260200160002080548060010182816147b991906158e4565b91600052602060002090016000600a909190915055508080600101915050614749565b60408051908101604052806040805190810160405280601d81526020017fd093d0bed180d0bbd0bed0b2d0bed0b920d0b0d0b1d181d186d0b5d18100000081525081526020016040805190810160405280600981526020017f312e30352e32303138000000000000000000000000000000000000000000000081525081525060076000600a815260200190815260200160002090600261487d929190615884565b506000806001815260200190815260200160002080548060010182816148a391906158e4565b9160005260206000209001600080909190915055506000806001815260200190815260200160002080548060010182816148dd91906158e4565b9160005260206000209001600060049091909150555060008060018152602001908152602001600020805480600101828161491891906158e4565b9160005260206000209001600060069091909150555060008060018152602001908152602001600020805480600101828161495391906158e4565b9160005260206000209001600060099091909150555060008060028152602001908152602001600020805480600101828161498e91906158e4565b916000526020600020900160006001909190915055506000806002815260200190815260200160002080548060010182816149c991906158e4565b91600052602060002090016000600590919091505550600080600381526020019081526020016000208054806001018281614a0491906158e4565b91600052602060002090016000600290919091505550600080600381526020019081526020016000208054806001018281614a3f91906158e4565b91600052602060002090016000600790919091505550600080600481526020019081526020016000208054806001018281614a7a91906158e4565b91600052602060002090016000600390919091505550600080600481526020019081526020016000208054806001018281614ab591906158e4565b91600052602060002090016000600890919091505550600080600481526020019081526020016000208054806001018281614af091906158e4565b91600052602060002090016000600a90919091505550600b600d8190555050565b600080600090505b60016000600a87815481101515614b2c57fe5b906000526020600020906005020160020154815260200190815260200160002080549050811015614c3c5760016000600a87815481101515614b6a57fe5b906000526020600020906005020160020154815260200190815260200160002081815481101515614b9757fe5b906000526020600020900154841415614c2f5760006005600087815260200190815260200160002082815481101515614bcc57fe5b90600052602060002090602091828204019190066101000a81548160ff02191690836002811115614bf957fe5b0217905550826004600087815260200190815260200160002082815481101515614c1f57fe5b9060005260206000209001819055505b8080600101915050614b19565b60019150509392505050565b6000614c52615d6a565b60006040805190810160405280600c548152602001868152509150600b8054806001018281614c8191906155ca565b91600052602060002090600202016000849091909150600082015181600001556020820151816001019080519060200190614cbd9291906155fc565b50505050600090505b8351811015614d2f5760016000600c5481526020019081526020016000208054806001018281614cf691906158e4565b916000526020600020900160008684815181101515614d1157fe5b90602001906020020151909190915055508080600101915050614cc6565b6040805190810160405280600160ff168152602001600260ff1681525060026000600c548152602001908152602001600020906002614d6f9291906156ce565b506001600c5401600c8190555060019250505092915050565b614d906155a2565b614d986155b6565b614da06155b6565b6000600b85815481101515614db157fe5b90600052602060002090600202016001016001600087815260200190815260200160002060026000888152602001908152602001600020600b88815481101515614df757fe5b906000526020600020906002020160000154838054600181600116156101000203166002900480601f016020809104026020016040519081016040528092919081815260200182805460018160011615610100020316600290048015614e9e5780601f10614e7357610100808354040283529160200191614e9e565b820191906000526020600020905b815481529060010190602001808311614e8157829003601f168201915b5050505050935082805480602002602001604051908101604052809291908181526020018280548015614ef057602002820191906000526020600020905b815481526020019060010190808311614edc575b5050505050925081805480602002602001604051908101604052809291908181526020018280548015614f4257602002820191906000526020600020905b815481526020019060010190808311614f2e575b5050505050915093509350935093509193509193565b614f606155b6565b600080600080600092505b600860008781526020019081526020016000208054905083101561514e576008600087815260200190815260200160002083815481101515614fa957fe5b9060005260206000209001549150600090505b60016000600a84815481101515614fcf57fe5b9060005260206000209060050201600201548152602001908152602001600020805490508110156151415760016000600a8481548110151561500d57fe5b90600052602060002090600502016002015481526020019081526020016000208181548110151561503a57fe5b906000526020600020900154861415615134576001600281111561505a57fe5b600560008481526020019081526020016000208281548110151561507a57fe5b90600052602060002090602091828204019190069054906101000a900460ff1660028111156150a557fe5b148061510557506002808111156150b857fe5b60056000848152602001908152602001600020828154811015156150d857fe5b90600052602060002090602091828204019190069054906101000a900460ff16600281111561510357fe5b145b156151335783805480600101828161511d91906158e4565b9160005260206000209001600084909190915055505b5b8080600101915050614fbc565b8280600101935050614f6b565b600860008781526020019081526020016000208054806020026020016040519081016040528092919081815260200182805480156151ab57602002820191906000526020600020905b815481526020019060010190808311615197575b5050505050945050505050919050565b600a818154811015156151ca57fe5b90600052602060002090600502016000915090508060000154908060010154908060020154908060030160009054906101000a900460ff16908060040154905085565b60006007600084815260200190815260200160002080548060010182816152349190615910565b91600052602060002090016000849091909150908051906020019061525a92919061593c565b50506001905092915050565b600b8181548110151561527557fe5b906000526020600020906002020160009150905080600001549080600101905082565b60006152a2615d8a565b600060a060405190810160405280600d548152602001858152602001868152602001600015158152602001428152509150600a80548060010182816152e791906159bc565b9160005260206000209060050201600084909190915060008201518160000155602082015181600101556040820151816002015560608201518160030160006101000a81548160ff02191690831515021790555060808201518160040155505050600090505b60016000868152602001908152602001600020805490508110156154985760046000600d548152602001908152602001600020805480600101828161539291906158e4565b91600052602060002090016000809091909150555060056000600d54815260200190815260200160002080548060010182816153ce9190615dbc565b91600052602060002090602091828204019190066002909190916101000a81548160ff0219169083600281111561540157fe5b02179055505060066000600d548152602001908152602001600020805480600101828161542e9190615910565b916000526020600020900160006040805190810160405280600481526020017f4e6f6e65000000000000000000000000000000000000000000000000000000008152509091909150908051906020019061548992919061593c565b5050808060010191505061534d565b60008085815260200190815260200160002080548060010182816154bc91906158e4565b91600052602060002090016000600d5490919091505550600090505b600160008681526020019081526020016000208054905081101561556a5760086000600160008881526020019081526020016000208381548110151561551a57fe5b9060005260206000209001548152602001908152602001600020805480600101828161554691906158e4565b91600052602060002090016000600d549091909150555080806001019150506154d8565b6001600d5401600d8190555060019250505092915050565b600060036000838152602001908152602001600020805490509050919050565b602060405190810160405280600081525090565b602060405190810160405280600081525090565b8154818355818115116155f7576002028160020283600052602060002091820191016155f69190615df6565b5b505050565b828054600181600116156101000203166002900490600052602060002090601f016020900481019282601f1061563d57805160ff191683800117855561566b565b8280016001018555821561566b579182015b8281111561566a57825182559160200191906001019061564f565b5b5090506156789190615e2d565b5090565b8280548282559060005260206000209081019282156156bd579160200282015b828111156156bc578251829060ff1690559160200191906001019061569c565b5b5090506156ca9190615e2d565b5090565b82805482825590600052602060002090810192821561570f579160200282015b8281111561570e578251829060ff169055916020019190600101906156ee565b5b50905061571c9190615e2d565b5090565b82805482825590600052602060002090810192821561576f579160200282015b8281111561576e57825182908051906020019061575e9291906155fc565b5091602001919060010190615740565b5b50905061577c9190615e52565b5090565b8280548282559060005260206000209081019282156157c1579160200282015b828111156157c0578251829060ff169055916020019190600101906157a0565b5b5090506157ce9190615e2d565b5090565b828054828255906000526020600020908101928215615821579160200282015b828111156158205782518290805190602001906158109291906155fc565b50916020019190600101906157f2565b5b50905061582e9190615e52565b5090565b828054828255906000526020600020908101928215615873579160200282015b82811115615872578251829060ff16905591602001919060010190615852565b5b5090506158809190615e2d565b5090565b8280548282559060005260206000209081019282156158d3579160200282015b828111156158d25782518290805190602001906158c29291906155fc565b50916020019190600101906158a4565b5b5090506158e09190615e52565b5090565b81548183558181151161590b5781836000526020600020918201910161590a9190615e2d565b5b505050565b815481835581811511615937578183600052602060002091820191016159369190615e52565b5b505050565b828054600181600116156101000203166002900490600052602060002090601f016020900481019282601f1061597d57805160ff19168380011785556159ab565b828001600101855582156159ab579182015b828111156159aa57825182559160200191906001019061598f565b5b5090506159b89190615e2d565b5090565b8154818355818115116159e9576005028160050283600052602060002091820191016159e89190615e7e565b5b505050565b82805482825590600052602060002090601f01602090048101928215615a8c5791602002820160005b83821115615a5d57835183826101000a81548160ff02191690836002811115615a3c57fe5b02179055509260200192600101602081600001049283019260010302615a17565b8015615a8a5782816101000a81549060ff0219169055600101602081600001049283019260010302615a5d565b505b509050615a999190615ed1565b5090565b828054828255906000526020600020908101928215615aec579160200282015b82811115615aeb578251829080519060200190615adb9291906155fc565b5091602001919060010190615abd565b5b509050615af99190615e52565b5090565b82805482825590600052602060002090601f01602090048101928215615b9b5791602002820160005b83821115615b6c57835183826101000a81548160ff02191690836002811115615b4b57fe5b02179055509260200192600101602081600001049283019260010302615b26565b8015615b995782816101000a81549060ff0219169055600101602081600001049283019260010302615b6c565b505b509050615ba89190615ed1565b5090565b82805482825590600052602060002090601f01602090048101928215615c4a5791602002820160005b83821115615c1b57835183826101000a81548160ff02191690836002811115615bfa57fe5b02179055509260200192600101602081600001049283019260010302615bd5565b8015615c485782816101000a81549060ff0219169055600101602081600001049283019260010302615c1b565b505b509050615c579190615ed1565b5090565b828054828255906000526020600020908101928215615caa579160200282015b82811115615ca9578251829080519060200190615c999291906155fc565b5091602001919060010190615c7b565b5b509050615cb79190615e52565b5090565b82805482825590600052602060002090601f01602090048101928215615d595791602002820160005b83821115615d2a57835183826101000a81548160ff02191690836002811115615d0957fe5b02179055509260200192600101602081600001049283019260010302615ce4565b8015615d575782816101000a81549060ff0219169055600101602081600001049283019260010302615d2a565b505b509050615d669190615ed1565b5090565b604080519081016040528060008152602001615d84615f01565b81525090565b60a060405190810160405280600081526020016000815260200160008152602001600015158152602001600081525090565b815481835581811511615df157601f016020900481601f01602090048360005260206000209182019101615df09190615e2d565b5b505050565b615e2a91905b80821115615e2657600080820160009055600182016000615e1d9190615f15565b50600201615dfc565b5090565b90565b615e4f91905b80821115615e4b576000816000905550600101615e33565b5090565b90565b615e7b91905b80821115615e775760008181615e6e9190615f15565b50600101615e58565b5090565b90565b615ece91905b80821115615eca57600080820160009055600182016000905560028201600090556003820160006101000a81549060ff0219169055600482016000905550600501615e84565b5090565b90565b615efe91905b80821115615efa57600081816101000a81549060ff021916905550600101615ed7565b5090565b90565b602060405190810160405280600081525090565b50805460018160011615610100020316600290046000825580601f10615f3b5750615f5a565b601f016020900490600052602060002090810190615f599190615e2d565b5b505600a165627a7a723058202a900af9f2b92efa3e34b143ee5857c7119c20b90451b6da17cdb66ca8ec81cf0029",
  "source": "pragma solidity ^0.4.18;\n\n//import \"./EmployerContract.sol\";\n\ncontract ReportContract /*is EmployerContract*/ {\n\n    mapping (uint => uint[]) employerNum_reportArrayNum;\n    \n    mapping (uint => uint[]) templateReportNum_departmentNum;\n    mapping (uint => uint[]) templateReportNum_postNum; //    \n    mapping (uint => string[]) templateReportNum_fieldName;\n    mapping (uint => uint[]) reportNum_employersNum;\n    mapping (uint => IsVerification[]) reportNum_isVer;\n    mapping (uint => string[]) reportNum_reasonForDeny;\n    mapping (uint => string[]) reportNum_fieldData;\n    mapping (uint => uint[]) departmentNum_employerReport;\n    mapping (uint => uint[]) reportNum_reportFieldNum;\n    \n    enum IsVerification{\n        ACCEPT,\n        DENY,\n        PROCESSING\n    }\n\n    struct TemplateReportStruct{\n        uint templateReportNum;\n        string reportTitle;\n    }\n\n    struct EmployersReportStruct{\n        uint reportNum;\n        uint employerNum;\n        uint templateReportNum;\n        bool isApprove;\n        uint time;\n    }\n\n    EmployersReportStruct[] public employerReportArray;\n    TemplateReportStruct[] public templateReportArray;\n    \n\n    uint public templateReportNumber;\n    uint public reportNuber;\n    uint fieldNumber;\n\n    function ReportContract() public{\n        AutoCreaterTemplateReport();\n        AutoCreaterEmployerReport();\n        AutoCreaterFieldForReport();\n    }\n    \n    function AutoCreaterTemplateReport() {\n\n        templateReportArray.push(TemplateReportStruct(0, \"  o\"));\n        templateReportArray.push(TemplateReportStruct(1, \"  \"));\n        templateReportArray.push(TemplateReportStruct(2, \"  \"));\n        templateReportArray.push(TemplateReportStruct(3, \"  \"));\n        \n        templateReportNum_departmentNum[0] = [1,2,3,4];\n        templateReportNum_postNum[0] = [1,2];\n        templateReportNum_fieldName[0] = [\"  \", \" \", \",    \", \"  \", \"  \"];\n        \n        templateReportNum_departmentNum[1] = [1,4,5];\n        templateReportNum_postNum[1] = [1,2];\n        templateReportNum_fieldName[1] = [\" \", \" \", \" \"];\n        \n        templateReportNum_departmentNum[2] = [1];\n        templateReportNum_postNum[2] = [1,2];\n        templateReportNum_fieldName[2] = [\" \", \" \"];\n        \n        templateReportNum_departmentNum[3] = [5,6];\n        templateReportNum_postNum[3] = [1,2];\n        templateReportNum_fieldName[3] = [\" \", \"  \"];\n        \n        templateReportNumber = 4;\n    }\n    \n    function AutoCreaterEmployerReport(){\n        \n        employerReportArray.push(EmployersReportStruct(0, 1, 0 ,false,now));\n        reportNum_employersNum[0] = [0,0,0,0];\n        reportNum_isVer[0] = [IsVerification.PROCESSING, IsVerification.PROCESSING, IsVerification.PROCESSING, IsVerification.PROCESSING];\n        reportNum_reasonForDeny[0] = [\"None\", \"None\", \"None\", \"None\"];\n        for (uint i = 0; i < templateReportNum_departmentNum[0].length; i++){\n            departmentNum_employerReport[templateReportNum_departmentNum[0][i]].push(0);\n        }\n        reportNum_fieldData[0] = [\" , .\", \"\", \"\", \"1.08.2018\", \"31.08.2018\"];\n        \n        employerReportArray.push(EmployersReportStruct(1, 2, 0 ,false,now));\n        reportNum_employersNum[1] = [0,0,0,0];\n        reportNum_isVer[1] = [IsVerification.PROCESSING, IsVerification.PROCESSING, IsVerification.PROCESSING, IsVerification.PROCESSING];\n        reportNum_reasonForDeny[1] = [\"None\", \"None\", \"None\", \"None\"];\n        for ( i = 0; i < templateReportNum_departmentNum[0].length; i++){\n            departmentNum_employerReport[templateReportNum_departmentNum[0][i]].push(1);\n        }\n        reportNum_fieldData[1] = [\" , .\", \"\", \"\", \"1.08.2018\", \"31.08.2018\"];\n        \n        employerReportArray.push(EmployersReportStruct(2, 3, 0 ,false,now));\n        reportNum_employersNum[2] = [0,0,0,0];\n        reportNum_isVer[2] = [IsVerification.PROCESSING, IsVerification.PROCESSING, IsVerification.PROCESSING, IsVerification.PROCESSING];\n        reportNum_reasonForDeny[2] = [\"None\", \"None\", \"None\", \"None\"];\n        for ( i = 0; i < templateReportNum_departmentNum[0].length; i++){\n            departmentNum_employerReport[templateReportNum_departmentNum[0][i]].push(2);\n        }\n        reportNum_fieldData[2] = [\" , .\", \"\", \"\", \"1.08.2018\", \"31.08.2018\"];\n        \n        employerReportArray.push(EmployersReportStruct(3, 4, 0 ,false,now));\n        reportNum_employersNum[3] = [0,0,0,0];\n        reportNum_isVer[3] = [IsVerification.PROCESSING, IsVerification.PROCESSING, IsVerification.PROCESSING, IsVerification.PROCESSING];\n        reportNum_reasonForDeny[3] = [\"None\", \"None\", \"None\", \"None\"];\n        for ( i = 0; i < templateReportNum_departmentNum[0].length; i++){\n            departmentNum_employerReport[templateReportNum_departmentNum[0][i]].push(3);\n        }\n        reportNum_fieldData[3] = [\" , .-\", \"\", \"\", \"1.08.2018\", \"31.08.2018\"];\n        \n        employerReportArray.push(EmployersReportStruct(4, 1, 1 ,false,now));\n        reportNum_employersNum[4] = [0,0,0];\n        reportNum_isVer[4] = [IsVerification.PROCESSING, IsVerification.PROCESSING, IsVerification.PROCESSING];\n        reportNum_reasonForDeny[5] = [\"None\", \"None\", \"None\"];\n        for ( i = 0; i < templateReportNum_departmentNum[1].length; i++){\n            departmentNum_employerReport[templateReportNum_departmentNum[1][i]].push(4);\n        }\n        reportNum_fieldData[4] = [\"\", \"12309487123847\", \"1 \"];\n        \n        employerReportArray.push(EmployersReportStruct(5, 2, 1 ,false,now));\n        reportNum_employersNum[5] = [0,0,0];\n        reportNum_isVer[5] = [IsVerification.PROCESSING, IsVerification.PROCESSING, IsVerification.PROCESSING];\n        reportNum_reasonForDeny[5] = [\"None\", \"None\", \"None\"];\n        for ( i = 0; i < templateReportNum_departmentNum[1].length; i++){\n            departmentNum_employerReport[templateReportNum_departmentNum[1][i]].push(5);\n        }\n        reportNum_fieldData[5] = [\"\", \"234523452345\", \"60 \"];\n        \n        employerReportArray.push(EmployersReportStruct(6, 1, 2 ,false,now));\n        reportNum_employersNum[6] = [0];\n        reportNum_isVer[6] = [IsVerification.PROCESSING];\n        reportNum_reasonForDeny[6] = [\"None\"];\n        for ( i = 0; i < templateReportNum_departmentNum[2].length; i++){\n            departmentNum_employerReport[templateReportNum_departmentNum[2][i]].push(6);\n        }\n        reportNum_fieldData[6] = [\" \", \"420\"];\n        \n        employerReportArray.push(EmployersReportStruct(7, 3, 2 ,false,now));\n        reportNum_employersNum[7] = [0];\n        reportNum_isVer[7] = [IsVerification.PROCESSING];\n        reportNum_reasonForDeny[7] = [\"None\"];\n        for ( i = 0; i < templateReportNum_departmentNum[2].length; i++){\n            departmentNum_employerReport[templateReportNum_departmentNum[2][i]].push(7);\n        }\n        reportNum_fieldData[7] = [\" \", \"120\"];\n        \n        employerReportArray.push(EmployersReportStruct(8, 4, 2 ,false,now));\n        reportNum_employersNum[8] = [0];\n        reportNum_isVer[8] = [IsVerification.PROCESSING];\n        reportNum_reasonForDeny[8] = [\"None\"];\n        for ( i = 0; i < templateReportNum_departmentNum[2].length; i++){\n            departmentNum_employerReport[templateReportNum_departmentNum[2][i]].push(8);\n        }\n        reportNum_fieldData[8] = [\" \", \"001\"];\n        \n        employerReportArray.push(EmployersReportStruct(9, 1, 3 ,false,now));\n        reportNum_employersNum[9] = [0,0];\n        reportNum_isVer[9] = [IsVerification.PROCESSING, IsVerification.PROCESSING];\n        reportNum_reasonForDeny[9] = [\"None\", \"None\"];\n        for ( i = 0; i < templateReportNum_departmentNum[3].length; i++){\n            departmentNum_employerReport[templateReportNum_departmentNum[3][i]].push(9);\n        }\n        reportNum_fieldData[9] = [\" \", \"12.05.2018\"];\n        \n        employerReportArray.push(EmployersReportStruct(10, 4, 3 ,false,now));\n        reportNum_employersNum[10] = [0,0];\n        reportNum_isVer[10] = [IsVerification.PROCESSING, IsVerification.PROCESSING];\n        reportNum_reasonForDeny[10] = [\"None\", \"None\"];\n        for ( i = 0; i < templateReportNum_departmentNum[3].length; i++){\n            departmentNum_employerReport[templateReportNum_departmentNum[3][i]].push(10);\n        }\n        reportNum_fieldData[10] = [\" \", \"1.05.2018\"];\n        \n        employerNum_reportArrayNum[1].push(0);\n        employerNum_reportArrayNum[1].push(4);\n        employerNum_reportArrayNum[1].push(6);\n        employerNum_reportArrayNum[1].push(9);\n        employerNum_reportArrayNum[2].push(1);\n        employerNum_reportArrayNum[2].push(5);\n        employerNum_reportArrayNum[3].push(2);\n        employerNum_reportArrayNum[3].push(7);\n        employerNum_reportArrayNum[4].push(3);\n        employerNum_reportArrayNum[4].push(8);\n        employerNum_reportArrayNum[4].push(10);\n\n        reportNuber = 11;\n    }\n\n    function AutoCreaterFieldForReport(){\n        \n    }\n\n    function CreateReport(\n        uint _templateReport,\n        uint _employerNum\n    ) returns (bool createReport){\n        EmployersReportStruct memory newReport = EmployersReportStruct({\n            reportNum:reportNuber,\n            employerNum:_employerNum,\n            templateReportNum:_templateReport,\n            isApprove:false,\n            time:now\n        });\n        employerReportArray.push(newReport);\n        for(uint i = 0; i < templateReportNum_departmentNum[_templateReport].length; i++){\n            reportNum_employersNum[reportNuber].push(0);\n            reportNum_isVer[reportNuber].push(IsVerification.PROCESSING);\n            reportNum_reasonForDeny[reportNuber].push(\"None\");\n        }\n        employerNum_reportArrayNum[_employerNum].push(reportNuber);\n        for ( i = 0; i < templateReportNum_departmentNum[_templateReport].length; i++){\n            departmentNum_employerReport[templateReportNum_departmentNum[_templateReport][i]].push(reportNuber);\n        }\n\n        reportNuber = reportNuber + 1;\n        return true;\n    }\n\n    function GetReportFieldSize(uint _templateReportNum) returns(uint){\n        \n        return templateReportNum_fieldName[_templateReportNum].length;\n    }\n\n    function GetReportFieldNameFromFieldNum(uint _templateReportNum, uint _fieldNum\n    )returns(string){\n        return(templateReportNum_fieldName[_templateReportNum][_fieldNum]);\n    }\n\n    function SetReportFieldDataFromFieldNum(uint _reportNum, string _fieldData) returns(bool){\n        reportNum_fieldData[_reportNum].push(_fieldData);\n        return true;\n    }\n\n    function SetReportFieldData(\n        uint _reportNum,\n        string _fieldData\n        )returns(bool){\n            reportNum_fieldData[_reportNum].push(_fieldData);\n            return true;\n        }\n\n    function CreateTemplateReport(\n        string _title,\n        uint[] _departments\n        //uint[] _departmentNum\n    ) returns (bool createTemplateReport){\n        TemplateReportStruct memory newTemplateReport = TemplateReportStruct({\n            templateReportNum:templateReportNumber,\n            reportTitle:_title\n        });\n        templateReportArray.push(newTemplateReport);\n        \n        for (uint i = 0; i < _departments.length; i++){\n            templateReportNum_departmentNum[templateReportNumber].push(_departments[i]);\n        }\n        templateReportNum_postNum[templateReportNumber] = [1,2];\n        templateReportNumber = templateReportNumber + 1;\n        return true;\n    }\n\n    /*function ReceptionDepartment(\n        uint _departmentNum, \n        uint _num\n    ) returns (bool){\n        templateReportNum_departmentNum[templateReportNumber].push(_departmentNum);\n        if (_num == templateReportNum_departmentNum[templateReportNumber].length){\n            templateReportNumber = templateReportNumber + 1;\n        }\n        return true;\n    }*/\n    \n\n    function GetEmployersReportListFromNum(uint _employerNum) returns(uint[] reportsArray){\n        return employerNum_reportArrayNum[_employerNum];\n    }\n    \n    function GetEmployersAcceptReport() returns(uint[]){\n        uint[] acceptReport;\n        for(uint i = 0; i<employerReportArray.length; i++){\n            if(employerReportArray[i].isApprove == true){\n                acceptReport[i];\n            }\n        }\n        return acceptReport;\n    }\n    \n    function GetEmployersNotAcceptReport() returns(uint[]){\n        uint[] notAcceptReport;\n        for(uint i = 0; i<employerReportArray.length; i++){\n            if(employerReportArray[i].isApprove == false){\n                notAcceptReport[i];\n            }\n        }\n        return notAcceptReport;\n    }\n\n    function GetEmployerReportSize() returns(uint[]){\n        uint[] arr;\n        for (uint i = 0; i < employerReportArray.length; i++){\n            arr.push(1);\n        }\n        return arr;\n    }\n    \n    function GetEmployersReportFromNum(uint _num) returns(\n        uint employerNum,\n        string title,\n        bool isApprove,\n        uint[] depNum,\n        uint[] empNum,\n        uint[] ,\n        uint reportTime\n        ){\n            \n            uint templateReport = employerReportArray[_num].templateReportNum;\n            depNum = templateReportNum_departmentNum[templateReport];\n            empNum = reportNum_employersNum[_num];\n            reportTime = employerReportArray[_num].time;\n            \n            uint[] isVer;\n            \n            for (uint i=0; i<depNum.length; i++){\n                if(reportNum_isVer[_num][i] == IsVerification.ACCEPT){\n                    isVer.push(1);\n                }else{\n                    if(reportNum_isVer[_num][i] == IsVerification.DENY){\n                        isVer.push(0);\n                    }else{\n                        isVer.push(2);\n                    }\n                }\n            }\n            \n            return(\n                employerNum = employerReportArray[_num].employerNum,\n                templateReportArray[employerReportArray[_num].templateReportNum].reportTitle,\n                employerReportArray[_num].isApprove,\n                depNum,\n                empNum,\n                isVer,\n                reportTime\n            );\n    }\n    \n    /*function GetMessageFromDepartmentNumReportNum(\n    uint _reportNum, \n    uint _departmentNum) returns (string reason){\n        return(employerReportArray[_reportNum].departmentNum_resonForDeny[_departmentNum]);\n    } */\n\n    function GetTemplateReportArraySize() returns(\n        uint[]\n        ){\n            uint[] arr;\n            arr.push(templateReportArray.length);\n            return arr;\n    }\n\n    function GetTemplateReportFromNum(uint _num) returns (\n        string reportTitle,\n        uint[],\n        uint[],\n        uint){\n            return(\n                templateReportArray[_num].reportTitle,\n                templateReportNum_departmentNum[_num],\n                templateReportNum_postNum[_num],\n                templateReportArray[_num].templateReportNum);\n    }\n\n    function UpdateStatusReprot(uint _num, bool newStatus) returns (\n        bool){\n            employerReportArray[_num].isApprove = newStatus;\n            return true;\n    }\n\n    function GetReportForDepartment(uint dep) returns (uint[]){\n        uint[] reports;\n        for (uint i = 0 ; i < departmentNum_employerReport[dep].length; i++){\n            uint repNum = departmentNum_employerReport[dep][i];\n            for (uint j = 0; j < templateReportNum_departmentNum[employerReportArray[repNum].templateReportNum].length; j++){\n                if(dep == templateReportNum_departmentNum[employerReportArray[repNum].templateReportNum][j]){\n                    if(reportNum_isVer[repNum][j] == IsVerification.DENY || reportNum_isVer[repNum][j] == IsVerification.PROCESSING){\n                        reports.push(repNum);\n                    }\n                }\n            }\n\n        }\n        return(departmentNum_employerReport[dep]);\n    }\n\n    function UpdateStatusReportSuccess(uint _reportNum, uint depNum, uint _employerNum) returns(bool){\n        for (uint i = 0; i < templateReportNum_departmentNum[employerReportArray[_reportNum].templateReportNum].length; i++){\n            if(depNum == templateReportNum_departmentNum[employerReportArray[_reportNum].templateReportNum][i]){\n                reportNum_isVer[_reportNum][i] = IsVerification.ACCEPT;\n                reportNum_employersNum[_reportNum][i] = _employerNum;\n            }\n        }\n        return true;\n    }\n\n    function UpdateStatusReportDeny(uint _reportNum, uint depNum, uint _employerNum) returns(bool){\n        for (uint i = 0; i < templateReportNum_departmentNum[employerReportArray[_reportNum].templateReportNum].length; i++){\n            if(depNum == templateReportNum_departmentNum[employerReportArray[_reportNum].templateReportNum][i]){\n                reportNum_isVer[_reportNum][i] = IsVerification.DENY;\n                reportNum_employersNum[_reportNum][i] = _employerNum;\n            }\n        }\n        return true;\n    }\n}",
  "sourcePath": "/home/user/Documents/WorkFlow/contracts/ReportContract.sol",
  "compiler": {
    "name": "solc",
    "version": "0.4.19+commit.c4cbbb05.Emscripten.clang"
  },
  "schemaVersion": "2.0.0",
  "updatedAt": "2018-04-19T20:40:17.846Z"
}