{
  "contractName": "ReportContract",
  "abi": [
    {
      "constant": true,
      "inputs": [],
      "name": "reportNuber",
      "outputs": [
        {
          "name": "",
          "type": "uint256"
        }
      ],
      "payable": false,
      "stateMutability": "view",
      "type": "function"
    },
    {
      "constant": true,
      "inputs": [],
      "name": "templateReportNumber",
      "outputs": [
        {
          "name": "",
          "type": "uint256"
        }
      ],
      "payable": false,
      "stateMutability": "view",
      "type": "function"
    },
    {
      "constant": true,
      "inputs": [
        {
          "name": "",
          "type": "uint256"
        }
      ],
      "name": "employerReportArray",
      "outputs": [
        {
          "name": "reportNum",
          "type": "uint256"
        },
        {
          "name": "employerNum",
          "type": "uint256"
        },
        {
          "name": "templateReportNum",
          "type": "uint256"
        },
        {
          "name": "isApprove",
          "type": "bool"
        },
        {
          "name": "time",
          "type": "uint256"
        }
      ],
      "payable": false,
      "stateMutability": "view",
      "type": "function"
    },
    {
      "constant": true,
      "inputs": [
        {
          "name": "",
          "type": "uint256"
        }
      ],
      "name": "templateReportArray",
      "outputs": [
        {
          "name": "templateReportNum",
          "type": "uint256"
        },
        {
          "name": "reportTitle",
          "type": "string"
        }
      ],
      "payable": false,
      "stateMutability": "view",
      "type": "function"
    },
    {
      "inputs": [],
      "payable": false,
      "stateMutability": "nonpayable",
      "type": "constructor"
    },
    {
      "constant": false,
      "inputs": [],
      "name": "AutoCreaterTemplateReport",
      "outputs": [],
      "payable": false,
      "stateMutability": "nonpayable",
      "type": "function"
    },
    {
      "constant": false,
      "inputs": [],
      "name": "AutoCreaterEmployerReport",
      "outputs": [],
      "payable": false,
      "stateMutability": "nonpayable",
      "type": "function"
    },
    {
      "constant": false,
      "inputs": [
        {
          "name": "_templateReport",
          "type": "uint256"
        },
        {
          "name": "_employerNum",
          "type": "uint256"
        }
      ],
      "name": "CreateReport",
      "outputs": [
        {
          "name": "createReport",
          "type": "bool"
        }
      ],
      "payable": false,
      "stateMutability": "nonpayable",
      "type": "function"
    },
    {
      "constant": false,
      "inputs": [
        {
          "name": "_title",
          "type": "string"
        },
        {
          "name": "_departments",
          "type": "uint256[]"
        }
      ],
      "name": "CreateTemplateReport",
      "outputs": [
        {
          "name": "createTemplateReport",
          "type": "bool"
        }
      ],
      "payable": false,
      "stateMutability": "nonpayable",
      "type": "function"
    },
    {
      "constant": false,
      "inputs": [
        {
          "name": "_employerNum",
          "type": "uint256"
        }
      ],
      "name": "GetEmployersReportListFromNum",
      "outputs": [
        {
          "name": "reportsArray",
          "type": "uint256[]"
        }
      ],
      "payable": false,
      "stateMutability": "nonpayable",
      "type": "function"
    },
    {
      "constant": false,
      "inputs": [],
      "name": "GetEmployersAcceptReport",
      "outputs": [
        {
          "name": "",
          "type": "uint256[]"
        }
      ],
      "payable": false,
      "stateMutability": "nonpayable",
      "type": "function"
    },
    {
      "constant": false,
      "inputs": [],
      "name": "GetEmployersNotAcceptReport",
      "outputs": [
        {
          "name": "",
          "type": "uint256[]"
        }
      ],
      "payable": false,
      "stateMutability": "nonpayable",
      "type": "function"
    },
    {
      "constant": false,
      "inputs": [],
      "name": "GetEmployerReportSize",
      "outputs": [
        {
          "name": "",
          "type": "uint256[]"
        }
      ],
      "payable": false,
      "stateMutability": "nonpayable",
      "type": "function"
    },
    {
      "constant": false,
      "inputs": [
        {
          "name": "_num",
          "type": "uint256"
        }
      ],
      "name": "GetEmployersReportFromNum",
      "outputs": [
        {
          "name": "employerNum",
          "type": "uint256"
        },
        {
          "name": "title",
          "type": "string"
        },
        {
          "name": "isApprove",
          "type": "bool"
        },
        {
          "name": "depNum",
          "type": "uint256[]"
        },
        {
          "name": "empNum",
          "type": "uint256[]"
        },
        {
          "name": "",
          "type": "uint256[]"
        },
        {
          "name": "reportTime",
          "type": "uint256"
        }
      ],
      "payable": false,
      "stateMutability": "nonpayable",
      "type": "function"
    },
    {
      "constant": false,
      "inputs": [],
      "name": "GetTemplateReportArraySize",
      "outputs": [
        {
          "name": "",
          "type": "uint256[]"
        }
      ],
      "payable": false,
      "stateMutability": "nonpayable",
      "type": "function"
    },
    {
      "constant": false,
      "inputs": [
        {
          "name": "_num",
          "type": "uint256"
        }
      ],
      "name": "GetTemplateReportFromNum",
      "outputs": [
        {
          "name": "reportTitle",
          "type": "string"
        },
        {
          "name": "",
          "type": "uint256[]"
        },
        {
          "name": "",
          "type": "uint256[]"
        },
        {
          "name": "",
          "type": "uint256"
        }
      ],
      "payable": false,
      "stateMutability": "nonpayable",
      "type": "function"
    },
    {
      "constant": false,
      "inputs": [
        {
          "name": "_num",
          "type": "uint256"
        },
        {
          "name": "newStatus",
          "type": "bool"
        }
      ],
      "name": "UpdateStatusReprot",
      "outputs": [
        {
          "name": "",
          "type": "bool"
        }
      ],
      "payable": false,
      "stateMutability": "nonpayable",
      "type": "function"
    }
  ],
  "bytecode": "0x606060405234156200001057600080fd5b6200002e620000526401000000000262000913176401000000009004565b6200004c620005636401000000000262001564176401000000009004565b620028ae565b6007805480600101828162000068919062002050565b916000526020600020906002020160006040805190810160405280600081526020016040805190810160405280601d81526020017fd0a0d0b0d0bfd0bed180d18220d0bdd0b0206fd182d0bfd183d181d0ba0000008152508152509091909150600082015181600001556020820151816001019080519060200190620000f092919062002085565b50505050600780548060010182816200010a919062002050565b916000526020600020906002020160006040805190810160405280600181526020016040805190810160405280602081526020017fd0a0d0b0d0bfd0bed180d18220d0bdd0b020d182d0b5d185d0bdd0b8d0bad18381525081525090919091506000820151816000015560208201518160010190805190602001906200019292919062002085565b5050505060078054806001018281620001ac919062002050565b91600052602060002090600202016000604080519081016040528060028152602001606060405190810160405280602281526020017fd0a0d0b0d0bfd0bed180d18220d0bdd0b020d0bfd0b0d180d0bad0bed0b2d0ba81526020017fd18300000000000000000000000000000000000000000000000000000000000081525081525090919091506000820151816000015560208201518160010190805190602001906200025b92919062002085565b505050506007805480600101828162000275919062002050565b916000526020600020906002020160006040805190810160405280600381526020016040805190810160405280602081526020017fd0a0d0b0d0bfd0bed180d18220d0bdd0b020d0bbd0b5d187d0b5d0bdd0b8d0b58152508152509091909150600082015181600001556020820151816001019080519060200190620002fd92919062002085565b50505050606060405190810160405280600160ff168152602001600260ff168152602001600360ff16815250600160008081526020019081526020016000209060036200034c9291906200210c565b5060016000808152602001908152602001600020805480600101828162000374919062002163565b916000526020600020900160006004909190915055506040805190810160405280600060ff168152602001600160ff1681525060026000808152602001908152602001600020906002620003ca92919062002192565b50606060405190810160405280600060ff168152602001600360ff168152602001600460ff168152506001600060018152602001908152602001600020906003620004179291906200210c565b506040805190810160405280600060ff168152602001600160ff1681525060026000600181526020019081526020016000209060026200045992919062002192565b50602060405190810160405280600060ff16815250600160006002815260200190815260200160002090600162000492929190620021e9565b506040805190810160405280600060ff168152602001600160ff168152506002600060028152602001908152602001600020906002620004d492919062002192565b506040805190810160405280600460ff168152602001600560ff1681525060016000600381526020019081526020016000209060026200051692919062002192565b506040805190810160405280600060ff168152602001600160ff1681525060026000600381526020019081526020016000209060026200055892919062002192565b506004600881905550565b6006805480600101828162000579919062002240565b9160005260206000209060050201600060a06040519081016040528060008152602001600081526020016000815260200160001515815260200142815250909190915060008201518160000155602082015181600101556040820151816002015560608201518160030160006101000a81548160ff02191690831515021790555060808201518160040155505050608060405190810160405280600060ff168152602001600060ff168152602001600060ff168152602001600060ff16815250600360008081526020019081526020016000209060046200065c92919062002275565b506080604051908101604052806002808111156200067657fe5b60028111156200068257fe5b81526020016002808111156200069457fe5b6002811115620006a057fe5b8152602001600280811115620006b257fe5b6002811115620006be57fe5b8152602001600280811115620006d057fe5b6002811115620006dc57fe5b8152506004600080815260200190815260200160002090600462000702929190620022cc565b506080604051908101604052806040805190810160405280600481526020017f4e6f6e650000000000000000000000000000000000000000000000000000000081525081526020016040805190810160405280600481526020017f4e6f6e650000000000000000000000000000000000000000000000000000000081525081526020016040805190810160405280600481526020017f4e6f6e650000000000000000000000000000000000000000000000000000000081525081526020016040805190810160405280600481526020017f4e6f6e6500000000000000000000000000000000000000000000000000000000815250815250600560008081526020019081526020016000209060046200081c92919062002383565b506006805480600101828162000833919062002240565b9160005260206000209060050201600060a06040519081016040528060018152602001600181526020016000815260200160001515815260200142815250909190915060008201518160000155602082015181600101556040820151816002015560608201518160030160006101000a81548160ff02191690831515021790555060808201518160040155505050608060405190810160405280600060ff168152602001600060ff168152602001600060ff168152602001600060ff1681525060036000600181526020019081526020016000209060046200091792919062002275565b506080604051908101604052806002808111156200093157fe5b60028111156200093d57fe5b81526020016002808111156200094f57fe5b60028111156200095b57fe5b81526020016002808111156200096d57fe5b60028111156200097957fe5b81526020016002808111156200098b57fe5b60028111156200099757fe5b8152506004600060018152602001908152602001600020906004620009be929190620022cc565b506080604051908101604052806040805190810160405280600481526020017f4e6f6e650000000000000000000000000000000000000000000000000000000081525081526020016040805190810160405280600481526020017f4e6f6e650000000000000000000000000000000000000000000000000000000081525081526020016040805190810160405280600481526020017f4e6f6e650000000000000000000000000000000000000000000000000000000081525081526020016040805190810160405280600481526020017f4e6f6e6500000000000000000000000000000000000000000000000000000000815250815250600560006001815260200190815260200160002090600462000ad992919062002383565b506006805480600101828162000af0919062002240565b9160005260206000209060050201600060a06040519081016040528060028152602001600281526020016000815260200160001515815260200142815250909190915060008201518160000155602082015181600101556040820151816002015560608201518160030160006101000a81548160ff02191690831515021790555060808201518160040155505050608060405190810160405280600060ff168152602001600060ff168152602001600060ff168152602001600060ff16815250600360006002815260200190815260200160002090600462000bd492919062002275565b5060806040519081016040528060028081111562000bee57fe5b600281111562000bfa57fe5b815260200160028081111562000c0c57fe5b600281111562000c1857fe5b815260200160028081111562000c2a57fe5b600281111562000c3657fe5b815260200160028081111562000c4857fe5b600281111562000c5457fe5b815250600460006002815260200190815260200160002090600462000c7b929190620022cc565b506080604051908101604052806040805190810160405280600481526020017f4e6f6e650000000000000000000000000000000000000000000000000000000081525081526020016040805190810160405280600481526020017f4e6f6e650000000000000000000000000000000000000000000000000000000081525081526020016040805190810160405280600481526020017f4e6f6e650000000000000000000000000000000000000000000000000000000081525081526020016040805190810160405280600481526020017f4e6f6e6500000000000000000000000000000000000000000000000000000000815250815250600560006002815260200190815260200160002090600462000d9692919062002383565b506006805480600101828162000dad919062002240565b9160005260206000209060050201600060a06040519081016040528060038152602001600381526020016000815260200160001515815260200142815250909190915060008201518160000155602082015181600101556040820151816002015560608201518160030160006101000a81548160ff02191690831515021790555060808201518160040155505050608060405190810160405280600060ff168152602001600060ff168152602001600060ff168152602001600060ff16815250600360006003815260200190815260200160002090600462000e9192919062002275565b5060806040519081016040528060028081111562000eab57fe5b600281111562000eb757fe5b815260200160028081111562000ec957fe5b600281111562000ed557fe5b815260200160028081111562000ee757fe5b600281111562000ef357fe5b815260200160028081111562000f0557fe5b600281111562000f1157fe5b815250600460006003815260200190815260200160002090600462000f38929190620022cc565b506080604051908101604052806040805190810160405280600481526020017f4e6f6e650000000000000000000000000000000000000000000000000000000081525081526020016040805190810160405280600481526020017f4e6f6e650000000000000000000000000000000000000000000000000000000081525081526020016040805190810160405280600481526020017f4e6f6e650000000000000000000000000000000000000000000000000000000081525081526020016040805190810160405280600481526020017f4e6f6e650000000000000000000000000000000000000000000000000000000081525081525060056000600381526020019081526020016000209060046200105392919062002383565b50600680548060010182816200106a919062002240565b9160005260206000209060050201600060a06040519081016040528060048152602001600081526020016001815260200160001515815260200142815250909190915060008201518160000155602082015181600101556040820151816002015560608201518160030160006101000a81548160ff02191690831515021790555060808201518160040155505050606060405190810160405280600060ff168152602001600060ff168152602001600060ff168152506003600060048152602001908152602001600020906003620011449291906200210c565b506060604051908101604052806002808111156200115e57fe5b60028111156200116a57fe5b81526020016002808111156200117c57fe5b60028111156200118857fe5b81526020016002808111156200119a57fe5b6002811115620011a657fe5b8152506004600060048152602001908152602001600020906003620011cd929190620023ea565b506060604051908101604052806040805190810160405280600481526020017f4e6f6e650000000000000000000000000000000000000000000000000000000081525081526020016040805190810160405280600481526020017f4e6f6e650000000000000000000000000000000000000000000000000000000081525081526020016040805190810160405280600481526020017f4e6f6e65000000000000000000000000000000000000000000000000000000008152508152506005600060058152602001908152602001600020906003620012ad929190620024a1565b5060068054806001018281620012c4919062002240565b9160005260206000209060050201600060a06040519081016040528060058152602001600181526020016001815260200160001515815260200142815250909190915060008201518160000155602082015181600101556040820151816002015560608201518160030160006101000a81548160ff02191690831515021790555060808201518160040155505050606060405190810160405280600060ff168152602001600060ff168152602001600060ff1681525060036000600581526020019081526020016000209060036200139e9291906200210c565b50606060405190810160405280600280811115620013b857fe5b6002811115620013c457fe5b8152602001600280811115620013d657fe5b6002811115620013e257fe5b8152602001600280811115620013f457fe5b60028111156200140057fe5b815250600460006005815260200190815260200160002090600362001427929190620023ea565b506060604051908101604052806040805190810160405280600481526020017f4e6f6e650000000000000000000000000000000000000000000000000000000081525081526020016040805190810160405280600481526020017f4e6f6e650000000000000000000000000000000000000000000000000000000081525081526020016040805190810160405280600481526020017f4e6f6e6500000000000000000000000000000000000000000000000000000000815250815250600560006005815260200190815260200160002090600362001507929190620024a1565b50600680548060010182816200151e919062002240565b9160005260206000209060050201600060a06040519081016040528060068152602001600081526020016002815260200160001515815260200142815250909190915060008201518160000155602082015181600101556040820151816002015560608201518160030160006101000a81548160ff02191690831515021790555060808201518160040155505050602060405190810160405280600060ff168152506003600060068152602001908152602001600020906001620015e4929190620021e9565b50602060405190810160405280600280811115620015fe57fe5b60028111156200160a57fe5b81525060046000600681526020019081526020016000209060016200163192919062002508565b506020604051908101604052806040805190810160405280600481526020017f4e6f6e650000000000000000000000000000000000000000000000000000000081525081525060056000600681526020019081526020016000209060016200169b929190620025bf565b5060068054806001018281620016b2919062002240565b9160005260206000209060050201600060a06040519081016040528060078152602001600281526020016002815260200160001515815260200142815250909190915060008201518160000155602082015181600101556040820151816002015560608201518160030160006101000a81548160ff02191690831515021790555060808201518160040155505050602060405190810160405280600060ff16815250600360006007815260200190815260200160002090600162001778929190620021e9565b506020604051908101604052806002808111156200179257fe5b60028111156200179e57fe5b8152506004600060078152602001908152602001600020906001620017c592919062002508565b506020604051908101604052806040805190810160405280600481526020017f4e6f6e650000000000000000000000000000000000000000000000000000000081525081525060056000600781526020019081526020016000209060016200182f929190620025bf565b506006805480600101828162001846919062002240565b9160005260206000209060050201600060a06040519081016040528060088152602001600381526020016002815260200160001515815260200142815250909190915060008201518160000155602082015181600101556040820151816002015560608201518160030160006101000a81548160ff02191690831515021790555060808201518160040155505050602060405190810160405280600060ff1681525060036000600881526020019081526020016000209060016200190c929190620021e9565b506020604051908101604052806002808111156200192657fe5b60028111156200193257fe5b81525060046000600881526020019081526020016000209060016200195992919062002508565b506020604051908101604052806040805190810160405280600481526020017f4e6f6e65000000000000000000000000000000000000000000000000000000008152508152506005600060088152602001908152602001600020906001620019c3929190620025bf565b5060068054806001018281620019da919062002240565b9160005260206000209060050201600060a06040519081016040528060098152602001600081526020016003815260200160001515815260200142815250909190915060008201518160000155602082015181600101556040820151816002015560608201518160030160006101000a81548160ff021916908315150217905550608082015181600401555050506040805190810160405280600060ff168152602001600060ff16815250600360006009815260200190815260200160002090600262001aa992919062002192565b50604080519081016040528060028081111562001ac257fe5b600281111562001ace57fe5b815260200160028081111562001ae057fe5b600281111562001aec57fe5b815250600460006009815260200190815260200160002090600262001b1392919062002626565b5060408051908101604052806040805190810160405280600481526020017f4e6f6e650000000000000000000000000000000000000000000000000000000081525081526020016040805190810160405280600481526020017f4e6f6e6500000000000000000000000000000000000000000000000000000000815250815250600560006009815260200190815260200160002090600262001bb7929190620026dd565b506006805480600101828162001bce919062002240565b9160005260206000209060050201600060a060405190810160405280600a8152602001600381526020016003815260200160001515815260200142815250909190915060008201518160000155602082015181600101556040820151816002015560608201518160030160006101000a81548160ff021916908315150217905550608082015181600401555050506040805190810160405280600060ff168152602001600060ff1681525060036000600a815260200190815260200160002090600262001c9d92919062002192565b50604080519081016040528060028081111562001cb657fe5b600281111562001cc257fe5b815260200160028081111562001cd457fe5b600281111562001ce057fe5b81525060046000600a815260200190815260200160002090600262001d0792919062002626565b5060408051908101604052806040805190810160405280600481526020017f4e6f6e650000000000000000000000000000000000000000000000000000000081525081526020016040805190810160405280600481526020017f4e6f6e650000000000000000000000000000000000000000000000000000000081525081525060056000600a815260200190815260200160002090600262001dab929190620026dd565b50600080808152602001908152602001600020805480600101828162001dd2919062002163565b916000526020600020900160008090919091505550600080808152602001908152602001600020805480600101828162001e0d919062002163565b91600052602060002090016000600490919091505550600080808152602001908152602001600020805480600101828162001e49919062002163565b91600052602060002090016000600690919091505550600080808152602001908152602001600020805480600101828162001e85919062002163565b9160005260206000209001600060099091909150555060008060018152602001908152602001600020805480600101828162001ec2919062002163565b9160005260206000209001600060019091909150555060008060018152602001908152602001600020805480600101828162001eff919062002163565b9160005260206000209001600060059091909150555060008060028152602001908152602001600020805480600101828162001f3c919062002163565b9160005260206000209001600060029091909150555060008060028152602001908152602001600020805480600101828162001f79919062002163565b9160005260206000209001600060079091909150555060008060038152602001908152602001600020805480600101828162001fb6919062002163565b9160005260206000209001600060039091909150555060008060038152602001908152602001600020805480600101828162001ff3919062002163565b9160005260206000209001600060089091909150555060008060038152602001908152602001600020805480600101828162002030919062002163565b91600052602060002090016000600a90919091505550600b600981905550565b81548183558181151162002080576002028160020283600052602060002091820191016200207f919062002744565b5b505050565b828054600181600116156101000203166002900490600052602060002090601f016020900481019282601f10620020c857805160ff1916838001178555620020f9565b82800160010185558215620020f9579182015b82811115620020f8578251825591602001919060010190620020db565b5b50905062002108919062002780565b5090565b82805482825590600052602060002090810192821562002150579160200282015b828111156200214f578251829060ff169055916020019190600101906200212d565b5b5090506200215f919062002780565b5090565b8154818355818115116200218d578183600052602060002091820191016200218c919062002780565b5b505050565b828054828255906000526020600020908101928215620021d6579160200282015b82811115620021d5578251829060ff16905591602001919060010190620021b3565b5b509050620021e5919062002780565b5090565b8280548282559060005260206000209081019282156200222d579160200282015b828111156200222c578251829060ff169055916020019190600101906200220a565b5b5090506200223c919062002780565b5090565b81548183558181151162002270576005028160050283600052602060002091820191016200226f9190620027a8565b5b505050565b828054828255906000526020600020908101928215620022b9579160200282015b82811115620022b8578251829060ff1690559160200191906001019062002296565b5b509050620022c8919062002780565b5090565b82805482825590600052602060002090601f01602090048101928215620023705791602002820160005b838211156200233f57835183826101000a81548160ff021916908360028111156200231d57fe5b02179055509260200192600101602081600001049283019260010302620022f6565b80156200236e5782816101000a81549060ff02191690556001016020816000010492830192600103026200233f565b505b5090506200237f9190620027fe565b5090565b828054828255906000526020600020908101928215620023d7579160200282015b82811115620023d6578251829080519060200190620023c592919062002085565b5091602001919060010190620023a4565b5b509050620023e6919062002831565b5090565b82805482825590600052602060002090601f016020900481019282156200248e5791602002820160005b838211156200245d57835183826101000a81548160ff021916908360028111156200243b57fe5b0217905550926020019260010160208160000104928301926001030262002414565b80156200248c5782816101000a81549060ff02191690556001016020816000010492830192600103026200245d565b505b5090506200249d9190620027fe565b5090565b828054828255906000526020600020908101928215620024f5579160200282015b82811115620024f4578251829080519060200190620024e392919062002085565b5091602001919060010190620024c2565b5b50905062002504919062002831565b5090565b82805482825590600052602060002090601f01602090048101928215620025ac5791602002820160005b838211156200257b57835183826101000a81548160ff021916908360028111156200255957fe5b0217905550926020019260010160208160000104928301926001030262002532565b8015620025aa5782816101000a81549060ff02191690556001016020816000010492830192600103026200257b565b505b509050620025bb9190620027fe565b5090565b82805482825590600052602060002090810192821562002613579160200282015b82811115620026125782518290805190602001906200260192919062002085565b5091602001919060010190620025e0565b5b50905062002622919062002831565b5090565b82805482825590600052602060002090601f01602090048101928215620026ca5791602002820160005b838211156200269957835183826101000a81548160ff021916908360028111156200267757fe5b0217905550926020019260010160208160000104928301926001030262002650565b8015620026c85782816101000a81549060ff021916905560010160208160000104928301926001030262002699565b505b509050620026d99190620027fe565b5090565b82805482825590600052602060002090810192821562002731579160200282015b82811115620027305782518290805190602001906200271f92919062002085565b5091602001919060010190620026fe565b5b50905062002740919062002831565b5090565b6200277d91905b8082111562002779576000808201600090556001820160006200276f919062002862565b506002016200274b565b5090565b90565b620027a591905b80821115620027a157600081600090555060010162002787565b5090565b90565b620027fb91905b80821115620027f757600080820160009055600182016000905560028201600090556003820160006101000a81549060ff0219169055600482016000905550600501620027af565b5090565b90565b6200282e91905b808211156200282a57600081816101000a81549060ff02191690555060010162002805565b5090565b90565b6200285f91905b808211156200285b576000818162002851919062002862565b5060010162002838565b5090565b90565b50805460018160011615610100020316600290046000825580601f106200288a5750620028ab565b601f016020900490600052602060002090810190620028aa919062002780565b5b50565b613f1780620028be6000396000f3006060604052600436106100e6576000357c0100000000000000000000000000000000000000000000000000000000900463ffffffff16806308b43f75146100eb5780631c801a37146101145780633c619d901461018c57806340afe7e7146101a15780634367cb78146101ca578063473f3e24146102345780635cb30d2e1461029e5780635cd96ac6146102e457806365a3b7da146104715780637581c69f146104db5780639802dc1614610545578063bd80a2a71461055a578063bf56f5641461060f578063e4ad6fdd14610742578063ecc1bdbb14610799578063ede8db5714610859575b600080fd5b34156100f657600080fd5b6100fe61089d565b6040518082815260200191505060405180910390f35b341561011f57600080fd5b61013560048080359060200190919050506108a3565b6040518080602001828103825283818151815260200191508051906020019060200280838360005b8381101561017857808201518184015260208101905061015d565b505050509050019250505060405180910390f35b341561019757600080fd5b61019f610913565b005b34156101ac57600080fd5b6101b4610e02565b6040518082815260200191505060405180910390f35b34156101d557600080fd5b6101dd610e08565b6040518080602001828103825283818151815260200191508051906020019060200280838360005b83811015610220578082015181840152602081019050610205565b505050509050019250505060405180910390f35b341561023f57600080fd5b610247610e95565b6040518080602001828103825283818151815260200191508051906020019060200280838360005b8381101561028a57808201518184015260208101905061026f565b505050509050019250505060405180910390f35b34156102a957600080fd5b6102ca60048080359060200190919080351515906020019091905050610f3f565b604051808215151515815260200191505060405180910390f35b34156102ef57600080fd5b6103056004808035906020019091905050610f83565b60405180888152602001806020018715151515815260200180602001806020018060200186815260200185810385528b818151815260200191508051906020019080838360005b8381101561036757808201518184015260208101905061034c565b50505050905090810190601f1680156103945780820380516001836020036101000a031916815260200191505b50858103845289818151815260200191508051906020019060200280838360005b838110156103d05780820151818401526020810190506103b5565b50505050905001858103835288818151815260200191508051906020019060200280838360005b838110156104125780820151818401526020810190506103f7565b50505050905001858103825287818151815260200191508051906020019060200280838360005b83811015610454578082015181840152602081019050610439565b505050509050019b50505050505050505050505060405180910390f35b341561047c57600080fd5b6104846113b8565b6040518080602001828103825283818151815260200191508051906020019060200280838360005b838110156104c75780820151818401526020810190506104ac565b505050509050019250505060405180910390f35b34156104e657600080fd5b6104ee61148e565b6040518080602001828103825283818151815260200191508051906020019060200280838360005b83811015610531578082015181840152602081019050610516565b505050509050019250505060405180910390f35b341561055057600080fd5b610558611564565b005b341561056557600080fd5b6105f5600480803590602001908201803590602001908080601f0160208091040260200160405190810160405280939291908181526020018383808284378201915050505050509190803590602001908201803590602001908080602002602001604051908101604052809392919081815260200183836020028082843782019150505050505091905050612fa9565b604051808215151515815260200191505060405180910390f35b341561061a57600080fd5b61063060048080359060200190919050506130e9565b60405180806020018060200180602001858152602001848103845288818151815260200191508051906020019080838360005b8381101561067e578082015181840152602081019050610663565b50505050905090810190601f1680156106ab5780820380516001836020036101000a031916815260200191505b50848103835287818151815260200191508051906020019060200280838360005b838110156106e75780820151818401526020810190506106cc565b50505050905001848103825286818151815260200191508051906020019060200280838360005b8381101561072957808201518184015260208101905061070e565b5050505090500197505050505050505060405180910390f35b341561074d57600080fd5b61076360048080359060200190919050506132b9565b60405180868152602001858152602001848152602001831515151581526020018281526020019550505050505060405180910390f35b34156107a457600080fd5b6107ba600480803590602001909190505061330b565b60405180838152602001806020018281038252838181546001816001161561010002031660029004815260200191508054600181600116156101000203166002900480156108495780601f1061081e57610100808354040283529160200191610849565b820191906000526020600020905b81548152906001019060200180831161082c57829003601f168201915b5050935050505060405180910390f35b341561086457600080fd5b610883600480803590602001909190803590602001909190505061333d565b604051808215151515815260200191505060405180910390f35b60095481565b6108ab613590565b60008083815260200190815260200160002080548060200260200160405190810160405280929190818152602001828054801561090757602002820191906000526020600020905b8154815260200190600101908083116108f3575b50505050509050919050565b6007805480600101828161092791906135a4565b916000526020600020906002020160006040805190810160405280600081526020016040805190810160405280601d81526020017fd0a0d0b0d0bfd0bed180d18220d0bdd0b0206fd182d0bfd183d181d0ba00000081525081525090919091506000820151816000015560208201518160010190805190602001906109ad9291906135d6565b50505050600780548060010182816109c591906135a4565b916000526020600020906002020160006040805190810160405280600181526020016040805190810160405280602081526020017fd0a0d0b0d0bfd0bed180d18220d0bdd0b020d182d0b5d185d0bdd0b8d0bad1838152508152509091909150600082015181600001556020820151816001019080519060200190610a4b9291906135d6565b5050505060078054806001018281610a6391906135a4565b91600052602060002090600202016000604080519081016040528060028152602001606060405190810160405280602281526020017fd0a0d0b0d0bfd0bed180d18220d0bdd0b020d0bfd0b0d180d0bad0bed0b2d0ba81526020017fd1830000000000000000000000000000000000000000000000000000000000008152508152509091909150600082015181600001556020820151816001019080519060200190610b109291906135d6565b5050505060078054806001018281610b2891906135a4565b916000526020600020906002020160006040805190810160405280600381526020016040805190810160405280602081526020017fd0a0d0b0d0bfd0bed180d18220d0bdd0b020d0bbd0b5d187d0b5d0bdd0b8d0b58152508152509091909150600082015181600001556020820151816001019080519060200190610bae9291906135d6565b50505050606060405190810160405280600160ff168152602001600260ff168152602001600360ff1681525060016000808152602001908152602001600020906003610bfb929190613656565b50600160008081526020019081526020016000208054806001018281610c2191906136a8565b916000526020600020900160006004909190915055506040805190810160405280600060ff168152602001600160ff1681525060026000808152602001908152602001600020906002610c759291906136d4565b50606060405190810160405280600060ff168152602001600360ff168152602001600460ff168152506001600060018152602001908152602001600020906003610cc0929190613656565b506040805190810160405280600060ff168152602001600160ff168152506002600060018152602001908152602001600020906002610d009291906136d4565b50602060405190810160405280600060ff168152506001600060028152602001908152602001600020906001610d37929190613726565b506040805190810160405280600060ff168152602001600160ff168152506002600060028152602001908152602001600020906002610d779291906136d4565b506040805190810160405280600460ff168152602001600560ff168152506001600060038152602001908152602001600020906002610db79291906136d4565b506040805190810160405280600060ff168152602001600160ff168152506002600060038152602001908152602001600020906002610df79291906136d4565b506004600881905550565b60085481565b610e10613590565b6000808054806001018281610e2591906136a8565b916000526020600020900160006007805490509091909150555080805480602002602001604051908101604052809291908181526020018280548015610e8a57602002820191906000526020600020905b815481526020019060010190808311610e76575b505050505091505090565b610e9d613590565b600080600090505b600680549050811015610ee857818054806001018281610ec591906136a8565b916000526020600020900160006001909190915055508080600101915050610ea5565b81805480602002602001604051908101604052809291908181526020018280548015610f3357602002820191906000526020600020905b815481526020019060010190808311610f1f575b50505050509250505090565b600081600684815481101515610f5157fe5b906000526020600020906005020160030160006101000a81548160ff0219169083151502179055506001905092915050565b6000610f8d613778565b6000610f97613590565b610f9f613590565b610fa7613590565b60008060008060068b815481101515610fbc57fe5b90600052602060002090600502016002015492506001600084815260200190815260200160002080548060200260200160405190810160405280929190818152602001828054801561102d57602002820191906000526020600020905b815481526020019060010190808311611019575b50505050509650600360008c815260200190815260200160002080548060200260200160405190810160405280929190818152602001828054801561109157602002820191906000526020600020905b81548152602001906001019080831161107d575b5050505050955060068b8154811015156110a757fe5b9060005260206000209060050201600401549350600090505b865181101561121857600060028111156110d657fe5b600460008d8152602001908152602001600020828154811015156110f657fe5b90600052602060002090602091828204019190069054906101000a900460ff16600281111561112157fe5b14156111555781805480600101828161113a91906136a8565b9160005260206000209001600060019091909150555061120b565b6001600281111561116257fe5b600460008d81526020019081526020016000208281548110151561118257fe5b90600052602060002090602091828204019190069054906101000a900460ff1660028111156111ad57fe5b14156111e0578180548060010182816111c691906136a8565b91600052602060002090016000809091909150555061120a565b8180548060010182816111f391906136a8565b916000526020600020900160006002909190915055505b5b80806001019150506110c0565b60068b81548110151561122757fe5b906000526020600020906005020160010154995089600760068d81548110151561124d57fe5b90600052602060002090600502016002015481548110151561126b57fe5b906000526020600020906002020160010160068d81548110151561128b57fe5b906000526020600020906005020160030160009054906101000a900460ff1689898689858054600181600116156101000203166002900480601f0160208091040260200160405190810160405280929190818152602001828054600181600116156101000203166002900480156113435780601f1061131857610100808354040283529160200191611343565b820191906000526020600020905b81548152906001019060200180831161132657829003601f168201915b505050505095508180548060200260200160405190810160405280929190818152602001828054801561139557602002820191906000526020600020905b815481526020019060010190808311611381575b505050505091509950995099509950995099509950505050919395979092949650565b6113c0613590565b600080600090505b60068054905081101561143757600115156006828154811015156113e857fe5b906000526020600020906005020160030160009054906101000a900460ff161515141561142a57818181548110151561141d57fe5b9060005260206000209050505b80806001019150506113c8565b8180548060200260200160405190810160405280929190818152602001828054801561148257602002820191906000526020600020905b81548152602001906001019080831161146e575b50505050509250505090565b611496613590565b600080600090505b60068054905081101561150d57600015156006828154811015156114be57fe5b906000526020600020906005020160030160009054906101000a900460ff16151514156115005781818154811015156114f357fe5b9060005260206000209050505b808060010191505061149e565b8180548060200260200160405190810160405280929190818152602001828054801561155857602002820191906000526020600020905b815481526020019060010190808311611544575b50505050509250505090565b60068054806001018281611578919061378c565b9160005260206000209060050201600060a06040519081016040528060008152602001600081526020016000815260200160001515815260200142815250909190915060008201518160000155602082015181600101556040820151816002015560608201518160030160006101000a81548160ff02191690831515021790555060808201518160040155505050608060405190810160405280600060ff168152602001600060ff168152602001600060ff168152602001600060ff16815250600360008081526020019081526020016000209060046116599291906137be565b5060806040519081016040528060028081111561167257fe5b600281111561167d57fe5b815260200160028081111561168e57fe5b600281111561169957fe5b81526020016002808111156116aa57fe5b60028111156116b557fe5b81526020016002808111156116c657fe5b60028111156116d157fe5b815250600460008081526020019081526020016000209060046116f5929190613810565b506080604051908101604052806040805190810160405280600481526020017f4e6f6e650000000000000000000000000000000000000000000000000000000081525081526020016040805190810160405280600481526020017f4e6f6e650000000000000000000000000000000000000000000000000000000081525081526020016040805190810160405280600481526020017f4e6f6e650000000000000000000000000000000000000000000000000000000081525081526020016040805190810160405280600481526020017f4e6f6e65000000000000000000000000000000000000000000000000000000008152508152506005600080815260200190815260200160002090600461180d9291906138bf565b5060068054806001018281611822919061378c565b9160005260206000209060050201600060a06040519081016040528060018152602001600181526020016000815260200160001515815260200142815250909190915060008201518160000155602082015181600101556040820151816002015560608201518160030160006101000a81548160ff02191690831515021790555060808201518160040155505050608060405190810160405280600060ff168152602001600060ff168152602001600060ff168152602001600060ff1681525060036000600181526020019081526020016000209060046119049291906137be565b5060806040519081016040528060028081111561191d57fe5b600281111561192857fe5b815260200160028081111561193957fe5b600281111561194457fe5b815260200160028081111561195557fe5b600281111561196057fe5b815260200160028081111561197157fe5b600281111561197c57fe5b81525060046000600181526020019081526020016000209060046119a1929190613810565b506080604051908101604052806040805190810160405280600481526020017f4e6f6e650000000000000000000000000000000000000000000000000000000081525081526020016040805190810160405280600481526020017f4e6f6e650000000000000000000000000000000000000000000000000000000081525081526020016040805190810160405280600481526020017f4e6f6e650000000000000000000000000000000000000000000000000000000081525081526020016040805190810160405280600481526020017f4e6f6e65000000000000000000000000000000000000000000000000000000008152508152506005600060018152602001908152602001600020906004611aba9291906138bf565b5060068054806001018281611acf919061378c565b9160005260206000209060050201600060a06040519081016040528060028152602001600281526020016000815260200160001515815260200142815250909190915060008201518160000155602082015181600101556040820151816002015560608201518160030160006101000a81548160ff02191690831515021790555060808201518160040155505050608060405190810160405280600060ff168152602001600060ff168152602001600060ff168152602001600060ff168152506003600060028152602001908152602001600020906004611bb19291906137be565b50608060405190810160405280600280811115611bca57fe5b6002811115611bd557fe5b8152602001600280811115611be657fe5b6002811115611bf157fe5b8152602001600280811115611c0257fe5b6002811115611c0d57fe5b8152602001600280811115611c1e57fe5b6002811115611c2957fe5b8152506004600060028152602001908152602001600020906004611c4e929190613810565b506080604051908101604052806040805190810160405280600481526020017f4e6f6e650000000000000000000000000000000000000000000000000000000081525081526020016040805190810160405280600481526020017f4e6f6e650000000000000000000000000000000000000000000000000000000081525081526020016040805190810160405280600481526020017f4e6f6e650000000000000000000000000000000000000000000000000000000081525081526020016040805190810160405280600481526020017f4e6f6e65000000000000000000000000000000000000000000000000000000008152508152506005600060028152602001908152602001600020906004611d679291906138bf565b5060068054806001018281611d7c919061378c565b9160005260206000209060050201600060a06040519081016040528060038152602001600381526020016000815260200160001515815260200142815250909190915060008201518160000155602082015181600101556040820151816002015560608201518160030160006101000a81548160ff02191690831515021790555060808201518160040155505050608060405190810160405280600060ff168152602001600060ff168152602001600060ff168152602001600060ff168152506003600060038152602001908152602001600020906004611e5e9291906137be565b50608060405190810160405280600280811115611e7757fe5b6002811115611e8257fe5b8152602001600280811115611e9357fe5b6002811115611e9e57fe5b8152602001600280811115611eaf57fe5b6002811115611eba57fe5b8152602001600280811115611ecb57fe5b6002811115611ed657fe5b8152506004600060038152602001908152602001600020906004611efb929190613810565b506080604051908101604052806040805190810160405280600481526020017f4e6f6e650000000000000000000000000000000000000000000000000000000081525081526020016040805190810160405280600481526020017f4e6f6e650000000000000000000000000000000000000000000000000000000081525081526020016040805190810160405280600481526020017f4e6f6e650000000000000000000000000000000000000000000000000000000081525081526020016040805190810160405280600481526020017f4e6f6e650000000000000000000000000000000000000000000000000000000081525081525060056000600381526020019081526020016000209060046120149291906138bf565b5060068054806001018281612029919061378c565b9160005260206000209060050201600060a06040519081016040528060048152602001600081526020016001815260200160001515815260200142815250909190915060008201518160000155602082015181600101556040820151816002015560608201518160030160006101000a81548160ff02191690831515021790555060808201518160040155505050606060405190810160405280600060ff168152602001600060ff168152602001600060ff168152506003600060048152602001908152602001600020906003612101929190613656565b5060606040519081016040528060028081111561211a57fe5b600281111561212557fe5b815260200160028081111561213657fe5b600281111561214157fe5b815260200160028081111561215257fe5b600281111561215d57fe5b815250600460006004815260200190815260200160002090600361218292919061391f565b506060604051908101604052806040805190810160405280600481526020017f4e6f6e650000000000000000000000000000000000000000000000000000000081525081526020016040805190810160405280600481526020017f4e6f6e650000000000000000000000000000000000000000000000000000000081525081526020016040805190810160405280600481526020017f4e6f6e650000000000000000000000000000000000000000000000000000000081525081525060056000600581526020019081526020016000209060036122609291906139ce565b5060068054806001018281612275919061378c565b9160005260206000209060050201600060a06040519081016040528060058152602001600181526020016001815260200160001515815260200142815250909190915060008201518160000155602082015181600101556040820151816002015560608201518160030160006101000a81548160ff02191690831515021790555060808201518160040155505050606060405190810160405280600060ff168152602001600060ff168152602001600060ff16815250600360006005815260200190815260200160002090600361234d929190613656565b5060606040519081016040528060028081111561236657fe5b600281111561237157fe5b815260200160028081111561238257fe5b600281111561238d57fe5b815260200160028081111561239e57fe5b60028111156123a957fe5b81525060046000600581526020019081526020016000209060036123ce92919061391f565b506060604051908101604052806040805190810160405280600481526020017f4e6f6e650000000000000000000000000000000000000000000000000000000081525081526020016040805190810160405280600481526020017f4e6f6e650000000000000000000000000000000000000000000000000000000081525081526020016040805190810160405280600481526020017f4e6f6e650000000000000000000000000000000000000000000000000000000081525081525060056000600581526020019081526020016000209060036124ac9291906139ce565b50600680548060010182816124c1919061378c565b9160005260206000209060050201600060a06040519081016040528060068152602001600081526020016002815260200160001515815260200142815250909190915060008201518160000155602082015181600101556040820151816002015560608201518160030160006101000a81548160ff02191690831515021790555060808201518160040155505050602060405190810160405280600060ff168152506003600060068152602001908152602001600020906001612585929190613726565b5060206040519081016040528060028081111561259e57fe5b60028111156125a957fe5b81525060046000600681526020019081526020016000209060016125ce929190613a2e565b506020604051908101604052806040805190810160405280600481526020017f4e6f6e65000000000000000000000000000000000000000000000000000000008152508152506005600060068152602001908152602001600020906001612636929190613add565b506006805480600101828161264b919061378c565b9160005260206000209060050201600060a06040519081016040528060078152602001600281526020016002815260200160001515815260200142815250909190915060008201518160000155602082015181600101556040820151816002015560608201518160030160006101000a81548160ff02191690831515021790555060808201518160040155505050602060405190810160405280600060ff16815250600360006007815260200190815260200160002090600161270f929190613726565b5060206040519081016040528060028081111561272857fe5b600281111561273357fe5b8152506004600060078152602001908152602001600020906001612758929190613a2e565b506020604051908101604052806040805190810160405280600481526020017f4e6f6e650000000000000000000000000000000000000000000000000000000081525081525060056000600781526020019081526020016000209060016127c0929190613add565b50600680548060010182816127d5919061378c565b9160005260206000209060050201600060a06040519081016040528060088152602001600381526020016002815260200160001515815260200142815250909190915060008201518160000155602082015181600101556040820151816002015560608201518160030160006101000a81548160ff02191690831515021790555060808201518160040155505050602060405190810160405280600060ff168152506003600060088152602001908152602001600020906001612899929190613726565b506020604051908101604052806002808111156128b257fe5b60028111156128bd57fe5b81525060046000600881526020019081526020016000209060016128e2929190613a2e565b506020604051908101604052806040805190810160405280600481526020017f4e6f6e6500000000000000000000000000000000000000000000000000000000815250815250600560006008815260200190815260200160002090600161294a929190613add565b506006805480600101828161295f919061378c565b9160005260206000209060050201600060a06040519081016040528060098152602001600081526020016003815260200160001515815260200142815250909190915060008201518160000155602082015181600101556040820151816002015560608201518160030160006101000a81548160ff021916908315150217905550608082015181600401555050506040805190810160405280600060ff168152602001600060ff168152506003600060098152602001908152602001600020906002612a2c9291906136d4565b506040805190810160405280600280811115612a4457fe5b6002811115612a4f57fe5b8152602001600280811115612a6057fe5b6002811115612a6b57fe5b8152506004600060098152602001908152602001600020906002612a90929190613b3d565b5060408051908101604052806040805190810160405280600481526020017f4e6f6e650000000000000000000000000000000000000000000000000000000081525081526020016040805190810160405280600481526020017f4e6f6e65000000000000000000000000000000000000000000000000000000008152508152506005600060098152602001908152602001600020906002612b32929190613bec565b5060068054806001018281612b47919061378c565b9160005260206000209060050201600060a060405190810160405280600a8152602001600381526020016003815260200160001515815260200142815250909190915060008201518160000155602082015181600101556040820151816002015560608201518160030160006101000a81548160ff021916908315150217905550608082015181600401555050506040805190810160405280600060ff168152602001600060ff1681525060036000600a8152602001908152602001600020906002612c149291906136d4565b506040805190810160405280600280811115612c2c57fe5b6002811115612c3757fe5b8152602001600280811115612c4857fe5b6002811115612c5357fe5b81525060046000600a8152602001908152602001600020906002612c78929190613b3d565b5060408051908101604052806040805190810160405280600481526020017f4e6f6e650000000000000000000000000000000000000000000000000000000081525081526020016040805190810160405280600481526020017f4e6f6e650000000000000000000000000000000000000000000000000000000081525081525060056000600a8152602001908152602001600020906002612d1a929190613bec565b506000808081526020019081526020016000208054806001018281612d3f91906136a8565b9160005260206000209001600080909190915055506000808081526020019081526020016000208054806001018281612d7891906136a8565b916000526020600020900160006004909190915055506000808081526020019081526020016000208054806001018281612db291906136a8565b916000526020600020900160006006909190915055506000808081526020019081526020016000208054806001018281612dec91906136a8565b91600052602060002090016000600990919091505550600080600181526020019081526020016000208054806001018281612e2791906136a8565b91600052602060002090016000600190919091505550600080600181526020019081526020016000208054806001018281612e6291906136a8565b91600052602060002090016000600590919091505550600080600281526020019081526020016000208054806001018281612e9d91906136a8565b91600052602060002090016000600290919091505550600080600281526020019081526020016000208054806001018281612ed891906136a8565b91600052602060002090016000600790919091505550600080600381526020019081526020016000208054806001018281612f1391906136a8565b91600052602060002090016000600390919091505550600080600381526020019081526020016000208054806001018281612f4e91906136a8565b91600052602060002090016000600890919091505550600080600381526020019081526020016000208054806001018281612f8991906136a8565b91600052602060002090016000600a90919091505550600b600981905550565b6000612fb3613c4c565b60006040805190810160405280600854815260200186815250915060078054806001018281612fe291906135a4565b9160005260206000209060020201600084909190915060008201518160000155602082015181600101908051906020019061301e9291906135d6565b50505050600090505b835181101561309057600160006008548152602001908152602001600020805480600101828161305791906136a8565b91600052602060002090016000868481518110151561307257fe5b90602001906020020151909190915055508080600101915050613027565b6040805190810160405280600160ff168152602001600260ff168152506002600060085481526020019081526020016000209060026130d09291906136d4565b5060016008540160088190555060019250505092915050565b6130f1613778565b6130f9613590565b613101613590565b600060078581548110151561311257fe5b9060005260206000209060020201600101600160008781526020019081526020016000206002600088815260200190815260200160002060078881548110151561315857fe5b906000526020600020906002020160000154838054600181600116156101000203166002900480601f0160208091040260200160405190810160405280929190818152602001828054600181600116156101000203166002900480156131ff5780601f106131d4576101008083540402835291602001916131ff565b820191906000526020600020905b8154815290600101906020018083116131e257829003601f168201915b505050505093508280548060200260200160405190810160405280929190818152602001828054801561325157602002820191906000526020600020905b81548152602001906001019080831161323d575b50505050509250818054806020026020016040519081016040528092919081815260200182805480156132a357602002820191906000526020600020905b81548152602001906001019080831161328f575b5050505050915093509350935093509193509193565b6006818154811015156132c857fe5b90600052602060002090600502016000915090508060000154908060010154908060020154908060030160009054906101000a900460ff16908060040154905085565b60078181548110151561331a57fe5b906000526020600020906002020160009150905080600001549080600101905082565b6000613347613c6c565b600060a06040519081016040528060095481526020018581526020018681526020016000151581526020014281525091506006805480600101828161338c919061378c565b9160005260206000209060050201600084909190915060008201518160000155602082015181600101556040820151816002015560608201518160030160006101000a81548160ff02191690831515021790555060808201518160040155505050600090505b600160008681526020019081526020016000208054905081101561353d57600360006009548152602001908152602001600020805480600101828161343791906136a8565b91600052602060002090016000809091909150555060046000600954815260200190815260200160002080548060010182816134739190613c9e565b91600052602060002090602091828204019190066002909190916101000a81548160ff021916908360028111156134a657fe5b02179055505060056000600954815260200190815260200160002080548060010182816134d39190613cd8565b916000526020600020900160006040805190810160405280600481526020017f4e6f6e65000000000000000000000000000000000000000000000000000000008152509091909150908051906020019061352e929190613d04565b505080806001019150506133f2565b600080858152602001908152602001600020805480600101828161356191906136a8565b916000526020600020900160006009549091909150555060016009540160098190555060019250505092915050565b602060405190810160405280600081525090565b8154818355818115116135d1576002028160020283600052602060002091820191016135d09190613d84565b5b505050565b828054600181600116156101000203166002900490600052602060002090601f016020900481019282601f1061361757805160ff1916838001178555613645565b82800160010185558215613645579182015b82811115613644578251825591602001919060010190613629565b5b5090506136529190613dbb565b5090565b828054828255906000526020600020908101928215613697579160200282015b82811115613696578251829060ff16905591602001919060010190613676565b5b5090506136a49190613dbb565b5090565b8154818355818115116136cf578183600052602060002091820191016136ce9190613dbb565b5b505050565b828054828255906000526020600020908101928215613715579160200282015b82811115613714578251829060ff169055916020019190600101906136f4565b5b5090506137229190613dbb565b5090565b828054828255906000526020600020908101928215613767579160200282015b82811115613766578251829060ff16905591602001919060010190613746565b5b5090506137749190613dbb565b5090565b602060405190810160405280600081525090565b8154818355818115116137b9576005028160050283600052602060002091820191016137b89190613de0565b5b505050565b8280548282559060005260206000209081019282156137ff579160200282015b828111156137fe578251829060ff169055916020019190600101906137de565b5b50905061380c9190613dbb565b5090565b82805482825590600052602060002090601f016020900481019282156138ae5791602002820160005b8382111561387f57835183826101000a81548160ff0219169083600281111561385e57fe5b02179055509260200192600101602081600001049283019260010302613839565b80156138ac5782816101000a81549060ff021916905560010160208160000104928301926001030261387f565b505b5090506138bb9190613e33565b5090565b82805482825590600052602060002090810192821561390e579160200282015b8281111561390d5782518290805190602001906138fd9291906135d6565b50916020019190600101906138df565b5b50905061391b9190613e63565b5090565b82805482825590600052602060002090601f016020900481019282156139bd5791602002820160005b8382111561398e57835183826101000a81548160ff0219169083600281111561396d57fe5b02179055509260200192600101602081600001049283019260010302613948565b80156139bb5782816101000a81549060ff021916905560010160208160000104928301926001030261398e565b505b5090506139ca9190613e33565b5090565b828054828255906000526020600020908101928215613a1d579160200282015b82811115613a1c578251829080519060200190613a0c9291906135d6565b50916020019190600101906139ee565b5b509050613a2a9190613e63565b5090565b82805482825590600052602060002090601f01602090048101928215613acc5791602002820160005b83821115613a9d57835183826101000a81548160ff02191690836002811115613a7c57fe5b02179055509260200192600101602081600001049283019260010302613a57565b8015613aca5782816101000a81549060ff0219169055600101602081600001049283019260010302613a9d565b505b509050613ad99190613e33565b5090565b828054828255906000526020600020908101928215613b2c579160200282015b82811115613b2b578251829080519060200190613b1b9291906135d6565b5091602001919060010190613afd565b5b509050613b399190613e63565b5090565b82805482825590600052602060002090601f01602090048101928215613bdb5791602002820160005b83821115613bac57835183826101000a81548160ff02191690836002811115613b8b57fe5b02179055509260200192600101602081600001049283019260010302613b66565b8015613bd95782816101000a81549060ff0219169055600101602081600001049283019260010302613bac565b505b509050613be89190613e33565b5090565b828054828255906000526020600020908101928215613c3b579160200282015b82811115613c3a578251829080519060200190613c2a9291906135d6565b5091602001919060010190613c0c565b5b509050613c489190613e63565b5090565b604080519081016040528060008152602001613c66613e8f565b81525090565b60a060405190810160405280600081526020016000815260200160008152602001600015158152602001600081525090565b815481835581811511613cd357601f016020900481601f01602090048360005260206000209182019101613cd29190613dbb565b5b505050565b815481835581811511613cff57818360005260206000209182019101613cfe9190613e63565b5b505050565b828054600181600116156101000203166002900490600052602060002090601f016020900481019282601f10613d4557805160ff1916838001178555613d73565b82800160010185558215613d73579182015b82811115613d72578251825591602001919060010190613d57565b5b509050613d809190613dbb565b5090565b613db891905b80821115613db457600080820160009055600182016000613dab9190613ea3565b50600201613d8a565b5090565b90565b613ddd91905b80821115613dd9576000816000905550600101613dc1565b5090565b90565b613e3091905b80821115613e2c57600080820160009055600182016000905560028201600090556003820160006101000a81549060ff0219169055600482016000905550600501613de6565b5090565b90565b613e6091905b80821115613e5c57600081816101000a81549060ff021916905550600101613e39565b5090565b90565b613e8c91905b80821115613e885760008181613e7f9190613ea3565b50600101613e69565b5090565b90565b602060405190810160405280600081525090565b50805460018160011615610100020316600290046000825580601f10613ec95750613ee8565b601f016020900490600052602060002090810190613ee79190613dbb565b5b505600a165627a7a72305820227bd87da4d4a9d91f2bb995a7909d7e5821e8c41c31f29fe366ed0dd4e189cf0029",
  "source": "pragma solidity ^0.4.18;\n\n//import \"./EmployerContract.sol\";\n\ncontract ReportContract /*is EmployerContract*/ {\n\n    mapping (uint => uint[]) employerNum_reportArrayNum;\n    \n    mapping (uint => uint[]) templateReportNum_departmentNum;\n    mapping (uint => uint[]) templateReportNum_postNum; //    \n    mapping (uint => uint[]) reportNum_employersNum;\n    mapping (uint => IsVerification[]) reportNum_isVer;\n    mapping (uint => string[]) reportNum_reasonForDeny;\n    \n    enum IsVerification{\n        ACCEPT,\n        DENY,\n        PROCESSING\n    }\n\n    struct TemplateReportStruct{\n        uint templateReportNum;\n        string reportTitle;\n    }\n\n    struct EmployersReportStruct{\n        uint reportNum;\n        uint employerNum;\n        uint templateReportNum;\n        bool isApprove;\n        uint time;\n    }\n\n    EmployersReportStruct[] public employerReportArray;\n    TemplateReportStruct[] public templateReportArray;\n\n    uint public templateReportNumber;\n    uint public reportNuber;\n\n    function ReportContract() public{\n        AutoCreaterTemplateReport();\n        AutoCreaterEmployerReport();\n    }\n    \n    function AutoCreaterTemplateReport() {\n\n        templateReportArray.push(TemplateReportStruct(0, \"  o\"));\n        templateReportArray.push(TemplateReportStruct(1, \"  \"));\n        templateReportArray.push(TemplateReportStruct(2, \"  \"));\n        templateReportArray.push(TemplateReportStruct(3, \"  \"));\n        \n        templateReportNum_departmentNum[0] = [1,2,3];\n        templateReportNum_departmentNum[0].push(4);\n        templateReportNum_postNum[0] = [0,1];\n        \n        templateReportNum_departmentNum[1] = [0,3,4];\n        templateReportNum_postNum[1] = [0,1];\n        \n        templateReportNum_departmentNum[2] = [0];\n        templateReportNum_postNum[2] = [0,1];\n        \n        templateReportNum_departmentNum[3] = [4,5];\n        templateReportNum_postNum[3] = [0,1];\n        \n        templateReportNumber = 4;\n    }\n    \n    function AutoCreaterEmployerReport(){\n        \n        employerReportArray.push(EmployersReportStruct(0, 0, 0 ,false,now));\n        reportNum_employersNum[0] = [0,0,0,0];\n        reportNum_isVer[0] = [IsVerification.PROCESSING, IsVerification.PROCESSING, IsVerification.PROCESSING, IsVerification.PROCESSING];\n        reportNum_reasonForDeny[0] = [\"None\", \"None\", \"None\", \"None\"];\n        \n        employerReportArray.push(EmployersReportStruct(1, 1, 0 ,false,now));\n        reportNum_employersNum[1] = [0,0,0,0];\n        reportNum_isVer[1] = [IsVerification.PROCESSING, IsVerification.PROCESSING, IsVerification.PROCESSING, IsVerification.PROCESSING];\n        reportNum_reasonForDeny[1] = [\"None\", \"None\", \"None\", \"None\"];\n        \n        employerReportArray.push(EmployersReportStruct(2, 2, 0 ,false,now));\n        reportNum_employersNum[2] = [0,0,0,0];\n        reportNum_isVer[2] = [IsVerification.PROCESSING, IsVerification.PROCESSING, IsVerification.PROCESSING, IsVerification.PROCESSING];\n        reportNum_reasonForDeny[2] = [\"None\", \"None\", \"None\", \"None\"];\n        \n        employerReportArray.push(EmployersReportStruct(3, 3, 0 ,false,now));\n        reportNum_employersNum[3] = [0,0,0,0];\n        reportNum_isVer[3] = [IsVerification.PROCESSING, IsVerification.PROCESSING, IsVerification.PROCESSING, IsVerification.PROCESSING];\n        reportNum_reasonForDeny[3] = [\"None\", \"None\", \"None\", \"None\"];\n        \n        employerReportArray.push(EmployersReportStruct(4, 0, 1 ,false,now));\n        reportNum_employersNum[4] = [0,0,0];\n        reportNum_isVer[4] = [IsVerification.PROCESSING, IsVerification.PROCESSING, IsVerification.PROCESSING];\n        reportNum_reasonForDeny[5] = [\"None\", \"None\", \"None\"];\n        \n        employerReportArray.push(EmployersReportStruct(5, 1, 1 ,false,now));\n        reportNum_employersNum[5] = [0,0,0];\n        reportNum_isVer[5] = [IsVerification.PROCESSING, IsVerification.PROCESSING, IsVerification.PROCESSING];\n        reportNum_reasonForDeny[5] = [\"None\", \"None\", \"None\"];\n        \n        employerReportArray.push(EmployersReportStruct(6, 0, 2 ,false,now));\n        reportNum_employersNum[6] = [0];\n        reportNum_isVer[6] = [IsVerification.PROCESSING];\n        reportNum_reasonForDeny[6] = [\"None\"];\n        \n        employerReportArray.push(EmployersReportStruct(7, 2, 2 ,false,now));\n        reportNum_employersNum[7] = [0];\n        reportNum_isVer[7] = [IsVerification.PROCESSING];\n        reportNum_reasonForDeny[7] = [\"None\"];\n        \n        employerReportArray.push(EmployersReportStruct(8, 3, 2 ,false,now));\n        reportNum_employersNum[8] = [0];\n        reportNum_isVer[8] = [IsVerification.PROCESSING];\n        reportNum_reasonForDeny[8] = [\"None\"];\n        \n        employerReportArray.push(EmployersReportStruct(9, 0, 3 ,false,now));\n        reportNum_employersNum[9] = [0,0];\n        reportNum_isVer[9] = [IsVerification.PROCESSING, IsVerification.PROCESSING];\n        reportNum_reasonForDeny[9] = [\"None\", \"None\"];\n        \n        employerReportArray.push(EmployersReportStruct(10, 3, 3 ,false,now));\n        reportNum_employersNum[10] = [0,0];\n        reportNum_isVer[10] = [IsVerification.PROCESSING, IsVerification.PROCESSING];\n        reportNum_reasonForDeny[10] = [\"None\", \"None\"];\n        \n        employerNum_reportArrayNum[0].push(0);\n        employerNum_reportArrayNum[0].push(4);\n        employerNum_reportArrayNum[0].push(6);\n        employerNum_reportArrayNum[0].push(9);\n        employerNum_reportArrayNum[1].push(1);\n        employerNum_reportArrayNum[1].push(5);\n        employerNum_reportArrayNum[2].push(2);\n        employerNum_reportArrayNum[2].push(7);\n        employerNum_reportArrayNum[3].push(3);\n        employerNum_reportArrayNum[3].push(8);\n        employerNum_reportArrayNum[3].push(10);\n\n        reportNuber = 11;\n    }\n\n    function CreateReport(\n        uint _templateReport,\n        uint _employerNum\n    ) returns (bool createReport){\n        EmployersReportStruct memory newReport = EmployersReportStruct({\n            reportNum:reportNuber,\n            employerNum:_employerNum,\n            templateReportNum:_templateReport,\n            isApprove:false,\n            time:now\n        });\n        employerReportArray.push(newReport);\n        for(uint i = 0; i < templateReportNum_departmentNum[_templateReport].length; i++){\n            reportNum_employersNum[reportNuber].push(0);\n            reportNum_isVer[reportNuber].push(IsVerification.PROCESSING);\n            reportNum_reasonForDeny[reportNuber].push(\"None\");\n        }\n        employerNum_reportArrayNum[_employerNum].push(reportNuber);\n        reportNuber = reportNuber + 1;\n        return true;\n    }\n\n    function CreateTemplateReport(\n        string _title,\n        uint[] _departments\n        //uint[] _departmentNum\n    ) returns (bool createTemplateReport){\n        TemplateReportStruct memory newTemplateReport = TemplateReportStruct({\n            templateReportNum:templateReportNumber,\n            reportTitle:_title\n        });\n        templateReportArray.push(newTemplateReport);\n        \n        for (uint i = 0; i < _departments.length; i++){\n            templateReportNum_departmentNum[templateReportNumber].push(_departments[i]);\n        }\n        templateReportNum_postNum[templateReportNumber] = [1,2];\n        templateReportNumber = templateReportNumber + 1;\n        return true;\n    }\n\n    /*function ReceptionDepartment(\n        uint _departmentNum, \n        uint _num\n    ) returns (bool){\n        templateReportNum_departmentNum[templateReportNumber].push(_departmentNum);\n        if (_num == templateReportNum_departmentNum[templateReportNumber].length){\n            templateReportNumber = templateReportNumber + 1;\n        }\n        return true;\n    }*/\n    \n\n    function GetEmployersReportListFromNum(uint _employerNum) returns(uint[] reportsArray){\n        return employerNum_reportArrayNum[_employerNum];\n    }\n    \n    function GetEmployersAcceptReport() returns(uint[]){\n        uint[] acceptReport;\n        for(uint i = 0; i<employerReportArray.length; i++){\n            if(employerReportArray[i].isApprove == true){\n                acceptReport[i];\n            }\n        }\n        return acceptReport;\n    }\n    \n    function GetEmployersNotAcceptReport() returns(uint[]){\n        uint[] notAcceptReport;\n        for(uint i = 0; i<employerReportArray.length; i++){\n            if(employerReportArray[i].isApprove == false){\n                notAcceptReport[i];\n            }\n        }\n        return notAcceptReport;\n    }\n\n    function GetEmployerReportSize() returns(uint[]){\n        uint[] arr;\n        for (uint i = 0; i < employerReportArray.length; i++){\n            arr.push(1);\n        }\n        return arr;\n    }\n    \n    function GetEmployersReportFromNum(uint _num) returns(\n        uint employerNum,\n        string title,\n        bool isApprove,\n        uint[] depNum,\n        uint[] empNum,\n        uint[] ,\n        uint reportTime\n        ){\n            \n            uint templateReport = employerReportArray[_num].templateReportNum;\n            depNum = templateReportNum_departmentNum[templateReport];\n            empNum = reportNum_employersNum[_num];\n            reportTime = employerReportArray[_num].time;\n            \n            uint[] isVer;\n            \n            for (uint i=0; i<depNum.length; i++){\n                if(reportNum_isVer[_num][i] == IsVerification.ACCEPT){\n                    isVer.push(1);\n                }else{\n                    if(reportNum_isVer[_num][i] == IsVerification.DENY){\n                        isVer.push(0);\n                    }else{\n                        isVer.push(2);\n                    }\n                }\n            }\n            \n            return(\n                employerNum = employerReportArray[_num].employerNum,\n                templateReportArray[employerReportArray[_num].templateReportNum].reportTitle,\n                employerReportArray[_num].isApprove,\n                depNum,\n                empNum,\n                isVer,\n                reportTime\n            );\n    }\n    \n    /*function GetMessageFromDepartmentNumReportNum(\n    uint _reportNum, \n    uint _departmentNum) returns (string reason){\n        return(employerReportArray[_reportNum].departmentNum_resonForDeny[_departmentNum]);\n    } */\n\n    function GetTemplateReportArraySize() returns(\n        uint[]\n        ){\n            uint[] arr;\n            arr.push(templateReportArray.length);\n            return arr;\n    }\n\n    function GetTemplateReportFromNum(uint _num) returns (\n        string reportTitle,\n        uint[],\n        uint[],\n        uint){\n            return(\n                templateReportArray[_num].reportTitle,\n                templateReportNum_departmentNum[_num],\n                templateReportNum_postNum[_num],\n                templateReportArray[_num].templateReportNum);\n    }\n\n    function UpdateStatusReprot(uint _num, bool newStatus) returns (\n        bool){\n            employerReportArray[_num].isApprove = newStatus;\n            return true;\n    }\n    \n    //   \n    /*/function ApprovedReport(uint _reportNum) returns(\n        uint mistakeNum){\n\n            uint templateReport = employerReportArray[_reportNum].templateReportNum;\n            \n            var (employerDepartmentID, employerPostID) = GetEmployerWorkplaceFromAddr(msg.sender);\n            bool depFlag = false;\n            bool postFlag = false;\n            for (uint i = 0; i < templateReportNum_departmentNum[templateReport].length; i++){\n                if(employerDepartmentID == templateReportNum_departmentNum[templateReport][i]){\n                    depFlag = true;\n                }else{\n                    return 1;\n                }\n            }\n            for (i = 0; i < templateReportNum_postNum[templateReport].length; i++){\n                if (employerPostID == templateReportNum_postNum[templateReport][i]){\n                    postFlag = true;\n                }else{\n                    return 1;\n                }\n            }\n\n            if(depFlag && postFlag){\n                reportNum_isVer[_reportNum][employerDepartmentID] = IsVerification.ACCEPT;\n                mistakeNum = 0;\n            }else{\n                mistakeNum = 2;\n            }\n            return mistakeNum;\n        }*/\n    }",
  "sourcePath": "/home/user/Documents/WorkFlow/contracts/ReportContract.sol",
  "compiler": {
    "name": "solc",
    "version": "0.4.19+commit.c4cbbb05.Emscripten.clang"
  },
  "schemaVersion": "2.0.0",
  "updatedAt": "2018-04-15T15:55:36.058Z"
}