{
  "contractName": "test",
  "abi": [
    {
      "constant": true,
      "inputs": [
        {
          "name": "",
          "type": "uint256"
        }
      ],
      "name": "fieldList",
      "outputs": [
        {
          "name": "reportNum",
          "type": "uint256"
        },
        {
          "name": "name",
          "type": "string"
        },
        {
          "name": "data",
          "type": "string"
        }
      ],
      "payable": false,
      "stateMutability": "view",
      "type": "function"
    },
    {
      "constant": true,
      "inputs": [
        {
          "name": "_reportNum",
          "type": "uint256"
        },
        {
          "name": "_fieldName",
          "type": "string"
        },
        {
          "name": "_fieldData",
          "type": "string"
        }
      ],
      "name": "SetField",
      "outputs": [
        {
          "name": "",
          "type": "uint256"
        },
        {
          "name": "",
          "type": "string"
        },
        {
          "name": "",
          "type": "string"
        }
      ],
      "payable": false,
      "stateMutability": "view",
      "type": "function"
    },
    {
      "constant": true,
      "inputs": [],
      "name": "GetField",
      "outputs": [
        {
          "name": "",
          "type": "uint256"
        },
        {
          "name": "",
          "type": "string"
        },
        {
          "name": "",
          "type": "string"
        }
      ],
      "payable": false,
      "stateMutability": "view",
      "type": "function"
    }
  ],
  "bytecode": "0x60606040526000600255341561001457600080fd5b610a68806100236000396000f300606060405260043610610057576000357c0100000000000000000000000000000000000000000000000000000000900463ffffffff16806311e1f3441461005c5780637101d63a146101a5578063f7bab1fc1461033a575b600080fd5b341561006757600080fd5b61007d600480803590602001909190505061043b565b6040518084815260200180602001806020018381038352858181546001816001161561010002031660029004815260200191508054600181600116156101000203166002900480156101105780601f106100e557610100808354040283529160200191610110565b820191906000526020600020905b8154815290600101906020018083116100f357829003601f168201915b50508381038252848181546001816001161561010002031660029004815260200191508054600181600116156101000203166002900480156101935780601f1061016857610100808354040283529160200191610193565b820191906000526020600020905b81548152906001019060200180831161017657829003601f168201915b50509550505050505060405180910390f35b34156101b057600080fd5b61024c600480803590602001909190803590602001908201803590602001908080601f0160208091040260200160405190810160405280939291908181526020018383808284378201915050505050509190803590602001908201803590602001908080601f01602080910402602001604051908101604052809392919081815260200183838082843782019150505050505091905050610472565b604051808481526020018060200180602001838103835285818151815260200191508051906020019080838360005b8381101561029657808201518184015260208101905061027b565b50505050905090810190601f1680156102c35780820380516001836020036101000a031916815260200191505b50838103825284818151815260200191508051906020019080838360005b838110156102fc5780820151818401526020810190506102e1565b50505050905090810190601f1680156103295780820380516001836020036101000a031916815260200191505b509550505050505060405180910390f35b341561034557600080fd5b61034d6106c7565b604051808481526020018060200180602001838103835285818151815260200191508051906020019080838360005b8381101561039757808201518184015260208101905061037c565b50505050905090810190601f1680156103c45780820380516001836020036101000a031916815260200191505b50838103825284818151815260200191508051906020019080838360005b838110156103fd5780820151818401526020810190506103e2565b50505050905090810190601f16801561042a5780820380516001836020036101000a031916815260200191505b509550505050505060405180910390f35b60018181548110151561044a57fe5b9060005260206000209060030201600091509050806000015490806001019080600201905083565b600061047c610880565b610484610880565b61048c610894565b606060405190810160405280888152602001878152602001868152509050600180548060010182816104be91906108c2565b916000526020600020906003020160008390919091506000820151816000015560208201518160010190805190602001906104fa9291906108f4565b5060408201518160020190805190602001906105179291906108f4565b505050506001600081548110151561052b57fe5b9060005260206000209060030201600001546001600081548110151561054d57fe5b90600052602060002090600302016001016001600081548110151561056e57fe5b9060005260206000209060030201600201818054600181600116156101000203166002900480601f0160208091040260200160405190810160405280929190818152602001828054600181600116156101000203166002900480156106145780601f106105e957610100808354040283529160200191610614565b820191906000526020600020905b8154815290600101906020018083116105f757829003601f168201915b50505050509150808054600181600116156101000203166002900480601f0160208091040260200160405190810160405280929190818152602001828054600181600116156101000203166002900480156106b05780601f10610685576101008083540402835291602001916106b0565b820191906000526020600020905b81548152906001019060200180831161069357829003601f168201915b505050505090509350935093505093509350939050565b60006106d1610880565b6106d9610880565b600160008154811015156106e957fe5b9060005260206000209060030201600001546001600081548110151561070b57fe5b90600052602060002090600302016001016001600081548110151561072c57fe5b9060005260206000209060030201600201818054600181600116156101000203166002900480601f0160208091040260200160405190810160405280929190818152602001828054600181600116156101000203166002900480156107d25780601f106107a7576101008083540402835291602001916107d2565b820191906000526020600020905b8154815290600101906020018083116107b557829003601f168201915b50505050509150808054600181600116156101000203166002900480601f01602080910402602001604051908101604052809291908181526020018280546001816001161561010002031660029004801561086e5780601f106108435761010080835404028352916020019161086e565b820191906000526020600020905b81548152906001019060200180831161085157829003601f168201915b50505050509050925092509250909192565b602060405190810160405280600081525090565b606060405190810160405280600081526020016108af610974565b81526020016108bc610974565b81525090565b8154818355818115116108ef576003028160030283600052602060002091820191016108ee9190610988565b5b505050565b828054600181600116156101000203166002900490600052602060002090601f016020900481019282601f1061093557805160ff1916838001178555610963565b82800160010185558215610963579182015b82811115610962578251825591602001919060010190610947565b5b50905061097091906109cf565b5090565b602060405190810160405280600081525090565b6109cc91905b808211156109c8576000808201600090556001820160006109af91906109f4565b6002820160006109bf91906109f4565b5060030161098e565b5090565b90565b6109f191905b808211156109ed5760008160009055506001016109d5565b5090565b90565b50805460018160011615610100020316600290046000825580601f10610a1a5750610a39565b601f016020900490600052602060002090810190610a3891906109cf565b5b505600a165627a7a723058206ba4dddef8434e2fac347721f5357eb90acf94fbd884e605b648c5c46844e0690029",
  "source": "pragma solidity ^0.4.18;\n\ncontract test {\n    mapping (uint => uint[]) reportNum_reportFieldNum;\n    \n    struct Field{\n        uint reportNum;\n        string name;\n        string data;\n    }\n\n    Field[] public fieldList;\n    \n    uint fieldNumber = 0;\n    \n    function SetField(\n        uint _reportNum, \n        string _fieldName, \n        string _fieldData) constant returns(\n            uint,\n            string,\n            string){\n        Field memory newField = Field({\n            reportNum: _reportNum,\n            name: _fieldName,\n            data: _fieldData\n        });\n        fieldList.push(newField);\n        return( fieldList[0].reportNum,\n                fieldList[0].name,\n                fieldList[0].data);\n    }\n    \n    function GetField() constant returns(\n        uint,\n        string,\n        string){\n            return( fieldList[0].reportNum,\n                    fieldList[0].name,\n                    fieldList[0].data);\n        }\n}",
  "sourcePath": "/home/user/Documents/WorkFlow/contracts/test.sol",
  "compiler": {
    "name": "solc",
    "version": "0.4.19+commit.c4cbbb05.Emscripten.clang"
  },
  "schemaVersion": "2.0.0",
  "updatedAt": "2018-04-19T20:40:13.923Z"
}